{
  "contractName": "ItemList",
  "abi": [
    {
      "inputs": [],
      "payable": false,
      "stateMutability": "nonpayable",
      "type": "constructor"
    },
    {
      "constant": true,
      "inputs": [],
      "name": "itemCount",
      "outputs": [
        {
          "internalType": "uint256",
          "name": "",
          "type": "uint256"
        }
      ],
      "payable": false,
      "stateMutability": "view",
      "type": "function"
    },
    {
      "constant": false,
      "inputs": [
        {
          "internalType": "string",
          "name": "_proofdocument",
          "type": "string"
        }
      ],
      "name": "createItem",
      "outputs": [],
      "payable": false,
      "stateMutability": "nonpayable",
      "type": "function"
    },
    {
      "constant": true,
      "inputs": [],
      "name": "getItems",
      "outputs": [
        {
          "components": [
            {
              "internalType": "uint256",
              "name": "id",
              "type": "uint256"
            },
            {
              "internalType": "string",
              "name": "proofdocument",
              "type": "string"
            }
          ],
          "internalType": "struct ItemList.Item[]",
          "name": "",
          "type": "tuple[]"
        }
      ],
      "payable": false,
      "stateMutability": "view",
      "type": "function"
    }
  ],
  "bytecode": "0x60806040526000805534801561001457600080fd5b50610613806100246000396000f3fe608060405234801561001057600080fd5b50600436106100415760003560e01c80633d54eebb14610046578063410d59cc146100625780636bfb0d0114610080575b600080fd5b610060600480360361005b919081019061032a565b61009e565b005b61006a610120565b6040516100779190610488565b60405180910390f35b61008861022b565b60405161009591906104aa565b60405180910390f35b60008081548092919060010191905055506001604051806040016040528060005481526020018381525090806001815401808255809150509060018203906000526020600020906002020160009091929091909150600082015181600001556020820151816001019080519060200190610119929190610231565b5050505050565b60606001805480602002602001604051908101604052809291908181526020016000905b82821015610222578382906000526020600020906002020160405180604001604052908160008201548152602001600182018054600181600116156101000203166002900480601f01602080910402602001604051908101604052809291908181526020018280546001816001161561010002031660029004801561020a5780601f106101df5761010080835404028352916020019161020a565b820191906000526020600020905b8154815290600101906020018083116101ed57829003601f168201915b50505050508152505081526020019060010190610144565b50505050905090565b60005481565b828054600181600116156101000203166002900490600052602060002090601f016020900481019282601f1061027257805160ff19168380011785556102a0565b828001600101855582156102a0579182015b8281111561029f578251825591602001919060010190610284565b5b5090506102ad91906102b1565b5090565b6102d391905b808211156102cf5760008160009055506001016102b7565b5090565b90565b600082601f8301126102e757600080fd5b81356102fa6102f5826104f2565b6104c5565b9150808252602083016020830185838301111561031657600080fd5b61032183828461057d565b50505092915050565b60006020828403121561033c57600080fd5b600082013567ffffffffffffffff81111561035657600080fd5b610362848285016102d6565b91505092915050565b6000610377838361042d565b905092915050565b600061038a8261052e565b6103948185610551565b9350836020820285016103a68561051e565b8060005b858110156103e257848403895281516103c3858261036b565b94506103ce83610544565b925060208a019950506001810190506103aa565b50829750879550505050505092915050565b60006103ff82610539565b6104098185610562565b935061041981856020860161058c565b610422816105bf565b840191505092915050565b6000604083016000830151610445600086018261046a565b506020830151848203602086015261045d82826103f4565b9150508091505092915050565b61047381610573565b82525050565b61048281610573565b82525050565b600060208201905081810360008301526104a2818461037f565b905092915050565b60006020820190506104bf6000830184610479565b92915050565b6000604051905081810181811067ffffffffffffffff821117156104e857600080fd5b8060405250919050565b600067ffffffffffffffff82111561050957600080fd5b601f19601f8301169050602081019050919050565b6000819050602082019050919050565b600081519050919050565b600081519050919050565b6000602082019050919050565b600082825260208201905092915050565b600082825260208201905092915050565b6000819050919050565b82818337600083830152505050565b60005b838110156105aa57808201518184015260208101905061058f565b838111156105b9576000848401525b50505050565b6000601f19601f830116905091905056fea365627a7a723158200a518365425bb5d33d0ec920fb43e9eef32248a725ff44245a09428f1fec0c516c6578706572696d656e74616cf564736f6c63430005100040",
  "source": "pragma solidity ^0.5.0;\npragma experimental ABIEncoderV2;\n\ncontract ItemList {\n    uint public itemCount = 0;\n\n    struct Item {\n        uint id;\n        string proofdocument;\n    }\n    Item[] items;\n\n    constructor() public {}\n\n    function createItem(string memory _proofdocument) public {\n        itemCount++;\n        items.push(Item(itemCount, _proofdocument));\n    }\n\n    function getItems() external view returns(Item[] memory) {\n        return items;\n    }\n}",
  "sourcePath": "C:\\Users\\iRipple\\Desktop\\felix files\\clone insta\\src\\contracts\\Lixtagram.sol",
  "compiler": {
    "name": "solc",
    "version": "0.5.16+commit.9c3226ce.Emscripten.clang"
  },
  "schemaVersion": "3.4.6",
  "updatedAt": "2022-03-27T04:47:25.168Z",
  "devdoc": {
    "methods": {}
  },
  "userdoc": {
    "methods": {}
  }
}