{
  "contractName": "Lixtagram",
  "abi": [
    {
      "inputs": [],
      "payable": false,
      "stateMutability": "nonpayable",
      "type": "constructor"
    },
    {
      "constant": true,
      "inputs": [],
      "name": "allPostCount",
      "outputs": [
        {
          "internalType": "uint256",
          "name": "",
          "type": "uint256"
        }
      ],
      "payable": false,
      "stateMutability": "view",
      "type": "function"
    },
    {
      "constant": true,
      "inputs": [],
      "name": "chatHash",
      "outputs": [
        {
          "internalType": "string",
          "name": "",
          "type": "string"
        }
      ],
      "payable": false,
      "stateMutability": "view",
      "type": "function"
    },
    {
      "constant": true,
      "inputs": [],
      "name": "manager",
      "outputs": [
        {
          "internalType": "address",
          "name": "",
          "type": "address"
        }
      ],
      "payable": false,
      "stateMutability": "view",
      "type": "function"
    },
    {
      "constant": true,
      "inputs": [],
      "name": "name",
      "outputs": [
        {
          "internalType": "string",
          "name": "",
          "type": "string"
        }
      ],
      "payable": false,
      "stateMutability": "view",
      "type": "function"
    },
    {
      "constant": true,
      "inputs": [],
      "name": "userCount",
      "outputs": [
        {
          "internalType": "uint256",
          "name": "",
          "type": "uint256"
        }
      ],
      "payable": false,
      "stateMutability": "view",
      "type": "function"
    },
    {
      "constant": false,
      "inputs": [
        {
          "internalType": "string",
          "name": "description",
          "type": "string"
        },
        {
          "internalType": "string",
          "name": "imgIpfsHash",
          "type": "string"
        }
      ],
      "name": "createPost",
      "outputs": [],
      "payable": true,
      "stateMutability": "payable",
      "type": "function"
    },
    {
      "constant": false,
      "inputs": [
        {
          "internalType": "string",
          "name": "_name",
          "type": "string"
        }
      ],
      "name": "signUp",
      "outputs": [],
      "payable": true,
      "stateMutability": "payable",
      "type": "function"
    },
    {
      "constant": true,
      "inputs": [
        {
          "internalType": "address",
          "name": "user",
          "type": "address"
        },
        {
          "internalType": "uint256",
          "name": "_id",
          "type": "uint256"
        }
      ],
      "name": "isLiker",
      "outputs": [
        {
          "internalType": "bool",
          "name": "",
          "type": "bool"
        }
      ],
      "payable": false,
      "stateMutability": "view",
      "type": "function"
    },
    {
      "constant": true,
      "inputs": [
        {
          "internalType": "address",
          "name": "user",
          "type": "address"
        },
        {
          "internalType": "address",
          "name": "owner",
          "type": "address"
        }
      ],
      "name": "isFollower",
      "outputs": [
        {
          "internalType": "bool",
          "name": "",
          "type": "bool"
        }
      ],
      "payable": false,
      "stateMutability": "view",
      "type": "function"
    },
    {
      "constant": false,
      "inputs": [
        {
          "internalType": "address",
          "name": "adr",
          "type": "address"
        }
      ],
      "name": "followUser",
      "outputs": [],
      "payable": true,
      "stateMutability": "payable",
      "type": "function"
    },
    {
      "constant": false,
      "inputs": [
        {
          "internalType": "uint256",
          "name": "_id",
          "type": "uint256"
        }
      ],
      "name": "likePost",
      "outputs": [],
      "payable": true,
      "stateMutability": "payable",
      "type": "function"
    },
    {
      "constant": true,
      "inputs": [
        {
          "internalType": "address",
          "name": "adr",
          "type": "address"
        }
      ],
      "name": "getUserPublicPost",
      "outputs": [
        {
          "components": [
            {
              "internalType": "uint256",
              "name": "id",
              "type": "uint256"
            },
            {
              "internalType": "string",
              "name": "imgIpfsHash",
              "type": "string"
            },
            {
              "internalType": "uint256",
              "name": "likes",
              "type": "uint256"
            },
            {
              "internalType": "address",
              "name": "owner",
              "type": "address"
            },
            {
              "internalType": "uint256",
              "name": "timestamp",
              "type": "uint256"
            },
            {
              "internalType": "bool",
              "name": "isPublic",
              "type": "bool"
            }
          ],
          "internalType": "struct Lixtagram.Post[]",
          "name": "",
          "type": "tuple[]"
        }
      ],
      "payable": false,
      "stateMutability": "view",
      "type": "function"
    },
    {
      "constant": true,
      "inputs": [
        {
          "internalType": "address",
          "name": "adr",
          "type": "address"
        }
      ],
      "name": "getUserPrivatePost",
      "outputs": [
        {
          "components": [
            {
              "internalType": "uint256",
              "name": "id",
              "type": "uint256"
            },
            {
              "internalType": "string",
              "name": "imgIpfsHash",
              "type": "string"
            },
            {
              "internalType": "uint256",
              "name": "likes",
              "type": "uint256"
            },
            {
              "internalType": "address",
              "name": "owner",
              "type": "address"
            },
            {
              "internalType": "uint256",
              "name": "timestamp",
              "type": "uint256"
            },
            {
              "internalType": "bool",
              "name": "isPublic",
              "type": "bool"
            }
          ],
          "internalType": "struct Lixtagram.Post[]",
          "name": "",
          "type": "tuple[]"
        }
      ],
      "payable": false,
      "stateMutability": "view",
      "type": "function"
    },
    {
      "constant": true,
      "inputs": [],
      "name": "getViewPost",
      "outputs": [
        {
          "components": [
            {
              "internalType": "uint256",
              "name": "id",
              "type": "uint256"
            },
            {
              "internalType": "string",
              "name": "ownerName",
              "type": "string"
            },
            {
              "internalType": "string",
              "name": "imgIpfsHash",
              "type": "string"
            },
            {
              "internalType": "uint256",
              "name": "likes",
              "type": "uint256"
            },
            {
              "internalType": "address",
              "name": "owner",
              "type": "address"
            },
            {
              "internalType": "uint256",
              "name": "timestamp",
              "type": "uint256"
            },
            {
              "internalType": "bool",
              "name": "isPublic",
              "type": "bool"
            },
            {
              "components": [
                {
                  "internalType": "address",
                  "name": "adr",
                  "type": "address"
                },
                {
                  "internalType": "string",
                  "name": "adrName",
                  "type": "string"
                },
                {
                  "internalType": "string",
                  "name": "comment",
                  "type": "string"
                },
                {
                  "internalType": "uint256",
                  "name": "time",
                  "type": "uint256"
                }
              ],
              "internalType": "struct Lixtagram.FilterComments[]",
              "name": "comments",
              "type": "tuple[]"
            },
            {
              "components": [
                {
                  "internalType": "address",
                  "name": "adr",
                  "type": "address"
                },
                {
                  "internalType": "string",
                  "name": "adrName",
                  "type": "string"
                },
                {
                  "internalType": "uint256",
                  "name": "time",
                  "type": "uint256"
                }
              ],
              "internalType": "struct Lixtagram.FilterLikers[]",
              "name": "likers",
              "type": "tuple[]"
            }
          ],
          "internalType": "struct Lixtagram.ViewPost[]",
          "name": "",
          "type": "tuple[]"
        }
      ],
      "payable": false,
      "stateMutability": "view",
      "type": "function"
    },
    {
      "constant": true,
      "inputs": [
        {
          "internalType": "address",
          "name": "adr",
          "type": "address"
        }
      ],
      "name": "getFollowers",
      "outputs": [
        {
          "components": [
            {
              "internalType": "address",
              "name": "follower",
              "type": "address"
            },
            {
              "internalType": "uint256",
              "name": "time",
              "type": "uint256"
            }
          ],
          "internalType": "struct Lixtagram.Followers[]",
          "name": "",
          "type": "tuple[]"
        }
      ],
      "payable": false,
      "stateMutability": "view",
      "type": "function"
    },
    {
      "constant": true,
      "inputs": [
        {
          "internalType": "address",
          "name": "adr",
          "type": "address"
        }
      ],
      "name": "getNumberOffollowwers",
      "outputs": [
        {
          "internalType": "uint256",
          "name": "",
          "type": "uint256"
        }
      ],
      "payable": false,
      "stateMutability": "view",
      "type": "function"
    },
    {
      "constant": true,
      "inputs": [],
      "name": "getPostsCount",
      "outputs": [
        {
          "internalType": "uint256",
          "name": "",
          "type": "uint256"
        }
      ],
      "payable": false,
      "stateMutability": "view",
      "type": "function"
    },
    {
      "constant": false,
      "inputs": [
        {
          "internalType": "uint256",
          "name": "id",
          "type": "uint256"
        }
      ],
      "name": "deletePost",
      "outputs": [],
      "payable": false,
      "stateMutability": "nonpayable",
      "type": "function"
    },
    {
      "constant": true,
      "inputs": [
        {
          "internalType": "address",
          "name": "adr",
          "type": "address"
        }
      ],
      "name": "getFollowedAndFollowersCount",
      "outputs": [
        {
          "internalType": "uint256",
          "name": "",
          "type": "uint256"
        },
        {
          "internalType": "uint256",
          "name": "",
          "type": "uint256"
        }
      ],
      "payable": false,
      "stateMutability": "view",
      "type": "function"
    },
    {
      "constant": true,
      "inputs": [
        {
          "internalType": "address",
          "name": "adr",
          "type": "address"
        }
      ],
      "name": "getFollowedAndFollowers",
      "outputs": [
        {
          "components": [
            {
              "internalType": "address",
              "name": "follower",
              "type": "address"
            },
            {
              "internalType": "uint256",
              "name": "time",
              "type": "uint256"
            }
          ],
          "internalType": "struct Lixtagram.Followers[]",
          "name": "",
          "type": "tuple[]"
        },
        {
          "components": [
            {
              "internalType": "address",
              "name": "followed",
              "type": "address"
            },
            {
              "internalType": "uint256",
              "name": "time",
              "type": "uint256"
            }
          ],
          "internalType": "struct Lixtagram.Followings[]",
          "name": "",
          "type": "tuple[]"
        }
      ],
      "payable": false,
      "stateMutability": "view",
      "type": "function"
    },
    {
      "constant": true,
      "inputs": [
        {
          "internalType": "address",
          "name": "adr",
          "type": "address"
        }
      ],
      "name": "getUserDetails",
      "outputs": [
        {
          "internalType": "string",
          "name": "",
          "type": "string"
        },
        {
          "internalType": "uint256",
          "name": "",
          "type": "uint256"
        },
        {
          "internalType": "uint256",
          "name": "",
          "type": "uint256"
        },
        {
          "internalType": "uint256",
          "name": "",
          "type": "uint256"
        },
        {
          "internalType": "address",
          "name": "",
          "type": "address"
        }
      ],
      "payable": false,
      "stateMutability": "view",
      "type": "function"
    },
    {
      "constant": false,
      "inputs": [
        {
          "internalType": "uint256",
          "name": "ntokens",
          "type": "uint256"
        },
        {
          "internalType": "uint256",
          "name": "valueWie",
          "type": "uint256"
        }
      ],
      "name": "redeemNTokens",
      "outputs": [],
      "payable": false,
      "stateMutability": "nonpayable",
      "type": "function"
    },
    {
      "constant": false,
      "inputs": [
        {
          "internalType": "string",
          "name": "chash",
          "type": "string"
        }
      ],
      "name": "setChatHash",
      "outputs": [],
      "payable": false,
      "stateMutability": "nonpayable",
      "type": "function"
    },
    {
      "constant": true,
      "inputs": [],
      "name": "getContractBalance",
      "outputs": [
        {
          "internalType": "uint256",
          "name": "",
          "type": "uint256"
        }
      ],
      "payable": false,
      "stateMutability": "view",
      "type": "function"
    }
  ],
  "bytecode": "0x60806040523480156200001157600080fd5b506040518060400160405280600981526020017f4c697874616772616d0000000000000000000000000000000000000000000000815250600b90805190602001906200005f929190620000b7565b5033600c60006101000a81548173ffffffffffffffffffffffffffffffffffffffff021916908373ffffffffffffffffffffffffffffffffffffffff1602179055506000600d819055506000600e8190555062000166565b828054600181600116156101000203166002900490600052602060002090601f016020900481019282601f10620000fa57805160ff19168380011785556200012b565b828001600101855582156200012b579182015b828111156200012a5782518255916020019190600101906200010d565b5b5090506200013a91906200013e565b5090565b6200016391905b808211156200015f57600081600090555060010162000145565b5090565b90565b6149be80620001766000396000f3fe60806040526004361061014b5760003560e01c80636f9fb98a116100b6578063c2fe20221161006f578063c2fe20221461045e578063cc3d967b1461049b578063e5fe9477146104dc578063ed05246314610519578063f269d06914610556578063ff7ae9a0146105935761014b565b80636f9fb98a1461038b578063725009d3146103b657806383624882146103d25780638c39e550146103fd578063a70806f714610426578063adcfb4fc146104425761014b565b80633437d4d9116101085780633437d4d914610273578063392338f51461029e57806347c654f3146102ba578063481c6a75146102f857806366778e9414610323578063690eea1f146103605761014b565b80630589cded1461015057806306fdde031461018d57806307973ccf146101b8578063094cd5ee146101e357806320fc02051461020c5780632deb661a14610235575b600080fd5b34801561015c57600080fd5b50610177600480360361017291908101906138a5565b6105be565b604051610184919061463a565b60405180910390f35b34801561019957600080fd5b506101a261060a565b6040516101af91906144be565b60405180910390f35b3480156101c457600080fd5b506101cd6106a8565b6040516101da919061463a565b60405180910390f35b3480156101ef57600080fd5b5061020a600480360361020591908101906139f3565b6106ae565b005b34801561021857600080fd5b50610233600480360361022e9190810190613946565b6108f1565b005b34801561024157600080fd5b5061025c600480360361025791908101906138a5565b61090b565b60405161026a929190614655565b60405180910390f35b34801561027f57600080fd5b506102886109a9565b60405161029591906144be565b60405180910390f35b6102b860048036036102b39190810190613987565b610a47565b005b3480156102c657600080fd5b506102e160048036036102dc91908101906138a5565b610f05565b6040516102ef929190614428565b60405180910390f35b34801561030457600080fd5b5061030d611106565b60405161031a91906143eb565b60405180910390f35b34801561032f57600080fd5b5061034a6004803603610345919081019061390a565b61112c565b60405161035791906144a3565b60405180910390f35b34801561036c57600080fd5b506103756111f7565b604051610382919061463a565b60405180910390f35b34801561039757600080fd5b506103a06111fd565b6040516103ad919061463a565b60405180910390f35b6103d060048036036103cb91908101906139f3565b611205565b005b3480156103de57600080fd5b506103e76115fa565b6040516103f4919061463a565b60405180910390f35b34801561040957600080fd5b50610424600480360361041f9190810190613a1c565b611607565b005b610440600480360361043b91908101906138a5565b611825565b005b61045c60048036036104579190810190613946565b611ddf565b005b34801561046a57600080fd5b50610485600480360361048091908101906138a5565b612144565b6040516104929190614406565b60405180910390f35b3480156104a757600080fd5b506104c260048036036104bd91908101906138a5565b6122cc565b6040516104d39594939291906144e0565b60405180910390f35b3480156104e857600080fd5b5061050360048036036104fe91908101906138ce565b61248c565b60405161051091906144a3565b60405180910390f35b34801561052557600080fd5b50610540600480360361053b91908101906138a5565b6125af565b60405161054d919061445f565b60405180910390f35b34801561056257600080fd5b5061057d600480360361057891908101906138a5565b61282b565b60405161058a919061445f565b60405180910390f35b34801561059f57600080fd5b506105a8612aa7565b6040516105b59190614481565b60405180910390f35b6000600160008373ffffffffffffffffffffffffffffffffffffffff1673ffffffffffffffffffffffffffffffffffffffff168152602001908152602001600020805490509050919050565b600b8054600181600116156101000203166002900480601f0160208091040260200160405190810160405280929190818152602001828054600181600116156101000203166002900480156106a05780601f10610675576101008083540402835291602001916106a0565b820191906000526020600020905b81548152906001019060200180831161068357829003601f168201915b505050505081565b600d5481565b60008090505b600a805490508110156108265781600a83815481106106cf57fe5b9060005260206000209060060201600001541415610819573373ffffffffffffffffffffffffffffffffffffffff16600a828154811061070b57fe5b906000526020600020906006020160030160009054906101000a900473ffffffffffffffffffffffffffffffffffffffff1673ffffffffffffffffffffffffffffffffffffffff1614610793576040517f08c379a000000000000000000000000000000000000000000000000000000000815260040161078a906145da565b60405180910390fd5b600a81815481106107a057fe5b90600052602060002090600602016000808201600090556001820160006107c79190613462565b60028201600090556003820160006101000a81549073ffffffffffffffffffffffffffffffffffffffff021916905560048201600090556005820160006101000a81549060ff02191690555050610826565b80806001019150506106b4565b5060008090505b6009805490508110156108ed573373ffffffffffffffffffffffffffffffffffffffff166009828154811061085e57fe5b906000526020600020906006020160020160009054906101000a900473ffffffffffffffffffffffffffffffffffffffff1673ffffffffffffffffffffffffffffffffffffffff1614156108e057600981815481106108b957fe5b906000526020600020906006020160040160008154809291906001900391905055506108ed565b808060010191505061082d565b5050565b80600f90805190602001906109079291906134aa565b5050565b6000806000600160008573ffffffffffffffffffffffffffffffffffffffff1673ffffffffffffffffffffffffffffffffffffffff1681526020019081526020016000208054905090506000600260008673ffffffffffffffffffffffffffffffffffffffff1673ffffffffffffffffffffffffffffffffffffffff1681526020019081526020016000208054905090508181935093505050915091565b600f8054600181600116156101000203166002900480601f016020809104026020016040519081016040528092919081815260200182805460018160011615610100020316600290048015610a3f5780601f10610a1457610100808354040283529160200191610a3f565b820191906000526020600020905b815481529060010190602001808311610a2257829003601f168201915b505050505081565b600e600081548092919060010191905055506000600a805490501415610a70576000600e819055505b6000423344604051602001610a87939291906143ae565b6040516020818303038152906040528051906020012060001c9050610aaa61352a565b6040518060c00160405280838152602001848152602001600081526020013373ffffffffffffffffffffffffffffffffffffffff168152602001428152602001600115158152509050600a8190806001815401808255809150509060018203906000526020600020906006020160009091929091909150600082015181600001556020820151816001019080519060200190610b47929190613578565b506040820151816002015560608201518160030160006101000a81548173ffffffffffffffffffffffffffffffffffffffff021916908373ffffffffffffffffffffffffffffffffffffffff1602179055506080820151816004015560a08201518160050160006101000a81548160ff0219169083151502179055505050506003600083815260200190815260200160002060405180604001604052803373ffffffffffffffffffffffffffffffffffffffff168152602001428152509080600181540180825580915050906001820390600052602060002090600202016000909192909190915060008201518160000160006101000a81548173ffffffffffffffffffffffffffffffffffffffff021916908373ffffffffffffffffffffffffffffffffffffffff160217905550602082015181600101555050506004600083815260200190815260200160002060405180606001604052803373ffffffffffffffffffffffffffffffffffffffff168152602001868152602001428152509080600181540180825580915050906001820390600052602060002090600302016000909192909190915060008201518160000160006101000a81548173ffffffffffffffffffffffffffffffffffffffff021916908373ffffffffffffffffffffffffffffffffffffffff1602179055506020820151816001019080519060200190610d55929190613578565b5060408201518160020155505050600560003373ffffffffffffffffffffffffffffffffffffffff1673ffffffffffffffffffffffffffffffffffffffff168152602001908152602001600020600e549080600181540180825580915050906001820390600052602060002001600090919290919091505550600760003373ffffffffffffffffffffffffffffffffffffffff1673ffffffffffffffffffffffffffffffffffffffff168152602001908152602001600020600e54908060018154018082558091505090600182039060005260206000200160009091929091909150555060008090505b600980549050811015610efe573373ffffffffffffffffffffffffffffffffffffffff1660098281548110610e7057fe5b906000526020600020906006020160020160009054906101000a900473ffffffffffffffffffffffffffffffffffffffff1673ffffffffffffffffffffffffffffffffffffffff161415610ef15760098181548110610ecb57fe5b906000526020600020906006020160040160008154809291906001019190505550610efe565b8080600101915050610e3f565b5050505050565b606080606080600160008673ffffffffffffffffffffffffffffffffffffffff1673ffffffffffffffffffffffffffffffffffffffff168152602001908152602001600020805480602002602001604051908101604052809291908181526020016000905b82821015610ffc57838290600052602060002090600202016040518060400160405290816000820160009054906101000a900473ffffffffffffffffffffffffffffffffffffffff1673ffffffffffffffffffffffffffffffffffffffff1673ffffffffffffffffffffffffffffffffffffffff16815260200160018201548152505081526020019060010190610f6a565b505050509150600260008673ffffffffffffffffffffffffffffffffffffffff1673ffffffffffffffffffffffffffffffffffffffff168152602001908152602001600020805480602002602001604051908101604052809291908181526020016000905b828210156110f357838290600052602060002090600202016040518060400160405290816000820160009054906101000a900473ffffffffffffffffffffffffffffffffffffffff1673ffffffffffffffffffffffffffffffffffffffff1673ffffffffffffffffffffffffffffffffffffffff16815260200160018201548152505081526020019060010190611061565b5050505090508181935093505050915091565b600c60009054906101000a900473ffffffffffffffffffffffffffffffffffffffff1681565b60008060008090505b60036000858152602001908152602001600020805490508110156111ec5760036000858152602001908152602001600020818154811061117157fe5b906000526020600020906002020160000160009054906101000a900473ffffffffffffffffffffffffffffffffffffffff1673ffffffffffffffffffffffffffffffffffffffff168573ffffffffffffffffffffffffffffffffffffffff1614156111df57600191506111ec565b8080600101915050611135565b508091505092915050565b600e5481565b600047905090565b60006003600083815260200190815260200160002060008154811061122657fe5b906000526020600020906002020160000160009054906101000a900473ffffffffffffffffffffffffffffffffffffffff1690508073ffffffffffffffffffffffffffffffffffffffff163373ffffffffffffffffffffffffffffffffffffffff1614156112c9576040517f08c379a00000000000000000000000000000000000000000000000000000000081526004016112c09061457a565b60405180910390fd5b60006003600084815260200190815260200160002080549050905060008090505b818110156114455760036000858152602001908152602001600020818154811061131057fe5b906000526020600020906002020160000160009054906101000a900473ffffffffffffffffffffffffffffffffffffffff1673ffffffffffffffffffffffffffffffffffffffff163373ffffffffffffffffffffffffffffffffffffffff1614156114385760036000858152602001908152602001600020818154811061139357fe5b906000526020600020906002020160000160009054906101000a900473ffffffffffffffffffffffffffffffffffffffff1673ffffffffffffffffffffffffffffffffffffffff163373ffffffffffffffffffffffffffffffffffffffff161415611433576040517f08c379a000000000000000000000000000000000000000000000000000000000815260040161142a9061461a565b60405180910390fd5b611445565b80806001019150506112ea565b506003600084815260200190815260200160002060405180604001604052803373ffffffffffffffffffffffffffffffffffffffff168152602001428152509080600181540180825580915050906001820390600052602060002090600202016000909192909190915060008201518160000160006101000a81548173ffffffffffffffffffffffffffffffffffffffff021916908373ffffffffffffffffffffffffffffffffffffffff1602179055506020820151816001015550505060008090505b6009805490508110156115f4578273ffffffffffffffffffffffffffffffffffffffff166009828154811061153a57fe5b906000526020600020906006020160020160009054906101000a900473ffffffffffffffffffffffffffffffffffffffff1673ffffffffffffffffffffffffffffffffffffffff1614156115e75760016009828154811061159757fe5b9060005260206000209060060201600301600082825401925050819055506001600982815481106115c457fe5b9060005260206000209060060201600501600082825401925050819055506115f4565b8080600101915050611509565b50505050565b6000600a80549050905090565b600066038d7ea4c6800090506000838202905060148410158061162b575060008414155b8061163557508281145b611674576040517f08c379a000000000000000000000000000000000000000000000000000000000815260040161166b906145fa565b60405180910390fd5b60008090505b60098054905081101561181e573373ffffffffffffffffffffffffffffffffffffffff16600982815481106116ab57fe5b906000526020600020906006020160020160009054906101000a900473ffffffffffffffffffffffffffffffffffffffff1673ffffffffffffffffffffffffffffffffffffffff1614156118115760146009828154811061170857fe5b9060005260206000209060060201600501541015806117445750846009828154811061173057fe5b906000526020600020906006020160050154115b611783576040517f08c379a000000000000000000000000000000000000000000000000000000000815260040161177a9061453a565b60405180910390fd5b3373ffffffffffffffffffffffffffffffffffffffff1673ffffffffffffffffffffffffffffffffffffffff166108fc859081150290604051600060405180830381858888f193505050501580156117df573d6000803e3d6000fd5b5084600982815481106117ee57fe5b90600052602060002090600602016005016000828254039250508190555061181e565b808060010191505061167a565b5050505050565b6000600160008373ffffffffffffffffffffffffffffffffffffffff1673ffffffffffffffffffffffffffffffffffffffff16815260200190815260200160002060008154811061187257fe5b906000526020600020906002020160000160009054906101000a900473ffffffffffffffffffffffffffffffffffffffff1690506000600160008473ffffffffffffffffffffffffffffffffffffffff1673ffffffffffffffffffffffffffffffffffffffff1681526020019081526020016000208054905090508273ffffffffffffffffffffffffffffffffffffffff163373ffffffffffffffffffffffffffffffffffffffff16141561195c576040517f08c379a00000000000000000000000000000000000000000000000000000000081526004016119539061459a565b60405180910390fd5b60008090505b81811015611b1557600160008573ffffffffffffffffffffffffffffffffffffffff1673ffffffffffffffffffffffffffffffffffffffff16815260200190815260200160002081815481106119b457fe5b906000526020600020906002020160000160009054906101000a900473ffffffffffffffffffffffffffffffffffffffff1673ffffffffffffffffffffffffffffffffffffffff163373ffffffffffffffffffffffffffffffffffffffff161415611b0857600160008573ffffffffffffffffffffffffffffffffffffffff1673ffffffffffffffffffffffffffffffffffffffff1681526020019081526020016000208181548110611a6357fe5b906000526020600020906002020160000160009054906101000a900473ffffffffffffffffffffffffffffffffffffffff1673ffffffffffffffffffffffffffffffffffffffff163373ffffffffffffffffffffffffffffffffffffffff161415611b03576040517f08c379a0000000000000000000000000000000000000000000000000000000008152600401611afa9061455a565b60405180910390fd5b611b15565b8080600101915050611962565b50600160008473ffffffffffffffffffffffffffffffffffffffff1673ffffffffffffffffffffffffffffffffffffffff16815260200190815260200160002060405180604001604052803373ffffffffffffffffffffffffffffffffffffffff168152602001428152509080600181540180825580915050906001820390600052602060002090600202016000909192909190915060008201518160000160006101000a81548173ffffffffffffffffffffffffffffffffffffffff021916908373ffffffffffffffffffffffffffffffffffffffff16021790555060208201518160010155505050600260003373ffffffffffffffffffffffffffffffffffffffff1673ffffffffffffffffffffffffffffffffffffffff16815260200190815260200160002060405180604001604052808573ffffffffffffffffffffffffffffffffffffffff168152602001428152509080600181540180825580915050906001820390600052602060002090600202016000909192909190915060008201518160000160006101000a81548173ffffffffffffffffffffffffffffffffffffffff021916908373ffffffffffffffffffffffffffffffffffffffff1602179055506020820151816001015550505060008090505b600980549050811015611dd9578273ffffffffffffffffffffffffffffffffffffffff1660098281548110611d1f57fe5b906000526020600020906006020160020160009054906101000a900473ffffffffffffffffffffffffffffffffffffffff1673ffffffffffffffffffffffffffffffffffffffff161415611dcc57600160098281548110611d7c57fe5b906000526020600020906006020160030160008282540192505081905550600160098281548110611da957fe5b906000526020600020906006020160050160008282540192505081905550611dd9565b8080600101915050611cee565b50505050565b6000803373ffffffffffffffffffffffffffffffffffffffff1673ffffffffffffffffffffffffffffffffffffffff16815260200190815260200160002060009054906101000a900460ff1615611e6b576040517f08c379a0000000000000000000000000000000000000000000000000000000008152600401611e62906145ba565b60405180910390fd5b60016000803373ffffffffffffffffffffffffffffffffffffffff1673ffffffffffffffffffffffffffffffffffffffff16815260200190815260200160002060006101000a81548160ff02191690831515021790555080600860003373ffffffffffffffffffffffffffffffffffffffff1673ffffffffffffffffffffffffffffffffffffffff1681526020019081526020016000209080519060200190611f159291906134aa565b50600d60008154809291906001019190505550611f306135f8565b6040518060c001604052808381526020016040518060200160405280600081525081526020013373ffffffffffffffffffffffffffffffffffffffff168152602001600081526020016000815260200160008152509050600981908060018154018082558091505090600182039060005260206000209060060201600090919290919091506000820151816000019080519060200190611fd1929190613578565b506020820151816001019080519060200190611fee929190613578565b5060408201518160020160006101000a81548173ffffffffffffffffffffffffffffffffffffffff021916908373ffffffffffffffffffffffffffffffffffffffff160217905550606082015181600301556080820151816004015560a08201518160050155505050600160003373ffffffffffffffffffffffffffffffffffffffff1673ffffffffffffffffffffffffffffffffffffffff16815260200190815260200160002060405180604001604052803373ffffffffffffffffffffffffffffffffffffffff168152602001428152509080600181540180825580915050906001820390600052602060002090600202016000909192909190915060008201518160000160006101000a81548173ffffffffffffffffffffffffffffffffffffffff021916908373ffffffffffffffffffffffffffffffffffffffff160217905550602082015181600101555050505050565b60606000600160008473ffffffffffffffffffffffffffffffffffffffff1673ffffffffffffffffffffffffffffffffffffffff1681526020019081526020016000208054905090506060816040519080825280602002602001820160405280156121c957816020015b6121b6613644565b8152602001906001900390816121ae5790505b50905060008090505b828110156122c157600160008673ffffffffffffffffffffffffffffffffffffffff1673ffffffffffffffffffffffffffffffffffffffff168152602001908152602001600020818154811061222457fe5b90600052602060002090600202016040518060400160405290816000820160009054906101000a900473ffffffffffffffffffffffffffffffffffffffff1673ffffffffffffffffffffffffffffffffffffffff1673ffffffffffffffffffffffffffffffffffffffff1681526020016001820154815250508282815181106122a957fe5b602002602001018190525080806001019150506121d2565b508092505050919050565b6060600080600080606060008060008060008090505b60098054905081101561246e578b73ffffffffffffffffffffffffffffffffffffffff166009828154811061231357fe5b906000526020600020906006020160020160009054906101000a900473ffffffffffffffffffffffffffffffffffffffff1673ffffffffffffffffffffffffffffffffffffffff1614156124615760006009828154811061237057fe5b90600052602060002090600602019050806000018054600181600116156101000203166002900480601f0160208091040260200160405190810160405280929190818152602001828054600181600116156101000203166002900480156124185780601f106123ed57610100808354040283529160200191612418565b820191906000526020600020905b8154815290600101906020018083116123fb57829003601f168201915b505050505096508060030154955080600401549450806005015493508060020160009054906101000a900473ffffffffffffffffffffffffffffffffffffffff1692505061246e565b80806001019150506122e2565b50848484848499509950995099509950505050505091939590929450565b60008060008090505b600160008573ffffffffffffffffffffffffffffffffffffffff1673ffffffffffffffffffffffffffffffffffffffff168152602001908152602001600020805490508110156125a457600160008573ffffffffffffffffffffffffffffffffffffffff1673ffffffffffffffffffffffffffffffffffffffff168152602001908152602001600020818154811061252957fe5b906000526020600020906002020160000160009054906101000a900473ffffffffffffffffffffffffffffffffffffffff1673ffffffffffffffffffffffffffffffffffffffff168573ffffffffffffffffffffffffffffffffffffffff16141561259757600191506125a4565b8080600101915050612495565b508091505092915050565b60606000600560008473ffffffffffffffffffffffffffffffffffffffff1673ffffffffffffffffffffffffffffffffffffffff168152602001908152602001600020805490509050600060608260405190808252806020026020018201604052801561263657816020015b612623613674565b81526020019060019003908161261b5790505b50905060008090505b8381101561281f57600560008773ffffffffffffffffffffffffffffffffffffffff1673ffffffffffffffffffffffffffffffffffffffff168152602001908152602001600020818154811061269157fe5b906000526020600020015492506000600a84815481106126ad57fe5b90600052602060002090600602019050806040518060c001604052908160008201548152602001600182018054600181600116156101000203166002900480601f01602080910402602001604051908101604052809291908181526020018280546001816001161561010002031660029004801561276c5780601f106127415761010080835404028352916020019161276c565b820191906000526020600020905b81548152906001019060200180831161274f57829003601f168201915b50505050508152602001600282015481526020016003820160009054906101000a900473ffffffffffffffffffffffffffffffffffffffff1673ffffffffffffffffffffffffffffffffffffffff1673ffffffffffffffffffffffffffffffffffffffff168152602001600482015481526020016005820160009054906101000a900460ff16151515158152505083838151811061280657fe5b602002602001018190525050808060010191505061263f565b50809350505050919050565b60606000600660008473ffffffffffffffffffffffffffffffffffffffff1673ffffffffffffffffffffffffffffffffffffffff16815260200190815260200160002080549050905060006060826040519080825280602002602001820160405280156128b257816020015b61289f613674565b8152602001906001900390816128975790505b50905060008090505b83811015612a9b57600660008773ffffffffffffffffffffffffffffffffffffffff1673ffffffffffffffffffffffffffffffffffffffff168152602001908152602001600020818154811061290d57fe5b906000526020600020015492506000600a848154811061292957fe5b90600052602060002090600602019050806040518060c001604052908160008201548152602001600182018054600181600116156101000203166002900480601f0160208091040260200160405190810160405280929190818152602001828054600181600116156101000203166002900480156129e85780601f106129bd576101008083540402835291602001916129e8565b820191906000526020600020905b8154815290600101906020018083116129cb57829003601f168201915b50505050508152602001600282015481526020016003820160009054906101000a900473ffffffffffffffffffffffffffffffffffffffff1673ffffffffffffffffffffffffffffffffffffffff1673ffffffffffffffffffffffffffffffffffffffff168152602001600482015481526020016005820160009054906101000a900460ff161515151581525050838381518110612a8257fe5b60200260200101819052505080806001019150506128bb565b50809350505050919050565b60606000600a805490509050606081604051908082528060200260200182016040528015612aef57816020015b612adc6136c2565b815260200190600190039081612ad45790505b50905060008090505b82811015612dbd576000600a8281548110612b0f57fe5b9060005260206000209060060201905060011515600a8381548110612b3057fe5b906000526020600020906006020160050160009054906101000a900460ff1615151415612daf578060000154838381518110612b6857fe5b60200260200101516000018181525050612ba58160030160009054906101000a900473ffffffffffffffffffffffffffffffffffffffff16612dc6565b838381518110612bb157fe5b602002602001015160200181905250806001018054600181600116156101000203166002900480601f016020809104026020016040519081016040528092919081815260200182805460018160011615610100020316600290048015612c585780601f10612c2d57610100808354040283529160200191612c58565b820191906000526020600020905b815481529060010190602001808311612c3b57829003601f168201915b5050505050838381518110612c6957fe5b6020026020010151604001819052508060020154838381518110612c8957fe5b602002602001015160600181815250508060030160009054906101000a900473ffffffffffffffffffffffffffffffffffffffff16838381518110612cca57fe5b60200260200101516080019073ffffffffffffffffffffffffffffffffffffffff16908173ffffffffffffffffffffffffffffffffffffffff16815250508060040154838381518110612d1957fe5b602002602001015160a00181815250508060050160009054906101000a900460ff16838381518110612d4757fe5b602002602001015160c0019015159081151581525050612d6a8160000154612ea7565b838381518110612d7657fe5b602002602001015160e00181905250612d92816000015461301d565b838381518110612d9e57fe5b602002602001015161010001819052505b508080600101915050612af8565b50809250505090565b6060600860008373ffffffffffffffffffffffffffffffffffffffff1673ffffffffffffffffffffffffffffffffffffffff1681526020019081526020016000208054600181600116156101000203166002900480601f016020809104026020016040519081016040528092919081815260200182805460018160011615610100020316600290048015612e9b5780601f10612e7057610100808354040283529160200191612e9b565b820191906000526020600020905b815481529060010190602001808311612e7e57829003601f168201915b50505050509050919050565b606080612eb383613160565b905060608151604051908082528060200260200182016040528015612ef257816020015b612edf613726565b815260200190600190039081612ed75790505b50905060005b825181101561301257828181518110612f0d57fe5b602002602001015160000151828281518110612f2557fe5b60200260200101516000019073ffffffffffffffffffffffffffffffffffffffff16908173ffffffffffffffffffffffffffffffffffffffff1681525050612f83838281518110612f7257fe5b602002602001015160000151612dc6565b828281518110612f8f57fe5b602002602001015160200181905250828181518110612faa57fe5b602002602001015160200151828281518110612fc257fe5b602002602001015160400181905250828181518110612fdd57fe5b602002602001015160400151828281518110612ff557fe5b602002602001015160600181815250508080600101915050612ef8565b508092505050919050565b60608061302983613332565b90506060815160405190808252806020026020018201604052801561306857816020015b613055613764565b81526020019060019003908161304d5790505b50905060005b82518110156131555782818151811061308357fe5b60200260200101516000015182828151811061309b57fe5b60200260200101516000019073ffffffffffffffffffffffffffffffffffffffff16908173ffffffffffffffffffffffffffffffffffffffff16815250506130f98382815181106130e857fe5b602002602001015160000151612dc6565b82828151811061310557fe5b60200260200101516020018190525082818151811061312057fe5b60200260200101516020015182828151811061313857fe5b60200260200101516040018181525050808060010191505061306e565b508092505050919050565b60606000600460008481526020019081526020016000208054905090506060816040519080825280602002602001820160405280156131b957816020015b6131a661379b565b81526020019060019003908161319e5790505b50905060008090505b82811015613327576004600086815260200190815260200160002081815481106131e857fe5b90600052602060002090600302016040518060600160405290816000820160009054906101000a900473ffffffffffffffffffffffffffffffffffffffff1673ffffffffffffffffffffffffffffffffffffffff1673ffffffffffffffffffffffffffffffffffffffff168152602001600182018054600181600116156101000203166002900480601f0160208091040260200160405190810160405280929190818152602001828054600181600116156101000203166002900480156132f05780601f106132c5576101008083540402835291602001916132f0565b820191906000526020600020905b8154815290600101906020018083116132d357829003601f168201915b5050505050815260200160028201548152505082828151811061330f57fe5b602002602001018190525080806001019150506131c2565b508092505050919050565b606060006003600084815260200190815260200160002080549050905060608160405190808252806020026020018201604052801561338b57816020015b6133786137d2565b8152602001906001900390816133705790505b50905060008090505b82811015613457576003600086815260200190815260200160002081815481106133ba57fe5b90600052602060002090600202016040518060400160405290816000820160009054906101000a900473ffffffffffffffffffffffffffffffffffffffff1673ffffffffffffffffffffffffffffffffffffffff1673ffffffffffffffffffffffffffffffffffffffff16815260200160018201548152505082828151811061343f57fe5b60200260200101819052508080600101915050613394565b508092505050919050565b50805460018160011615610100020316600290046000825580601f1061348857506134a7565b601f0160209004906000526020600020908101906134a69190613802565b5b50565b828054600181600116156101000203166002900490600052602060002090601f016020900481019282601f106134eb57805160ff1916838001178555613519565b82800160010185558215613519579182015b828111156135185782518255916020019190600101906134fd565b5b5090506135269190613802565b5090565b6040518060c00160405280600081526020016060815260200160008152602001600073ffffffffffffffffffffffffffffffffffffffff168152602001600081526020016000151581525090565b828054600181600116156101000203166002900490600052602060002090601f016020900481019282601f106135b957805160ff19168380011785556135e7565b828001600101855582156135e7579182015b828111156135e65782518255916020019190600101906135cb565b5b5090506135f49190613802565b5090565b6040518060c001604052806060815260200160608152602001600073ffffffffffffffffffffffffffffffffffffffff1681526020016000815260200160008152602001600081525090565b6040518060400160405280600073ffffffffffffffffffffffffffffffffffffffff168152602001600081525090565b6040518060c00160405280600081526020016060815260200160008152602001600073ffffffffffffffffffffffffffffffffffffffff168152602001600081526020016000151581525090565b60405180610120016040528060008152602001606081526020016060815260200160008152602001600073ffffffffffffffffffffffffffffffffffffffff1681526020016000815260200160001515815260200160608152602001606081525090565b6040518060800160405280600073ffffffffffffffffffffffffffffffffffffffff1681526020016060815260200160608152602001600081525090565b6040518060600160405280600073ffffffffffffffffffffffffffffffffffffffff16815260200160608152602001600081525090565b6040518060600160405280600073ffffffffffffffffffffffffffffffffffffffff16815260200160608152602001600081525090565b6040518060400160405280600073ffffffffffffffffffffffffffffffffffffffff168152602001600081525090565b61382491905b80821115613820576000816000905550600101613808565b5090565b90565b6000813590506138368161494d565b92915050565b600082601f83011261384d57600080fd5b813561386061385b826146ab565b61467e565b9150808252602083016020830185838301111561387c57600080fd5b6138878382846148bf565b50505092915050565b60008135905061389f81614964565b92915050565b6000602082840312156138b757600080fd5b60006138c584828501613827565b91505092915050565b600080604083850312156138e157600080fd5b60006138ef85828601613827565b925050602061390085828601613827565b9150509250929050565b6000806040838503121561391d57600080fd5b600061392b85828601613827565b925050602061393c85828601613890565b9150509250929050565b60006020828403121561395857600080fd5b600082013567ffffffffffffffff81111561397257600080fd5b61397e8482850161383c565b91505092915050565b6000806040838503121561399a57600080fd5b600083013567ffffffffffffffff8111156139b457600080fd5b6139c08582860161383c565b925050602083013567ffffffffffffffff8111156139dd57600080fd5b6139e98582860161383c565b9150509250929050565b600060208284031215613a0557600080fd5b6000613a1384828501613890565b91505092915050565b60008060408385031215613a2f57600080fd5b6000613a3d85828601613890565b9250506020613a4e85828601613890565b9150509250929050565b6000613a6483836140fe565b905092915050565b6000613a788383614168565b905092915050565b6000613a8c83836141b8565b60408301905092915050565b6000613aa483836141e7565b60408301905092915050565b6000613abc8383614216565b905092915050565b6000613ad0838361429f565b905092915050565b613ae9613ae482614877565b614901565b82525050565b613af881614865565b82525050565b613b0781614865565b82525050565b6000613b1882614737565b613b2281856147dd565b935083602082028501613b34856146d7565b8060005b85811015613b705784840389528151613b518582613a58565b9450613b5c8361478f565b925060208a01995050600181019050613b38565b50829750879550505050505092915050565b6000613b8d82614742565b613b9781856147ee565b935083602082028501613ba9856146e7565b8060005b85811015613be55784840389528151613bc68582613a6c565b9450613bd18361479c565b925060208a01995050600181019050613bad565b50829750879550505050505092915050565b6000613c028261474d565b613c0c81856147ff565b9350613c17836146f7565b8060005b83811015613c48578151613c2f8882613a80565b9750613c3a836147a9565b925050600181019050613c1b565b5085935050505092915050565b6000613c6082614758565b613c6a8185614810565b9350613c7583614707565b8060005b83811015613ca6578151613c8d8882613a98565b9750613c98836147b6565b925050600181019050613c79565b5085935050505092915050565b6000613cbe82614763565b613cc88185614821565b935083602082028501613cda85614717565b8060005b85811015613d165784840389528151613cf78582613ab0565b9450613d02836147c3565b925060208a01995050600181019050613cde565b50829750879550505050505092915050565b6000613d338261476e565b613d3d8185614832565b935083602082028501613d4f85614727565b8060005b85811015613d8b5784840389528151613d6c8582613ac4565b9450613d77836147d0565b925060208a01995050600181019050613d53565b50829750879550505050505092915050565b613da681614889565b82525050565b613db581614889565b82525050565b6000613dc682614784565b613dd08185614854565b9350613de08185602086016148ce565b613de98161492f565b840191505092915050565b6000613dff82614779565b613e098185614843565b9350613e198185602086016148ce565b613e228161492f565b840191505092915050565b6000613e3882614779565b613e428185614854565b9350613e528185602086016148ce565b613e5b8161492f565b840191505092915050565b6000613e73603583614854565b91507f4469646e27742072656163682072656465656d20726571756972656d656e747360008301527f206f722076616c69646174696f6e206661696c656400000000000000000000006020830152604082019050919050565b6000613ed9601c83614854565b91507f596f7520616c726561647920666f6c6c6f7720746865207573657221000000006000830152602082019050919050565b6000613f19601283614854565b91507f596f75206f776e207468697320706f73742100000000000000000000000000006000830152602082019050919050565b6000613f59602083614854565b91507f796f752063616e277420666f6c6f7720796f7572206f776e206163636f756e746000830152602082019050919050565b6000613f99600e83614854565b91507f416c7265616479206120757365720000000000000000000000000000000000006000830152602082019050919050565b6000613fd9602383614854565b91507f4f6e6c7920746865206f776e65722063616e2064656c6574652074686973207060008301527f6f737400000000000000000000000000000000000000000000000000000000006020830152604082019050919050565b600061403f605c83614854565b91507f696e7075742076616c7565206973206e6f7420616c6c6f7765642c206f6e6c7960008301527f20657175616c206f722067726561746572207468616e20323020697320616c6c60208301527f6f77656420616e6420696e707574206d757374206e6f74207a65726f000000006040830152606082019050919050565b60006140cb601b83614854565b91507f596f7520616c7265616479206c696b65207468697320706f73742100000000006000830152602082019050919050565b60006080830160008301516141166000860182613aef565b506020830151848203602086015261412e8282613df4565b915050604083015184820360408601526141488282613df4565b915050606083015161415d6060860182614379565b508091505092915050565b60006060830160008301516141806000860182613aef565b50602083015184820360208601526141988282613df4565b91505060408301516141ad6040860182614379565b508091505092915050565b6040820160008201516141ce6000850182613aef565b5060208201516141e16020850182614379565b50505050565b6040820160008201516141fd6000850182613aef565b5060208201516142106020850182614379565b50505050565b600060c08301600083015161422e6000860182614379565b50602083015184820360208601526142468282613df4565b915050604083015161425b6040860182614379565b50606083015161426e6060860182613aef565b5060808301516142816080860182614379565b5060a083015161429460a0860182613d9d565b508091505092915050565b6000610120830160008301516142b86000860182614379565b50602083015184820360208601526142d08282613df4565b915050604083015184820360408601526142ea8282613df4565b91505060608301516142ff6060860182614379565b5060808301516143126080860182613aef565b5060a083015161432560a0860182614379565b5060c083015161433860c0860182613d9d565b5060e083015184820360e08601526143508282613b0d565b91505061010083015184820361010086015261436c8282613b82565b9150508091505092915050565b614382816148b5565b82525050565b614391816148b5565b82525050565b6143a86143a3826148b5565b614925565b82525050565b60006143ba8286614397565b6020820191506143ca8285613ad8565b6014820191506143da8284614397565b602082019150819050949350505050565b60006020820190506144006000830184613afe565b92915050565b600060208201905081810360008301526144208184613bf7565b905092915050565b600060408201905081810360008301526144428185613bf7565b905081810360208301526144568184613c55565b90509392505050565b600060208201905081810360008301526144798184613cb3565b905092915050565b6000602082019050818103600083015261449b8184613d28565b905092915050565b60006020820190506144b86000830184613dac565b92915050565b600060208201905081810360008301526144d88184613e2d565b905092915050565b600060a08201905081810360008301526144fa8188613dbb565b90506145096020830187614388565b6145166040830186614388565b6145236060830185614388565b6145306080830184613afe565b9695505050505050565b6000602082019050818103600083015261455381613e66565b9050919050565b6000602082019050818103600083015261457381613ecc565b9050919050565b6000602082019050818103600083015261459381613f0c565b9050919050565b600060208201905081810360008301526145b381613f4c565b9050919050565b600060208201905081810360008301526145d381613f8c565b9050919050565b600060208201905081810360008301526145f381613fcc565b9050919050565b6000602082019050818103600083015261461381614032565b9050919050565b60006020820190508181036000830152614633816140be565b9050919050565b600060208201905061464f6000830184614388565b92915050565b600060408201905061466a6000830185614388565b6146776020830184614388565b9392505050565b6000604051905081810181811067ffffffffffffffff821117156146a157600080fd5b8060405250919050565b600067ffffffffffffffff8211156146c257600080fd5b601f19601f8301169050602081019050919050565b6000819050602082019050919050565b6000819050602082019050919050565b6000819050602082019050919050565b6000819050602082019050919050565b6000819050602082019050919050565b6000819050602082019050919050565b600081519050919050565b600081519050919050565b600081519050919050565b600081519050919050565b600081519050919050565b600081519050919050565b600081519050919050565b600081519050919050565b6000602082019050919050565b6000602082019050919050565b6000602082019050919050565b6000602082019050919050565b6000602082019050919050565b6000602082019050919050565b600082825260208201905092915050565b600082825260208201905092915050565b600082825260208201905092915050565b600082825260208201905092915050565b600082825260208201905092915050565b600082825260208201905092915050565b600082825260208201905092915050565b600082825260208201905092915050565b600061487082614895565b9050919050565b600061488282614895565b9050919050565b60008115159050919050565b600073ffffffffffffffffffffffffffffffffffffffff82169050919050565b6000819050919050565b82818337600083830152505050565b60005b838110156148ec5780820151818401526020810190506148d1565b838111156148fb576000848401525b50505050565b600061490c82614913565b9050919050565b600061491e82614940565b9050919050565b6000819050919050565b6000601f19601f8301169050919050565b60008160601b9050919050565b61495681614865565b811461496157600080fd5b50565b61496d816148b5565b811461497857600080fd5b5056fea365627a7a7231582095b20a2891df93fc7d239898bc11c15f7b9bf2598f24d52768f82a7a0ba17c906c6578706572696d656e74616cf564736f6c63430005100040",
  "source": "pragma solidity >=0.4.21 <0.6.0;\npragma experimental ABIEncoderV2;\n\ncontract Lixtagram {\n\n    struct Followers {\n        address follower;\n        uint time;\n    }\n\n    struct Followings {\n        address followed;\n        uint time;\n    }\n\n    struct User {\n        string name;\n        string profilePic;\n        address uadd;\n        uint256 tokens;\n        uint256 postsCount;\n        uint256 redeemTokens;\n    }\n\n    struct Comments {\n        address adr;\n        string comment;\n        uint time;\n    }\n\n    struct Likers {\n        address adr;\n        uint time;\n    }\n\n    struct FilterLikers {\n        address adr;\n        string adrName;\n        uint time;\n    }\n\n    struct FilterComments {\n        address adr;\n        string adrName;\n        string comment;\n        uint time;\n    }\n\n    struct Post {\n        uint id;\n        string imgIpfsHash;\n        uint256 likes;\n        address owner;\n        uint timestamp;\n        bool isPublic;\n    }\n\n    struct ViewPost {\n        uint id;\n        string ownerName;\n        string imgIpfsHash;\n        uint256 likes;\n        address owner;\n        uint timestamp;\n        bool isPublic;\n        FilterComments[] comments;\n        FilterLikers[] likers;\n    }\n\n    //User\n    mapping(address => bool) private users;\n    mapping(address => Followers[]) private followers;\n    mapping(address => Followings[]) private followings;\n    mapping(uint => Likers[]) private likers;\n    mapping(uint => Comments[]) private comments;\n    mapping(address => uint[]) private userPostPublicIndex;\n    mapping(address => uint[]) private userPostPrivateIndex;\n    mapping(address => uint[]) private userAllPost;\n    mapping(address => string) private username;\n\n    User[] private peeps;\n    Post[] private posts;\n   \n    //constructor \n    string public name;\n    address public manager;\n    uint256 public userCount;\n    uint public allPostCount;\n\n    //Community chat\n    string public chatHash;\n\n    constructor() public {\n        name = \"Lixtagram\";\n        manager = msg.sender;\n        userCount = 0;\n        allPostCount = 0;\n    }\n\n    function createPost(\n        string memory description,\n        string memory imgIpfsHash\n    ) public payable {\n        allPostCount++;\n        if(posts.length == 0){\n            allPostCount = 0;\n        }\n        uint randomId = uint(keccak256(abi.encodePacked(now, msg.sender, block.difficulty)));\n            \n        Post memory newPost = Post({\n            id: randomId,\n            imgIpfsHash: imgIpfsHash,\n            likes: 0,\n            owner: msg.sender,\n            timestamp: now,\n            isPublic: true\n        });\n        posts.push(newPost);\n        likers[randomId].push(Likers(msg.sender, now));\n        comments[randomId].push(Comments(msg.sender, description ,now));\n        userPostPublicIndex[msg.sender].push(allPostCount);\n        userAllPost[msg.sender].push(allPostCount);\n        for (uint256 i = 0; i < peeps.length; i++) {\n            if (peeps[i].uadd == msg.sender) {\n                peeps[i].postsCount++;\n                break;\n            }\n        }\n    }\n\n    function signUp(string memory _name) public payable {\n        require(!users[msg.sender], \"Already a user\");\n        users[msg.sender] = true;\n        username[msg.sender] = _name;\n        userCount++;\n        User memory newUser = User({\n            name: _name,\n            profilePic: \"\",\n            uadd: msg.sender,\n            tokens: 0,\n            redeemTokens: 0,\n            postsCount: 0\n        });\n        peeps.push(newUser);\n        followers[msg.sender].push(Followers(msg.sender, now));\n    }\n\n    function isUser(address user) private view returns (bool) {\n        return users[user];\n    }\n\n\n    function isLiker(address user, uint _id) public view returns(bool){\n        bool f;\n        for(uint i = 0; i < likers[_id].length; i++){\n            if(user == likers[_id][i].adr){\n                f = true;\n                break;\n            }\n        }\n        return f;\n    }\n\n    function isFollower(address user, address owner) public view returns(bool){\n        bool f;\n        for(uint i = 0; i < followers[owner].length; i++){\n            if(user == followers[owner][i].follower){\n                f = true;\n                break;\n            }\n        }\n        return f;\n    }\n\n    function followUser(address adr) public payable{\n        address author = followers[adr][0].follower;\n        uint len = followers[adr].length;\n        require(msg.sender !=  adr, \"you can't folow your own account\");\n        for(uint i = 0; i < len; i++){\n            if(msg.sender == followers[adr][i].follower){\n                require(msg.sender !=  followers[adr][i].follower, \"You already follow the user!\");\n                break;\n            }\n        }\n        followers[adr].push(Followers(msg.sender, now));\n        followings[msg.sender].push(Followings(adr, now));\n        for (uint256 i = 0; i < peeps.length; i++) {\n            if (peeps[i].uadd == author) {\n                peeps[i].tokens += 1;\n                peeps[i].redeemTokens += 1;\n                break;\n            }\n        }\n    }\n\n    function likePost(uint _id) public payable{\n        address author = likers[_id][0].adr;\n        require(msg.sender != author, \"You own this post!\");\n        uint len = likers[_id].length;\n        for(uint i = 0; i < len; i++){\n            if(msg.sender == likers[_id][i].adr){\n                require(msg.sender !=  likers[_id][i].adr, \"You already like this post!\");\n                break;\n            }\n        }\n        likers[_id].push(Likers(msg.sender, now));\n        for (uint256 i = 0; i < peeps.length; i++) {\n            if (peeps[i].uadd == author) {\n                peeps[i].tokens += 1;\n                peeps[i].redeemTokens += 1;\n                break;\n            }\n        }\n    }\n\n    function getUserPublicPost(address adr) public view returns (Post[] memory){\n        uint len = userPostPublicIndex[adr].length;\n        uint index;\n        Post[] memory p = new Post[](len);\n        for(uint i = 0; i < len; i++){\n            index = userPostPublicIndex[adr][i];\n            Post storage post = posts[index];\n            p[i] = post;\n        }\n        return p;\n    }\n\n    function getUserPrivatePost(address adr) public view returns (Post[] memory){\n        uint len = userPostPrivateIndex[adr].length;\n        uint index;\n        Post[] memory p = new Post[](len);\n        for(uint i = 0; i < len; i++){\n            index = userPostPrivateIndex[adr][i];\n            Post storage post = posts[index];\n            p[i] = post;\n        }\n        return p;\n    }\n\n    function getComments(uint _id) private view returns (Comments[] memory){\n      uint len  = comments[_id].length;\n      Comments[] memory c = new Comments[](len);\n      for(uint i =0 ; i < len; i++){\n           c[i] = comments[_id][i];           \n      }\n      return c;\n    }\n\n    function getViewPost() public view returns (ViewPost[] memory){\n        uint postLength = posts.length;\n        ViewPost[] memory v = new ViewPost[](postLength);\n        for (uint i = 0; i < postLength; i++) {\n            Post storage post = posts[i];\n            if(posts[i].isPublic == true){\n                v[i].id = post.id;\n                v[i].ownerName = getUsername(post.owner);\n                v[i].imgIpfsHash = post.imgIpfsHash;\n                v[i].likes = post.likes;\n                v[i].owner = post.owner;\n                v[i].timestamp = post.timestamp;\n                v[i].isPublic = post.isPublic;\n                v[i].comments = getViewPostComments(post.id);\n                v[i].likers = getViewPostLikers(post.id);\n            }\n        }\n        return v;\n    }\n\n    function getViewPostComments(uint _id) private view returns (FilterComments[] memory){\n        Comments[] memory c = getComments(_id);\n        FilterComments[] memory nc = new FilterComments[](c.length);\n        for(uint i; i < c.length; i++){\n            nc[i].adr = c[i].adr;\n            nc[i].adrName = getUsername(c[i].adr); \n            nc[i].comment = c[i].comment; \n            nc[i].time = c[i].time;\n        }\n        return nc;\n     }\n\n     function getViewPostLikers(uint _id) private view returns (FilterLikers[] memory){\n        Likers[] memory l = getLikes(_id);\n        FilterLikers[] memory nl = new FilterLikers[](l.length);\n        for(uint i; i < l.length; i++){\n            nl[i].adr = l[i].adr;\n            nl[i].adrName = getUsername(l[i].adr);\n            nl[i].time = l[i].time;\n        }\n        return nl;\n     }\n     \n\n    function getLikes(uint _id) private view returns (Likers[] memory){\n      uint len  = likers[_id].length;\n      Likers[] memory l = new Likers[](len);\n      for(uint i =0 ; i < len; i++){\n           l[i] = likers[_id][i];           \n      }\n      return l;\n    }\n\n    function getFollowers(address adr) public view returns (Followers[] memory){\n      uint len  = followers[adr].length;\n      Followers[] memory f = new Followers[](len);\n      for(uint i =0 ; i < len; i++){\n           f[i] = followers[adr][i];           \n      }\n      return f;\n    }\n\n    function getUsername(address adr) private view returns (string memory){\n        return username[adr];\n    }\n\n    function getNumberOffollowwers(address adr) public view returns (uint){\n        return followers[adr].length;\n    }\n\n    // function getPostIsPublic() public view returns (Post[] memory){\n    //     uint postLength = posts.length;\n    //     Post[] memory p = new Post[](postLength);\n    //     for (uint i = 0; i < postLength; i++) {\n    //         Post storage post = posts[i];\n    //         if(posts[i].isPublic == true){\n    //             p[i] = post;\n    //         }\n    //     }\n    //     return p;\n    // }\n\n    function getPostsCount() public view returns (uint256) {\n        return posts.length;\n    }\n\n    // function deletePost(uint256 index) public {\n    //     Post storage currPost = posts[index];\n    //     require(currPost.owner == msg.sender, \"You are not the owner of the post!\");\n    //     currPost.isPublic = false;\n    // }\n\n    function deletePost(uint id) public {\n        for(uint i = 0; i < posts.length; i++ ){\n            if(posts[id].id == id){\n                require(posts[i].owner == msg.sender, \"Only the owner can delete this post\" ); \n                delete posts[i];\n                break;\n            }\n        }\n        for (uint256 i = 0; i < peeps.length; i++) {\n            if (peeps[i].uadd == msg.sender) {\n                peeps[i].postsCount--;\n                break;\n            }\n        }\n    }\n    \n    // function getPostDetails(string memory postHash)\n    //     public\n    //     view\n    //     returns (uint, string memory, string memory,string memory, uint, address, uint, string memory, string memory, bool)\n    // {\n    //     for (uint256 i = 0; i < posts.length; i++) {\n    //         if ( keccak256(abi.encodePacked((posts[i].hash))) == keccak256(abi.encodePacked((postHash)))) {\n    //             Post storage post = posts[i];\n    //             return (\n    //                 post.id,\n    //                 post.hash,\n    //                 post.description,\n    //                 post.imgIpfsHash,\n    //                 post.likes,\n    //                 post.owner,\n    //                 post.timestamp,\n    //                 post.likerList,\n    //                 post.comments,\n    //                 post.isPublic\n    //             );\n    //         }\n    //     }\n    // }\n\n     function getFollowedAndFollowersCount(address adr) public view returns (uint, uint) {\n        uint len = followers[adr].length;\n        uint len2 =  followings[adr].length;\n        return(len, len2);\n    }\n\n    function getFollowedAndFollowers(address adr) public view returns (Followers[] memory, Followings[] memory) {\n        Followers[] memory f;\n        Followings[] memory fw;\n        f = followers[adr];\n        fw = followings[adr];\n        return(f, fw);\n    }\n\n    function getUserDetails(address adr)\n        public\n        view\n        returns (string memory, uint256, uint256, uint256, address)\n    {\n        string memory n;\n        uint tokens;\n        uint postsCount;\n        uint redeemTokens;\n        address uadd;\n        for (uint256 i = 0; i < peeps.length; i++) {\n            if (peeps[i].uadd == adr) {\n                User storage user = peeps[i];\n                n = user.name;\n                tokens = user.tokens;\n                postsCount = user.postsCount;\n                redeemTokens = user.redeemTokens;\n                uadd = user.uadd;\n                break;\n            }\n        }\n        return (n, tokens, postsCount, redeemTokens, uadd);\n    }\n \n    function redeemNTokens(uint256 ntokens, uint256 valueWie) public {\n        uint oneIsEqualToWie = 1000000000000000;\n        uint valueInWie = oneIsEqualToWie*ntokens;\n        require(ntokens >= 20 || ntokens != 0 || valueInWie == valueWie, \"input value is not allowed, only equal or greater than 20 is allowed and input must not zero\" ); \n        for (uint256 i = 0; i < peeps.length; i++) {\n            if (peeps[i].uadd == msg.sender) {\n                require(peeps[i].redeemTokens >= 20 || peeps[i].redeemTokens > ntokens, \"Didn't reach redeem requirements or validation failed\" ); \n                address(uint256(msg.sender)).transfer(valueWie);\n                peeps[i].redeemTokens -= ntokens;\n                break;\n            }\n        }\n    }\n\n    function setChatHash(string memory chash) public {\n        chatHash = chash;\n    }\n\n    function getContractBalance() public view returns (uint) {\n        return address(this).balance;\n    }\n    \n}\n",
  "sourcePath": "C:\\Users\\iRipple\\Desktop\\felix files\\lixtagram\\lixtagram\\src\\contracts\\Lixtagram.sol",
  "compiler": {
    "name": "solc",
    "version": "0.5.16+commit.9c3226ce.Emscripten.clang"
  },
  "schemaVersion": "3.4.6",
  "updatedAt": "2022-04-15T15:50:43.242Z",
  "networkType": "ethereum",
  "devdoc": {
    "methods": {}
  },
  "userdoc": {
    "methods": {}
  }
}