{
  "contractName": "Lixtagram",
  "abi": [
    {
      "inputs": [],
      "payable": false,
      "stateMutability": "nonpayable",
      "type": "constructor"
    },
    {
      "constant": true,
      "inputs": [],
      "name": "allPostCount",
      "outputs": [
        {
          "internalType": "uint256",
          "name": "",
          "type": "uint256"
        }
      ],
      "payable": false,
      "stateMutability": "view",
      "type": "function"
    },
    {
      "constant": true,
      "inputs": [],
      "name": "chatHash",
      "outputs": [
        {
          "internalType": "string",
          "name": "",
          "type": "string"
        }
      ],
      "payable": false,
      "stateMutability": "view",
      "type": "function"
    },
    {
      "constant": true,
      "inputs": [],
      "name": "manager",
      "outputs": [
        {
          "internalType": "address",
          "name": "",
          "type": "address"
        }
      ],
      "payable": false,
      "stateMutability": "view",
      "type": "function"
    },
    {
      "constant": true,
      "inputs": [],
      "name": "name",
      "outputs": [
        {
          "internalType": "string",
          "name": "",
          "type": "string"
        }
      ],
      "payable": false,
      "stateMutability": "view",
      "type": "function"
    },
    {
      "constant": true,
      "inputs": [
        {
          "internalType": "uint256",
          "name": "",
          "type": "uint256"
        }
      ],
      "name": "peeps",
      "outputs": [
        {
          "internalType": "string",
          "name": "name",
          "type": "string"
        },
        {
          "internalType": "string",
          "name": "profilePic",
          "type": "string"
        },
        {
          "internalType": "address",
          "name": "uadd",
          "type": "address"
        },
        {
          "internalType": "uint256",
          "name": "tokens",
          "type": "uint256"
        },
        {
          "internalType": "uint256",
          "name": "postsCount",
          "type": "uint256"
        },
        {
          "internalType": "uint256",
          "name": "redeemTokens",
          "type": "uint256"
        },
        {
          "components": [
            {
              "internalType": "address",
              "name": "Follower",
              "type": "address"
            },
            {
              "internalType": "uint256",
              "name": "time",
              "type": "uint256"
            }
          ],
          "internalType": "struct Lixtagram.Followers",
          "name": "followers",
          "type": "tuple"
        }
      ],
      "payable": false,
      "stateMutability": "view",
      "type": "function"
    },
    {
      "constant": true,
      "inputs": [
        {
          "internalType": "uint256",
          "name": "",
          "type": "uint256"
        }
      ],
      "name": "posts",
      "outputs": [
        {
          "internalType": "uint256",
          "name": "id",
          "type": "uint256"
        },
        {
          "internalType": "string",
          "name": "hash",
          "type": "string"
        },
        {
          "internalType": "string",
          "name": "description",
          "type": "string"
        },
        {
          "internalType": "string",
          "name": "imgIpfsHash",
          "type": "string"
        },
        {
          "internalType": "uint256",
          "name": "likes",
          "type": "uint256"
        },
        {
          "internalType": "address",
          "name": "owner",
          "type": "address"
        },
        {
          "internalType": "uint256",
          "name": "timestamp",
          "type": "uint256"
        },
        {
          "internalType": "bool",
          "name": "isPublic",
          "type": "bool"
        },
        {
          "components": [
            {
              "internalType": "address",
              "name": "adr",
              "type": "address"
            },
            {
              "internalType": "string",
              "name": "comment",
              "type": "string"
            },
            {
              "internalType": "uint256",
              "name": "time",
              "type": "uint256"
            }
          ],
          "internalType": "struct Lixtagram.Comments",
          "name": "comments",
          "type": "tuple"
        },
        {
          "components": [
            {
              "internalType": "address",
              "name": "adr",
              "type": "address"
            },
            {
              "internalType": "uint256",
              "name": "time",
              "type": "uint256"
            }
          ],
          "internalType": "struct Lixtagram.Likers",
          "name": "likers",
          "type": "tuple"
        }
      ],
      "payable": false,
      "stateMutability": "view",
      "type": "function"
    },
    {
      "constant": true,
      "inputs": [],
      "name": "userCount",
      "outputs": [
        {
          "internalType": "uint256",
          "name": "",
          "type": "uint256"
        }
      ],
      "payable": false,
      "stateMutability": "view",
      "type": "function"
    },
    {
      "constant": true,
      "inputs": [
        {
          "internalType": "address",
          "name": "",
          "type": "address"
        }
      ],
      "name": "users",
      "outputs": [
        {
          "internalType": "bool",
          "name": "",
          "type": "bool"
        }
      ],
      "payable": false,
      "stateMutability": "view",
      "type": "function"
    },
    {
      "constant": false,
      "inputs": [
        {
          "internalType": "string",
          "name": "description",
          "type": "string"
        },
        {
          "internalType": "string",
          "name": "imgIpfsHash",
          "type": "string"
        },
        {
          "internalType": "string",
          "name": "hash",
          "type": "string"
        }
      ],
      "name": "createPost",
      "outputs": [],
      "payable": true,
      "stateMutability": "payable",
      "type": "function"
    },
    {
      "constant": true,
      "inputs": [],
      "name": "getPostIsPublic",
      "outputs": [
        {
          "components": [
            {
              "internalType": "uint256",
              "name": "id",
              "type": "uint256"
            },
            {
              "internalType": "string",
              "name": "hash",
              "type": "string"
            },
            {
              "internalType": "string",
              "name": "description",
              "type": "string"
            },
            {
              "internalType": "string",
              "name": "imgIpfsHash",
              "type": "string"
            },
            {
              "internalType": "uint256",
              "name": "likes",
              "type": "uint256"
            },
            {
              "internalType": "address",
              "name": "owner",
              "type": "address"
            },
            {
              "internalType": "uint256",
              "name": "timestamp",
              "type": "uint256"
            },
            {
              "internalType": "bool",
              "name": "isPublic",
              "type": "bool"
            },
            {
              "components": [
                {
                  "internalType": "address",
                  "name": "adr",
                  "type": "address"
                },
                {
                  "internalType": "string",
                  "name": "comment",
                  "type": "string"
                },
                {
                  "internalType": "uint256",
                  "name": "time",
                  "type": "uint256"
                }
              ],
              "internalType": "struct Lixtagram.Comments",
              "name": "comments",
              "type": "tuple"
            },
            {
              "components": [
                {
                  "internalType": "address",
                  "name": "adr",
                  "type": "address"
                },
                {
                  "internalType": "uint256",
                  "name": "time",
                  "type": "uint256"
                }
              ],
              "internalType": "struct Lixtagram.Likers",
              "name": "likers",
              "type": "tuple"
            }
          ],
          "internalType": "struct Lixtagram.Post[]",
          "name": "",
          "type": "tuple[]"
        }
      ],
      "payable": false,
      "stateMutability": "view",
      "type": "function"
    },
    {
      "constant": true,
      "inputs": [],
      "name": "getCurrProfilePost",
      "outputs": [
        {
          "components": [
            {
              "internalType": "uint256",
              "name": "id",
              "type": "uint256"
            },
            {
              "internalType": "string",
              "name": "hash",
              "type": "string"
            },
            {
              "internalType": "string",
              "name": "description",
              "type": "string"
            },
            {
              "internalType": "string",
              "name": "imgIpfsHash",
              "type": "string"
            },
            {
              "internalType": "uint256",
              "name": "likes",
              "type": "uint256"
            },
            {
              "internalType": "address",
              "name": "owner",
              "type": "address"
            },
            {
              "internalType": "uint256",
              "name": "timestamp",
              "type": "uint256"
            },
            {
              "internalType": "bool",
              "name": "isPublic",
              "type": "bool"
            },
            {
              "components": [
                {
                  "internalType": "address",
                  "name": "adr",
                  "type": "address"
                },
                {
                  "internalType": "string",
                  "name": "comment",
                  "type": "string"
                },
                {
                  "internalType": "uint256",
                  "name": "time",
                  "type": "uint256"
                }
              ],
              "internalType": "struct Lixtagram.Comments",
              "name": "comments",
              "type": "tuple"
            },
            {
              "components": [
                {
                  "internalType": "address",
                  "name": "adr",
                  "type": "address"
                },
                {
                  "internalType": "uint256",
                  "name": "time",
                  "type": "uint256"
                }
              ],
              "internalType": "struct Lixtagram.Likers",
              "name": "likers",
              "type": "tuple"
            }
          ],
          "internalType": "struct Lixtagram.Post[]",
          "name": "",
          "type": "tuple[]"
        }
      ],
      "payable": false,
      "stateMutability": "view",
      "type": "function"
    },
    {
      "constant": true,
      "inputs": [
        {
          "internalType": "address",
          "name": "ownerAdr",
          "type": "address"
        }
      ],
      "name": "getOtherProfilePost",
      "outputs": [
        {
          "components": [
            {
              "internalType": "uint256",
              "name": "id",
              "type": "uint256"
            },
            {
              "internalType": "string",
              "name": "hash",
              "type": "string"
            },
            {
              "internalType": "string",
              "name": "description",
              "type": "string"
            },
            {
              "internalType": "string",
              "name": "imgIpfsHash",
              "type": "string"
            },
            {
              "internalType": "uint256",
              "name": "likes",
              "type": "uint256"
            },
            {
              "internalType": "address",
              "name": "owner",
              "type": "address"
            },
            {
              "internalType": "uint256",
              "name": "timestamp",
              "type": "uint256"
            },
            {
              "internalType": "bool",
              "name": "isPublic",
              "type": "bool"
            },
            {
              "components": [
                {
                  "internalType": "address",
                  "name": "adr",
                  "type": "address"
                },
                {
                  "internalType": "string",
                  "name": "comment",
                  "type": "string"
                },
                {
                  "internalType": "uint256",
                  "name": "time",
                  "type": "uint256"
                }
              ],
              "internalType": "struct Lixtagram.Comments",
              "name": "comments",
              "type": "tuple"
            },
            {
              "components": [
                {
                  "internalType": "address",
                  "name": "adr",
                  "type": "address"
                },
                {
                  "internalType": "uint256",
                  "name": "time",
                  "type": "uint256"
                }
              ],
              "internalType": "struct Lixtagram.Likers",
              "name": "likers",
              "type": "tuple"
            }
          ],
          "internalType": "struct Lixtagram.Post[]",
          "name": "",
          "type": "tuple[]"
        }
      ],
      "payable": false,
      "stateMutability": "view",
      "type": "function"
    },
    {
      "constant": true,
      "inputs": [],
      "name": "getPostsCount",
      "outputs": [
        {
          "internalType": "uint256",
          "name": "",
          "type": "uint256"
        }
      ],
      "payable": false,
      "stateMutability": "view",
      "type": "function"
    },
    {
      "constant": false,
      "inputs": [
        {
          "internalType": "uint256",
          "name": "id",
          "type": "uint256"
        }
      ],
      "name": "deletePost",
      "outputs": [],
      "payable": false,
      "stateMutability": "nonpayable",
      "type": "function"
    },
    {
      "constant": false,
      "inputs": [
        {
          "internalType": "string",
          "name": "_name",
          "type": "string"
        }
      ],
      "name": "signIn",
      "outputs": [],
      "payable": true,
      "stateMutability": "payable",
      "type": "function"
    },
    {
      "constant": true,
      "inputs": [
        {
          "internalType": "address",
          "name": "user",
          "type": "address"
        }
      ],
      "name": "isUser",
      "outputs": [
        {
          "internalType": "bool",
          "name": "",
          "type": "bool"
        }
      ],
      "payable": false,
      "stateMutability": "view",
      "type": "function"
    },
    {
      "constant": true,
      "inputs": [
        {
          "internalType": "address",
          "name": "addr",
          "type": "address"
        }
      ],
      "name": "getUserDetails",
      "outputs": [
        {
          "internalType": "string",
          "name": "",
          "type": "string"
        },
        {
          "internalType": "uint256",
          "name": "",
          "type": "uint256"
        },
        {
          "internalType": "uint256",
          "name": "",
          "type": "uint256"
        },
        {
          "internalType": "uint256",
          "name": "",
          "type": "uint256"
        },
        {
          "internalType": "address",
          "name": "",
          "type": "address"
        }
      ],
      "payable": false,
      "stateMutability": "view",
      "type": "function"
    },
    {
      "constant": false,
      "inputs": [
        {
          "internalType": "uint256",
          "name": "ntokens",
          "type": "uint256"
        },
        {
          "internalType": "uint256",
          "name": "value",
          "type": "uint256"
        }
      ],
      "name": "redeemNTokens",
      "outputs": [],
      "payable": false,
      "stateMutability": "nonpayable",
      "type": "function"
    },
    {
      "constant": false,
      "inputs": [
        {
          "internalType": "string",
          "name": "chash",
          "type": "string"
        }
      ],
      "name": "setChatHash",
      "outputs": [],
      "payable": false,
      "stateMutability": "nonpayable",
      "type": "function"
    },
    {
      "constant": true,
      "inputs": [],
      "name": "getContractBalance",
      "outputs": [
        {
          "internalType": "uint256",
          "name": "",
          "type": "uint256"
        }
      ],
      "payable": false,
      "stateMutability": "view",
      "type": "function"
    }
  ],
  "bytecode": "0x60806040523480156200001157600080fd5b506040518060400160405280600981526020017f4c697874616772616d0000000000000000000000000000000000000000000000815250600390805190602001906200005f929190620000b7565b5033600460006101000a81548173ffffffffffffffffffffffffffffffffffffffff021916908373ffffffffffffffffffffffffffffffffffffffff1602179055506000600581905550600060068190555062000166565b828054600181600116156101000203166002900490600052602060002090601f016020900481019282601f10620000fa57805160ff19168380011785556200012b565b828001600101855582156200012b579182015b828111156200012a5782518255916020019190600101906200010d565b5b5090506200013a91906200013e565b5090565b6200016391905b808211156200015f57600081600090555060010162000145565b5090565b90565b6136f380620001766000396000f3fe60806040526004361061011f5760003560e01c806383624882116100a0578063bab5f77311610064578063bab5f773146103fa578063c95f728a14610425578063cc3d967b14610441578063dddae76b14610482578063e8a4a1eb146104bf5761011f565b806383624882146102fb5780638c39e55014610326578063a87430ba1461034f578063b7833b6e1461038c578063b9f4609a146103cf5761011f565b80633437d4d9116100e75780633437d4d9146102125780634209fff11461023d578063481c6a751461027a578063690eea1f146102a55780636f9fb98a146102d05761011f565b806306fdde031461012457806307973ccf1461014f578063094cd5ee1461017a5780630b1e7f83146101a357806320fc0205146101e9575b600080fd5b34801561013057600080fd5b506101396104db565b60405161014691906132c3565b60405180910390f35b34801561015b57600080fd5b50610164610579565b60405161017191906133fd565b60405180910390f35b34801561018657600080fd5b506101a1600480360361019c9190810190612d4b565b61057f565b005b3480156101af57600080fd5b506101ca60048036036101c59190810190612d4b565b61085e565b6040516101e09a99989796959493929190613418565b60405180910390f35b3480156101f557600080fd5b50610210600480360361020b9190810190612c73565b610c2a565b005b34801561021e57600080fd5b50610227610c44565b60405161023491906132c3565b60405180910390f35b34801561024957600080fd5b50610264600480360361025f9190810190612c4a565b610ce2565b60405161027191906132a8565b60405180910390f35b34801561028657600080fd5b5061028f610d37565b60405161029c919061326b565b60405180910390f35b3480156102b157600080fd5b506102ba610d5d565b6040516102c791906133fd565b60405180910390f35b3480156102dc57600080fd5b506102e5610d63565b6040516102f291906133fd565b60405180910390f35b34801561030757600080fd5b50610310610d6b565b60405161031d91906133fd565b60405180910390f35b34801561033257600080fd5b5061034d60048036036103489190810190612d74565b610d78565b005b34801561035b57600080fd5b5061037660048036036103719190810190612c4a565b610e9d565b60405161038391906132a8565b60405180910390f35b34801561039857600080fd5b506103b360048036036103ae9190810190612d4b565b610ebd565b6040516103c6979695949392919061333f565b60405180910390f35b3480156103db57600080fd5b506103e46110c6565b6040516103f19190613286565b60405180910390f35b34801561040657600080fd5b5061040f6115eb565b60405161041c9190613286565b60405180910390f35b61043f600480360361043a9190810190612c73565b611ad6565b005b34801561044d57600080fd5b5061046860048036036104639190810190612c4a565b611d69565b6040516104799594939291906132e5565b60405180910390f35b34801561048e57600080fd5b506104a960048036036104a49190810190612c4a565b611f12565b6040516104b69190613286565b60405180910390f35b6104d960048036036104d49190810190612cb4565b612474565b005b60038054600181600116156101000203166002900480601f0160208091040260200160405190810160405280929190818152602001828054600181600116156101000203166002900480156105715780601f1061054657610100808354040283529160200191610571565b820191906000526020600020905b81548152906001019060200180831161055457829003601f168201915b505050505081565b60055481565b60008090505b6002805490508110156107935781600283815481106105a057fe5b90600052602060002090600d0201600001541415610786573373ffffffffffffffffffffffffffffffffffffffff16600282815481106105dc57fe5b90600052602060002090600d020160050160009054906101000a900473ffffffffffffffffffffffffffffffffffffffff1673ffffffffffffffffffffffffffffffffffffffff1614610664576040517f08c379a000000000000000000000000000000000000000000000000000000000815260040161065b906133dd565b60405180910390fd5b6002818154811061067157fe5b90600052602060002090600d020160008082016000905560018201600061069891906127ea565b6002820160006106a891906127ea565b6003820160006106b891906127ea565b60048201600090556005820160006101000a81549073ffffffffffffffffffffffffffffffffffffffff021916905560068201600090556007820160006101000a81549060ff021916905560088201600080820160006101000a81549073ffffffffffffffffffffffffffffffffffffffff021916905560018201600061073f91906127ea565b60028201600090555050600b8201600080820160006101000a81549073ffffffffffffffffffffffffffffffffffffffff0219169055600182016000905550505050610793565b8080600101915050610585565b5060008090505b60018054905081101561085a573373ffffffffffffffffffffffffffffffffffffffff16600182815481106107cb57fe5b906000526020600020906008020160020160009054906101000a900473ffffffffffffffffffffffffffffffffffffffff1673ffffffffffffffffffffffffffffffffffffffff16141561084d576001818154811061082657fe5b9060005260206000209060080201600401600081548092919060019003919050555061085a565b808060010191505061079a565b5050565b6002818154811061086b57fe5b90600052602060002090600d0201600091509050806000015490806001018054600181600116156101000203166002900480601f01602080910402602001604051908101604052809291908181526020018280546001816001161561010002031660029004801561091d5780601f106108f25761010080835404028352916020019161091d565b820191906000526020600020905b81548152906001019060200180831161090057829003601f168201915b505050505090806002018054600181600116156101000203166002900480601f0160208091040260200160405190810160405280929190818152602001828054600181600116156101000203166002900480156109bb5780601f10610990576101008083540402835291602001916109bb565b820191906000526020600020905b81548152906001019060200180831161099e57829003601f168201915b505050505090806003018054600181600116156101000203166002900480601f016020809104026020016040519081016040528092919081815260200182805460018160011615610100020316600290048015610a595780601f10610a2e57610100808354040283529160200191610a59565b820191906000526020600020905b815481529060010190602001808311610a3c57829003601f168201915b5050505050908060040154908060050160009054906101000a900473ffffffffffffffffffffffffffffffffffffffff16908060060154908060070160009054906101000a900460ff1690806008016040518060600160405290816000820160009054906101000a900473ffffffffffffffffffffffffffffffffffffffff1673ffffffffffffffffffffffffffffffffffffffff1673ffffffffffffffffffffffffffffffffffffffff168152602001600182018054600181600116156101000203166002900480601f016020809104026020016040519081016040528092919081815260200182805460018160011615610100020316600290048015610ba25780601f10610b7757610100808354040283529160200191610ba2565b820191906000526020600020905b815481529060010190602001808311610b8557829003601f168201915b505050505081526020016002820154815250509080600b016040518060400160405290816000820160009054906101000a900473ffffffffffffffffffffffffffffffffffffffff1673ffffffffffffffffffffffffffffffffffffffff1673ffffffffffffffffffffffffffffffffffffffff16815260200160018201548152505090508a565b8060079080519060200190610c40929190612832565b5050565b60078054600181600116156101000203166002900480601f016020809104026020016040519081016040528092919081815260200182805460018160011615610100020316600290048015610cda5780601f10610caf57610100808354040283529160200191610cda565b820191906000526020600020905b815481529060010190602001808311610cbd57829003601f168201915b505050505081565b60008060008373ffffffffffffffffffffffffffffffffffffffff1673ffffffffffffffffffffffffffffffffffffffff16815260200190815260200160002060009054906101000a900460ff169050919050565b600460009054906101000a900473ffffffffffffffffffffffffffffffffffffffff1681565b60065481565b600047905090565b6000600280549050905090565b3373ffffffffffffffffffffffffffffffffffffffff1673ffffffffffffffffffffffffffffffffffffffff166108fc829081150290604051600060405180830381858888f19350505050158015610dd4573d6000803e3d6000fd5b5060008090505b600180549050811015610e98573373ffffffffffffffffffffffffffffffffffffffff1660018281548110610e0c57fe5b906000526020600020906008020160020160009054906101000a900473ffffffffffffffffffffffffffffffffffffffff1673ffffffffffffffffffffffffffffffffffffffff161415610e8b578260018281548110610e6857fe5b906000526020600020906008020160050160008282540392505081905550610e98565b8080600101915050610ddb565b505050565b60006020528060005260406000206000915054906101000a900460ff1681565b60018181548110610eca57fe5b9060005260206000209060080201600091509050806000018054600181600116156101000203166002900480601f016020809104026020016040519081016040528092919081815260200182805460018160011615610100020316600290048015610f765780601f10610f4b57610100808354040283529160200191610f76565b820191906000526020600020905b815481529060010190602001808311610f5957829003601f168201915b505050505090806001018054600181600116156101000203166002900480601f0160208091040260200160405190810160405280929190818152602001828054600181600116156101000203166002900480156110145780601f10610fe957610100808354040283529160200191611014565b820191906000526020600020905b815481529060010190602001808311610ff757829003601f168201915b5050505050908060020160009054906101000a900473ffffffffffffffffffffffffffffffffffffffff1690806003015490806004015490806005015490806006016040518060400160405290816000820160009054906101000a900473ffffffffffffffffffffffffffffffffffffffff1673ffffffffffffffffffffffffffffffffffffffff1673ffffffffffffffffffffffffffffffffffffffff168152602001600182015481525050905087565b60606000600280549050905060608160405190808252806020026020018201604052801561110e57816020015b6110fb6128b2565b8152602001906001900390816110f35790505b50905060008090505b828110156115e25760006002828154811061112e57fe5b90600052602060002090600d020190503373ffffffffffffffffffffffffffffffffffffffff166002838154811061116257fe5b90600052602060002090600d020160050160009054906101000a900473ffffffffffffffffffffffffffffffffffffffff1673ffffffffffffffffffffffffffffffffffffffff1614156115d457806040518061014001604052908160008201548152602001600182018054600181600116156101000203166002900480601f0160208091040260200160405190810160405280929190818152602001828054600181600116156101000203166002900480156112605780601f1061123557610100808354040283529160200191611260565b820191906000526020600020905b81548152906001019060200180831161124357829003601f168201915b50505050508152602001600282018054600181600116156101000203166002900480601f0160208091040260200160405190810160405280929190818152602001828054600181600116156101000203166002900480156113025780601f106112d757610100808354040283529160200191611302565b820191906000526020600020905b8154815290600101906020018083116112e557829003601f168201915b50505050508152602001600382018054600181600116156101000203166002900480601f0160208091040260200160405190810160405280929190818152602001828054600181600116156101000203166002900480156113a45780601f10611379576101008083540402835291602001916113a4565b820191906000526020600020905b81548152906001019060200180831161138757829003601f168201915b50505050508152602001600482015481526020016005820160009054906101000a900473ffffffffffffffffffffffffffffffffffffffff1673ffffffffffffffffffffffffffffffffffffffff1673ffffffffffffffffffffffffffffffffffffffff168152602001600682015481526020016007820160009054906101000a900460ff16151515158152602001600882016040518060600160405290816000820160009054906101000a900473ffffffffffffffffffffffffffffffffffffffff1673ffffffffffffffffffffffffffffffffffffffff1673ffffffffffffffffffffffffffffffffffffffff168152602001600182018054600181600116156101000203166002900480601f0160208091040260200160405190810160405280929190818152602001828054600181600116156101000203166002900480156115315780601f1061150657610100808354040283529160200191611531565b820191906000526020600020905b81548152906001019060200180831161151457829003601f168201915b505050505081526020016002820154815250508152602001600b82016040518060400160405290816000820160009054906101000a900473ffffffffffffffffffffffffffffffffffffffff1673ffffffffffffffffffffffffffffffffffffffff1673ffffffffffffffffffffffffffffffffffffffff168152602001600182015481525050815250508383815181106115c857fe5b60200260200101819052505b508080600101915050611117565b50809250505090565b60606000600280549050905060608160405190808252806020026020018201604052801561163357816020015b6116206128b2565b8152602001906001900390816116185790505b50905060008090505b82811015611acd5760006002828154811061165357fe5b90600052602060002090600d02019050600115156002838154811061167457fe5b90600052602060002090600d020160070160009054906101000a900460ff1615151415611abf57806040518061014001604052908160008201548152602001600182018054600181600116156101000203166002900480601f01602080910402602001604051908101604052809291908181526020018280546001816001161561010002031660029004801561174b5780601f106117205761010080835404028352916020019161174b565b820191906000526020600020905b81548152906001019060200180831161172e57829003601f168201915b50505050508152602001600282018054600181600116156101000203166002900480601f0160208091040260200160405190810160405280929190818152602001828054600181600116156101000203166002900480156117ed5780601f106117c2576101008083540402835291602001916117ed565b820191906000526020600020905b8154815290600101906020018083116117d057829003601f168201915b50505050508152602001600382018054600181600116156101000203166002900480601f01602080910402602001604051908101604052809291908181526020018280546001816001161561010002031660029004801561188f5780601f106118645761010080835404028352916020019161188f565b820191906000526020600020905b81548152906001019060200180831161187257829003601f168201915b50505050508152602001600482015481526020016005820160009054906101000a900473ffffffffffffffffffffffffffffffffffffffff1673ffffffffffffffffffffffffffffffffffffffff1673ffffffffffffffffffffffffffffffffffffffff168152602001600682015481526020016007820160009054906101000a900460ff16151515158152602001600882016040518060600160405290816000820160009054906101000a900473ffffffffffffffffffffffffffffffffffffffff1673ffffffffffffffffffffffffffffffffffffffff1673ffffffffffffffffffffffffffffffffffffffff168152602001600182018054600181600116156101000203166002900480601f016020809104026020016040519081016040528092919081815260200182805460018160011615610100020316600290048015611a1c5780601f106119f157610100808354040283529160200191611a1c565b820191906000526020600020905b8154815290600101906020018083116119ff57829003601f168201915b505050505081526020016002820154815250508152602001600b82016040518060400160405290816000820160009054906101000a900473ffffffffffffffffffffffffffffffffffffffff1673ffffffffffffffffffffffffffffffffffffffff1673ffffffffffffffffffffffffffffffffffffffff16815260200160018201548152505081525050838381518110611ab357fe5b60200260200101819052505b50808060010191505061163c565b50809250505090565b6000803373ffffffffffffffffffffffffffffffffffffffff1673ffffffffffffffffffffffffffffffffffffffff16815260200190815260200160002060009054906101000a900460ff1615611b62576040517f08c379a0000000000000000000000000000000000000000000000000000000008152600401611b59906133bd565b60405180910390fd5b611b6a612929565b60016000803373ffffffffffffffffffffffffffffffffffffffff1673ffffffffffffffffffffffffffffffffffffffff16815260200190815260200160002060006101000a81548160ff021916908315150217905550600560008154809291906001019190505550611bdb612959565b6040518060e001604052808481526020016040518060200160405280600081525081526020013373ffffffffffffffffffffffffffffffffffffffff168152602001600081526020016000815260200160008152602001838152509050600181908060018154018082558091505090600182039060005260206000209060080201600090919290919091506000820151816000019080519060200190611c829291906129b2565b506020820151816001019080519060200190611c9f9291906129b2565b5060408201518160020160006101000a81548173ffffffffffffffffffffffffffffffffffffffff021916908373ffffffffffffffffffffffffffffffffffffffff160217905550606082015181600301556080820151816004015560a0820151816005015560c08201518160060160008201518160000160006101000a81548173ffffffffffffffffffffffffffffffffffffffff021916908373ffffffffffffffffffffffffffffffffffffffff160217905550602082015181600101555050505050505050565b606060008060008060008090505b600180549050811015611f07578673ffffffffffffffffffffffffffffffffffffffff1660018281548110611da857fe5b906000526020600020906008020160020160009054906101000a900473ffffffffffffffffffffffffffffffffffffffff1673ffffffffffffffffffffffffffffffffffffffff161415611efa57600060018281548110611e0557fe5b90600052602060002090600802019050806000018160030154826004015483600501548460020160009054906101000a900473ffffffffffffffffffffffffffffffffffffffff16848054600181600116156101000203166002900480601f016020809104026020016040519081016040528092919081815260200182805460018160011615610100020316600290048015611ee25780601f10611eb757610100808354040283529160200191611ee2565b820191906000526020600020905b815481529060010190602001808311611ec557829003601f168201915b50505050509450965096509650965096505050611f09565b8080600101915050611d77565b505b91939590929450565b606060006002805490509050606081604051908082528060200260200182016040528015611f5a57816020015b611f476128b2565b815260200190600190039081611f3f5790505b50905060008090505b8281101561246957600060028281548110611f7a57fe5b90600052602060002090600d020190508573ffffffffffffffffffffffffffffffffffffffff1660028381548110611fae57fe5b90600052602060002090600d020160050160009054906101000a900473ffffffffffffffffffffffffffffffffffffffff1673ffffffffffffffffffffffffffffffffffffffff161480156120325750600115156002838154811061200f57fe5b90600052602060002090600d020160070160009054906101000a900460ff161515145b1561245b57806040518061014001604052908160008201548152602001600182018054600181600116156101000203166002900480601f0160208091040260200160405190810160405280929190818152602001828054600181600116156101000203166002900480156120e75780601f106120bc576101008083540402835291602001916120e7565b820191906000526020600020905b8154815290600101906020018083116120ca57829003601f168201915b50505050508152602001600282018054600181600116156101000203166002900480601f0160208091040260200160405190810160405280929190818152602001828054600181600116156101000203166002900480156121895780601f1061215e57610100808354040283529160200191612189565b820191906000526020600020905b81548152906001019060200180831161216c57829003601f168201915b50505050508152602001600382018054600181600116156101000203166002900480601f01602080910402602001604051908101604052809291908181526020018280546001816001161561010002031660029004801561222b5780601f106122005761010080835404028352916020019161222b565b820191906000526020600020905b81548152906001019060200180831161220e57829003601f168201915b50505050508152602001600482015481526020016005820160009054906101000a900473ffffffffffffffffffffffffffffffffffffffff1673ffffffffffffffffffffffffffffffffffffffff1673ffffffffffffffffffffffffffffffffffffffff168152602001600682015481526020016007820160009054906101000a900460ff16151515158152602001600882016040518060600160405290816000820160009054906101000a900473ffffffffffffffffffffffffffffffffffffffff1673ffffffffffffffffffffffffffffffffffffffff1673ffffffffffffffffffffffffffffffffffffffff168152602001600182018054600181600116156101000203166002900480601f0160208091040260200160405190810160405280929190818152602001828054600181600116156101000203166002900480156123b85780601f1061238d576101008083540402835291602001916123b8565b820191906000526020600020905b81548152906001019060200180831161239b57829003601f168201915b505050505081526020016002820154815250508152602001600b82016040518060400160405290816000820160009054906101000a900473ffffffffffffffffffffffffffffffffffffffff1673ffffffffffffffffffffffffffffffffffffffff1673ffffffffffffffffffffffffffffffffffffffff1681526020016001820154815250508152505083838151811061244f57fe5b60200260200101819052505b508080600101915050611f63565b508092505050919050565b6000600280549050141561248b5760006006819055505b60004233446040516020016124a29392919061322e565b6040516020818303038152906040528051906020012060001c90506124c5612a32565b6124cd612a69565b6124d5612a99565b604051806101400160405280858152602001868152602001888152602001878152602001600081526020013373ffffffffffffffffffffffffffffffffffffffff1681526020014281526020016001151581526020018481526020018381525090506002819080600181540180825580915050906001820390600052602060002090600d02016000909192909190915060008201518160000155602082015181600101908051906020019061258b9291906129b2565b5060408201518160020190805190602001906125a89291906129b2565b5060608201518160030190805190602001906125c59291906129b2565b506080820151816004015560a08201518160050160006101000a81548173ffffffffffffffffffffffffffffffffffffffff021916908373ffffffffffffffffffffffffffffffffffffffff16021790555060c0820151816006015560e08201518160070160006101000a81548160ff0219169083151502179055506101008201518160080160008201518160000160006101000a81548173ffffffffffffffffffffffffffffffffffffffff021916908373ffffffffffffffffffffffffffffffffffffffff16021790555060208201518160010190805190602001906126ae9291906129b2565b5060408201518160020155505061012082015181600b0160008201518160000160006101000a81548173ffffffffffffffffffffffffffffffffffffffff021916908373ffffffffffffffffffffffffffffffffffffffff16021790555060208201518160010155505050505060008090505b6001805490508110156127e0573373ffffffffffffffffffffffffffffffffffffffff166001828154811061275257fe5b906000526020600020906008020160020160009054906101000a900473ffffffffffffffffffffffffffffffffffffffff1673ffffffffffffffffffffffffffffffffffffffff1614156127d357600181815481106127ad57fe5b9060005260206000209060080201600401600081548092919060010191905055506127e0565b8080600101915050612721565b5050505050505050565b50805460018160011615610100020316600290046000825580601f10612810575061282f565b601f01602090049060005260206000209081019061282e9190612b10565b5b50565b828054600181600116156101000203166002900490600052602060002090601f016020900481019282601f1061287357805160ff19168380011785556128a1565b828001600101855582156128a1579182015b828111156128a0578251825591602001919060010190612885565b5b5090506128ae9190612b10565b5090565b6040518061014001604052806000815260200160608152602001606081526020016060815260200160008152602001600073ffffffffffffffffffffffffffffffffffffffff16815260200160008152602001600015158152602001612916612b35565b8152602001612923612b6c565b81525090565b6040518060400160405280600073ffffffffffffffffffffffffffffffffffffffff168152602001600081525090565b6040518060e001604052806060815260200160608152602001600073ffffffffffffffffffffffffffffffffffffffff1681526020016000815260200160008152602001600081526020016129ac612b9c565b81525090565b828054600181600116156101000203166002900490600052602060002090601f016020900481019282601f106129f357805160ff1916838001178555612a21565b82800160010185558215612a21579182015b82811115612a20578251825591602001919060010190612a05565b5b509050612a2e9190612b10565b5090565b6040518060600160405280600073ffffffffffffffffffffffffffffffffffffffff16815260200160608152602001600081525090565b6040518060400160405280600073ffffffffffffffffffffffffffffffffffffffff168152602001600081525090565b6040518061014001604052806000815260200160608152602001606081526020016060815260200160008152602001600073ffffffffffffffffffffffffffffffffffffffff16815260200160008152602001600015158152602001612afd612b35565b8152602001612b0a612b6c565b81525090565b612b3291905b80821115612b2e576000816000905550600101612b16565b5090565b90565b6040518060600160405280600073ffffffffffffffffffffffffffffffffffffffff16815260200160608152602001600081525090565b6040518060400160405280600073ffffffffffffffffffffffffffffffffffffffff168152602001600081525090565b6040518060400160405280600073ffffffffffffffffffffffffffffffffffffffff168152602001600081525090565b600081359050612bdb81613682565b92915050565b600082601f830112612bf257600080fd5b8135612c05612c00826134fd565b6134d0565b91508082526020830160208301858383011115612c2157600080fd5b612c2c8382846135f4565b50505092915050565b600081359050612c4481613699565b92915050565b600060208284031215612c5c57600080fd5b6000612c6a84828501612bcc565b91505092915050565b600060208284031215612c8557600080fd5b600082013567ffffffffffffffff811115612c9f57600080fd5b612cab84828501612be1565b91505092915050565b600080600060608486031215612cc957600080fd5b600084013567ffffffffffffffff811115612ce357600080fd5b612cef86828701612be1565b935050602084013567ffffffffffffffff811115612d0c57600080fd5b612d1886828701612be1565b925050604084013567ffffffffffffffff811115612d3557600080fd5b612d4186828701612be1565b9150509250925092565b600060208284031215612d5d57600080fd5b6000612d6b84828501612c35565b91505092915050565b60008060408385031215612d8757600080fd5b6000612d9585828601612c35565b9250506020612da685828601612c35565b9150509250929050565b6000612dbc838361310a565b905092915050565b612dd5612dd0826135ac565b613636565b82525050565b612de48161359a565b82525050565b612df38161359a565b82525050565b6000612e0482613539565b612e0e8185613567565b935083602082028501612e2085613529565b8060005b85811015612e5c5784840389528151612e3d8582612db0565b9450612e488361355a565b925060208a01995050600181019050612e24565b50829750879550505050505092915050565b612e77816135be565b82525050565b612e86816135be565b82525050565b6000612e978261354f565b612ea18185613589565b9350612eb1818560208601613603565b612eba81613664565b840191505092915050565b6000612ed082613544565b612eda8185613578565b9350612eea818560208601613603565b612ef381613664565b840191505092915050565b6000612f0982613544565b612f138185613589565b9350612f23818560208601613603565b612f2c81613664565b840191505092915050565b6000612f44600e83613589565b91507f416c7265616479206120757365720000000000000000000000000000000000006000830152602082019050919050565b6000612f84602383613589565b91507f4f6e6c7920746865206f776e65722063616e2064656c6574652074686973207060008301527f6f737400000000000000000000000000000000000000000000000000000000006020830152604082019050919050565b6000606083016000830151612ff56000860182612ddb565b506020830151848203602086015261300d8282612ec5565b915050604083015161302260408601826131f9565b508091505092915050565b60006060830160008301516130456000860182612ddb565b506020830151848203602086015261305d8282612ec5565b915050604083015161307260408601826131f9565b508091505092915050565b6040820160008201516130936000850182612ddb565b5060208201516130a660208501826131f9565b50505050565b6040820160008201516130c26000850182612ddb565b5060208201516130d560208501826131f9565b50505050565b6040820160008201516130f16000850182612ddb565b50602082015161310460208501826131f9565b50505050565b60006101608301600083015161312360008601826131f9565b506020830151848203602086015261313b8282612ec5565b915050604083015184820360408601526131558282612ec5565b9150506060830151848203606086015261316f8282612ec5565b915050608083015161318460808601826131f9565b5060a083015161319760a0860182612ddb565b5060c08301516131aa60c08601826131f9565b5060e08301516131bd60e0860182612e6e565b506101008301518482036101008601526131d78282612fdd565b9150506101208301516131ee6101208601826130ac565b508091505092915050565b613202816135ea565b82525050565b613211816135ea565b82525050565b613228613223826135ea565b61365a565b82525050565b600061323a8286613217565b60208201915061324a8285612dc4565b60148201915061325a8284613217565b602082019150819050949350505050565b60006020820190506132806000830184612dea565b92915050565b600060208201905081810360008301526132a08184612df9565b905092915050565b60006020820190506132bd6000830184612e7d565b92915050565b600060208201905081810360008301526132dd8184612efe565b905092915050565b600060a08201905081810360008301526132ff8188612e8c565b905061330e6020830187613208565b61331b6040830186613208565b6133286060830185613208565b6133356080830184612dea565b9695505050505050565b600061010082019050818103600083015261335a818a612efe565b9050818103602083015261336e8189612efe565b905061337d6040830188612dea565b61338a6060830187613208565b6133976080830186613208565b6133a460a0830185613208565b6133b160c083018461307d565b98975050505050505050565b600060208201905081810360008301526133d681612f37565b9050919050565b600060208201905081810360008301526133f681612f77565b9050919050565b60006020820190506134126000830184613208565b92915050565b60006101608201905061342e600083018d613208565b8181036020830152613440818c612efe565b90508181036040830152613454818b612efe565b90508181036060830152613468818a612efe565b90506134776080830189613208565b61348460a0830188612dea565b61349160c0830187613208565b61349e60e0830186612e7d565b8181036101008301526134b1818561302d565b90506134c16101208301846130db565b9b9a5050505050505050505050565b6000604051905081810181811067ffffffffffffffff821117156134f357600080fd5b8060405250919050565b600067ffffffffffffffff82111561351457600080fd5b601f19601f8301169050602081019050919050565b6000819050602082019050919050565b600081519050919050565b600081519050919050565b600081519050919050565b6000602082019050919050565b600082825260208201905092915050565b600082825260208201905092915050565b600082825260208201905092915050565b60006135a5826135ca565b9050919050565b60006135b7826135ca565b9050919050565b60008115159050919050565b600073ffffffffffffffffffffffffffffffffffffffff82169050919050565b6000819050919050565b82818337600083830152505050565b60005b83811015613621578082015181840152602081019050613606565b83811115613630576000848401525b50505050565b600061364182613648565b9050919050565b600061365382613675565b9050919050565b6000819050919050565b6000601f19601f8301169050919050565b60008160601b9050919050565b61368b8161359a565b811461369657600080fd5b50565b6136a2816135ea565b81146136ad57600080fd5b5056fea365627a7a72315820081cf8eb12f0511a1747dd51ad1cfaee2157ba6c616b069915ccb86380b137376c6578706572696d656e74616cf564736f6c63430005100040",
  "source": "pragma solidity ^0.5.0;\npragma experimental ABIEncoderV2;\n\ncontract Lixtagram {\n\n    struct Followers {\n        address Follower;\n        uint time;\n    }\n\n    struct User {\n        string name;\n        string profilePic;\n        address uadd;\n        uint256 tokens;\n        uint256 postsCount;\n        uint256 redeemTokens;\n        Followers followers;\n    }\n\n    struct Comments {\n        address adr;\n        string comment;\n        uint time;\n    }\n\n    struct Likers {\n        address adr;\n        uint time;\n    }\n\n    struct Post {\n        uint id;\n        string hash;\n        string description;\n        string imgIpfsHash;\n        uint256 likes;\n        address owner;\n        uint timestamp;\n        bool isPublic;\n        Comments comments;\n        Likers likers;\n    }\n\n    //User\n    mapping(address => bool) public users;\n    User[] public peeps;\n    //post\n    Post[] public posts;\n   \n    //constructor \n    string public name;\n    address public manager;\n    uint256 public userCount;\n    uint public allPostCount;\n\n    //Community chat\n    string public chatHash;\n\n    constructor() public {\n        name = \"Lixtagram\";\n        manager = msg.sender;\n        userCount = 0;\n        allPostCount = 0;\n    }\n\n    function createPost(\n        string memory description,\n        string memory imgIpfsHash,\n        string memory hash\n    ) public payable {\n        // allPostCount++;\n\n        if(posts.length == 0){\n            allPostCount = 0;\n        }\n\n        uint randomId = uint(keccak256(abi.encodePacked(now, msg.sender, block.difficulty)));\n        Comments memory commEmpty;\n        Likers memory LikersEmpty;\n        \n        Post memory newPost = Post({\n            id: randomId,\n            hash: hash,\n            description: description,\n            imgIpfsHash: imgIpfsHash,\n            likes: 0,\n            owner: msg.sender,\n            timestamp: now,\n            isPublic: true,\n            comments: commEmpty,\n            likers: LikersEmpty\n        });\n\n        posts.push(newPost);\n\n        for (uint256 i = 0; i < peeps.length; i++) {\n            if (peeps[i].uadd == msg.sender) {\n                peeps[i].postsCount++;\n                break;\n            }\n        }\n    }\n\n    // function getPostisPublic() public view returns (uint[] memory, string[] memory, string[] memory){\n    //   uint[] memory id = new uint[](allPostCount);\n    //   string[] memory description = new string[](allPostCount);\n    //   string[] memory img = new string[](allPostCount);\n    //   for (uint i = 0; i < allPostCount; i++) {\n    //       Post storage currpost = posts[i];\n    //       id[i] = currpost.id;\n    //       description[i] = currpost.description;\n    //       img[i] = currpost.imgIpfsHash;\n    //   }\n    //   return (id, description, img);\n    // }\n\n    // function queryuser() public returns(Post[] memory) {\n    //     Post memory post;\n    //     for (uint256 i = 0; i < posts.length; i++) {\n    //         Post storage currPost = posts[i];\n    //         if (posts[i].isPublic == true) {\n    //             post[i] = currPost;\n    //         }\n    //     }\n    //     return posts;\n    // }\n\n    function getPostIsPublic() public view returns (Post[] memory){\n        uint postLength = posts.length;\n        Post[] memory p = new Post[](postLength);\n        for (uint i = 0; i < postLength; i++) {\n            Post storage post = posts[i];\n            if(posts[i].isPublic == true){\n                p[i] = post;\n            }\n        }\n        return p;\n    }\n\n    function getCurrProfilePost() public view returns (Post[] memory){\n        uint postLength = posts.length;\n        Post[] memory p = new Post[](postLength);\n        for (uint i = 0; i < postLength; i++) {\n            Post storage post = posts[i];\n            if(posts[i].owner == msg.sender){\n                p[i] = post;\n            }\n        }\n        return p;\n    }\n\n    function getOtherProfilePost(address ownerAdr) public view returns (Post[] memory){\n        uint postLength = posts.length;\n        Post[] memory p = new Post[](postLength);\n        for (uint i = 0; i < postLength; i++) {\n            Post storage post = posts[i];\n            if(posts[i].owner == ownerAdr && posts[i].isPublic == true){\n                p[i] = post;\n            }\n        }\n        return p;\n    }\n\n    function getPostsCount() public view returns (uint256) {\n        return posts.length;\n    }\n\n    // function likePost(uint256 index, string memory currAdd) public {\n    //     Post storage currPost = posts[index];\n    //     require(\n    //         !currPost.likedBy[msg.sender],\n    //         \"You have already liked this post!\"\n    //     );\n    //     require(msg.sender != currPost.owner, \"You cannot like your own post!\");\n       \n    //     string memory curr = string(\n    //         abi.encodePacked(currPost.likerList, currAdd, \"/\")\n    //     );\n    //     currPost.likerList = curr;\n    //     currPost.likedBy[msg.sender] = true;\n    //     currPost.likes++;\n\n    //     address author = currPost.owner;\n    //     for (uint256 i = 0; i < peeps.length; i++) {\n    //         if (peeps[i].uadd == author) {\n    //             peeps[i].tokens += 1;\n    //             peeps[i].redeemTokens += 1;\n    //             break;\n    //         }\n    //     }\n    // }\n\n    // function isLiker(uint256 index, address likerAdress) public view returns (bool){  \n    //   return posts[index].likedBy[likerAdress];\n    // }\n\n    // function deletePost(uint256 index) public {\n    //     Post storage currPost = posts[index];\n    //     require(currPost.owner == msg.sender, \"You are not the owner of the post!\");\n    //     currPost.isPublic = false;\n    // }\n\n    function deletePost(uint id) public {\n        for(uint i = 0; i < posts.length; i++ ){\n            if(posts[id].id == id){\n                require(posts[i].owner == msg.sender, \"Only the owner can delete this post\" ); \n                delete posts[i];\n                break;\n            }\n        }\n        for (uint256 i = 0; i < peeps.length; i++) {\n            if (peeps[i].uadd == msg.sender) {\n                peeps[i].postsCount--;\n                break;\n            }\n        }\n    }\n\n    \n\n    function signIn(string memory _name) public payable {\n        require(!users[msg.sender], \"Already a user\");\n        Followers memory follEmpty;\n        users[msg.sender] = true;\n        userCount++;\n        User memory newUser = User({\n            name: _name,\n            profilePic: \"\",\n            uadd: msg.sender,\n            tokens: 0,\n            redeemTokens: 0,\n            postsCount: 0,\n            followers: follEmpty\n        });\n        peeps.push(newUser);\n    }\n\n    function isUser(address user) public view returns (bool) {\n        return users[user];\n    }\n\n    // function postComment(uint256 index, string memory comm) public {\n    //     Post storage currPost = posts[index];\n    //     string memory curr = string(\n    //         abi.encodePacked(currPost.comments, comm, \"/\")\n    //     );\n    //     currPost.comments = curr;\n    // }\n\n    // function getPostDetails(string memory postHash)\n    //     public\n    //     view\n    //     returns (uint, string memory, string memory,string memory, uint, address, uint, string memory, string memory, bool)\n    // {\n    //     for (uint256 i = 0; i < posts.length; i++) {\n    //         if ( keccak256(abi.encodePacked((posts[i].hash))) == keccak256(abi.encodePacked((postHash)))) {\n    //             Post storage post = posts[i];\n    //             return (\n    //                 post.id,\n    //                 post.hash,\n    //                 post.description,\n    //                 post.imgIpfsHash,\n    //                 post.likes,\n    //                 post.owner,\n    //                 post.timestamp,\n    //                 post.likerList,\n    //                 post.comments,\n    //                 post.isPublic\n    //             );\n    //         }\n    //     }\n    // }\n\n    function getUserDetails(address addr)\n        public\n        view\n        returns (string memory, uint256, uint256, uint256, address)\n    {\n        for (uint256 i = 0; i < peeps.length; i++) {\n            if (peeps[i].uadd == addr) {\n                User storage user = peeps[i];\n                return (\n                    user.name,\n                    user.tokens,\n                    user.postsCount,\n                    user.redeemTokens,\n                    user.uadd\n                );\n            }\n        }\n    }\n\n    function redeemNTokens(uint256 ntokens, uint256 value) public {\n        // uint256 value = ntokens / 1000;\n        address(uint256(msg.sender)).transfer(value);\n        for (uint256 i = 0; i < peeps.length; i++) {\n            if (peeps[i].uadd == msg.sender) {\n                peeps[i].redeemTokens -= ntokens;\n                break;\n            }\n        }\n    }\n\n    function setChatHash(string memory chash) public {\n        chatHash = chash;\n    }\n\n    function getContractBalance() public view returns (uint256) {\n        return address(this).balance;\n    }\n    \n}\n",
  "sourcePath": "C:\\Users\\iRipple\\Desktop\\felix files\\clone insta\\src\\contracts\\Lixtagram.sol",
  "compiler": {
    "name": "solc",
    "version": "0.5.16+commit.9c3226ce.Emscripten.clang"
  },
  "schemaVersion": "3.4.6",
  "updatedAt": "2022-03-29T07:31:53.221Z",
  "networkType": "ethereum",
  "devdoc": {
    "methods": {}
  },
  "userdoc": {
    "methods": {}
  }
}