{
  "contractName": "Lixtagram",
  "abi": [
    {
      "inputs": [],
      "payable": false,
      "stateMutability": "nonpayable",
      "type": "constructor"
    },
    {
      "constant": true,
      "inputs": [],
      "name": "allPostCount",
      "outputs": [
        {
          "internalType": "uint256",
          "name": "",
          "type": "uint256"
        }
      ],
      "payable": false,
      "stateMutability": "view",
      "type": "function"
    },
    {
      "constant": true,
      "inputs": [],
      "name": "chatHash",
      "outputs": [
        {
          "internalType": "string",
          "name": "",
          "type": "string"
        }
      ],
      "payable": false,
      "stateMutability": "view",
      "type": "function"
    },
    {
      "constant": true,
      "inputs": [],
      "name": "manager",
      "outputs": [
        {
          "internalType": "address",
          "name": "",
          "type": "address"
        }
      ],
      "payable": false,
      "stateMutability": "view",
      "type": "function"
    },
    {
      "constant": true,
      "inputs": [],
      "name": "name",
      "outputs": [
        {
          "internalType": "string",
          "name": "",
          "type": "string"
        }
      ],
      "payable": false,
      "stateMutability": "view",
      "type": "function"
    },
    {
      "constant": true,
      "inputs": [],
      "name": "userCount",
      "outputs": [
        {
          "internalType": "uint256",
          "name": "",
          "type": "uint256"
        }
      ],
      "payable": false,
      "stateMutability": "view",
      "type": "function"
    },
    {
      "constant": false,
      "inputs": [
        {
          "internalType": "string",
          "name": "description",
          "type": "string"
        },
        {
          "internalType": "string",
          "name": "imgIpfsHash",
          "type": "string"
        }
      ],
      "name": "createPost",
      "outputs": [],
      "payable": true,
      "stateMutability": "payable",
      "type": "function"
    },
    {
      "constant": true,
      "inputs": [
        {
          "internalType": "address",
          "name": "user",
          "type": "address"
        },
        {
          "internalType": "uint256",
          "name": "_id",
          "type": "uint256"
        }
      ],
      "name": "isLiker",
      "outputs": [
        {
          "internalType": "bool",
          "name": "",
          "type": "bool"
        }
      ],
      "payable": false,
      "stateMutability": "view",
      "type": "function"
    },
    {
      "constant": true,
      "inputs": [
        {
          "internalType": "address",
          "name": "user",
          "type": "address"
        },
        {
          "internalType": "address",
          "name": "owner",
          "type": "address"
        }
      ],
      "name": "isFollower",
      "outputs": [
        {
          "internalType": "bool",
          "name": "",
          "type": "bool"
        }
      ],
      "payable": false,
      "stateMutability": "view",
      "type": "function"
    },
    {
      "constant": false,
      "inputs": [
        {
          "internalType": "address",
          "name": "adr",
          "type": "address"
        }
      ],
      "name": "followUser",
      "outputs": [],
      "payable": true,
      "stateMutability": "payable",
      "type": "function"
    },
    {
      "constant": false,
      "inputs": [
        {
          "internalType": "uint256",
          "name": "_id",
          "type": "uint256"
        }
      ],
      "name": "likePost",
      "outputs": [],
      "payable": true,
      "stateMutability": "payable",
      "type": "function"
    },
    {
      "constant": true,
      "inputs": [
        {
          "internalType": "address",
          "name": "adr",
          "type": "address"
        }
      ],
      "name": "getUserPublicPost",
      "outputs": [
        {
          "components": [
            {
              "internalType": "uint256",
              "name": "id",
              "type": "uint256"
            },
            {
              "internalType": "string",
              "name": "imgIpfsHash",
              "type": "string"
            },
            {
              "internalType": "uint256",
              "name": "likes",
              "type": "uint256"
            },
            {
              "internalType": "address",
              "name": "owner",
              "type": "address"
            },
            {
              "internalType": "uint256",
              "name": "timestamp",
              "type": "uint256"
            },
            {
              "internalType": "bool",
              "name": "isPublic",
              "type": "bool"
            }
          ],
          "internalType": "struct Lixtagram.Post[]",
          "name": "",
          "type": "tuple[]"
        }
      ],
      "payable": false,
      "stateMutability": "view",
      "type": "function"
    },
    {
      "constant": true,
      "inputs": [
        {
          "internalType": "address",
          "name": "adr",
          "type": "address"
        }
      ],
      "name": "getUserPrivatePost",
      "outputs": [
        {
          "components": [
            {
              "internalType": "uint256",
              "name": "id",
              "type": "uint256"
            },
            {
              "internalType": "string",
              "name": "imgIpfsHash",
              "type": "string"
            },
            {
              "internalType": "uint256",
              "name": "likes",
              "type": "uint256"
            },
            {
              "internalType": "address",
              "name": "owner",
              "type": "address"
            },
            {
              "internalType": "uint256",
              "name": "timestamp",
              "type": "uint256"
            },
            {
              "internalType": "bool",
              "name": "isPublic",
              "type": "bool"
            }
          ],
          "internalType": "struct Lixtagram.Post[]",
          "name": "",
          "type": "tuple[]"
        }
      ],
      "payable": false,
      "stateMutability": "view",
      "type": "function"
    },
    {
      "constant": true,
      "inputs": [],
      "name": "getViewPost",
      "outputs": [
        {
          "components": [
            {
              "internalType": "uint256",
              "name": "id",
              "type": "uint256"
            },
            {
              "internalType": "string",
              "name": "ownerName",
              "type": "string"
            },
            {
              "internalType": "string",
              "name": "imgIpfsHash",
              "type": "string"
            },
            {
              "internalType": "uint256",
              "name": "likes",
              "type": "uint256"
            },
            {
              "internalType": "address",
              "name": "owner",
              "type": "address"
            },
            {
              "internalType": "uint256",
              "name": "timestamp",
              "type": "uint256"
            },
            {
              "internalType": "bool",
              "name": "isPublic",
              "type": "bool"
            },
            {
              "components": [
                {
                  "internalType": "address",
                  "name": "adr",
                  "type": "address"
                },
                {
                  "internalType": "string",
                  "name": "adrName",
                  "type": "string"
                },
                {
                  "internalType": "string",
                  "name": "comment",
                  "type": "string"
                },
                {
                  "internalType": "uint256",
                  "name": "time",
                  "type": "uint256"
                }
              ],
              "internalType": "struct Lixtagram.FilterComments[]",
              "name": "comments",
              "type": "tuple[]"
            },
            {
              "components": [
                {
                  "internalType": "address",
                  "name": "adr",
                  "type": "address"
                },
                {
                  "internalType": "string",
                  "name": "adrName",
                  "type": "string"
                },
                {
                  "internalType": "uint256",
                  "name": "time",
                  "type": "uint256"
                }
              ],
              "internalType": "struct Lixtagram.FilterLikers[]",
              "name": "likers",
              "type": "tuple[]"
            }
          ],
          "internalType": "struct Lixtagram.ViewPost[]",
          "name": "",
          "type": "tuple[]"
        }
      ],
      "payable": false,
      "stateMutability": "view",
      "type": "function"
    },
    {
      "constant": true,
      "inputs": [
        {
          "internalType": "address",
          "name": "adr",
          "type": "address"
        }
      ],
      "name": "getFollowers",
      "outputs": [
        {
          "components": [
            {
              "internalType": "address",
              "name": "follower",
              "type": "address"
            },
            {
              "internalType": "uint256",
              "name": "time",
              "type": "uint256"
            }
          ],
          "internalType": "struct Lixtagram.Followers[]",
          "name": "",
          "type": "tuple[]"
        }
      ],
      "payable": false,
      "stateMutability": "view",
      "type": "function"
    },
    {
      "constant": true,
      "inputs": [
        {
          "internalType": "address",
          "name": "adr",
          "type": "address"
        }
      ],
      "name": "getNumberOffollowwers",
      "outputs": [
        {
          "internalType": "uint256",
          "name": "",
          "type": "uint256"
        }
      ],
      "payable": false,
      "stateMutability": "view",
      "type": "function"
    },
    {
      "constant": true,
      "inputs": [],
      "name": "getPostIsPublic",
      "outputs": [
        {
          "components": [
            {
              "internalType": "uint256",
              "name": "id",
              "type": "uint256"
            },
            {
              "internalType": "string",
              "name": "imgIpfsHash",
              "type": "string"
            },
            {
              "internalType": "uint256",
              "name": "likes",
              "type": "uint256"
            },
            {
              "internalType": "address",
              "name": "owner",
              "type": "address"
            },
            {
              "internalType": "uint256",
              "name": "timestamp",
              "type": "uint256"
            },
            {
              "internalType": "bool",
              "name": "isPublic",
              "type": "bool"
            }
          ],
          "internalType": "struct Lixtagram.Post[]",
          "name": "",
          "type": "tuple[]"
        }
      ],
      "payable": false,
      "stateMutability": "view",
      "type": "function"
    },
    {
      "constant": true,
      "inputs": [],
      "name": "getPostsCount",
      "outputs": [
        {
          "internalType": "uint256",
          "name": "",
          "type": "uint256"
        }
      ],
      "payable": false,
      "stateMutability": "view",
      "type": "function"
    },
    {
      "constant": false,
      "inputs": [
        {
          "internalType": "uint256",
          "name": "id",
          "type": "uint256"
        }
      ],
      "name": "deletePost",
      "outputs": [],
      "payable": false,
      "stateMutability": "nonpayable",
      "type": "function"
    },
    {
      "constant": false,
      "inputs": [
        {
          "internalType": "string",
          "name": "_name",
          "type": "string"
        }
      ],
      "name": "signUp",
      "outputs": [],
      "payable": true,
      "stateMutability": "payable",
      "type": "function"
    },
    {
      "constant": true,
      "inputs": [
        {
          "internalType": "address",
          "name": "adr",
          "type": "address"
        }
      ],
      "name": "getUserDetails",
      "outputs": [
        {
          "internalType": "string",
          "name": "",
          "type": "string"
        },
        {
          "internalType": "uint256",
          "name": "",
          "type": "uint256"
        },
        {
          "internalType": "uint256",
          "name": "",
          "type": "uint256"
        },
        {
          "internalType": "uint256",
          "name": "",
          "type": "uint256"
        },
        {
          "internalType": "address",
          "name": "",
          "type": "address"
        }
      ],
      "payable": false,
      "stateMutability": "view",
      "type": "function"
    },
    {
      "constant": false,
      "inputs": [
        {
          "internalType": "uint256",
          "name": "ntokens",
          "type": "uint256"
        },
        {
          "internalType": "uint256",
          "name": "valueWie",
          "type": "uint256"
        }
      ],
      "name": "redeemNTokens",
      "outputs": [],
      "payable": false,
      "stateMutability": "nonpayable",
      "type": "function"
    },
    {
      "constant": false,
      "inputs": [
        {
          "internalType": "string",
          "name": "chash",
          "type": "string"
        }
      ],
      "name": "setChatHash",
      "outputs": [],
      "payable": false,
      "stateMutability": "nonpayable",
      "type": "function"
    },
    {
      "constant": true,
      "inputs": [],
      "name": "getContractBalance",
      "outputs": [
        {
          "internalType": "uint256",
          "name": "",
          "type": "uint256"
        }
      ],
      "payable": false,
      "stateMutability": "view",
      "type": "function"
    }
  ],
  "bytecode": "0x60806040523480156200001157600080fd5b506040518060400160405280600981526020017f4c697874616772616d0000000000000000000000000000000000000000000000815250600a90805190602001906200005f929190620000b7565b5033600b60006101000a81548173ffffffffffffffffffffffffffffffffffffffff021916908373ffffffffffffffffffffffffffffffffffffffff1602179055506000600c819055506000600d8190555062000166565b828054600181600116156101000203166002900490600052602060002090601f016020900481019282601f10620000fa57805160ff19168380011785556200012b565b828001600101855582156200012b579182015b828111156200012a5782518255916020019190600101906200010d565b5b5090506200013a91906200013e565b5090565b6200016391905b808211156200015f57600081600090555060010162000145565b5090565b90565b61468780620001766000396000f3fe6080604052600436106101405760003560e01c8063725009d3116100b6578063c2fe20221161006f578063c2fe202214610402578063cc3d967b1461043f578063e5fe947714610480578063ed052463146104bd578063f269d069146104fa578063ff7ae9a01461053757610140565b8063725009d31461032f578063836248821461034b5780638c39e55014610376578063a70806f71461039f578063adcfb4fc146103bb578063bab5f773146103d757610140565b80633437d4d9116101085780633437d4d91461022a578063392338f514610255578063481c6a751461027157806366778e941461029c578063690eea1f146102d95780636f9fb98a1461030457610140565b80630589cded1461014557806306fdde031461018257806307973ccf146101ad578063094cd5ee146101d857806320fc020514610201575b600080fd5b34801561015157600080fd5b5061016c600480360361016791908101906136ac565b610562565b6040516101799190614365565b60405180910390f35b34801561018e57600080fd5b506101976105ae565b6040516101a491906141e9565b60405180910390f35b3480156101b957600080fd5b506101c261064c565b6040516101cf9190614365565b60405180910390f35b3480156101e457600080fd5b506101ff60048036036101fa91908101906137fa565b610652565b005b34801561020d57600080fd5b506102286004803603610223919081019061374d565b610895565b005b34801561023657600080fd5b5061023f6108af565b60405161024c91906141e9565b60405180910390f35b61026f600480360361026a919081019061378e565b61094d565b005b34801561027d57600080fd5b50610286610df9565b604051610293919061414d565b60405180910390f35b3480156102a857600080fd5b506102c360048036036102be9190810190613711565b610e1f565b6040516102d091906141ce565b60405180910390f35b3480156102e557600080fd5b506102ee610eea565b6040516102fb9190614365565b60405180910390f35b34801561031057600080fd5b50610319610ef0565b6040516103269190614365565b60405180910390f35b610349600480360361034491908101906137fa565b610ef8565b005b34801561035757600080fd5b506103606112ed565b60405161036d9190614365565b60405180910390f35b34801561038257600080fd5b5061039d60048036036103989190810190613823565b6112fa565b005b6103b960048036036103b491908101906136ac565b6114f9565b005b6103d560048036036103d0919081019061374d565b6119ca565b005b3480156103e357600080fd5b506103ec611d2f565b6040516103f9919061418a565b60405180910390f35b34801561040e57600080fd5b50610429600480360361042491908101906136ac565b611f4b565b6040516104369190614168565b60405180910390f35b34801561044b57600080fd5b50610466600480360361046191908101906136ac565b6120d3565b60405161047795949392919061420b565b60405180910390f35b34801561048c57600080fd5b506104a760048036036104a291908101906136d5565b612293565b6040516104b491906141ce565b60405180910390f35b3480156104c957600080fd5b506104e460048036036104df91908101906136ac565b6123b6565b6040516104f1919061418a565b60405180910390f35b34801561050657600080fd5b50610521600480360361051c91908101906136ac565b612632565b60405161052e919061418a565b60405180910390f35b34801561054357600080fd5b5061054c6128ae565b60405161055991906141ac565b60405180910390f35b6000600160008373ffffffffffffffffffffffffffffffffffffffff1673ffffffffffffffffffffffffffffffffffffffff168152602001908152602001600020805490509050919050565b600a8054600181600116156101000203166002900480601f0160208091040260200160405190810160405280929190818152602001828054600181600116156101000203166002900480156106445780601f1061061957610100808354040283529160200191610644565b820191906000526020600020905b81548152906001019060200180831161062757829003601f168201915b505050505081565b600c5481565b60008090505b6009805490508110156107ca57816009838154811061067357fe5b90600052602060002090600602016000015414156107bd573373ffffffffffffffffffffffffffffffffffffffff16600982815481106106af57fe5b906000526020600020906006020160030160009054906101000a900473ffffffffffffffffffffffffffffffffffffffff1673ffffffffffffffffffffffffffffffffffffffff1614610737576040517f08c379a000000000000000000000000000000000000000000000000000000000815260040161072e90614305565b60405180910390fd5b6009818154811061074457fe5b906000526020600020906006020160008082016000905560018201600061076b9190613269565b60028201600090556003820160006101000a81549073ffffffffffffffffffffffffffffffffffffffff021916905560048201600090556005820160006101000a81549060ff021916905550506107ca565b8080600101915050610658565b5060008090505b600880549050811015610891573373ffffffffffffffffffffffffffffffffffffffff166008828154811061080257fe5b906000526020600020906006020160020160009054906101000a900473ffffffffffffffffffffffffffffffffffffffff1673ffffffffffffffffffffffffffffffffffffffff161415610884576008818154811061085d57fe5b90600052602060002090600602016004016000815480929190600190039190505550610891565b80806001019150506107d1565b5050565b80600e90805190602001906108ab9291906132b1565b5050565b600e8054600181600116156101000203166002900480601f0160208091040260200160405190810160405280929190818152602001828054600181600116156101000203166002900480156109455780601f1061091a57610100808354040283529160200191610945565b820191906000526020600020905b81548152906001019060200180831161092857829003601f168201915b505050505081565b60006009805490501415610964576000600d819055505b600042334460405160200161097b93929190614110565b6040516020818303038152906040528051906020012060001c905061099e613331565b6040518060c00160405280838152602001848152602001600081526020013373ffffffffffffffffffffffffffffffffffffffff16815260200142815260200160011515815250905060098190806001815401808255809150509060018203906000526020600020906006020160009091929091909150600082015181600001556020820151816001019080519060200190610a3b92919061337f565b506040820151816002015560608201518160030160006101000a81548173ffffffffffffffffffffffffffffffffffffffff021916908373ffffffffffffffffffffffffffffffffffffffff1602179055506080820151816004015560a08201518160050160006101000a81548160ff0219169083151502179055505050506002600083815260200190815260200160002060405180604001604052803373ffffffffffffffffffffffffffffffffffffffff168152602001428152509080600181540180825580915050906001820390600052602060002090600202016000909192909190915060008201518160000160006101000a81548173ffffffffffffffffffffffffffffffffffffffff021916908373ffffffffffffffffffffffffffffffffffffffff160217905550602082015181600101555050506003600083815260200190815260200160002060405180606001604052803373ffffffffffffffffffffffffffffffffffffffff168152602001868152602001428152509080600181540180825580915050906001820390600052602060002090600302016000909192909190915060008201518160000160006101000a81548173ffffffffffffffffffffffffffffffffffffffff021916908373ffffffffffffffffffffffffffffffffffffffff1602179055506020820151816001019080519060200190610c4992919061337f565b5060408201518160020155505050600460003373ffffffffffffffffffffffffffffffffffffffff1673ffffffffffffffffffffffffffffffffffffffff168152602001908152602001600020600d549080600181540180825580915050906001820390600052602060002001600090919290919091505550600660003373ffffffffffffffffffffffffffffffffffffffff1673ffffffffffffffffffffffffffffffffffffffff168152602001908152602001600020600d54908060018154018082558091505090600182039060005260206000200160009091929091909150555060008090505b600880549050811015610df2573373ffffffffffffffffffffffffffffffffffffffff1660088281548110610d6457fe5b906000526020600020906006020160020160009054906101000a900473ffffffffffffffffffffffffffffffffffffffff1673ffffffffffffffffffffffffffffffffffffffff161415610de55760088181548110610dbf57fe5b906000526020600020906006020160040160008154809291906001019190505550610df2565b8080600101915050610d33565b5050505050565b600b60009054906101000a900473ffffffffffffffffffffffffffffffffffffffff1681565b60008060008090505b6002600085815260200190815260200160002080549050811015610edf57600260008581526020019081526020016000208181548110610e6457fe5b906000526020600020906002020160000160009054906101000a900473ffffffffffffffffffffffffffffffffffffffff1673ffffffffffffffffffffffffffffffffffffffff168573ffffffffffffffffffffffffffffffffffffffff161415610ed25760019150610edf565b8080600101915050610e28565b508091505092915050565b600d5481565b600047905090565b600060026000838152602001908152602001600020600081548110610f1957fe5b906000526020600020906002020160000160009054906101000a900473ffffffffffffffffffffffffffffffffffffffff1690508073ffffffffffffffffffffffffffffffffffffffff163373ffffffffffffffffffffffffffffffffffffffff161415610fbc576040517f08c379a0000000000000000000000000000000000000000000000000000000008152600401610fb3906142a5565b60405180910390fd5b60006002600084815260200190815260200160002080549050905060008090505b818110156111385760026000858152602001908152602001600020818154811061100357fe5b906000526020600020906002020160000160009054906101000a900473ffffffffffffffffffffffffffffffffffffffff1673ffffffffffffffffffffffffffffffffffffffff163373ffffffffffffffffffffffffffffffffffffffff16141561112b5760026000858152602001908152602001600020818154811061108657fe5b906000526020600020906002020160000160009054906101000a900473ffffffffffffffffffffffffffffffffffffffff1673ffffffffffffffffffffffffffffffffffffffff163373ffffffffffffffffffffffffffffffffffffffff161415611126576040517f08c379a000000000000000000000000000000000000000000000000000000000815260040161111d90614345565b60405180910390fd5b611138565b8080600101915050610fdd565b506002600084815260200190815260200160002060405180604001604052803373ffffffffffffffffffffffffffffffffffffffff168152602001428152509080600181540180825580915050906001820390600052602060002090600202016000909192909190915060008201518160000160006101000a81548173ffffffffffffffffffffffffffffffffffffffff021916908373ffffffffffffffffffffffffffffffffffffffff1602179055506020820151816001015550505060008090505b6008805490508110156112e7578273ffffffffffffffffffffffffffffffffffffffff166008828154811061122d57fe5b906000526020600020906006020160020160009054906101000a900473ffffffffffffffffffffffffffffffffffffffff1673ffffffffffffffffffffffffffffffffffffffff1614156112da5760016008828154811061128a57fe5b9060005260206000209060060201600301600082825401925050819055506001600882815481106112b757fe5b9060005260206000209060060201600501600082825401925050819055506112e7565b80806001019150506111fc565b50505050565b6000600980549050905090565b60148210158061130b575060008214155b61134a576040517f08c379a000000000000000000000000000000000000000000000000000000000815260040161134190614325565b60405180910390fd5b60008090505b6008805490508110156114f4573373ffffffffffffffffffffffffffffffffffffffff166008828154811061138157fe5b906000526020600020906006020160020160009054906101000a900473ffffffffffffffffffffffffffffffffffffffff1673ffffffffffffffffffffffffffffffffffffffff1614156114e7576014600882815481106113de57fe5b90600052602060002090600602016005015410158061141a5750826008828154811061140657fe5b906000526020600020906006020160050154115b611459576040517f08c379a000000000000000000000000000000000000000000000000000000000815260040161145090614265565b60405180910390fd5b3373ffffffffffffffffffffffffffffffffffffffff1673ffffffffffffffffffffffffffffffffffffffff166108fc839081150290604051600060405180830381858888f193505050501580156114b5573d6000803e3d6000fd5b5082600882815481106114c457fe5b9060005260206000209060060201600501600082825403925050819055506114f4565b8080600101915050611350565b505050565b6000600160008373ffffffffffffffffffffffffffffffffffffffff1673ffffffffffffffffffffffffffffffffffffffff16815260200190815260200160002060008154811061154657fe5b906000526020600020906002020160000160009054906101000a900473ffffffffffffffffffffffffffffffffffffffff1690506000600160008473ffffffffffffffffffffffffffffffffffffffff1673ffffffffffffffffffffffffffffffffffffffff1681526020019081526020016000208054905090508273ffffffffffffffffffffffffffffffffffffffff163373ffffffffffffffffffffffffffffffffffffffff161415611630576040517f08c379a0000000000000000000000000000000000000000000000000000000008152600401611627906142c5565b60405180910390fd5b60008090505b818110156117e957600160008573ffffffffffffffffffffffffffffffffffffffff1673ffffffffffffffffffffffffffffffffffffffff168152602001908152602001600020818154811061168857fe5b906000526020600020906002020160000160009054906101000a900473ffffffffffffffffffffffffffffffffffffffff1673ffffffffffffffffffffffffffffffffffffffff163373ffffffffffffffffffffffffffffffffffffffff1614156117dc57600160008573ffffffffffffffffffffffffffffffffffffffff1673ffffffffffffffffffffffffffffffffffffffff168152602001908152602001600020818154811061173757fe5b906000526020600020906002020160000160009054906101000a900473ffffffffffffffffffffffffffffffffffffffff1673ffffffffffffffffffffffffffffffffffffffff163373ffffffffffffffffffffffffffffffffffffffff1614156117d7576040517f08c379a00000000000000000000000000000000000000000000000000000000081526004016117ce90614285565b60405180910390fd5b6117e9565b8080600101915050611636565b50600160008473ffffffffffffffffffffffffffffffffffffffff1673ffffffffffffffffffffffffffffffffffffffff16815260200190815260200160002060405180604001604052803373ffffffffffffffffffffffffffffffffffffffff168152602001428152509080600181540180825580915050906001820390600052602060002090600202016000909192909190915060008201518160000160006101000a81548173ffffffffffffffffffffffffffffffffffffffff021916908373ffffffffffffffffffffffffffffffffffffffff1602179055506020820151816001015550505060008090505b6008805490508110156119c4578273ffffffffffffffffffffffffffffffffffffffff166008828154811061190a57fe5b906000526020600020906006020160020160009054906101000a900473ffffffffffffffffffffffffffffffffffffffff1673ffffffffffffffffffffffffffffffffffffffff1614156119b75760016008828154811061196757fe5b90600052602060002090600602016003016000828254019250508190555060016008828154811061199457fe5b9060005260206000209060060201600501600082825401925050819055506119c4565b80806001019150506118d9565b50505050565b6000803373ffffffffffffffffffffffffffffffffffffffff1673ffffffffffffffffffffffffffffffffffffffff16815260200190815260200160002060009054906101000a900460ff1615611a56576040517f08c379a0000000000000000000000000000000000000000000000000000000008152600401611a4d906142e5565b60405180910390fd5b60016000803373ffffffffffffffffffffffffffffffffffffffff1673ffffffffffffffffffffffffffffffffffffffff16815260200190815260200160002060006101000a81548160ff02191690831515021790555080600760003373ffffffffffffffffffffffffffffffffffffffff1673ffffffffffffffffffffffffffffffffffffffff1681526020019081526020016000209080519060200190611b009291906132b1565b50600c60008154809291906001019190505550611b1b6133ff565b6040518060c001604052808381526020016040518060200160405280600081525081526020013373ffffffffffffffffffffffffffffffffffffffff168152602001600081526020016000815260200160008152509050600881908060018154018082558091505090600182039060005260206000209060060201600090919290919091506000820151816000019080519060200190611bbc92919061337f565b506020820151816001019080519060200190611bd992919061337f565b5060408201518160020160006101000a81548173ffffffffffffffffffffffffffffffffffffffff021916908373ffffffffffffffffffffffffffffffffffffffff160217905550606082015181600301556080820151816004015560a08201518160050155505050600160003373ffffffffffffffffffffffffffffffffffffffff1673ffffffffffffffffffffffffffffffffffffffff16815260200190815260200160002060405180604001604052803373ffffffffffffffffffffffffffffffffffffffff168152602001428152509080600181540180825580915050906001820390600052602060002090600202016000909192909190915060008201518160000160006101000a81548173ffffffffffffffffffffffffffffffffffffffff021916908373ffffffffffffffffffffffffffffffffffffffff160217905550602082015181600101555050505050565b606060006009805490509050606081604051908082528060200260200182016040528015611d7757816020015b611d6461344b565b815260200190600190039081611d5c5790505b50905060008090505b82811015611f4257600060098281548110611d9757fe5b906000526020600020906006020190506001151560098381548110611db857fe5b906000526020600020906006020160050160009054906101000a900460ff1615151415611f3457806040518060c001604052908160008201548152602001600182018054600181600116156101000203166002900480601f016020809104026020016040519081016040528092919081815260200182805460018160011615610100020316600290048015611e8e5780601f10611e6357610100808354040283529160200191611e8e565b820191906000526020600020905b815481529060010190602001808311611e7157829003601f168201915b50505050508152602001600282015481526020016003820160009054906101000a900473ffffffffffffffffffffffffffffffffffffffff1673ffffffffffffffffffffffffffffffffffffffff1673ffffffffffffffffffffffffffffffffffffffff168152602001600482015481526020016005820160009054906101000a900460ff161515151581525050838381518110611f2857fe5b60200260200101819052505b508080600101915050611d80565b50809250505090565b60606000600160008473ffffffffffffffffffffffffffffffffffffffff1673ffffffffffffffffffffffffffffffffffffffff168152602001908152602001600020805490509050606081604051908082528060200260200182016040528015611fd057816020015b611fbd613499565b815260200190600190039081611fb55790505b50905060008090505b828110156120c857600160008673ffffffffffffffffffffffffffffffffffffffff1673ffffffffffffffffffffffffffffffffffffffff168152602001908152602001600020818154811061202b57fe5b90600052602060002090600202016040518060400160405290816000820160009054906101000a900473ffffffffffffffffffffffffffffffffffffffff1673ffffffffffffffffffffffffffffffffffffffff1673ffffffffffffffffffffffffffffffffffffffff1681526020016001820154815250508282815181106120b057fe5b60200260200101819052508080600101915050611fd9565b508092505050919050565b6060600080600080606060008060008060008090505b600880549050811015612275578b73ffffffffffffffffffffffffffffffffffffffff166008828154811061211a57fe5b906000526020600020906006020160020160009054906101000a900473ffffffffffffffffffffffffffffffffffffffff1673ffffffffffffffffffffffffffffffffffffffff1614156122685760006008828154811061217757fe5b90600052602060002090600602019050806000018054600181600116156101000203166002900480601f01602080910402602001604051908101604052809291908181526020018280546001816001161561010002031660029004801561221f5780601f106121f45761010080835404028352916020019161221f565b820191906000526020600020905b81548152906001019060200180831161220257829003601f168201915b505050505096508060030154955080600401549450806005015493508060020160009054906101000a900473ffffffffffffffffffffffffffffffffffffffff16925050612275565b80806001019150506120e9565b50848484848499509950995099509950505050505091939590929450565b60008060008090505b600160008573ffffffffffffffffffffffffffffffffffffffff1673ffffffffffffffffffffffffffffffffffffffff168152602001908152602001600020805490508110156123ab57600160008573ffffffffffffffffffffffffffffffffffffffff1673ffffffffffffffffffffffffffffffffffffffff168152602001908152602001600020818154811061233057fe5b906000526020600020906002020160000160009054906101000a900473ffffffffffffffffffffffffffffffffffffffff1673ffffffffffffffffffffffffffffffffffffffff168573ffffffffffffffffffffffffffffffffffffffff16141561239e57600191506123ab565b808060010191505061229c565b508091505092915050565b60606000600460008473ffffffffffffffffffffffffffffffffffffffff1673ffffffffffffffffffffffffffffffffffffffff168152602001908152602001600020805490509050600060608260405190808252806020026020018201604052801561243d57816020015b61242a61344b565b8152602001906001900390816124225790505b50905060008090505b8381101561262657600460008773ffffffffffffffffffffffffffffffffffffffff1673ffffffffffffffffffffffffffffffffffffffff168152602001908152602001600020818154811061249857fe5b906000526020600020015492506000600984815481106124b457fe5b90600052602060002090600602019050806040518060c001604052908160008201548152602001600182018054600181600116156101000203166002900480601f0160208091040260200160405190810160405280929190818152602001828054600181600116156101000203166002900480156125735780601f1061254857610100808354040283529160200191612573565b820191906000526020600020905b81548152906001019060200180831161255657829003601f168201915b50505050508152602001600282015481526020016003820160009054906101000a900473ffffffffffffffffffffffffffffffffffffffff1673ffffffffffffffffffffffffffffffffffffffff1673ffffffffffffffffffffffffffffffffffffffff168152602001600482015481526020016005820160009054906101000a900460ff16151515158152505083838151811061260d57fe5b6020026020010181905250508080600101915050612446565b50809350505050919050565b60606000600560008473ffffffffffffffffffffffffffffffffffffffff1673ffffffffffffffffffffffffffffffffffffffff16815260200190815260200160002080549050905060006060826040519080825280602002602001820160405280156126b957816020015b6126a661344b565b81526020019060019003908161269e5790505b50905060008090505b838110156128a257600560008773ffffffffffffffffffffffffffffffffffffffff1673ffffffffffffffffffffffffffffffffffffffff168152602001908152602001600020818154811061271457fe5b9060005260206000200154925060006009848154811061273057fe5b90600052602060002090600602019050806040518060c001604052908160008201548152602001600182018054600181600116156101000203166002900480601f0160208091040260200160405190810160405280929190818152602001828054600181600116156101000203166002900480156127ef5780601f106127c4576101008083540402835291602001916127ef565b820191906000526020600020905b8154815290600101906020018083116127d257829003601f168201915b50505050508152602001600282015481526020016003820160009054906101000a900473ffffffffffffffffffffffffffffffffffffffff1673ffffffffffffffffffffffffffffffffffffffff1673ffffffffffffffffffffffffffffffffffffffff168152602001600482015481526020016005820160009054906101000a900460ff16151515158152505083838151811061288957fe5b60200260200101819052505080806001019150506126c2565b50809350505050919050565b6060600060098054905090506060816040519080825280602002602001820160405280156128f657816020015b6128e36134c9565b8152602001906001900390816128db5790505b50905060008090505b82811015612bc45760006009828154811061291657fe5b90600052602060002090600602019050600115156009838154811061293757fe5b906000526020600020906006020160050160009054906101000a900460ff1615151415612bb657806000015483838151811061296f57fe5b602002602001015160000181815250506129ac8160030160009054906101000a900473ffffffffffffffffffffffffffffffffffffffff16612bcd565b8383815181106129b857fe5b602002602001015160200181905250806001018054600181600116156101000203166002900480601f016020809104026020016040519081016040528092919081815260200182805460018160011615610100020316600290048015612a5f5780601f10612a3457610100808354040283529160200191612a5f565b820191906000526020600020905b815481529060010190602001808311612a4257829003601f168201915b5050505050838381518110612a7057fe5b6020026020010151604001819052508060020154838381518110612a9057fe5b602002602001015160600181815250508060030160009054906101000a900473ffffffffffffffffffffffffffffffffffffffff16838381518110612ad157fe5b60200260200101516080019073ffffffffffffffffffffffffffffffffffffffff16908173ffffffffffffffffffffffffffffffffffffffff16815250508060040154838381518110612b2057fe5b602002602001015160a00181815250508060050160009054906101000a900460ff16838381518110612b4e57fe5b602002602001015160c0019015159081151581525050612b718160000154612cae565b838381518110612b7d57fe5b602002602001015160e00181905250612b998160000154612e24565b838381518110612ba557fe5b602002602001015161010001819052505b5080806001019150506128ff565b50809250505090565b6060600760008373ffffffffffffffffffffffffffffffffffffffff1673ffffffffffffffffffffffffffffffffffffffff1681526020019081526020016000208054600181600116156101000203166002900480601f016020809104026020016040519081016040528092919081815260200182805460018160011615610100020316600290048015612ca25780601f10612c7757610100808354040283529160200191612ca2565b820191906000526020600020905b815481529060010190602001808311612c8557829003601f168201915b50505050509050919050565b606080612cba83612f67565b905060608151604051908082528060200260200182016040528015612cf957816020015b612ce661352d565b815260200190600190039081612cde5790505b50905060005b8251811015612e1957828181518110612d1457fe5b602002602001015160000151828281518110612d2c57fe5b60200260200101516000019073ffffffffffffffffffffffffffffffffffffffff16908173ffffffffffffffffffffffffffffffffffffffff1681525050612d8a838281518110612d7957fe5b602002602001015160000151612bcd565b828281518110612d9657fe5b602002602001015160200181905250828181518110612db157fe5b602002602001015160200151828281518110612dc957fe5b602002602001015160400181905250828181518110612de457fe5b602002602001015160400151828281518110612dfc57fe5b602002602001015160600181815250508080600101915050612cff565b508092505050919050565b606080612e3083613139565b905060608151604051908082528060200260200182016040528015612e6f57816020015b612e5c61356b565b815260200190600190039081612e545790505b50905060005b8251811015612f5c57828181518110612e8a57fe5b602002602001015160000151828281518110612ea257fe5b60200260200101516000019073ffffffffffffffffffffffffffffffffffffffff16908173ffffffffffffffffffffffffffffffffffffffff1681525050612f00838281518110612eef57fe5b602002602001015160000151612bcd565b828281518110612f0c57fe5b602002602001015160200181905250828181518110612f2757fe5b602002602001015160200151828281518110612f3f57fe5b602002602001015160400181815250508080600101915050612e75565b508092505050919050565b6060600060036000848152602001908152602001600020805490509050606081604051908082528060200260200182016040528015612fc057816020015b612fad6135a2565b815260200190600190039081612fa55790505b50905060008090505b8281101561312e57600360008681526020019081526020016000208181548110612fef57fe5b90600052602060002090600302016040518060600160405290816000820160009054906101000a900473ffffffffffffffffffffffffffffffffffffffff1673ffffffffffffffffffffffffffffffffffffffff1673ffffffffffffffffffffffffffffffffffffffff168152602001600182018054600181600116156101000203166002900480601f0160208091040260200160405190810160405280929190818152602001828054600181600116156101000203166002900480156130f75780601f106130cc576101008083540402835291602001916130f7565b820191906000526020600020905b8154815290600101906020018083116130da57829003601f168201915b5050505050815260200160028201548152505082828151811061311657fe5b60200260200101819052508080600101915050612fc9565b508092505050919050565b606060006002600084815260200190815260200160002080549050905060608160405190808252806020026020018201604052801561319257816020015b61317f6135d9565b8152602001906001900390816131775790505b50905060008090505b8281101561325e576002600086815260200190815260200160002081815481106131c157fe5b90600052602060002090600202016040518060400160405290816000820160009054906101000a900473ffffffffffffffffffffffffffffffffffffffff1673ffffffffffffffffffffffffffffffffffffffff1673ffffffffffffffffffffffffffffffffffffffff16815260200160018201548152505082828151811061324657fe5b6020026020010181905250808060010191505061319b565b508092505050919050565b50805460018160011615610100020316600290046000825580601f1061328f57506132ae565b601f0160209004906000526020600020908101906132ad9190613609565b5b50565b828054600181600116156101000203166002900490600052602060002090601f016020900481019282601f106132f257805160ff1916838001178555613320565b82800160010185558215613320579182015b8281111561331f578251825591602001919060010190613304565b5b50905061332d9190613609565b5090565b6040518060c00160405280600081526020016060815260200160008152602001600073ffffffffffffffffffffffffffffffffffffffff168152602001600081526020016000151581525090565b828054600181600116156101000203166002900490600052602060002090601f016020900481019282601f106133c057805160ff19168380011785556133ee565b828001600101855582156133ee579182015b828111156133ed5782518255916020019190600101906133d2565b5b5090506133fb9190613609565b5090565b6040518060c001604052806060815260200160608152602001600073ffffffffffffffffffffffffffffffffffffffff1681526020016000815260200160008152602001600081525090565b6040518060c00160405280600081526020016060815260200160008152602001600073ffffffffffffffffffffffffffffffffffffffff168152602001600081526020016000151581525090565b6040518060400160405280600073ffffffffffffffffffffffffffffffffffffffff168152602001600081525090565b60405180610120016040528060008152602001606081526020016060815260200160008152602001600073ffffffffffffffffffffffffffffffffffffffff1681526020016000815260200160001515815260200160608152602001606081525090565b6040518060800160405280600073ffffffffffffffffffffffffffffffffffffffff1681526020016060815260200160608152602001600081525090565b6040518060600160405280600073ffffffffffffffffffffffffffffffffffffffff16815260200160608152602001600081525090565b6040518060600160405280600073ffffffffffffffffffffffffffffffffffffffff16815260200160608152602001600081525090565b6040518060400160405280600073ffffffffffffffffffffffffffffffffffffffff168152602001600081525090565b61362b91905b8082111561362757600081600090555060010161360f565b5090565b90565b60008135905061363d81614616565b92915050565b600082601f83011261365457600080fd5b8135613667613662826143ad565b614380565b9150808252602083016020830185838301111561368357600080fd5b61368e838284614588565b50505092915050565b6000813590506136a68161462d565b92915050565b6000602082840312156136be57600080fd5b60006136cc8482850161362e565b91505092915050565b600080604083850312156136e857600080fd5b60006136f68582860161362e565b92505060206137078582860161362e565b9150509250929050565b6000806040838503121561372457600080fd5b60006137328582860161362e565b925050602061374385828601613697565b9150509250929050565b60006020828403121561375f57600080fd5b600082013567ffffffffffffffff81111561377957600080fd5b61378584828501613643565b91505092915050565b600080604083850312156137a157600080fd5b600083013567ffffffffffffffff8111156137bb57600080fd5b6137c785828601613643565b925050602083013567ffffffffffffffff8111156137e457600080fd5b6137f085828601613643565b9150509250929050565b60006020828403121561380c57600080fd5b600061381a84828501613697565b91505092915050565b6000806040838503121561383657600080fd5b600061384485828601613697565b925050602061385585828601613697565b9150509250929050565b600061386b8383613e8f565b905092915050565b600061387f8383613ef9565b905092915050565b60006138938383613f49565b60408301905092915050565b60006138ab8383613f78565b905092915050565b60006138bf8383614001565b905092915050565b6138d86138d382614540565b6145ca565b82525050565b6138e78161452e565b82525050565b6138f68161452e565b82525050565b600061390782614429565b61391181856144b7565b935083602082028501613923856143d9565b8060005b8581101561395f5784840389528151613940858261385f565b945061394b83614476565b925060208a01995050600181019050613927565b50829750879550505050505092915050565b600061397c82614434565b61398681856144c8565b935083602082028501613998856143e9565b8060005b858110156139d457848403895281516139b58582613873565b94506139c083614483565b925060208a0199505060018101905061399c565b50829750879550505050505092915050565b60006139f18261443f565b6139fb81856144d9565b9350613a06836143f9565b8060005b83811015613a37578151613a1e8882613887565b9750613a2983614490565b925050600181019050613a0a565b5085935050505092915050565b6000613a4f8261444a565b613a5981856144ea565b935083602082028501613a6b85614409565b8060005b85811015613aa75784840389528151613a88858261389f565b9450613a938361449d565b925060208a01995050600181019050613a6f565b50829750879550505050505092915050565b6000613ac482614455565b613ace81856144fb565b935083602082028501613ae085614419565b8060005b85811015613b1c5784840389528151613afd85826138b3565b9450613b08836144aa565b925060208a01995050600181019050613ae4565b50829750879550505050505092915050565b613b3781614552565b82525050565b613b4681614552565b82525050565b6000613b578261446b565b613b61818561451d565b9350613b71818560208601614597565b613b7a816145f8565b840191505092915050565b6000613b9082614460565b613b9a818561450c565b9350613baa818560208601614597565b613bb3816145f8565b840191505092915050565b6000613bc982614460565b613bd3818561451d565b9350613be3818560208601614597565b613bec816145f8565b840191505092915050565b6000613c0460358361451d565b91507f4469646e27742072656163682072656465656d20726571756972656d656e747360008301527f206f722076616c69646174696f6e206661696c656400000000000000000000006020830152604082019050919050565b6000613c6a601c8361451d565b91507f596f7520616c726561647920666f6c6c6f7720746865207573657221000000006000830152602082019050919050565b6000613caa60128361451d565b91507f596f75206f776e207468697320706f73742100000000000000000000000000006000830152602082019050919050565b6000613cea60208361451d565b91507f796f752063616e277420666f6c6f7720796f7572206f776e206163636f756e746000830152602082019050919050565b6000613d2a600e8361451d565b91507f416c7265616479206120757365720000000000000000000000000000000000006000830152602082019050919050565b6000613d6a60238361451d565b91507f4f6e6c7920746865206f776e65722063616e2064656c6574652074686973207060008301527f6f737400000000000000000000000000000000000000000000000000000000006020830152604082019050919050565b6000613dd0605c8361451d565b91507f696e7075742076616c7565206973206e6f7420616c6c6f7765642c206f6e6c7960008301527f20657175616c206f722067726561746572207468616e20323020697320616c6c60208301527f6f77656420616e6420696e707574206d757374206e6f74207a65726f000000006040830152606082019050919050565b6000613e5c601b8361451d565b91507f596f7520616c7265616479206c696b65207468697320706f73742100000000006000830152602082019050919050565b6000608083016000830151613ea760008601826138de565b5060208301518482036020860152613ebf8282613b85565b91505060408301518482036040860152613ed98282613b85565b9150506060830151613eee60608601826140db565b508091505092915050565b6000606083016000830151613f1160008601826138de565b5060208301518482036020860152613f298282613b85565b9150506040830151613f3e60408601826140db565b508091505092915050565b604082016000820151613f5f60008501826138de565b506020820151613f7260208501826140db565b50505050565b600060c083016000830151613f9060008601826140db565b5060208301518482036020860152613fa88282613b85565b9150506040830151613fbd60408601826140db565b506060830151613fd060608601826138de565b506080830151613fe360808601826140db565b5060a0830151613ff660a0860182613b2e565b508091505092915050565b60006101208301600083015161401a60008601826140db565b50602083015184820360208601526140328282613b85565b9150506040830151848203604086015261404c8282613b85565b915050606083015161406160608601826140db565b50608083015161407460808601826138de565b5060a083015161408760a08601826140db565b5060c083015161409a60c0860182613b2e565b5060e083015184820360e08601526140b282826138fc565b9150506101008301518482036101008601526140ce8282613971565b9150508091505092915050565b6140e48161457e565b82525050565b6140f38161457e565b82525050565b61410a6141058261457e565b6145ee565b82525050565b600061411c82866140f9565b60208201915061412c82856138c7565b60148201915061413c82846140f9565b602082019150819050949350505050565b600060208201905061416260008301846138ed565b92915050565b6000602082019050818103600083015261418281846139e6565b905092915050565b600060208201905081810360008301526141a48184613a44565b905092915050565b600060208201905081810360008301526141c68184613ab9565b905092915050565b60006020820190506141e36000830184613b3d565b92915050565b600060208201905081810360008301526142038184613bbe565b905092915050565b600060a08201905081810360008301526142258188613b4c565b905061423460208301876140ea565b61424160408301866140ea565b61424e60608301856140ea565b61425b60808301846138ed565b9695505050505050565b6000602082019050818103600083015261427e81613bf7565b9050919050565b6000602082019050818103600083015261429e81613c5d565b9050919050565b600060208201905081810360008301526142be81613c9d565b9050919050565b600060208201905081810360008301526142de81613cdd565b9050919050565b600060208201905081810360008301526142fe81613d1d565b9050919050565b6000602082019050818103600083015261431e81613d5d565b9050919050565b6000602082019050818103600083015261433e81613dc3565b9050919050565b6000602082019050818103600083015261435e81613e4f565b9050919050565b600060208201905061437a60008301846140ea565b92915050565b6000604051905081810181811067ffffffffffffffff821117156143a357600080fd5b8060405250919050565b600067ffffffffffffffff8211156143c457600080fd5b601f19601f8301169050602081019050919050565b6000819050602082019050919050565b6000819050602082019050919050565b6000819050602082019050919050565b6000819050602082019050919050565b6000819050602082019050919050565b600081519050919050565b600081519050919050565b600081519050919050565b600081519050919050565b600081519050919050565b600081519050919050565b600081519050919050565b6000602082019050919050565b6000602082019050919050565b6000602082019050919050565b6000602082019050919050565b6000602082019050919050565b600082825260208201905092915050565b600082825260208201905092915050565b600082825260208201905092915050565b600082825260208201905092915050565b600082825260208201905092915050565b600082825260208201905092915050565b600082825260208201905092915050565b60006145398261455e565b9050919050565b600061454b8261455e565b9050919050565b60008115159050919050565b600073ffffffffffffffffffffffffffffffffffffffff82169050919050565b6000819050919050565b82818337600083830152505050565b60005b838110156145b557808201518184015260208101905061459a565b838111156145c4576000848401525b50505050565b60006145d5826145dc565b9050919050565b60006145e782614609565b9050919050565b6000819050919050565b6000601f19601f8301169050919050565b60008160601b9050919050565b61461f8161452e565b811461462a57600080fd5b50565b6146368161457e565b811461464157600080fd5b5056fea365627a7a72315820f007cab34d5dbe61bf632f24d87924d6faef3d696d3298220fc4c653201bffbb6c6578706572696d656e74616cf564736f6c63430005100040",
  "source": "pragma solidity >=0.4.21 <0.6.0;\npragma experimental ABIEncoderV2;\n\ncontract Lixtagram {\n\n    struct Followers {\n        address follower;\n        uint time;\n    }\n\n    struct User {\n        string name;\n        string profilePic;\n        address uadd;\n        uint256 tokens;\n        uint256 postsCount;\n        uint256 redeemTokens;\n    }\n\n    struct Comments {\n        address adr;\n        string comment;\n        uint time;\n    }\n\n    struct Likers {\n        address adr;\n        uint time;\n    }\n\n    struct FilterLikers {\n        address adr;\n        string adrName;\n        uint time;\n    }\n\n    struct FilterComments {\n        address adr;\n        string adrName;\n        string comment;\n        uint time;\n    }\n\n    struct Post {\n        uint id;\n        string imgIpfsHash;\n        uint256 likes;\n        address owner;\n        uint timestamp;\n        bool isPublic;\n    }\n\n    struct ViewPost {\n        uint id;\n        string ownerName;\n        string imgIpfsHash;\n        uint256 likes;\n        address owner;\n        uint timestamp;\n        bool isPublic;\n        FilterComments[] comments;\n        FilterLikers[] likers;\n    }\n\n    //User\n    mapping(address => bool) private users;\n    mapping(address => Followers[]) private followers;\n    mapping(uint => Likers[]) private likers;\n    mapping(uint => Comments[]) private comments;\n    mapping(address => uint[]) private userPostPublicIndex;\n    mapping(address => uint[]) private userPostPrivateIndex;\n    mapping(address => uint[]) private userAllPost;\n    mapping(address => string) private username;\n\n    User[] private peeps;\n    Post[] private posts;\n   \n    //constructor \n    string public name;\n    address public manager;\n    uint256 public userCount;\n    uint public allPostCount;\n\n    //Community chat\n    string public chatHash;\n\n    constructor() public {\n        name = \"Lixtagram\";\n        manager = msg.sender;\n        userCount = 0;\n        allPostCount = 0;\n    }\n\n    function createPost(\n        string memory description,\n        string memory imgIpfsHash\n    ) public payable {\n        if(posts.length == 0){\n            allPostCount = 0;\n        }\n        uint randomId = uint(keccak256(abi.encodePacked(now, msg.sender, block.difficulty)));\n            \n        Post memory newPost = Post({\n            id: randomId,\n            imgIpfsHash: imgIpfsHash,\n            likes: 0,\n            owner: msg.sender,\n            timestamp: now,\n            isPublic: true\n        });\n\n        posts.push(newPost);\n        likers[randomId].push(Likers(msg.sender, now));\n        comments[randomId].push(Comments(msg.sender, description ,now));\n        userPostPublicIndex[msg.sender].push(allPostCount);\n        userAllPost[msg.sender].push(allPostCount);\n\n        for (uint256 i = 0; i < peeps.length; i++) {\n            if (peeps[i].uadd == msg.sender) {\n                peeps[i].postsCount++;\n                break;\n            }\n        }\n    }\n\n    function isLiker(address user, uint _id) public view returns(bool){\n        bool f;\n        for(uint i = 0; i < likers[_id].length; i++){\n            if(user == likers[_id][i].adr){\n                f = true;\n                break;\n            }\n        }\n        return f;\n    }\n\n    function isFollower(address user, address owner) public view returns(bool){\n        bool f;\n        for(uint i = 0; i < followers[owner].length; i++){\n            if(user == followers[owner][i].follower){\n                f = true;\n                break;\n            }\n        }\n        return f;\n    }\n\n    function followUser(address adr) public payable{\n        address author = followers[adr][0].follower;\n        uint len = followers[adr].length;\n        require(msg.sender !=  adr, \"you can't folow your own account\");\n        for(uint i = 0; i < len; i++){\n            if(msg.sender == followers[adr][i].follower){\n                require(msg.sender !=  followers[adr][i].follower, \"You already follow the user!\");\n                break;\n            }\n        }\n\n        followers[adr].push(Followers(msg.sender, now));\n        for (uint256 i = 0; i < peeps.length; i++) {\n            if (peeps[i].uadd == author) {\n                peeps[i].tokens += 1;\n                peeps[i].redeemTokens += 1;\n                break;\n            }\n        }\n    }\n\n    function likePost(uint _id) public payable{\n        address author = likers[_id][0].adr;\n        require(msg.sender != author, \"You own this post!\");\n        uint len = likers[_id].length;\n        for(uint i = 0; i < len; i++){\n            if(msg.sender == likers[_id][i].adr){\n                require(msg.sender !=  likers[_id][i].adr, \"You already like this post!\");\n                break;\n            }\n        }\n        likers[_id].push(Likers(msg.sender, now));\n        for (uint256 i = 0; i < peeps.length; i++) {\n            if (peeps[i].uadd == author) {\n                peeps[i].tokens += 1;\n                peeps[i].redeemTokens += 1;\n                break;\n            }\n        }\n    }\n\n    function getUserPublicPost(address adr) public view returns (Post[] memory){\n        uint len = userPostPublicIndex[adr].length;\n        uint index;\n        Post[] memory p = new Post[](len);\n        for(uint i = 0; i < len; i++){\n            index = userPostPublicIndex[adr][i];\n            Post storage post = posts[index];\n            p[i] = post;\n        }\n        return p;\n    }\n\n    function getUserPrivatePost(address adr) public view returns (Post[] memory){\n        uint len = userPostPrivateIndex[adr].length;\n        uint index;\n        Post[] memory p = new Post[](len);\n        for(uint i = 0; i < len; i++){\n            index = userPostPrivateIndex[adr][i];\n            Post storage post = posts[index];\n            p[i] = post;\n        }\n        return p;\n    }\n\n    function getComments(uint _id) private view returns (Comments[] memory){\n      uint len  = comments[_id].length;\n      Comments[] memory c = new Comments[](len);\n      for(uint i =0 ; i < len; i++){\n           c[i] = comments[_id][i];           \n      }\n      return c;\n    }\n\n    function getViewPost() public view returns (ViewPost[] memory){\n        uint postLength = posts.length;\n        ViewPost[] memory v = new ViewPost[](postLength);\n        for (uint i = 0; i < postLength; i++) {\n            Post storage post = posts[i];\n            if(posts[i].isPublic == true){\n                v[i].id = post.id;\n                v[i].ownerName = getUsername(post.owner);\n                v[i].imgIpfsHash = post.imgIpfsHash;\n                v[i].likes = post.likes;\n                v[i].owner = post.owner;\n                v[i].timestamp = post.timestamp;\n                v[i].isPublic = post.isPublic;\n                v[i].comments = getViewPostComments(post.id);\n                v[i].likers = getViewPostLikers(post.id);\n            }\n        }\n        return v;\n    }\n\n    function getViewPostComments(uint _id) private view returns (FilterComments[] memory){\n        Comments[] memory c = getComments(_id);\n        FilterComments[] memory nc = new FilterComments[](c.length);\n        for(uint i; i < c.length; i++){\n            nc[i].adr = c[i].adr;\n            nc[i].adrName = getUsername(c[i].adr); \n            nc[i].comment = c[i].comment; \n            nc[i].time = c[i].time;\n        }\n        return nc;\n     }\n\n     function getViewPostLikers(uint _id) private view returns (FilterLikers[] memory){\n        Likers[] memory l = getLikes(_id);\n        FilterLikers[] memory nl = new FilterLikers[](l.length);\n        for(uint i; i < l.length; i++){\n            nl[i].adr = l[i].adr;\n            nl[i].adrName = getUsername(l[i].adr);\n            nl[i].time = l[i].time;\n        }\n        return nl;\n     }\n     \n\n    function getLikes(uint _id) private view returns (Likers[] memory){\n      uint len  = likers[_id].length;\n      Likers[] memory l = new Likers[](len);\n      for(uint i =0 ; i < len; i++){\n           l[i] = likers[_id][i];           \n      }\n      return l;\n    }\n\n    function getFollowers(address adr) public view returns (Followers[] memory){\n      uint len  = followers[adr].length;\n      Followers[] memory f = new Followers[](len);\n      for(uint i =0 ; i < len; i++){\n           f[i] = followers[adr][i];           \n      }\n      return f;\n    }\n\n    function getUsername(address adr) private view returns (string memory){\n        return username[adr];\n    }\n\n    function getNumberOffollowwers(address adr) public view returns (uint){\n        return followers[adr].length;\n    }\n\n    function getPostIsPublic() public view returns (Post[] memory){\n        uint postLength = posts.length;\n        Post[] memory p = new Post[](postLength);\n        for (uint i = 0; i < postLength; i++) {\n            Post storage post = posts[i];\n            if(posts[i].isPublic == true){\n                p[i] = post;\n            }\n        }\n        return p;\n    }\n\n    function getPostsCount() public view returns (uint256) {\n        return posts.length;\n    }\n\n    // function deletePost(uint256 index) public {\n    //     Post storage currPost = posts[index];\n    //     require(currPost.owner == msg.sender, \"You are not the owner of the post!\");\n    //     currPost.isPublic = false;\n    // }\n\n    function deletePost(uint id) public {\n        for(uint i = 0; i < posts.length; i++ ){\n            if(posts[id].id == id){\n                require(posts[i].owner == msg.sender, \"Only the owner can delete this post\" ); \n                delete posts[i];\n                break;\n            }\n        }\n        for (uint256 i = 0; i < peeps.length; i++) {\n            if (peeps[i].uadd == msg.sender) {\n                peeps[i].postsCount--;\n                break;\n            }\n        }\n    }\n    \n    function signUp(string memory _name) public payable {\n        require(!users[msg.sender], \"Already a user\");\n        users[msg.sender] = true;\n        username[msg.sender] = _name;\n        userCount++;\n        User memory newUser = User({\n            name: _name,\n            profilePic: \"\",\n            uadd: msg.sender,\n            tokens: 0,\n            redeemTokens: 0,\n            postsCount: 0\n        });\n        peeps.push(newUser);\n        followers[msg.sender].push(Followers(msg.sender, now));\n    }\n\n    function isUser(address user) private view returns (bool) {\n        return users[user];\n    }\n\n    // function getPostDetails(string memory postHash)\n    //     public\n    //     view\n    //     returns (uint, string memory, string memory,string memory, uint, address, uint, string memory, string memory, bool)\n    // {\n    //     for (uint256 i = 0; i < posts.length; i++) {\n    //         if ( keccak256(abi.encodePacked((posts[i].hash))) == keccak256(abi.encodePacked((postHash)))) {\n    //             Post storage post = posts[i];\n    //             return (\n    //                 post.id,\n    //                 post.hash,\n    //                 post.description,\n    //                 post.imgIpfsHash,\n    //                 post.likes,\n    //                 post.owner,\n    //                 post.timestamp,\n    //                 post.likerList,\n    //                 post.comments,\n    //                 post.isPublic\n    //             );\n    //         }\n    //     }\n    // }\n\n    function getUserDetails(address adr)\n        public\n        view\n        returns (string memory, uint256, uint256, uint256, address)\n    {\n        string memory n;\n        uint tokens;\n        uint postsCount;\n        uint redeemTokens;\n        address uadd;\n        for (uint256 i = 0; i < peeps.length; i++) {\n            if (peeps[i].uadd == adr) {\n                User storage user = peeps[i];\n                n = user.name;\n                tokens = user.tokens;\n                postsCount = user.postsCount;\n                redeemTokens = user.redeemTokens;\n                uadd = user.uadd;\n                break;\n            }\n        }\n        return (n, tokens, postsCount, redeemTokens, uadd);\n    }\n \n    function redeemNTokens(uint256 ntokens, uint256 valueWie) public {\n        require(ntokens >= 20 || ntokens != 0, \"input value is not allowed, only equal or greater than 20 is allowed and input must not zero\" ); \n        for (uint256 i = 0; i < peeps.length; i++) {\n            if (peeps[i].uadd == msg.sender) {\n                require(peeps[i].redeemTokens >= 20 || peeps[i].redeemTokens > ntokens, \"Didn't reach redeem requirements or validation failed\" ); \n                address(uint256(msg.sender)).transfer(valueWie);\n                peeps[i].redeemTokens -= ntokens;\n                break;\n            }\n        }\n    }\n\n    function setChatHash(string memory chash) public {\n        chatHash = chash;\n    }\n\n    function getContractBalance() public view returns (uint) {\n        return address(this).balance;\n    }\n    \n}\n",
  "sourcePath": "C:\\Users\\iRipple\\Desktop\\felix files\\lixtagram\\lixtagram\\src\\contracts\\Lixtagram.sol",
  "compiler": {
    "name": "solc",
    "version": "0.5.16+commit.9c3226ce.Emscripten.clang"
  },
  "schemaVersion": "3.4.6",
  "updatedAt": "2022-04-11T08:05:06.514Z",
  "networkType": "ethereum",
  "devdoc": {
    "methods": {}
  },
  "userdoc": {
    "methods": {}
  }
}