{
  "contractName": "Lixtagram",
  "abi": [
    {
      "inputs": [],
      "payable": false,
      "stateMutability": "nonpayable",
      "type": "constructor"
    },
    {
      "constant": true,
      "inputs": [],
      "name": "allPostCount",
      "outputs": [
        {
          "internalType": "uint256",
          "name": "",
          "type": "uint256"
        }
      ],
      "payable": false,
      "stateMutability": "view",
      "type": "function"
    },
    {
      "constant": true,
      "inputs": [],
      "name": "chatHash",
      "outputs": [
        {
          "internalType": "string",
          "name": "",
          "type": "string"
        }
      ],
      "payable": false,
      "stateMutability": "view",
      "type": "function"
    },
    {
      "constant": true,
      "inputs": [
        {
          "internalType": "uint256",
          "name": "",
          "type": "uint256"
        },
        {
          "internalType": "uint256",
          "name": "",
          "type": "uint256"
        }
      ],
      "name": "comments",
      "outputs": [
        {
          "internalType": "address",
          "name": "adr",
          "type": "address"
        },
        {
          "internalType": "string",
          "name": "comment",
          "type": "string"
        },
        {
          "internalType": "uint256",
          "name": "time",
          "type": "uint256"
        }
      ],
      "payable": false,
      "stateMutability": "view",
      "type": "function"
    },
    {
      "constant": true,
      "inputs": [
        {
          "internalType": "address",
          "name": "",
          "type": "address"
        },
        {
          "internalType": "uint256",
          "name": "",
          "type": "uint256"
        }
      ],
      "name": "followers",
      "outputs": [
        {
          "internalType": "address",
          "name": "follower",
          "type": "address"
        },
        {
          "internalType": "uint256",
          "name": "time",
          "type": "uint256"
        }
      ],
      "payable": false,
      "stateMutability": "view",
      "type": "function"
    },
    {
      "constant": true,
      "inputs": [
        {
          "internalType": "uint256",
          "name": "",
          "type": "uint256"
        },
        {
          "internalType": "uint256",
          "name": "",
          "type": "uint256"
        }
      ],
      "name": "likers",
      "outputs": [
        {
          "internalType": "address",
          "name": "adr",
          "type": "address"
        },
        {
          "internalType": "uint256",
          "name": "time",
          "type": "uint256"
        }
      ],
      "payable": false,
      "stateMutability": "view",
      "type": "function"
    },
    {
      "constant": true,
      "inputs": [],
      "name": "manager",
      "outputs": [
        {
          "internalType": "address",
          "name": "",
          "type": "address"
        }
      ],
      "payable": false,
      "stateMutability": "view",
      "type": "function"
    },
    {
      "constant": true,
      "inputs": [],
      "name": "name",
      "outputs": [
        {
          "internalType": "string",
          "name": "",
          "type": "string"
        }
      ],
      "payable": false,
      "stateMutability": "view",
      "type": "function"
    },
    {
      "constant": true,
      "inputs": [
        {
          "internalType": "uint256",
          "name": "",
          "type": "uint256"
        }
      ],
      "name": "peeps",
      "outputs": [
        {
          "internalType": "string",
          "name": "name",
          "type": "string"
        },
        {
          "internalType": "string",
          "name": "profilePic",
          "type": "string"
        },
        {
          "internalType": "address",
          "name": "uadd",
          "type": "address"
        },
        {
          "internalType": "uint256",
          "name": "tokens",
          "type": "uint256"
        },
        {
          "internalType": "uint256",
          "name": "postsCount",
          "type": "uint256"
        },
        {
          "internalType": "uint256",
          "name": "redeemTokens",
          "type": "uint256"
        }
      ],
      "payable": false,
      "stateMutability": "view",
      "type": "function"
    },
    {
      "constant": true,
      "inputs": [
        {
          "internalType": "uint256",
          "name": "",
          "type": "uint256"
        }
      ],
      "name": "posts",
      "outputs": [
        {
          "internalType": "uint256",
          "name": "id",
          "type": "uint256"
        },
        {
          "internalType": "string",
          "name": "imgIpfsHash",
          "type": "string"
        },
        {
          "internalType": "uint256",
          "name": "likes",
          "type": "uint256"
        },
        {
          "internalType": "address",
          "name": "owner",
          "type": "address"
        },
        {
          "internalType": "uint256",
          "name": "timestamp",
          "type": "uint256"
        },
        {
          "internalType": "bool",
          "name": "isPublic",
          "type": "bool"
        }
      ],
      "payable": false,
      "stateMutability": "view",
      "type": "function"
    },
    {
      "constant": true,
      "inputs": [
        {
          "internalType": "address",
          "name": "",
          "type": "address"
        },
        {
          "internalType": "uint256",
          "name": "",
          "type": "uint256"
        }
      ],
      "name": "userAllPost",
      "outputs": [
        {
          "internalType": "uint256",
          "name": "",
          "type": "uint256"
        }
      ],
      "payable": false,
      "stateMutability": "view",
      "type": "function"
    },
    {
      "constant": true,
      "inputs": [],
      "name": "userCount",
      "outputs": [
        {
          "internalType": "uint256",
          "name": "",
          "type": "uint256"
        }
      ],
      "payable": false,
      "stateMutability": "view",
      "type": "function"
    },
    {
      "constant": true,
      "inputs": [
        {
          "internalType": "address",
          "name": "",
          "type": "address"
        },
        {
          "internalType": "uint256",
          "name": "",
          "type": "uint256"
        }
      ],
      "name": "userPostPrivateIndex",
      "outputs": [
        {
          "internalType": "uint256",
          "name": "",
          "type": "uint256"
        }
      ],
      "payable": false,
      "stateMutability": "view",
      "type": "function"
    },
    {
      "constant": true,
      "inputs": [
        {
          "internalType": "address",
          "name": "",
          "type": "address"
        },
        {
          "internalType": "uint256",
          "name": "",
          "type": "uint256"
        }
      ],
      "name": "userPostPublicIndex",
      "outputs": [
        {
          "internalType": "uint256",
          "name": "",
          "type": "uint256"
        }
      ],
      "payable": false,
      "stateMutability": "view",
      "type": "function"
    },
    {
      "constant": true,
      "inputs": [
        {
          "internalType": "address",
          "name": "",
          "type": "address"
        }
      ],
      "name": "username",
      "outputs": [
        {
          "internalType": "string",
          "name": "",
          "type": "string"
        }
      ],
      "payable": false,
      "stateMutability": "view",
      "type": "function"
    },
    {
      "constant": true,
      "inputs": [
        {
          "internalType": "address",
          "name": "",
          "type": "address"
        }
      ],
      "name": "users",
      "outputs": [
        {
          "internalType": "bool",
          "name": "",
          "type": "bool"
        }
      ],
      "payable": false,
      "stateMutability": "view",
      "type": "function"
    },
    {
      "constant": false,
      "inputs": [
        {
          "internalType": "string",
          "name": "description",
          "type": "string"
        },
        {
          "internalType": "string",
          "name": "imgIpfsHash",
          "type": "string"
        }
      ],
      "name": "createPost",
      "outputs": [],
      "payable": true,
      "stateMutability": "payable",
      "type": "function"
    },
    {
      "constant": true,
      "inputs": [
        {
          "internalType": "address",
          "name": "user",
          "type": "address"
        },
        {
          "internalType": "uint256",
          "name": "_id",
          "type": "uint256"
        }
      ],
      "name": "isLiker",
      "outputs": [
        {
          "internalType": "bool",
          "name": "",
          "type": "bool"
        }
      ],
      "payable": false,
      "stateMutability": "view",
      "type": "function"
    },
    {
      "constant": true,
      "inputs": [
        {
          "internalType": "address",
          "name": "user",
          "type": "address"
        },
        {
          "internalType": "address",
          "name": "owner",
          "type": "address"
        }
      ],
      "name": "isFollower",
      "outputs": [
        {
          "internalType": "bool",
          "name": "",
          "type": "bool"
        }
      ],
      "payable": false,
      "stateMutability": "view",
      "type": "function"
    },
    {
      "constant": false,
      "inputs": [
        {
          "internalType": "address",
          "name": "adr",
          "type": "address"
        }
      ],
      "name": "followUser",
      "outputs": [],
      "payable": false,
      "stateMutability": "nonpayable",
      "type": "function"
    },
    {
      "constant": false,
      "inputs": [
        {
          "internalType": "uint256",
          "name": "_id",
          "type": "uint256"
        }
      ],
      "name": "likePost",
      "outputs": [],
      "payable": false,
      "stateMutability": "nonpayable",
      "type": "function"
    },
    {
      "constant": true,
      "inputs": [
        {
          "internalType": "address",
          "name": "adr",
          "type": "address"
        }
      ],
      "name": "getUserPublicPost",
      "outputs": [
        {
          "components": [
            {
              "internalType": "uint256",
              "name": "id",
              "type": "uint256"
            },
            {
              "internalType": "string",
              "name": "imgIpfsHash",
              "type": "string"
            },
            {
              "internalType": "uint256",
              "name": "likes",
              "type": "uint256"
            },
            {
              "internalType": "address",
              "name": "owner",
              "type": "address"
            },
            {
              "internalType": "uint256",
              "name": "timestamp",
              "type": "uint256"
            },
            {
              "internalType": "bool",
              "name": "isPublic",
              "type": "bool"
            }
          ],
          "internalType": "struct Lixtagram.Post[]",
          "name": "",
          "type": "tuple[]"
        }
      ],
      "payable": false,
      "stateMutability": "view",
      "type": "function"
    },
    {
      "constant": true,
      "inputs": [
        {
          "internalType": "address",
          "name": "adr",
          "type": "address"
        }
      ],
      "name": "getUserPrivatePost",
      "outputs": [
        {
          "components": [
            {
              "internalType": "uint256",
              "name": "id",
              "type": "uint256"
            },
            {
              "internalType": "string",
              "name": "imgIpfsHash",
              "type": "string"
            },
            {
              "internalType": "uint256",
              "name": "likes",
              "type": "uint256"
            },
            {
              "internalType": "address",
              "name": "owner",
              "type": "address"
            },
            {
              "internalType": "uint256",
              "name": "timestamp",
              "type": "uint256"
            },
            {
              "internalType": "bool",
              "name": "isPublic",
              "type": "bool"
            }
          ],
          "internalType": "struct Lixtagram.Post[]",
          "name": "",
          "type": "tuple[]"
        }
      ],
      "payable": false,
      "stateMutability": "view",
      "type": "function"
    },
    {
      "constant": true,
      "inputs": [
        {
          "internalType": "uint256",
          "name": "_id",
          "type": "uint256"
        }
      ],
      "name": "getComments",
      "outputs": [
        {
          "components": [
            {
              "internalType": "address",
              "name": "adr",
              "type": "address"
            },
            {
              "internalType": "string",
              "name": "comment",
              "type": "string"
            },
            {
              "internalType": "uint256",
              "name": "time",
              "type": "uint256"
            }
          ],
          "internalType": "struct Lixtagram.Comments[]",
          "name": "",
          "type": "tuple[]"
        }
      ],
      "payable": false,
      "stateMutability": "view",
      "type": "function"
    },
    {
      "constant": true,
      "inputs": [
        {
          "internalType": "uint256",
          "name": "_id",
          "type": "uint256"
        }
      ],
      "name": "getLikes",
      "outputs": [
        {
          "components": [
            {
              "internalType": "address",
              "name": "adr",
              "type": "address"
            },
            {
              "internalType": "uint256",
              "name": "time",
              "type": "uint256"
            }
          ],
          "internalType": "struct Lixtagram.Likers[]",
          "name": "",
          "type": "tuple[]"
        }
      ],
      "payable": false,
      "stateMutability": "view",
      "type": "function"
    },
    {
      "constant": true,
      "inputs": [
        {
          "internalType": "address",
          "name": "adr",
          "type": "address"
        }
      ],
      "name": "getFollowers",
      "outputs": [
        {
          "components": [
            {
              "internalType": "address",
              "name": "follower",
              "type": "address"
            },
            {
              "internalType": "uint256",
              "name": "time",
              "type": "uint256"
            }
          ],
          "internalType": "struct Lixtagram.Followers[]",
          "name": "",
          "type": "tuple[]"
        }
      ],
      "payable": false,
      "stateMutability": "view",
      "type": "function"
    },
    {
      "constant": true,
      "inputs": [
        {
          "internalType": "address",
          "name": "adr",
          "type": "address"
        }
      ],
      "name": "getUsername",
      "outputs": [
        {
          "internalType": "string",
          "name": "",
          "type": "string"
        }
      ],
      "payable": false,
      "stateMutability": "view",
      "type": "function"
    },
    {
      "constant": true,
      "inputs": [
        {
          "internalType": "address",
          "name": "adr",
          "type": "address"
        }
      ],
      "name": "getNumberOffollowwers",
      "outputs": [
        {
          "internalType": "uint256",
          "name": "",
          "type": "uint256"
        }
      ],
      "payable": false,
      "stateMutability": "view",
      "type": "function"
    },
    {
      "constant": true,
      "inputs": [],
      "name": "getPostIsPublic",
      "outputs": [
        {
          "components": [
            {
              "internalType": "uint256",
              "name": "id",
              "type": "uint256"
            },
            {
              "internalType": "string",
              "name": "imgIpfsHash",
              "type": "string"
            },
            {
              "internalType": "uint256",
              "name": "likes",
              "type": "uint256"
            },
            {
              "internalType": "address",
              "name": "owner",
              "type": "address"
            },
            {
              "internalType": "uint256",
              "name": "timestamp",
              "type": "uint256"
            },
            {
              "internalType": "bool",
              "name": "isPublic",
              "type": "bool"
            }
          ],
          "internalType": "struct Lixtagram.Post[]",
          "name": "",
          "type": "tuple[]"
        }
      ],
      "payable": false,
      "stateMutability": "view",
      "type": "function"
    },
    {
      "constant": true,
      "inputs": [],
      "name": "getPostsCount",
      "outputs": [
        {
          "internalType": "uint256",
          "name": "",
          "type": "uint256"
        }
      ],
      "payable": false,
      "stateMutability": "view",
      "type": "function"
    },
    {
      "constant": false,
      "inputs": [
        {
          "internalType": "uint256",
          "name": "id",
          "type": "uint256"
        }
      ],
      "name": "deletePost",
      "outputs": [],
      "payable": false,
      "stateMutability": "nonpayable",
      "type": "function"
    },
    {
      "constant": false,
      "inputs": [
        {
          "internalType": "string",
          "name": "_name",
          "type": "string"
        }
      ],
      "name": "signUp",
      "outputs": [],
      "payable": true,
      "stateMutability": "payable",
      "type": "function"
    },
    {
      "constant": true,
      "inputs": [
        {
          "internalType": "address",
          "name": "user",
          "type": "address"
        }
      ],
      "name": "isUser",
      "outputs": [
        {
          "internalType": "bool",
          "name": "",
          "type": "bool"
        }
      ],
      "payable": false,
      "stateMutability": "view",
      "type": "function"
    },
    {
      "constant": true,
      "inputs": [
        {
          "internalType": "address",
          "name": "adr",
          "type": "address"
        }
      ],
      "name": "getUserDetails",
      "outputs": [
        {
          "internalType": "string",
          "name": "",
          "type": "string"
        },
        {
          "internalType": "uint256",
          "name": "",
          "type": "uint256"
        },
        {
          "internalType": "uint256",
          "name": "",
          "type": "uint256"
        },
        {
          "internalType": "uint256",
          "name": "",
          "type": "uint256"
        },
        {
          "internalType": "address",
          "name": "",
          "type": "address"
        }
      ],
      "payable": false,
      "stateMutability": "view",
      "type": "function"
    },
    {
      "constant": false,
      "inputs": [
        {
          "internalType": "uint256",
          "name": "ntokens",
          "type": "uint256"
        },
        {
          "internalType": "uint256",
          "name": "value",
          "type": "uint256"
        }
      ],
      "name": "redeemNTokens",
      "outputs": [],
      "payable": false,
      "stateMutability": "nonpayable",
      "type": "function"
    },
    {
      "constant": false,
      "inputs": [
        {
          "internalType": "string",
          "name": "chash",
          "type": "string"
        }
      ],
      "name": "setChatHash",
      "outputs": [],
      "payable": false,
      "stateMutability": "nonpayable",
      "type": "function"
    },
    {
      "constant": true,
      "inputs": [],
      "name": "getContractBalance",
      "outputs": [
        {
          "internalType": "uint256",
          "name": "",
          "type": "uint256"
        }
      ],
      "payable": false,
      "stateMutability": "view",
      "type": "function"
    }
  ],
  "bytecode": "0x60806040523480156200001157600080fd5b506040518060400160405280600981526020017f4c697874616772616d0000000000000000000000000000000000000000000000815250600a90805190602001906200005f929190620000b7565b5033600b60006101000a81548173ffffffffffffffffffffffffffffffffffffffff021916908373ffffffffffffffffffffffffffffffffffffffff1602179055506000600c819055506000600d8190555062000166565b828054600181600116156101000203166002900490600052602060002090601f016020900481019282601f10620000fa57805160ff19168380011785556200012b565b828001600101855582156200012b579182015b828111156200012a5782518255916020019190600101906200010d565b5b5090506200013a91906200013e565b5090565b6200016391905b808211156200015f57600081600090555060010162000145565b5090565b90565b61479280620001766000396000f3fe60806040526004361061020f5760003560e01c80636f9fb98a11610118578063bab5f773116100a0578063e5fe94771161006f578063e5fe947714610850578063ebd009d31461088d578063ed052463146108cb578063f269d06914610908578063fc6c776f146109455761020f565b8063bab5f7731461076a578063c2fe202214610795578063cc3d967b146107d2578063ce43c032146108135761020f565b8063a209081e116100e7578063a209081e14610669578063a70806f7146106a6578063a87430ba146106cf578063adcfb4fc1461070c578063b7833b6e146107285761020f565b80636f9fb98a146105c1578063725009d3146105ec57806383624882146106155780638c39e550146106405761020f565b806333742e0a1161019b5780634209fff11161016a5780634209fff1146104b3578063481c6a75146104f057806366778e941461051b578063690eea1f146105585780636d5a3861146105835761020f565b806333742e0a146103f25780633437d4d91461042f578063392338f51461045a5780633f029779146104765761020f565b8063094cd5ee116101e2578063094cd5ee146102e45780630b1e7f831461030d57806320fc02051461034f57806323edf6971461037857806324ba9b53146103b55761020f565b80630589cded146102145780630610a7a21461025157806306fdde031461028e57806307973ccf146102b9575b600080fd5b34801561022057600080fd5b5061023b60048036036102369190810190613951565b610984565b6040516102489190614441565b60405180910390f35b34801561025d57600080fd5b5061027860048036036102739190810190613951565b6109d0565b6040516102859190614274565b60405180910390f35b34801561029a57600080fd5b506102a3610a80565b6040516102b09190614274565b60405180910390f35b3480156102c557600080fd5b506102ce610b1e565b6040516102db9190614441565b60405180910390f35b3480156102f057600080fd5b5061030b60048036036103069190810190613a9f565b610b24565b005b34801561031957600080fd5b50610334600480360361032f9190810190613a9f565b610d67565b6040516103469695949392919061445c565b60405180910390f35b34801561035b57600080fd5b50610376600480360361037191908101906139f2565b610e75565b005b34801561038457600080fd5b5061039f600480360361039a9190810190613a9f565b610e8f565b6040516103ac91906141d1565b60405180910390f35b3480156103c157600080fd5b506103dc60048036036103d791908101906139b6565b611061565b6040516103e99190614441565b60405180910390f35b3480156103fe57600080fd5b50610419600480360361041491908101906139b6565b61108f565b6040516104269190614441565b60405180910390f35b34801561043b57600080fd5b506104446110bd565b6040516104519190614274565b60405180910390f35b610474600480360361046f9190810190613a33565b61115b565b005b34801561048257600080fd5b5061049d600480360361049891908101906139b6565b611607565b6040516104aa9190614441565b60405180910390f35b3480156104bf57600080fd5b506104da60048036036104d59190810190613951565b611635565b6040516104e79190614259565b60405180910390f35b3480156104fc57600080fd5b5061050561168a565b604051610512919061414f565b60405180910390f35b34801561052757600080fd5b50610542600480360361053d91908101906139b6565b6116b0565b60405161054f9190614259565b60405180910390f35b34801561056457600080fd5b5061056d61177b565b60405161057a9190614441565b60405180910390f35b34801561058f57600080fd5b506105aa60048036036105a59190810190613ac8565b611781565b6040516105b89291906141a8565b60405180910390f35b3480156105cd57600080fd5b506105d66117df565b6040516105e39190614441565b60405180910390f35b3480156105f857600080fd5b50610613600480360361060e9190810190613a9f565b6117e7565b005b34801561062157600080fd5b5061062a611bdc565b6040516106379190614441565b60405180910390f35b34801561064c57600080fd5b5061066760048036036106629190810190613ac8565b611be9565b005b34801561067557600080fd5b50610690600480360361068b9190810190613a9f565b611d0e565b60405161069d9190614215565b60405180910390f35b3480156106b257600080fd5b506106cd60048036036106c89190810190613951565b611e3e565b005b3480156106db57600080fd5b506106f660048036036106f19190810190613951565b61230f565b6040516107039190614259565b60405180910390f35b610726600480360361072191908101906139f2565b61232f565b005b34801561073457600080fd5b5061074f600480360361074a9190810190613a9f565b612694565b60405161076196959493929190614312565b60405180910390f35b34801561077657600080fd5b5061077f61282d565b60405161078c9190614237565b60405180910390f35b3480156107a157600080fd5b506107bc60048036036107b79190810190613951565b612a49565b6040516107c991906141f3565b60405180910390f35b3480156107de57600080fd5b506107f960048036036107f49190810190613951565b612bd1565b60405161080a9594939291906142b8565b60405180910390f35b34801561081f57600080fd5b5061083a60048036036108359190810190613951565b612d91565b6040516108479190614296565b60405180910390f35b34801561085c57600080fd5b506108776004803603610872919081019061397a565b612e72565b6040516108849190614259565b60405180910390f35b34801561089957600080fd5b506108b460048036036108af91908101906139b6565b612f95565b6040516108c29291906141a8565b60405180910390f35b3480156108d757600080fd5b506108f260048036036108ed9190810190613951565b612ff3565b6040516108ff9190614237565b60405180910390f35b34801561091457600080fd5b5061092f600480360361092a9190810190613951565b61326f565b60405161093c9190614237565b60405180910390f35b34801561095157600080fd5b5061096c60048036036109679190810190613ac8565b6134eb565b60405161097b9392919061416a565b60405180910390f35b6000600160008373ffffffffffffffffffffffffffffffffffffffff1673ffffffffffffffffffffffffffffffffffffffff168152602001908152602001600020805490509050919050565b60076020528060005260406000206000915090508054600181600116156101000203166002900480601f016020809104026020016040519081016040528092919081815260200182805460018160011615610100020316600290048015610a785780601f10610a4d57610100808354040283529160200191610a78565b820191906000526020600020905b815481529060010190602001808311610a5b57829003601f168201915b505050505081565b600a8054600181600116156101000203166002900480601f016020809104026020016040519081016040528092919081815260200182805460018160011615610100020316600290048015610b165780601f10610aeb57610100808354040283529160200191610b16565b820191906000526020600020905b815481529060010190602001808311610af957829003601f168201915b505050505081565b600c5481565b60008090505b600980549050811015610c9c578160098381548110610b4557fe5b9060005260206000209060060201600001541415610c8f573373ffffffffffffffffffffffffffffffffffffffff1660098281548110610b8157fe5b906000526020600020906006020160030160009054906101000a900473ffffffffffffffffffffffffffffffffffffffff1673ffffffffffffffffffffffffffffffffffffffff1614610c09576040517f08c379a0000000000000000000000000000000000000000000000000000000008152600401610c0090614401565b60405180910390fd5b60098181548110610c1657fe5b9060005260206000209060060201600080820160009055600182016000610c3d91906135e7565b60028201600090556003820160006101000a81549073ffffffffffffffffffffffffffffffffffffffff021916905560048201600090556005820160006101000a81549060ff02191690555050610c9c565b8080600101915050610b2a565b5060008090505b600880549050811015610d63573373ffffffffffffffffffffffffffffffffffffffff1660088281548110610cd457fe5b906000526020600020906006020160020160009054906101000a900473ffffffffffffffffffffffffffffffffffffffff1673ffffffffffffffffffffffffffffffffffffffff161415610d565760088181548110610d2f57fe5b90600052602060002090600602016004016000815480929190600190039190505550610d63565b8080600101915050610ca3565b5050565b60098181548110610d7457fe5b9060005260206000209060060201600091509050806000015490806001018054600181600116156101000203166002900480601f016020809104026020016040519081016040528092919081815260200182805460018160011615610100020316600290048015610e265780601f10610dfb57610100808354040283529160200191610e26565b820191906000526020600020905b815481529060010190602001808311610e0957829003601f168201915b5050505050908060020154908060030160009054906101000a900473ffffffffffffffffffffffffffffffffffffffff16908060040154908060050160009054906101000a900460ff16905086565b80600e9080519060200190610e8b92919061362f565b5050565b6060600060036000848152602001908152602001600020805490509050606081604051908082528060200260200182016040528015610ee857816020015b610ed56136af565b815260200190600190039081610ecd5790505b50905060008090505b8281101561105657600360008681526020019081526020016000208181548110610f1757fe5b90600052602060002090600302016040518060600160405290816000820160009054906101000a900473ffffffffffffffffffffffffffffffffffffffff1673ffffffffffffffffffffffffffffffffffffffff1673ffffffffffffffffffffffffffffffffffffffff168152602001600182018054600181600116156101000203166002900480601f01602080910402602001604051908101604052809291908181526020018280546001816001161561010002031660029004801561101f5780601f10610ff45761010080835404028352916020019161101f565b820191906000526020600020905b81548152906001019060200180831161100257829003601f168201915b5050505050815260200160028201548152505082828151811061103e57fe5b60200260200101819052508080600101915050610ef1565b508092505050919050565b6006602052816000526040600020818154811061107a57fe5b90600052602060002001600091509150505481565b600560205281600052604060002081815481106110a857fe5b90600052602060002001600091509150505481565b600e8054600181600116156101000203166002900480601f0160208091040260200160405190810160405280929190818152602001828054600181600116156101000203166002900480156111535780601f1061112857610100808354040283529160200191611153565b820191906000526020600020905b81548152906001019060200180831161113657829003601f168201915b505050505081565b60006009805490501415611172576000600d819055505b600042334460405160200161118993929190614112565b6040516020818303038152906040528051906020012060001c90506111ac6136e6565b6040518060c00160405280838152602001848152602001600081526020013373ffffffffffffffffffffffffffffffffffffffff16815260200142815260200160011515815250905060098190806001815401808255809150509060018203906000526020600020906006020160009091929091909150600082015181600001556020820151816001019080519060200190611249929190613734565b506040820151816002015560608201518160030160006101000a81548173ffffffffffffffffffffffffffffffffffffffff021916908373ffffffffffffffffffffffffffffffffffffffff1602179055506080820151816004015560a08201518160050160006101000a81548160ff0219169083151502179055505050506002600083815260200190815260200160002060405180604001604052803373ffffffffffffffffffffffffffffffffffffffff168152602001428152509080600181540180825580915050906001820390600052602060002090600202016000909192909190915060008201518160000160006101000a81548173ffffffffffffffffffffffffffffffffffffffff021916908373ffffffffffffffffffffffffffffffffffffffff160217905550602082015181600101555050506003600083815260200190815260200160002060405180606001604052803373ffffffffffffffffffffffffffffffffffffffff168152602001868152602001428152509080600181540180825580915050906001820390600052602060002090600302016000909192909190915060008201518160000160006101000a81548173ffffffffffffffffffffffffffffffffffffffff021916908373ffffffffffffffffffffffffffffffffffffffff1602179055506020820151816001019080519060200190611457929190613734565b5060408201518160020155505050600460003373ffffffffffffffffffffffffffffffffffffffff1673ffffffffffffffffffffffffffffffffffffffff168152602001908152602001600020600d549080600181540180825580915050906001820390600052602060002001600090919290919091505550600660003373ffffffffffffffffffffffffffffffffffffffff1673ffffffffffffffffffffffffffffffffffffffff168152602001908152602001600020600d54908060018154018082558091505090600182039060005260206000200160009091929091909150555060008090505b600880549050811015611600573373ffffffffffffffffffffffffffffffffffffffff166008828154811061157257fe5b906000526020600020906006020160020160009054906101000a900473ffffffffffffffffffffffffffffffffffffffff1673ffffffffffffffffffffffffffffffffffffffff1614156115f357600881815481106115cd57fe5b906000526020600020906006020160040160008154809291906001019190505550611600565b8080600101915050611541565b5050505050565b6004602052816000526040600020818154811061162057fe5b90600052602060002001600091509150505481565b60008060008373ffffffffffffffffffffffffffffffffffffffff1673ffffffffffffffffffffffffffffffffffffffff16815260200190815260200160002060009054906101000a900460ff169050919050565b600b60009054906101000a900473ffffffffffffffffffffffffffffffffffffffff1681565b60008060008090505b6002600085815260200190815260200160002080549050811015611770576002600085815260200190815260200160002081815481106116f557fe5b906000526020600020906002020160000160009054906101000a900473ffffffffffffffffffffffffffffffffffffffff1673ffffffffffffffffffffffffffffffffffffffff168573ffffffffffffffffffffffffffffffffffffffff1614156117635760019150611770565b80806001019150506116b9565b508091505092915050565b600d5481565b6002602052816000526040600020818154811061179a57fe5b9060005260206000209060020201600091509150508060000160009054906101000a900473ffffffffffffffffffffffffffffffffffffffff16908060010154905082565b600047905090565b60006002600083815260200190815260200160002060008154811061180857fe5b906000526020600020906002020160000160009054906101000a900473ffffffffffffffffffffffffffffffffffffffff1690508073ffffffffffffffffffffffffffffffffffffffff163373ffffffffffffffffffffffffffffffffffffffff1614156118ab576040517f08c379a00000000000000000000000000000000000000000000000000000000081526004016118a2906143a1565b60405180910390fd5b60006002600084815260200190815260200160002080549050905060008090505b81811015611a27576002600085815260200190815260200160002081815481106118f257fe5b906000526020600020906002020160000160009054906101000a900473ffffffffffffffffffffffffffffffffffffffff1673ffffffffffffffffffffffffffffffffffffffff163373ffffffffffffffffffffffffffffffffffffffff161415611a1a5760026000858152602001908152602001600020818154811061197557fe5b906000526020600020906002020160000160009054906101000a900473ffffffffffffffffffffffffffffffffffffffff1673ffffffffffffffffffffffffffffffffffffffff163373ffffffffffffffffffffffffffffffffffffffff161415611a15576040517f08c379a0000000000000000000000000000000000000000000000000000000008152600401611a0c90614421565b60405180910390fd5b611a27565b80806001019150506118cc565b506002600084815260200190815260200160002060405180604001604052803373ffffffffffffffffffffffffffffffffffffffff168152602001428152509080600181540180825580915050906001820390600052602060002090600202016000909192909190915060008201518160000160006101000a81548173ffffffffffffffffffffffffffffffffffffffff021916908373ffffffffffffffffffffffffffffffffffffffff1602179055506020820151816001015550505060008090505b600880549050811015611bd6578273ffffffffffffffffffffffffffffffffffffffff1660088281548110611b1c57fe5b906000526020600020906006020160020160009054906101000a900473ffffffffffffffffffffffffffffffffffffffff1673ffffffffffffffffffffffffffffffffffffffff161415611bc957600160088281548110611b7957fe5b906000526020600020906006020160030160008282540192505081905550600160088281548110611ba657fe5b906000526020600020906006020160050160008282540192505081905550611bd6565b8080600101915050611aeb565b50505050565b6000600980549050905090565b3373ffffffffffffffffffffffffffffffffffffffff1673ffffffffffffffffffffffffffffffffffffffff166108fc829081150290604051600060405180830381858888f19350505050158015611c45573d6000803e3d6000fd5b5060008090505b600880549050811015611d09573373ffffffffffffffffffffffffffffffffffffffff1660088281548110611c7d57fe5b906000526020600020906006020160020160009054906101000a900473ffffffffffffffffffffffffffffffffffffffff1673ffffffffffffffffffffffffffffffffffffffff161415611cfc578260088281548110611cd957fe5b906000526020600020906006020160050160008282540392505081905550611d09565b8080600101915050611c4c565b505050565b6060600060026000848152602001908152602001600020805490509050606081604051908082528060200260200182016040528015611d6757816020015b611d546137b4565b815260200190600190039081611d4c5790505b50905060008090505b82811015611e3357600260008681526020019081526020016000208181548110611d9657fe5b90600052602060002090600202016040518060400160405290816000820160009054906101000a900473ffffffffffffffffffffffffffffffffffffffff1673ffffffffffffffffffffffffffffffffffffffff1673ffffffffffffffffffffffffffffffffffffffff168152602001600182015481525050828281518110611e1b57fe5b60200260200101819052508080600101915050611d70565b508092505050919050565b6000600160008373ffffffffffffffffffffffffffffffffffffffff1673ffffffffffffffffffffffffffffffffffffffff168152602001908152602001600020600081548110611e8b57fe5b906000526020600020906002020160000160009054906101000a900473ffffffffffffffffffffffffffffffffffffffff1690506000600160008473ffffffffffffffffffffffffffffffffffffffff1673ffffffffffffffffffffffffffffffffffffffff1681526020019081526020016000208054905090508273ffffffffffffffffffffffffffffffffffffffff163373ffffffffffffffffffffffffffffffffffffffff161415611f75576040517f08c379a0000000000000000000000000000000000000000000000000000000008152600401611f6c906143c1565b60405180910390fd5b60008090505b8181101561212e57600160008573ffffffffffffffffffffffffffffffffffffffff1673ffffffffffffffffffffffffffffffffffffffff1681526020019081526020016000208181548110611fcd57fe5b906000526020600020906002020160000160009054906101000a900473ffffffffffffffffffffffffffffffffffffffff1673ffffffffffffffffffffffffffffffffffffffff163373ffffffffffffffffffffffffffffffffffffffff16141561212157600160008573ffffffffffffffffffffffffffffffffffffffff1673ffffffffffffffffffffffffffffffffffffffff168152602001908152602001600020818154811061207c57fe5b906000526020600020906002020160000160009054906101000a900473ffffffffffffffffffffffffffffffffffffffff1673ffffffffffffffffffffffffffffffffffffffff163373ffffffffffffffffffffffffffffffffffffffff16141561211c576040517f08c379a000000000000000000000000000000000000000000000000000000000815260040161211390614381565b60405180910390fd5b61212e565b8080600101915050611f7b565b50600160008473ffffffffffffffffffffffffffffffffffffffff1673ffffffffffffffffffffffffffffffffffffffff16815260200190815260200160002060405180604001604052803373ffffffffffffffffffffffffffffffffffffffff168152602001428152509080600181540180825580915050906001820390600052602060002090600202016000909192909190915060008201518160000160006101000a81548173ffffffffffffffffffffffffffffffffffffffff021916908373ffffffffffffffffffffffffffffffffffffffff1602179055506020820151816001015550505060008090505b600880549050811015612309578273ffffffffffffffffffffffffffffffffffffffff166008828154811061224f57fe5b906000526020600020906006020160020160009054906101000a900473ffffffffffffffffffffffffffffffffffffffff1673ffffffffffffffffffffffffffffffffffffffff1614156122fc576001600882815481106122ac57fe5b9060005260206000209060060201600301600082825401925050819055506001600882815481106122d957fe5b906000526020600020906006020160050160008282540192505081905550612309565b808060010191505061221e565b50505050565b60006020528060005260406000206000915054906101000a900460ff1681565b6000803373ffffffffffffffffffffffffffffffffffffffff1673ffffffffffffffffffffffffffffffffffffffff16815260200190815260200160002060009054906101000a900460ff16156123bb576040517f08c379a00000000000000000000000000000000000000000000000000000000081526004016123b2906143e1565b60405180910390fd5b60016000803373ffffffffffffffffffffffffffffffffffffffff1673ffffffffffffffffffffffffffffffffffffffff16815260200190815260200160002060006101000a81548160ff02191690831515021790555080600760003373ffffffffffffffffffffffffffffffffffffffff1673ffffffffffffffffffffffffffffffffffffffff168152602001908152602001600020908051906020019061246592919061362f565b50600c600081548092919060010191905055506124806137e4565b6040518060c001604052808381526020016040518060200160405280600081525081526020013373ffffffffffffffffffffffffffffffffffffffff168152602001600081526020016000815260200160008152509050600881908060018154018082558091505090600182039060005260206000209060060201600090919290919091506000820151816000019080519060200190612521929190613734565b50602082015181600101908051906020019061253e929190613734565b5060408201518160020160006101000a81548173ffffffffffffffffffffffffffffffffffffffff021916908373ffffffffffffffffffffffffffffffffffffffff160217905550606082015181600301556080820151816004015560a08201518160050155505050600160003373ffffffffffffffffffffffffffffffffffffffff1673ffffffffffffffffffffffffffffffffffffffff16815260200190815260200160002060405180604001604052803373ffffffffffffffffffffffffffffffffffffffff168152602001428152509080600181540180825580915050906001820390600052602060002090600202016000909192909190915060008201518160000160006101000a81548173ffffffffffffffffffffffffffffffffffffffff021916908373ffffffffffffffffffffffffffffffffffffffff160217905550602082015181600101555050505050565b600881815481106126a157fe5b9060005260206000209060060201600091509050806000018054600181600116156101000203166002900480601f01602080910402602001604051908101604052809291908181526020018280546001816001161561010002031660029004801561274d5780601f106127225761010080835404028352916020019161274d565b820191906000526020600020905b81548152906001019060200180831161273057829003601f168201915b505050505090806001018054600181600116156101000203166002900480601f0160208091040260200160405190810160405280929190818152602001828054600181600116156101000203166002900480156127eb5780601f106127c0576101008083540402835291602001916127eb565b820191906000526020600020905b8154815290600101906020018083116127ce57829003601f168201915b5050505050908060020160009054906101000a900473ffffffffffffffffffffffffffffffffffffffff16908060030154908060040154908060050154905086565b60606000600980549050905060608160405190808252806020026020018201604052801561287557816020015b612862613830565b81526020019060019003908161285a5790505b50905060008090505b82811015612a405760006009828154811061289557fe5b9060005260206000209060060201905060011515600983815481106128b657fe5b906000526020600020906006020160050160009054906101000a900460ff1615151415612a3257806040518060c001604052908160008201548152602001600182018054600181600116156101000203166002900480601f01602080910402602001604051908101604052809291908181526020018280546001816001161561010002031660029004801561298c5780601f106129615761010080835404028352916020019161298c565b820191906000526020600020905b81548152906001019060200180831161296f57829003601f168201915b50505050508152602001600282015481526020016003820160009054906101000a900473ffffffffffffffffffffffffffffffffffffffff1673ffffffffffffffffffffffffffffffffffffffff1673ffffffffffffffffffffffffffffffffffffffff168152602001600482015481526020016005820160009054906101000a900460ff161515151581525050838381518110612a2657fe5b60200260200101819052505b50808060010191505061287e565b50809250505090565b60606000600160008473ffffffffffffffffffffffffffffffffffffffff1673ffffffffffffffffffffffffffffffffffffffff168152602001908152602001600020805490509050606081604051908082528060200260200182016040528015612ace57816020015b612abb61387e565b815260200190600190039081612ab35790505b50905060008090505b82811015612bc657600160008673ffffffffffffffffffffffffffffffffffffffff1673ffffffffffffffffffffffffffffffffffffffff1681526020019081526020016000208181548110612b2957fe5b90600052602060002090600202016040518060400160405290816000820160009054906101000a900473ffffffffffffffffffffffffffffffffffffffff1673ffffffffffffffffffffffffffffffffffffffff1673ffffffffffffffffffffffffffffffffffffffff168152602001600182015481525050828281518110612bae57fe5b60200260200101819052508080600101915050612ad7565b508092505050919050565b6060600080600080606060008060008060008090505b600880549050811015612d73578b73ffffffffffffffffffffffffffffffffffffffff1660088281548110612c1857fe5b906000526020600020906006020160020160009054906101000a900473ffffffffffffffffffffffffffffffffffffffff1673ffffffffffffffffffffffffffffffffffffffff161415612d6657600060088281548110612c7557fe5b90600052602060002090600602019050806000018054600181600116156101000203166002900480601f016020809104026020016040519081016040528092919081815260200182805460018160011615610100020316600290048015612d1d5780601f10612cf257610100808354040283529160200191612d1d565b820191906000526020600020905b815481529060010190602001808311612d0057829003601f168201915b505050505096508060030154955080600401549450806005015493508060020160009054906101000a900473ffffffffffffffffffffffffffffffffffffffff16925050612d73565b8080600101915050612be7565b50848484848499509950995099509950505050505091939590929450565b6060600760008373ffffffffffffffffffffffffffffffffffffffff1673ffffffffffffffffffffffffffffffffffffffff1681526020019081526020016000208054600181600116156101000203166002900480601f016020809104026020016040519081016040528092919081815260200182805460018160011615610100020316600290048015612e665780601f10612e3b57610100808354040283529160200191612e66565b820191906000526020600020905b815481529060010190602001808311612e4957829003601f168201915b50505050509050919050565b60008060008090505b600160008573ffffffffffffffffffffffffffffffffffffffff1673ffffffffffffffffffffffffffffffffffffffff16815260200190815260200160002080549050811015612f8a57600160008573ffffffffffffffffffffffffffffffffffffffff1673ffffffffffffffffffffffffffffffffffffffff1681526020019081526020016000208181548110612f0f57fe5b906000526020600020906002020160000160009054906101000a900473ffffffffffffffffffffffffffffffffffffffff1673ffffffffffffffffffffffffffffffffffffffff168573ffffffffffffffffffffffffffffffffffffffff161415612f7d5760019150612f8a565b8080600101915050612e7b565b508091505092915050565b60016020528160005260406000208181548110612fae57fe5b9060005260206000209060020201600091509150508060000160009054906101000a900473ffffffffffffffffffffffffffffffffffffffff16908060010154905082565b60606000600460008473ffffffffffffffffffffffffffffffffffffffff1673ffffffffffffffffffffffffffffffffffffffff168152602001908152602001600020805490509050600060608260405190808252806020026020018201604052801561307a57816020015b613067613830565b81526020019060019003908161305f5790505b50905060008090505b8381101561326357600460008773ffffffffffffffffffffffffffffffffffffffff1673ffffffffffffffffffffffffffffffffffffffff16815260200190815260200160002081815481106130d557fe5b906000526020600020015492506000600984815481106130f157fe5b90600052602060002090600602019050806040518060c001604052908160008201548152602001600182018054600181600116156101000203166002900480601f0160208091040260200160405190810160405280929190818152602001828054600181600116156101000203166002900480156131b05780601f10613185576101008083540402835291602001916131b0565b820191906000526020600020905b81548152906001019060200180831161319357829003601f168201915b50505050508152602001600282015481526020016003820160009054906101000a900473ffffffffffffffffffffffffffffffffffffffff1673ffffffffffffffffffffffffffffffffffffffff1673ffffffffffffffffffffffffffffffffffffffff168152602001600482015481526020016005820160009054906101000a900460ff16151515158152505083838151811061324a57fe5b6020026020010181905250508080600101915050613083565b50809350505050919050565b60606000600560008473ffffffffffffffffffffffffffffffffffffffff1673ffffffffffffffffffffffffffffffffffffffff16815260200190815260200160002080549050905060006060826040519080825280602002602001820160405280156132f657816020015b6132e3613830565b8152602001906001900390816132db5790505b50905060008090505b838110156134df57600560008773ffffffffffffffffffffffffffffffffffffffff1673ffffffffffffffffffffffffffffffffffffffff168152602001908152602001600020818154811061335157fe5b9060005260206000200154925060006009848154811061336d57fe5b90600052602060002090600602019050806040518060c001604052908160008201548152602001600182018054600181600116156101000203166002900480601f01602080910402602001604051908101604052809291908181526020018280546001816001161561010002031660029004801561342c5780601f106134015761010080835404028352916020019161342c565b820191906000526020600020905b81548152906001019060200180831161340f57829003601f168201915b50505050508152602001600282015481526020016003820160009054906101000a900473ffffffffffffffffffffffffffffffffffffffff1673ffffffffffffffffffffffffffffffffffffffff1673ffffffffffffffffffffffffffffffffffffffff168152602001600482015481526020016005820160009054906101000a900460ff1615151515815250508383815181106134c657fe5b60200260200101819052505080806001019150506132ff565b50809350505050919050565b6003602052816000526040600020818154811061350457fe5b9060005260206000209060030201600091509150508060000160009054906101000a900473ffffffffffffffffffffffffffffffffffffffff1690806001018054600181600116156101000203166002900480601f0160208091040260200160405190810160405280929190818152602001828054600181600116156101000203166002900480156135d75780601f106135ac576101008083540402835291602001916135d7565b820191906000526020600020905b8154815290600101906020018083116135ba57829003601f168201915b5050505050908060020154905083565b50805460018160011615610100020316600290046000825580601f1061360d575061362c565b601f01602090049060005260206000209081019061362b91906138ae565b5b50565b828054600181600116156101000203166002900490600052602060002090601f016020900481019282601f1061367057805160ff191683800117855561369e565b8280016001018555821561369e579182015b8281111561369d578251825591602001919060010190613682565b5b5090506136ab91906138ae565b5090565b6040518060600160405280600073ffffffffffffffffffffffffffffffffffffffff16815260200160608152602001600081525090565b6040518060c00160405280600081526020016060815260200160008152602001600073ffffffffffffffffffffffffffffffffffffffff168152602001600081526020016000151581525090565b828054600181600116156101000203166002900490600052602060002090601f016020900481019282601f1061377557805160ff19168380011785556137a3565b828001600101855582156137a3579182015b828111156137a2578251825591602001919060010190613787565b5b5090506137b091906138ae565b5090565b6040518060400160405280600073ffffffffffffffffffffffffffffffffffffffff168152602001600081525090565b6040518060c001604052806060815260200160608152602001600073ffffffffffffffffffffffffffffffffffffffff1681526020016000815260200160008152602001600081525090565b6040518060c00160405280600081526020016060815260200160008152602001600073ffffffffffffffffffffffffffffffffffffffff168152602001600081526020016000151581525090565b6040518060400160405280600073ffffffffffffffffffffffffffffffffffffffff168152602001600081525090565b6138d091905b808211156138cc5760008160009055506001016138b4565b5090565b90565b6000813590506138e281614721565b92915050565b600082601f8301126138f957600080fd5b813561390c613907826144f1565b6144c4565b9150808252602083016020830185838301111561392857600080fd5b613933838284614693565b50505092915050565b60008135905061394b81614738565b92915050565b60006020828403121561396357600080fd5b6000613971848285016138d3565b91505092915050565b6000806040838503121561398d57600080fd5b600061399b858286016138d3565b92505060206139ac858286016138d3565b9150509250929050565b600080604083850312156139c957600080fd5b60006139d7858286016138d3565b92505060206139e88582860161393c565b9150509250929050565b600060208284031215613a0457600080fd5b600082013567ffffffffffffffff811115613a1e57600080fd5b613a2a848285016138e8565b91505092915050565b60008060408385031215613a4657600080fd5b600083013567ffffffffffffffff811115613a6057600080fd5b613a6c858286016138e8565b925050602083013567ffffffffffffffff811115613a8957600080fd5b613a95858286016138e8565b9150509250929050565b600060208284031215613ab157600080fd5b6000613abf8482850161393c565b91505092915050565b60008060408385031215613adb57600080fd5b6000613ae98582860161393c565b9250506020613afa8582860161393c565b9150509250929050565b6000613b108383613fa6565b905092915050565b6000613b248383613ff6565b60408301905092915050565b6000613b3c8383614025565b60408301905092915050565b6000613b548383614054565b905092915050565b613b6d613b688261464b565b6146d5565b82525050565b613b7c81614639565b82525050565b613b8b81614639565b82525050565b6000613b9c8261455d565b613ba681856145d3565b935083602082028501613bb88561451d565b8060005b85811015613bf45784840389528151613bd58582613b04565b9450613be08361459f565b925060208a01995050600181019050613bbc565b50829750879550505050505092915050565b6000613c1182614568565b613c1b81856145e4565b9350613c268361452d565b8060005b83811015613c57578151613c3e8882613b18565b9750613c49836145ac565b925050600181019050613c2a565b5085935050505092915050565b6000613c6f82614573565b613c7981856145f5565b9350613c848361453d565b8060005b83811015613cb5578151613c9c8882613b30565b9750613ca7836145b9565b925050600181019050613c88565b5085935050505092915050565b6000613ccd8261457e565b613cd78185614606565b935083602082028501613ce98561454d565b8060005b85811015613d255784840389528151613d068582613b48565b9450613d11836145c6565b925060208a01995050600181019050613ced565b50829750879550505050505092915050565b613d408161465d565b82525050565b613d4f8161465d565b82525050565b6000613d6082614594565b613d6a8185614628565b9350613d7a8185602086016146a2565b613d8381614703565b840191505092915050565b6000613d9982614589565b613da38185614617565b9350613db38185602086016146a2565b613dbc81614703565b840191505092915050565b6000613dd282614589565b613ddc8185614628565b9350613dec8185602086016146a2565b613df581614703565b840191505092915050565b6000613e0d601c83614628565b91507f596f7520616c726561647920666f6c6c6f7720746865207573657221000000006000830152602082019050919050565b6000613e4d601283614628565b91507f596f75206f776e207468697320706f73742100000000000000000000000000006000830152602082019050919050565b6000613e8d602083614628565b91507f796f752063616e277420666f6c6f7720796f7572206f776e206163636f756e746000830152602082019050919050565b6000613ecd600e83614628565b91507f416c7265616479206120757365720000000000000000000000000000000000006000830152602082019050919050565b6000613f0d602383614628565b91507f4f6e6c7920746865206f776e65722063616e2064656c6574652074686973207060008301527f6f737400000000000000000000000000000000000000000000000000000000006020830152604082019050919050565b6000613f73601b83614628565b91507f596f7520616c7265616479206c696b65207468697320706f73742100000000006000830152602082019050919050565b6000606083016000830151613fbe6000860182613b73565b5060208301518482036020860152613fd68282613d8e565b9150506040830151613feb60408601826140dd565b508091505092915050565b60408201600082015161400c6000850182613b73565b50602082015161401f60208501826140dd565b50505050565b60408201600082015161403b6000850182613b73565b50602082015161404e60208501826140dd565b50505050565b600060c08301600083015161406c60008601826140dd565b50602083015184820360208601526140848282613d8e565b915050604083015161409960408601826140dd565b5060608301516140ac6060860182613b73565b5060808301516140bf60808601826140dd565b5060a08301516140d260a0860182613d37565b508091505092915050565b6140e681614689565b82525050565b6140f581614689565b82525050565b61410c61410782614689565b6146f9565b82525050565b600061411e82866140fb565b60208201915061412e8285613b5c565b60148201915061413e82846140fb565b602082019150819050949350505050565b60006020820190506141646000830184613b82565b92915050565b600060608201905061417f6000830186613b82565b81810360208301526141918185613dc7565b90506141a060408301846140ec565b949350505050565b60006040820190506141bd6000830185613b82565b6141ca60208301846140ec565b9392505050565b600060208201905081810360008301526141eb8184613b91565b905092915050565b6000602082019050818103600083015261420d8184613c06565b905092915050565b6000602082019050818103600083015261422f8184613c64565b905092915050565b600060208201905081810360008301526142518184613cc2565b905092915050565b600060208201905061426e6000830184613d46565b92915050565b6000602082019050818103600083015261428e8184613dc7565b905092915050565b600060208201905081810360008301526142b08184613d55565b905092915050565b600060a08201905081810360008301526142d28188613d55565b90506142e160208301876140ec565b6142ee60408301866140ec565b6142fb60608301856140ec565b6143086080830184613b82565b9695505050505050565b600060c082019050818103600083015261432c8189613dc7565b905081810360208301526143408188613dc7565b905061434f6040830187613b82565b61435c60608301866140ec565b61436960808301856140ec565b61437660a08301846140ec565b979650505050505050565b6000602082019050818103600083015261439a81613e00565b9050919050565b600060208201905081810360008301526143ba81613e40565b9050919050565b600060208201905081810360008301526143da81613e80565b9050919050565b600060208201905081810360008301526143fa81613ec0565b9050919050565b6000602082019050818103600083015261441a81613f00565b9050919050565b6000602082019050818103600083015261443a81613f66565b9050919050565b600060208201905061445660008301846140ec565b92915050565b600060c08201905061447160008301896140ec565b81810360208301526144838188613dc7565b905061449260408301876140ec565b61449f6060830186613b82565b6144ac60808301856140ec565b6144b960a0830184613d46565b979650505050505050565b6000604051905081810181811067ffffffffffffffff821117156144e757600080fd5b8060405250919050565b600067ffffffffffffffff82111561450857600080fd5b601f19601f8301169050602081019050919050565b6000819050602082019050919050565b6000819050602082019050919050565b6000819050602082019050919050565b6000819050602082019050919050565b600081519050919050565b600081519050919050565b600081519050919050565b600081519050919050565b600081519050919050565b600081519050919050565b6000602082019050919050565b6000602082019050919050565b6000602082019050919050565b6000602082019050919050565b600082825260208201905092915050565b600082825260208201905092915050565b600082825260208201905092915050565b600082825260208201905092915050565b600082825260208201905092915050565b600082825260208201905092915050565b600061464482614669565b9050919050565b600061465682614669565b9050919050565b60008115159050919050565b600073ffffffffffffffffffffffffffffffffffffffff82169050919050565b6000819050919050565b82818337600083830152505050565b60005b838110156146c05780820151818401526020810190506146a5565b838111156146cf576000848401525b50505050565b60006146e0826146e7565b9050919050565b60006146f282614714565b9050919050565b6000819050919050565b6000601f19601f8301169050919050565b60008160601b9050919050565b61472a81614639565b811461473557600080fd5b50565b61474181614689565b811461474c57600080fd5b5056fea365627a7a7231582056c3b3d649d30d7939b61387c3ffdb3bef9af7cb8385f738d1d8b9029b4547086c6578706572696d656e74616cf564736f6c63430005100040",
  "source": "pragma solidity >=0.4.21 <0.6.0;\npragma experimental ABIEncoderV2;\n\ncontract Lixtagram {\n\n    struct Followers {\n        address follower;\n        uint time;\n    }\n\n    struct User {\n        string name;\n        string profilePic;\n        address uadd;\n        uint256 tokens;\n        uint256 postsCount;\n        uint256 redeemTokens;\n    }\n\n    struct Comments {\n        address adr;\n        string comment;\n        uint time;\n    }\n\n    struct Likers {\n        address adr;\n        uint time;\n    }\n\n    struct Post {\n        uint id;\n        string imgIpfsHash;\n        uint256 likes;\n        address owner;\n        uint timestamp;\n        bool isPublic;\n    }\n\n    //User\n    mapping(address => bool) public users;\n    mapping(address => Followers[]) public followers;\n    mapping(uint => Likers[]) public likers;\n    mapping(uint => Comments[]) public comments;\n    mapping(address => uint[]) public userPostPublicIndex;\n    mapping(address => uint[]) public userPostPrivateIndex;\n    mapping(address => uint[]) public userAllPost;\n    mapping(address => string) public username;\n\n    User[] public peeps;\n    Post[] public posts;\n   \n    //constructor \n    string public name;\n    address public manager;\n    uint256 public userCount;\n    uint public allPostCount;\n\n    //Community chat\n    string public chatHash;\n\n    constructor() public {\n        name = \"Lixtagram\";\n        manager = msg.sender;\n        userCount = 0;\n        allPostCount = 0;\n    }\n\n    function createPost(\n        string memory description,\n        string memory imgIpfsHash\n    ) public payable {\n        if(posts.length == 0){\n            allPostCount = 0;\n        }\n        uint randomId = uint(keccak256(abi.encodePacked(now, msg.sender, block.difficulty)));\n            \n        Post memory newPost = Post({\n            id: randomId,\n            imgIpfsHash: imgIpfsHash,\n            likes: 0,\n            owner: msg.sender,\n            timestamp: now,\n            isPublic: true\n        });\n\n        posts.push(newPost);\n        likers[randomId].push(Likers(msg.sender, now));\n        comments[randomId].push(Comments(msg.sender, description ,now));\n        userPostPublicIndex[msg.sender].push(allPostCount);\n        userAllPost[msg.sender].push(allPostCount);\n\n        for (uint256 i = 0; i < peeps.length; i++) {\n            if (peeps[i].uadd == msg.sender) {\n                peeps[i].postsCount++;\n                break;\n            }\n        }\n    }\n\n    function isLiker(address user, uint _id) public view returns(bool){\n        bool f;\n        for(uint i = 0; i < likers[_id].length; i++){\n            if(user == likers[_id][i].adr){\n                f = true;\n                break;\n            }\n        }\n        return f;\n    }\n\n    function isFollower(address user, address owner) public view returns(bool){\n        bool f;\n        for(uint i = 0; i < followers[owner].length; i++){\n            if(user == followers[owner][i].follower){\n                f = true;\n                break;\n            }\n        }\n        return f;\n    }\n\n    function followUser(address adr) public {\n        address author = followers[adr][0].follower;\n        uint len = followers[adr].length;\n        require(msg.sender !=  adr, \"you can't folow your own account\");\n        for(uint i = 0; i < len; i++){\n            if(msg.sender == followers[adr][i].follower){\n                require(msg.sender !=  followers[adr][i].follower, \"You already follow the user!\");\n                break;\n            }\n        }\n        followers[adr].push(Followers(msg.sender, now));\n        for (uint256 i = 0; i < peeps.length; i++) {\n            if (peeps[i].uadd == author) {\n                peeps[i].tokens += 1;\n                peeps[i].redeemTokens += 1;\n                break;\n            }\n        }\n    }\n\n    function likePost(uint _id) public {\n        address author = likers[_id][0].adr;\n        require(msg.sender != author, \"You own this post!\");\n        uint len = likers[_id].length;\n        for(uint i = 0; i < len; i++){\n            if(msg.sender == likers[_id][i].adr){\n                require(msg.sender !=  likers[_id][i].adr, \"You already like this post!\");\n                break;\n            }\n        }\n        likers[_id].push(Likers(msg.sender, now));\n        for (uint256 i = 0; i < peeps.length; i++) {\n            if (peeps[i].uadd == author) {\n                peeps[i].tokens += 1;\n                peeps[i].redeemTokens += 1;\n                break;\n            }\n        }\n    }\n\n    function getUserPublicPost(address adr) public view returns (Post[] memory){\n        uint len = userPostPublicIndex[adr].length;\n        uint index;\n        Post[] memory p = new Post[](len);\n        for(uint i = 0; i < len; i++){\n            index = userPostPublicIndex[adr][i];\n            Post storage post = posts[index];\n            p[i] = post;\n        }\n        return p;\n    }\n\n    function getUserPrivatePost(address adr) public view returns (Post[] memory){\n        uint len = userPostPrivateIndex[adr].length;\n        uint index;\n        Post[] memory p = new Post[](len);\n        for(uint i = 0; i < len; i++){\n            index = userPostPrivateIndex[adr][i];\n            Post storage post = posts[index];\n            p[i] = post;\n        }\n        return p;\n    }\n\n    function getComments(uint _id) public view returns (Comments[] memory){\n      uint len  = comments[_id].length;\n      Comments[] memory c = new Comments[](len);\n      for(uint i =0 ; i < len; i++){\n           c[i] = comments[_id][i];           \n      }\n      return c;\n    }\n\n    function getLikes(uint _id) public view returns (Likers[] memory){\n      uint len  = likers[_id].length;\n      Likers[] memory l = new Likers[](len);\n      for(uint i =0 ; i < len; i++){\n           l[i] = likers[_id][i];           \n      }\n      return l;\n    }\n\n    function getFollowers(address adr) public view returns (Followers[] memory){\n      uint len  = followers[adr].length;\n      Followers[] memory f = new Followers[](len);\n      for(uint i =0 ; i < len; i++){\n           f[i] = followers[adr][i];           \n      }\n      return f;\n    }\n\n    function getUsername(address adr) public view returns (string memory){\n        return username[adr];\n    }\n\n    function getNumberOffollowwers(address adr) public view returns (uint){\n        return followers[adr].length;\n    }\n\n    function getPostIsPublic() public view returns (Post[] memory){\n        uint postLength = posts.length;\n        Post[] memory p = new Post[](postLength);\n        for (uint i = 0; i < postLength; i++) {\n            Post storage post = posts[i];\n            if(posts[i].isPublic == true){\n                p[i] = post;\n            }\n        }\n        return p;\n    }\n\n\n    function getPostsCount() public view returns (uint256) {\n        return posts.length;\n    }\n\n    // function likePost(uint256 index, string memory currAdd) public {\n    //     Post storage currPost = posts[index];\n    //     require(\n    //         !currPost.likedBy[msg.sender],\n    //         \"You have already liked this post!\"\n    //     );\n    //     require(msg.sender != currPost.owner, \"You cannot like your own post!\");\n       \n    //     string memory curr = string(\n    //         abi.encodePacked(currPost.likerList, currAdd, \"/\")\n    //     );\n    //     currPost.likerList = curr;\n    //     currPost.likedBy[msg.sender] = true;\n    //     currPost.likes++;\n\n    //     address author = currPost.owner;\n    //     for (uint256 i = 0; i < peeps.length; i++) {\n    //         if (peeps[i].uadd == author) {\n    //             peeps[i].tokens += 1;\n    //             peeps[i].redeemTokens += 1;\n    //             break;\n    //         }\n    //     }\n    // }\n\n    // function isLiker(uint256 index, address likerAdress) public view returns (bool){  \n    //   return posts[index].likedBy[likerAdress];\n    // }\n\n    // function deletePost(uint256 index) public {\n    //     Post storage currPost = posts[index];\n    //     require(currPost.owner == msg.sender, \"You are not the owner of the post!\");\n    //     currPost.isPublic = false;\n    // }\n\n    function deletePost(uint id) public {\n        for(uint i = 0; i < posts.length; i++ ){\n            if(posts[id].id == id){\n                require(posts[i].owner == msg.sender, \"Only the owner can delete this post\" ); \n                delete posts[i];\n                break;\n            }\n        }\n        for (uint256 i = 0; i < peeps.length; i++) {\n            if (peeps[i].uadd == msg.sender) {\n                peeps[i].postsCount--;\n                break;\n            }\n        }\n    }\n    \n    function signUp(string memory _name) public payable {\n        require(!users[msg.sender], \"Already a user\");\n        users[msg.sender] = true;\n        username[msg.sender] = _name;\n        userCount++;\n        User memory newUser = User({\n            name: _name,\n            profilePic: \"\",\n            uadd: msg.sender,\n            tokens: 0,\n            redeemTokens: 0,\n            postsCount: 0\n        });\n        peeps.push(newUser);\n        followers[msg.sender].push(Followers(msg.sender, now));\n    }\n\n    function isUser(address user) public view returns (bool) {\n        return users[user];\n    }\n\n    // function postComment(uint256 index, string memory comm) public {\n    //     Post storage currPost = posts[index];\n    //     string memory curr = string(\n    //         abi.encodePacked(currPost.comments, comm, \"/\")\n    //     );\n    //     currPost.comments = curr;\n    // }\n\n    // function getPostDetails(string memory postHash)\n    //     public\n    //     view\n    //     returns (uint, string memory, string memory,string memory, uint, address, uint, string memory, string memory, bool)\n    // {\n    //     for (uint256 i = 0; i < posts.length; i++) {\n    //         if ( keccak256(abi.encodePacked((posts[i].hash))) == keccak256(abi.encodePacked((postHash)))) {\n    //             Post storage post = posts[i];\n    //             return (\n    //                 post.id,\n    //                 post.hash,\n    //                 post.description,\n    //                 post.imgIpfsHash,\n    //                 post.likes,\n    //                 post.owner,\n    //                 post.timestamp,\n    //                 post.likerList,\n    //                 post.comments,\n    //                 post.isPublic\n    //             );\n    //         }\n    //     }\n    // }\n\n    // function getUserDetails(address adr)public view returns (User[] memory){\n    //     User[] memory u = new User[](peeps.length);\n    //     for (uint256 i = 0; i < peeps.length; i++) {\n    //         User storage user = peeps[i];\n    //         if ( peeps[i].uadd == adr) {\n    //             u[i] = user;\n    //             break;\n    //         }\n    //     }\n    //     return u;\n    // }\n\n    function getUserDetails(address adr)\n        public\n        view\n        returns (string memory, uint256, uint256, uint256, address)\n    {\n        string memory n;\n        uint tokens;\n        uint postsCount;\n        uint redeemTokens;\n        address uadd;\n        for (uint256 i = 0; i < peeps.length; i++) {\n            if (peeps[i].uadd == adr) {\n                User storage user = peeps[i];\n                n = user.name;\n                tokens = user.tokens;\n                postsCount = user.postsCount;\n                redeemTokens = user.redeemTokens;\n                uadd = user.uadd;\n                break;\n            }\n        }\n        return (n, tokens, postsCount, redeemTokens, uadd);\n    }\n\n    function redeemNTokens(uint256 ntokens, uint256 value) public {\n        address(uint256(msg.sender)).transfer(value);\n        for (uint256 i = 0; i < peeps.length; i++) {\n            if (peeps[i].uadd == msg.sender) {\n                peeps[i].redeemTokens -= ntokens;\n                break;\n            }\n        }\n    }\n\n    function setChatHash(string memory chash) public {\n        chatHash = chash;\n    }\n\n    function getContractBalance() public view returns (uint256) {\n        return address(this).balance;\n    }\n    \n}\n",
  "sourcePath": "C:\\Users\\iRipple\\Desktop\\felix files\\lixtagram\\lixtagram\\src\\contracts\\Lixtagram.sol",
  "compiler": {
    "name": "solc",
    "version": "0.5.16+commit.9c3226ce.Emscripten.clang"
  },
  "schemaVersion": "3.4.6",
  "updatedAt": "2022-04-09T15:56:14.980Z",
  "networkType": "ethereum",
  "devdoc": {
    "methods": {}
  },
  "userdoc": {
    "methods": {}
  }
}