{
  "contractName": "Lixtagram",
  "abi": [
    {
      "inputs": [],
      "payable": false,
      "stateMutability": "nonpayable",
      "type": "constructor"
    },
    {
      "constant": true,
      "inputs": [],
      "name": "allPostCount",
      "outputs": [
        {
          "internalType": "uint256",
          "name": "",
          "type": "uint256"
        }
      ],
      "payable": false,
      "stateMutability": "view",
      "type": "function"
    },
    {
      "constant": true,
      "inputs": [],
      "name": "chatHash",
      "outputs": [
        {
          "internalType": "string",
          "name": "",
          "type": "string"
        }
      ],
      "payable": false,
      "stateMutability": "view",
      "type": "function"
    },
    {
      "constant": true,
      "inputs": [
        {
          "internalType": "uint256",
          "name": "",
          "type": "uint256"
        },
        {
          "internalType": "uint256",
          "name": "",
          "type": "uint256"
        }
      ],
      "name": "comments",
      "outputs": [
        {
          "internalType": "address",
          "name": "adr",
          "type": "address"
        },
        {
          "internalType": "string",
          "name": "comment",
          "type": "string"
        },
        {
          "internalType": "uint256",
          "name": "time",
          "type": "uint256"
        }
      ],
      "payable": false,
      "stateMutability": "view",
      "type": "function"
    },
    {
      "constant": true,
      "inputs": [
        {
          "internalType": "address",
          "name": "",
          "type": "address"
        },
        {
          "internalType": "uint256",
          "name": "",
          "type": "uint256"
        }
      ],
      "name": "followers",
      "outputs": [
        {
          "internalType": "address",
          "name": "follower",
          "type": "address"
        },
        {
          "internalType": "uint256",
          "name": "time",
          "type": "uint256"
        }
      ],
      "payable": false,
      "stateMutability": "view",
      "type": "function"
    },
    {
      "constant": true,
      "inputs": [
        {
          "internalType": "uint256",
          "name": "",
          "type": "uint256"
        },
        {
          "internalType": "uint256",
          "name": "",
          "type": "uint256"
        }
      ],
      "name": "likers",
      "outputs": [
        {
          "internalType": "address",
          "name": "adr",
          "type": "address"
        },
        {
          "internalType": "uint256",
          "name": "time",
          "type": "uint256"
        }
      ],
      "payable": false,
      "stateMutability": "view",
      "type": "function"
    },
    {
      "constant": true,
      "inputs": [],
      "name": "manager",
      "outputs": [
        {
          "internalType": "address",
          "name": "",
          "type": "address"
        }
      ],
      "payable": false,
      "stateMutability": "view",
      "type": "function"
    },
    {
      "constant": true,
      "inputs": [],
      "name": "name",
      "outputs": [
        {
          "internalType": "string",
          "name": "",
          "type": "string"
        }
      ],
      "payable": false,
      "stateMutability": "view",
      "type": "function"
    },
    {
      "constant": true,
      "inputs": [
        {
          "internalType": "uint256",
          "name": "",
          "type": "uint256"
        }
      ],
      "name": "peeps",
      "outputs": [
        {
          "internalType": "string",
          "name": "name",
          "type": "string"
        },
        {
          "internalType": "string",
          "name": "profilePic",
          "type": "string"
        },
        {
          "internalType": "address",
          "name": "uadd",
          "type": "address"
        },
        {
          "internalType": "uint256",
          "name": "tokens",
          "type": "uint256"
        },
        {
          "internalType": "uint256",
          "name": "postsCount",
          "type": "uint256"
        },
        {
          "internalType": "uint256",
          "name": "redeemTokens",
          "type": "uint256"
        }
      ],
      "payable": false,
      "stateMutability": "view",
      "type": "function"
    },
    {
      "constant": true,
      "inputs": [
        {
          "internalType": "uint256",
          "name": "",
          "type": "uint256"
        }
      ],
      "name": "posts",
      "outputs": [
        {
          "internalType": "uint256",
          "name": "id",
          "type": "uint256"
        },
        {
          "internalType": "string",
          "name": "imgIpfsHash",
          "type": "string"
        },
        {
          "internalType": "uint256",
          "name": "likes",
          "type": "uint256"
        },
        {
          "internalType": "address",
          "name": "owner",
          "type": "address"
        },
        {
          "internalType": "uint256",
          "name": "timestamp",
          "type": "uint256"
        },
        {
          "internalType": "bool",
          "name": "isPublic",
          "type": "bool"
        }
      ],
      "payable": false,
      "stateMutability": "view",
      "type": "function"
    },
    {
      "constant": true,
      "inputs": [
        {
          "internalType": "address",
          "name": "",
          "type": "address"
        },
        {
          "internalType": "uint256",
          "name": "",
          "type": "uint256"
        }
      ],
      "name": "userAllPost",
      "outputs": [
        {
          "internalType": "uint256",
          "name": "",
          "type": "uint256"
        }
      ],
      "payable": false,
      "stateMutability": "view",
      "type": "function"
    },
    {
      "constant": true,
      "inputs": [],
      "name": "userCount",
      "outputs": [
        {
          "internalType": "uint256",
          "name": "",
          "type": "uint256"
        }
      ],
      "payable": false,
      "stateMutability": "view",
      "type": "function"
    },
    {
      "constant": true,
      "inputs": [
        {
          "internalType": "address",
          "name": "",
          "type": "address"
        },
        {
          "internalType": "uint256",
          "name": "",
          "type": "uint256"
        }
      ],
      "name": "userPostPrivateIndex",
      "outputs": [
        {
          "internalType": "uint256",
          "name": "",
          "type": "uint256"
        }
      ],
      "payable": false,
      "stateMutability": "view",
      "type": "function"
    },
    {
      "constant": true,
      "inputs": [
        {
          "internalType": "address",
          "name": "",
          "type": "address"
        },
        {
          "internalType": "uint256",
          "name": "",
          "type": "uint256"
        }
      ],
      "name": "userPostPublicIndex",
      "outputs": [
        {
          "internalType": "uint256",
          "name": "",
          "type": "uint256"
        }
      ],
      "payable": false,
      "stateMutability": "view",
      "type": "function"
    },
    {
      "constant": true,
      "inputs": [
        {
          "internalType": "address",
          "name": "",
          "type": "address"
        }
      ],
      "name": "username",
      "outputs": [
        {
          "internalType": "string",
          "name": "",
          "type": "string"
        }
      ],
      "payable": false,
      "stateMutability": "view",
      "type": "function"
    },
    {
      "constant": true,
      "inputs": [
        {
          "internalType": "address",
          "name": "",
          "type": "address"
        }
      ],
      "name": "users",
      "outputs": [
        {
          "internalType": "bool",
          "name": "",
          "type": "bool"
        }
      ],
      "payable": false,
      "stateMutability": "view",
      "type": "function"
    },
    {
      "constant": false,
      "inputs": [
        {
          "internalType": "string",
          "name": "description",
          "type": "string"
        },
        {
          "internalType": "string",
          "name": "imgIpfsHash",
          "type": "string"
        }
      ],
      "name": "createPost",
      "outputs": [],
      "payable": true,
      "stateMutability": "payable",
      "type": "function"
    },
    {
      "constant": true,
      "inputs": [
        {
          "internalType": "address",
          "name": "user",
          "type": "address"
        },
        {
          "internalType": "uint256",
          "name": "_id",
          "type": "uint256"
        }
      ],
      "name": "isLiker",
      "outputs": [
        {
          "internalType": "bool",
          "name": "",
          "type": "bool"
        }
      ],
      "payable": false,
      "stateMutability": "view",
      "type": "function"
    },
    {
      "constant": true,
      "inputs": [
        {
          "internalType": "address",
          "name": "user",
          "type": "address"
        },
        {
          "internalType": "address",
          "name": "owner",
          "type": "address"
        }
      ],
      "name": "isFollower",
      "outputs": [
        {
          "internalType": "bool",
          "name": "",
          "type": "bool"
        }
      ],
      "payable": false,
      "stateMutability": "view",
      "type": "function"
    },
    {
      "constant": false,
      "inputs": [
        {
          "internalType": "address",
          "name": "adr",
          "type": "address"
        }
      ],
      "name": "followUser",
      "outputs": [],
      "payable": true,
      "stateMutability": "payable",
      "type": "function"
    },
    {
      "constant": false,
      "inputs": [
        {
          "internalType": "uint256",
          "name": "_id",
          "type": "uint256"
        }
      ],
      "name": "likePost",
      "outputs": [],
      "payable": true,
      "stateMutability": "payable",
      "type": "function"
    },
    {
      "constant": true,
      "inputs": [
        {
          "internalType": "address",
          "name": "adr",
          "type": "address"
        }
      ],
      "name": "getUserPublicPost",
      "outputs": [
        {
          "components": [
            {
              "internalType": "uint256",
              "name": "id",
              "type": "uint256"
            },
            {
              "internalType": "string",
              "name": "imgIpfsHash",
              "type": "string"
            },
            {
              "internalType": "uint256",
              "name": "likes",
              "type": "uint256"
            },
            {
              "internalType": "address",
              "name": "owner",
              "type": "address"
            },
            {
              "internalType": "uint256",
              "name": "timestamp",
              "type": "uint256"
            },
            {
              "internalType": "bool",
              "name": "isPublic",
              "type": "bool"
            }
          ],
          "internalType": "struct Lixtagram.Post[]",
          "name": "",
          "type": "tuple[]"
        }
      ],
      "payable": false,
      "stateMutability": "view",
      "type": "function"
    },
    {
      "constant": true,
      "inputs": [
        {
          "internalType": "address",
          "name": "adr",
          "type": "address"
        }
      ],
      "name": "getUserPrivatePost",
      "outputs": [
        {
          "components": [
            {
              "internalType": "uint256",
              "name": "id",
              "type": "uint256"
            },
            {
              "internalType": "string",
              "name": "imgIpfsHash",
              "type": "string"
            },
            {
              "internalType": "uint256",
              "name": "likes",
              "type": "uint256"
            },
            {
              "internalType": "address",
              "name": "owner",
              "type": "address"
            },
            {
              "internalType": "uint256",
              "name": "timestamp",
              "type": "uint256"
            },
            {
              "internalType": "bool",
              "name": "isPublic",
              "type": "bool"
            }
          ],
          "internalType": "struct Lixtagram.Post[]",
          "name": "",
          "type": "tuple[]"
        }
      ],
      "payable": false,
      "stateMutability": "view",
      "type": "function"
    },
    {
      "constant": true,
      "inputs": [
        {
          "internalType": "uint256",
          "name": "_id",
          "type": "uint256"
        }
      ],
      "name": "getComments",
      "outputs": [
        {
          "components": [
            {
              "internalType": "address",
              "name": "adr",
              "type": "address"
            },
            {
              "internalType": "string",
              "name": "comment",
              "type": "string"
            },
            {
              "internalType": "uint256",
              "name": "time",
              "type": "uint256"
            }
          ],
          "internalType": "struct Lixtagram.Comments[]",
          "name": "",
          "type": "tuple[]"
        }
      ],
      "payable": false,
      "stateMutability": "view",
      "type": "function"
    },
    {
      "constant": true,
      "inputs": [],
      "name": "getViewPost",
      "outputs": [
        {
          "components": [
            {
              "internalType": "uint256",
              "name": "id",
              "type": "uint256"
            },
            {
              "internalType": "string",
              "name": "ownerName",
              "type": "string"
            },
            {
              "internalType": "string",
              "name": "imgIpfsHash",
              "type": "string"
            },
            {
              "internalType": "uint256",
              "name": "likes",
              "type": "uint256"
            },
            {
              "internalType": "address",
              "name": "owner",
              "type": "address"
            },
            {
              "internalType": "uint256",
              "name": "timestamp",
              "type": "uint256"
            },
            {
              "internalType": "bool",
              "name": "isPublic",
              "type": "bool"
            },
            {
              "components": [
                {
                  "internalType": "address",
                  "name": "adr",
                  "type": "address"
                },
                {
                  "internalType": "string",
                  "name": "adrName",
                  "type": "string"
                },
                {
                  "internalType": "string",
                  "name": "comment",
                  "type": "string"
                },
                {
                  "internalType": "uint256",
                  "name": "time",
                  "type": "uint256"
                }
              ],
              "internalType": "struct Lixtagram.FilterComments[]",
              "name": "comments",
              "type": "tuple[]"
            },
            {
              "components": [
                {
                  "internalType": "address",
                  "name": "adr",
                  "type": "address"
                },
                {
                  "internalType": "string",
                  "name": "adrName",
                  "type": "string"
                },
                {
                  "internalType": "uint256",
                  "name": "time",
                  "type": "uint256"
                }
              ],
              "internalType": "struct Lixtagram.FilterLikers[]",
              "name": "likers",
              "type": "tuple[]"
            }
          ],
          "internalType": "struct Lixtagram.ViewPost[]",
          "name": "",
          "type": "tuple[]"
        }
      ],
      "payable": false,
      "stateMutability": "view",
      "type": "function"
    },
    {
      "constant": true,
      "inputs": [
        {
          "internalType": "uint256",
          "name": "_id",
          "type": "uint256"
        }
      ],
      "name": "getViewPostComments",
      "outputs": [
        {
          "components": [
            {
              "internalType": "address",
              "name": "adr",
              "type": "address"
            },
            {
              "internalType": "string",
              "name": "adrName",
              "type": "string"
            },
            {
              "internalType": "string",
              "name": "comment",
              "type": "string"
            },
            {
              "internalType": "uint256",
              "name": "time",
              "type": "uint256"
            }
          ],
          "internalType": "struct Lixtagram.FilterComments[]",
          "name": "",
          "type": "tuple[]"
        }
      ],
      "payable": false,
      "stateMutability": "view",
      "type": "function"
    },
    {
      "constant": true,
      "inputs": [
        {
          "internalType": "uint256",
          "name": "_id",
          "type": "uint256"
        }
      ],
      "name": "getViewPostLikers",
      "outputs": [
        {
          "components": [
            {
              "internalType": "address",
              "name": "adr",
              "type": "address"
            },
            {
              "internalType": "string",
              "name": "adrName",
              "type": "string"
            },
            {
              "internalType": "uint256",
              "name": "time",
              "type": "uint256"
            }
          ],
          "internalType": "struct Lixtagram.FilterLikers[]",
          "name": "",
          "type": "tuple[]"
        }
      ],
      "payable": false,
      "stateMutability": "view",
      "type": "function"
    },
    {
      "constant": true,
      "inputs": [
        {
          "internalType": "uint256",
          "name": "_id",
          "type": "uint256"
        }
      ],
      "name": "getLikes",
      "outputs": [
        {
          "components": [
            {
              "internalType": "address",
              "name": "adr",
              "type": "address"
            },
            {
              "internalType": "uint256",
              "name": "time",
              "type": "uint256"
            }
          ],
          "internalType": "struct Lixtagram.Likers[]",
          "name": "",
          "type": "tuple[]"
        }
      ],
      "payable": false,
      "stateMutability": "view",
      "type": "function"
    },
    {
      "constant": true,
      "inputs": [
        {
          "internalType": "address",
          "name": "adr",
          "type": "address"
        }
      ],
      "name": "getFollowers",
      "outputs": [
        {
          "components": [
            {
              "internalType": "address",
              "name": "follower",
              "type": "address"
            },
            {
              "internalType": "uint256",
              "name": "time",
              "type": "uint256"
            }
          ],
          "internalType": "struct Lixtagram.Followers[]",
          "name": "",
          "type": "tuple[]"
        }
      ],
      "payable": false,
      "stateMutability": "view",
      "type": "function"
    },
    {
      "constant": true,
      "inputs": [
        {
          "internalType": "address",
          "name": "adr",
          "type": "address"
        }
      ],
      "name": "getUsername",
      "outputs": [
        {
          "internalType": "string",
          "name": "",
          "type": "string"
        }
      ],
      "payable": false,
      "stateMutability": "view",
      "type": "function"
    },
    {
      "constant": true,
      "inputs": [
        {
          "internalType": "address",
          "name": "adr",
          "type": "address"
        }
      ],
      "name": "getNumberOffollowwers",
      "outputs": [
        {
          "internalType": "uint256",
          "name": "",
          "type": "uint256"
        }
      ],
      "payable": false,
      "stateMutability": "view",
      "type": "function"
    },
    {
      "constant": true,
      "inputs": [],
      "name": "getPostIsPublic",
      "outputs": [
        {
          "components": [
            {
              "internalType": "uint256",
              "name": "id",
              "type": "uint256"
            },
            {
              "internalType": "string",
              "name": "imgIpfsHash",
              "type": "string"
            },
            {
              "internalType": "uint256",
              "name": "likes",
              "type": "uint256"
            },
            {
              "internalType": "address",
              "name": "owner",
              "type": "address"
            },
            {
              "internalType": "uint256",
              "name": "timestamp",
              "type": "uint256"
            },
            {
              "internalType": "bool",
              "name": "isPublic",
              "type": "bool"
            }
          ],
          "internalType": "struct Lixtagram.Post[]",
          "name": "",
          "type": "tuple[]"
        }
      ],
      "payable": false,
      "stateMutability": "view",
      "type": "function"
    },
    {
      "constant": true,
      "inputs": [],
      "name": "getPostsCount",
      "outputs": [
        {
          "internalType": "uint256",
          "name": "",
          "type": "uint256"
        }
      ],
      "payable": false,
      "stateMutability": "view",
      "type": "function"
    },
    {
      "constant": false,
      "inputs": [
        {
          "internalType": "uint256",
          "name": "id",
          "type": "uint256"
        }
      ],
      "name": "deletePost",
      "outputs": [],
      "payable": false,
      "stateMutability": "nonpayable",
      "type": "function"
    },
    {
      "constant": false,
      "inputs": [
        {
          "internalType": "string",
          "name": "_name",
          "type": "string"
        }
      ],
      "name": "signUp",
      "outputs": [],
      "payable": true,
      "stateMutability": "payable",
      "type": "function"
    },
    {
      "constant": true,
      "inputs": [
        {
          "internalType": "address",
          "name": "user",
          "type": "address"
        }
      ],
      "name": "isUser",
      "outputs": [
        {
          "internalType": "bool",
          "name": "",
          "type": "bool"
        }
      ],
      "payable": false,
      "stateMutability": "view",
      "type": "function"
    },
    {
      "constant": true,
      "inputs": [
        {
          "internalType": "address",
          "name": "adr",
          "type": "address"
        }
      ],
      "name": "getUserDetails",
      "outputs": [
        {
          "internalType": "string",
          "name": "",
          "type": "string"
        },
        {
          "internalType": "uint256",
          "name": "",
          "type": "uint256"
        },
        {
          "internalType": "uint256",
          "name": "",
          "type": "uint256"
        },
        {
          "internalType": "uint256",
          "name": "",
          "type": "uint256"
        },
        {
          "internalType": "address",
          "name": "",
          "type": "address"
        }
      ],
      "payable": false,
      "stateMutability": "view",
      "type": "function"
    },
    {
      "constant": false,
      "inputs": [
        {
          "internalType": "uint256",
          "name": "ntokens",
          "type": "uint256"
        },
        {
          "internalType": "uint256",
          "name": "value",
          "type": "uint256"
        }
      ],
      "name": "redeemNTokens",
      "outputs": [],
      "payable": false,
      "stateMutability": "nonpayable",
      "type": "function"
    },
    {
      "constant": false,
      "inputs": [
        {
          "internalType": "string",
          "name": "chash",
          "type": "string"
        }
      ],
      "name": "setChatHash",
      "outputs": [],
      "payable": false,
      "stateMutability": "nonpayable",
      "type": "function"
    },
    {
      "constant": true,
      "inputs": [],
      "name": "getContractBalance",
      "outputs": [
        {
          "internalType": "uint256",
          "name": "",
          "type": "uint256"
        }
      ],
      "payable": false,
      "stateMutability": "view",
      "type": "function"
    }
  ],
  "bytecode": "0x60806040523480156200001157600080fd5b506040518060400160405280600981526020017f4c697874616772616d0000000000000000000000000000000000000000000000815250600a90805190602001906200005f929190620000b7565b5033600b60006101000a81548173ffffffffffffffffffffffffffffffffffffffff021916908373ffffffffffffffffffffffffffffffffffffffff1602179055506000600c819055506000600d8190555062000166565b828054600181600116156101000203166002900490600052602060002090601f016020900481019282601f10620000fa57805160ff19168380011785556200012b565b828001600101855582156200012b579182015b828111156200012a5782518255916020019190600101906200010d565b5b5090506200013a91906200013e565b5090565b6200016391905b808211156200015f57600081600090555060010162000145565b5090565b90565b61548b80620001766000396000f3fe6080604052600436106102305760003560e01c8063725009d31161012e578063c2fe2022116100ab578063ebd009d31161006f578063ebd009d31461090e578063ed0524631461094c578063f269d06914610989578063fc6c776f146109c6578063ff7ae9a014610a0557610230565b8063c2fe2022146107d9578063cc3d967b14610816578063ce43c03214610857578063df1913a614610894578063e5fe9477146108d157610230565b8063a77169ec116100f2578063a77169ec146106d6578063a87430ba14610713578063adcfb4fc14610750578063b7833b6e1461076c578063bab5f773146107ae57610230565b8063725009d31461060d57806383624882146106295780638c39e55014610654578063a209081e1461067d578063a70806f7146106ba57610230565b806333742e0a116101bc578063481c6a7511610180578063481c6a751461051157806366778e941461053c578063690eea1f146105795780636d5a3861146105a45780636f9fb98a146105e257610230565b806333742e0a146104135780633437d4d914610450578063392338f51461047b5780633f029779146104975780634209fff1146104d457610230565b8063094cd5ee11610203578063094cd5ee146103055780630b1e7f831461032e57806320fc02051461037057806323edf6971461039957806324ba9b53146103d657610230565b80630589cded146102355780630610a7a21461027257806306fdde03146102af57806307973ccf146102da575b600080fd5b34801561024157600080fd5b5061025c600480360361025791908101906140ae565b610a30565b604051610269919061501d565b60405180910390f35b34801561027e57600080fd5b50610299600480360361029491908101906140ae565b610a7c565b6040516102a69190614e50565b60405180910390f35b3480156102bb57600080fd5b506102c4610b2c565b6040516102d19190614e50565b60405180910390f35b3480156102e657600080fd5b506102ef610bca565b6040516102fc919061501d565b60405180910390f35b34801561031157600080fd5b5061032c600480360361032791908101906141fc565b610bd0565b005b34801561033a57600080fd5b50610355600480360361035091908101906141fc565b610e13565b60405161036796959493929190615038565b60405180910390f35b34801561037c57600080fd5b506103976004803603610392919081019061414f565b610f21565b005b3480156103a557600080fd5b506103c060048036036103bb91908101906141fc565b610f3b565b6040516103cd9190614d47565b60405180910390f35b3480156103e257600080fd5b506103fd60048036036103f89190810190614113565b61110d565b60405161040a919061501d565b60405180910390f35b34801561041f57600080fd5b5061043a60048036036104359190810190614113565b61113b565b604051610447919061501d565b60405180910390f35b34801561045c57600080fd5b50610465611169565b6040516104729190614e50565b60405180910390f35b61049560048036036104909190810190614190565b611207565b005b3480156104a357600080fd5b506104be60048036036104b99190810190614113565b6116b3565b6040516104cb919061501d565b60405180910390f35b3480156104e057600080fd5b506104fb60048036036104f691908101906140ae565b6116e1565b6040516105089190614e35565b60405180910390f35b34801561051d57600080fd5b50610526611736565b6040516105339190614cc5565b60405180910390f35b34801561054857600080fd5b50610563600480360361055e9190810190614113565b61175c565b6040516105709190614e35565b60405180910390f35b34801561058557600080fd5b5061058e611827565b60405161059b919061501d565b60405180910390f35b3480156105b057600080fd5b506105cb60048036036105c69190810190614225565b61182d565b6040516105d9929190614d1e565b60405180910390f35b3480156105ee57600080fd5b506105f761188b565b604051610604919061501d565b60405180910390f35b610627600480360361062291908101906141fc565b611893565b005b34801561063557600080fd5b5061063e611c88565b60405161064b919061501d565b60405180910390f35b34801561066057600080fd5b5061067b60048036036106769190810190614225565b611c95565b005b34801561068957600080fd5b506106a4600480360361069f91908101906141fc565b611dba565b6040516106b19190614dcf565b60405180910390f35b6106d460048036036106cf91908101906140ae565b611eea565b005b3480156106e257600080fd5b506106fd60048036036106f891908101906141fc565b6123bb565b60405161070a9190614d8b565b60405180910390f35b34801561071f57600080fd5b5061073a600480360361073591908101906140ae565b6124fe565b6040516107479190614e35565b60405180910390f35b61076a6004803603610765919081019061414f565b61251e565b005b34801561077857600080fd5b50610793600480360361078e91908101906141fc565b612883565b6040516107a596959493929190614eee565b60405180910390f35b3480156107ba57600080fd5b506107c3612a1c565b6040516107d09190614df1565b60405180910390f35b3480156107e557600080fd5b5061080060048036036107fb91908101906140ae565b612c38565b60405161080d9190614dad565b60405180910390f35b34801561082257600080fd5b5061083d600480360361083891908101906140ae565b612dc0565b60405161084e959493929190614e94565b60405180910390f35b34801561086357600080fd5b5061087e600480360361087991908101906140ae565b612f80565b60405161088b9190614e72565b60405180910390f35b3480156108a057600080fd5b506108bb60048036036108b691908101906141fc565b613061565b6040516108c89190614d69565b60405180910390f35b3480156108dd57600080fd5b506108f860048036036108f391908101906140d7565b6131d7565b6040516109059190614e35565b60405180910390f35b34801561091a57600080fd5b5061093560048036036109309190810190614113565b6132fa565b604051610943929190614d1e565b60405180910390f35b34801561095857600080fd5b50610973600480360361096e91908101906140ae565b613358565b6040516109809190614df1565b60405180910390f35b34801561099557600080fd5b506109b060048036036109ab91908101906140ae565b6135d4565b6040516109bd9190614df1565b60405180910390f35b3480156109d257600080fd5b506109ed60048036036109e89190810190614225565b613850565b6040516109fc93929190614ce0565b60405180910390f35b348015610a1157600080fd5b50610a1a61394c565b604051610a279190614e13565b60405180910390f35b6000600160008373ffffffffffffffffffffffffffffffffffffffff1673ffffffffffffffffffffffffffffffffffffffff168152602001908152602001600020805490509050919050565b60076020528060005260406000206000915090508054600181600116156101000203166002900480601f016020809104026020016040519081016040528092919081815260200182805460018160011615610100020316600290048015610b245780601f10610af957610100808354040283529160200191610b24565b820191906000526020600020905b815481529060010190602001808311610b0757829003601f168201915b505050505081565b600a8054600181600116156101000203166002900480601f016020809104026020016040519081016040528092919081815260200182805460018160011615610100020316600290048015610bc25780601f10610b9757610100808354040283529160200191610bc2565b820191906000526020600020905b815481529060010190602001808311610ba557829003601f168201915b505050505081565b600c5481565b60008090505b600980549050811015610d48578160098381548110610bf157fe5b9060005260206000209060060201600001541415610d3b573373ffffffffffffffffffffffffffffffffffffffff1660098281548110610c2d57fe5b906000526020600020906006020160030160009054906101000a900473ffffffffffffffffffffffffffffffffffffffff1673ffffffffffffffffffffffffffffffffffffffff1614610cb5576040517f08c379a0000000000000000000000000000000000000000000000000000000008152600401610cac90614fdd565b60405180910390fd5b60098181548110610cc257fe5b9060005260206000209060060201600080820160009055600182016000610ce99190613c6b565b60028201600090556003820160006101000a81549073ffffffffffffffffffffffffffffffffffffffff021916905560048201600090556005820160006101000a81549060ff02191690555050610d48565b8080600101915050610bd6565b5060008090505b600880549050811015610e0f573373ffffffffffffffffffffffffffffffffffffffff1660088281548110610d8057fe5b906000526020600020906006020160020160009054906101000a900473ffffffffffffffffffffffffffffffffffffffff1673ffffffffffffffffffffffffffffffffffffffff161415610e025760088181548110610ddb57fe5b90600052602060002090600602016004016000815480929190600190039190505550610e0f565b8080600101915050610d4f565b5050565b60098181548110610e2057fe5b9060005260206000209060060201600091509050806000015490806001018054600181600116156101000203166002900480601f016020809104026020016040519081016040528092919081815260200182805460018160011615610100020316600290048015610ed25780601f10610ea757610100808354040283529160200191610ed2565b820191906000526020600020905b815481529060010190602001808311610eb557829003601f168201915b5050505050908060020154908060030160009054906101000a900473ffffffffffffffffffffffffffffffffffffffff16908060040154908060050160009054906101000a900460ff16905086565b80600e9080519060200190610f37929190613cb3565b5050565b6060600060036000848152602001908152602001600020805490509050606081604051908082528060200260200182016040528015610f9457816020015b610f81613d33565b815260200190600190039081610f795790505b50905060008090505b8281101561110257600360008681526020019081526020016000208181548110610fc357fe5b90600052602060002090600302016040518060600160405290816000820160009054906101000a900473ffffffffffffffffffffffffffffffffffffffff1673ffffffffffffffffffffffffffffffffffffffff1673ffffffffffffffffffffffffffffffffffffffff168152602001600182018054600181600116156101000203166002900480601f0160208091040260200160405190810160405280929190818152602001828054600181600116156101000203166002900480156110cb5780601f106110a0576101008083540402835291602001916110cb565b820191906000526020600020905b8154815290600101906020018083116110ae57829003601f168201915b505050505081526020016002820154815250508282815181106110ea57fe5b60200260200101819052508080600101915050610f9d565b508092505050919050565b6006602052816000526040600020818154811061112657fe5b90600052602060002001600091509150505481565b6005602052816000526040600020818154811061115457fe5b90600052602060002001600091509150505481565b600e8054600181600116156101000203166002900480601f0160208091040260200160405190810160405280929190818152602001828054600181600116156101000203166002900480156111ff5780601f106111d4576101008083540402835291602001916111ff565b820191906000526020600020905b8154815290600101906020018083116111e257829003601f168201915b505050505081565b6000600980549050141561121e576000600d819055505b600042334460405160200161123593929190614c88565b6040516020818303038152906040528051906020012060001c9050611258613d6a565b6040518060c00160405280838152602001848152602001600081526020013373ffffffffffffffffffffffffffffffffffffffff168152602001428152602001600115158152509050600981908060018154018082558091505090600182039060005260206000209060060201600090919290919091506000820151816000015560208201518160010190805190602001906112f5929190613db8565b506040820151816002015560608201518160030160006101000a81548173ffffffffffffffffffffffffffffffffffffffff021916908373ffffffffffffffffffffffffffffffffffffffff1602179055506080820151816004015560a08201518160050160006101000a81548160ff0219169083151502179055505050506002600083815260200190815260200160002060405180604001604052803373ffffffffffffffffffffffffffffffffffffffff168152602001428152509080600181540180825580915050906001820390600052602060002090600202016000909192909190915060008201518160000160006101000a81548173ffffffffffffffffffffffffffffffffffffffff021916908373ffffffffffffffffffffffffffffffffffffffff160217905550602082015181600101555050506003600083815260200190815260200160002060405180606001604052803373ffffffffffffffffffffffffffffffffffffffff168152602001868152602001428152509080600181540180825580915050906001820390600052602060002090600302016000909192909190915060008201518160000160006101000a81548173ffffffffffffffffffffffffffffffffffffffff021916908373ffffffffffffffffffffffffffffffffffffffff1602179055506020820151816001019080519060200190611503929190613db8565b5060408201518160020155505050600460003373ffffffffffffffffffffffffffffffffffffffff1673ffffffffffffffffffffffffffffffffffffffff168152602001908152602001600020600d549080600181540180825580915050906001820390600052602060002001600090919290919091505550600660003373ffffffffffffffffffffffffffffffffffffffff1673ffffffffffffffffffffffffffffffffffffffff168152602001908152602001600020600d54908060018154018082558091505090600182039060005260206000200160009091929091909150555060008090505b6008805490508110156116ac573373ffffffffffffffffffffffffffffffffffffffff166008828154811061161e57fe5b906000526020600020906006020160020160009054906101000a900473ffffffffffffffffffffffffffffffffffffffff1673ffffffffffffffffffffffffffffffffffffffff16141561169f576008818154811061167957fe5b9060005260206000209060060201600401600081548092919060010191905055506116ac565b80806001019150506115ed565b5050505050565b600460205281600052604060002081815481106116cc57fe5b90600052602060002001600091509150505481565b60008060008373ffffffffffffffffffffffffffffffffffffffff1673ffffffffffffffffffffffffffffffffffffffff16815260200190815260200160002060009054906101000a900460ff169050919050565b600b60009054906101000a900473ffffffffffffffffffffffffffffffffffffffff1681565b60008060008090505b600260008581526020019081526020016000208054905081101561181c576002600085815260200190815260200160002081815481106117a157fe5b906000526020600020906002020160000160009054906101000a900473ffffffffffffffffffffffffffffffffffffffff1673ffffffffffffffffffffffffffffffffffffffff168573ffffffffffffffffffffffffffffffffffffffff16141561180f576001915061181c565b8080600101915050611765565b508091505092915050565b600d5481565b6002602052816000526040600020818154811061184657fe5b9060005260206000209060020201600091509150508060000160009054906101000a900473ffffffffffffffffffffffffffffffffffffffff16908060010154905082565b600047905090565b6000600260008381526020019081526020016000206000815481106118b457fe5b906000526020600020906002020160000160009054906101000a900473ffffffffffffffffffffffffffffffffffffffff1690508073ffffffffffffffffffffffffffffffffffffffff163373ffffffffffffffffffffffffffffffffffffffff161415611957576040517f08c379a000000000000000000000000000000000000000000000000000000000815260040161194e90614f7d565b60405180910390fd5b60006002600084815260200190815260200160002080549050905060008090505b81811015611ad35760026000858152602001908152602001600020818154811061199e57fe5b906000526020600020906002020160000160009054906101000a900473ffffffffffffffffffffffffffffffffffffffff1673ffffffffffffffffffffffffffffffffffffffff163373ffffffffffffffffffffffffffffffffffffffff161415611ac657600260008581526020019081526020016000208181548110611a2157fe5b906000526020600020906002020160000160009054906101000a900473ffffffffffffffffffffffffffffffffffffffff1673ffffffffffffffffffffffffffffffffffffffff163373ffffffffffffffffffffffffffffffffffffffff161415611ac1576040517f08c379a0000000000000000000000000000000000000000000000000000000008152600401611ab890614ffd565b60405180910390fd5b611ad3565b8080600101915050611978565b506002600084815260200190815260200160002060405180604001604052803373ffffffffffffffffffffffffffffffffffffffff168152602001428152509080600181540180825580915050906001820390600052602060002090600202016000909192909190915060008201518160000160006101000a81548173ffffffffffffffffffffffffffffffffffffffff021916908373ffffffffffffffffffffffffffffffffffffffff1602179055506020820151816001015550505060008090505b600880549050811015611c82578273ffffffffffffffffffffffffffffffffffffffff1660088281548110611bc857fe5b906000526020600020906006020160020160009054906101000a900473ffffffffffffffffffffffffffffffffffffffff1673ffffffffffffffffffffffffffffffffffffffff161415611c7557600160088281548110611c2557fe5b906000526020600020906006020160030160008282540192505081905550600160088281548110611c5257fe5b906000526020600020906006020160050160008282540192505081905550611c82565b8080600101915050611b97565b50505050565b6000600980549050905090565b3373ffffffffffffffffffffffffffffffffffffffff1673ffffffffffffffffffffffffffffffffffffffff166108fc829081150290604051600060405180830381858888f19350505050158015611cf1573d6000803e3d6000fd5b5060008090505b600880549050811015611db5573373ffffffffffffffffffffffffffffffffffffffff1660088281548110611d2957fe5b906000526020600020906006020160020160009054906101000a900473ffffffffffffffffffffffffffffffffffffffff1673ffffffffffffffffffffffffffffffffffffffff161415611da8578260088281548110611d8557fe5b906000526020600020906006020160050160008282540392505081905550611db5565b8080600101915050611cf8565b505050565b6060600060026000848152602001908152602001600020805490509050606081604051908082528060200260200182016040528015611e1357816020015b611e00613e38565b815260200190600190039081611df85790505b50905060008090505b82811015611edf57600260008681526020019081526020016000208181548110611e4257fe5b90600052602060002090600202016040518060400160405290816000820160009054906101000a900473ffffffffffffffffffffffffffffffffffffffff1673ffffffffffffffffffffffffffffffffffffffff1673ffffffffffffffffffffffffffffffffffffffff168152602001600182015481525050828281518110611ec757fe5b60200260200101819052508080600101915050611e1c565b508092505050919050565b6000600160008373ffffffffffffffffffffffffffffffffffffffff1673ffffffffffffffffffffffffffffffffffffffff168152602001908152602001600020600081548110611f3757fe5b906000526020600020906002020160000160009054906101000a900473ffffffffffffffffffffffffffffffffffffffff1690506000600160008473ffffffffffffffffffffffffffffffffffffffff1673ffffffffffffffffffffffffffffffffffffffff1681526020019081526020016000208054905090508273ffffffffffffffffffffffffffffffffffffffff163373ffffffffffffffffffffffffffffffffffffffff161415612021576040517f08c379a000000000000000000000000000000000000000000000000000000000815260040161201890614f9d565b60405180910390fd5b60008090505b818110156121da57600160008573ffffffffffffffffffffffffffffffffffffffff1673ffffffffffffffffffffffffffffffffffffffff168152602001908152602001600020818154811061207957fe5b906000526020600020906002020160000160009054906101000a900473ffffffffffffffffffffffffffffffffffffffff1673ffffffffffffffffffffffffffffffffffffffff163373ffffffffffffffffffffffffffffffffffffffff1614156121cd57600160008573ffffffffffffffffffffffffffffffffffffffff1673ffffffffffffffffffffffffffffffffffffffff168152602001908152602001600020818154811061212857fe5b906000526020600020906002020160000160009054906101000a900473ffffffffffffffffffffffffffffffffffffffff1673ffffffffffffffffffffffffffffffffffffffff163373ffffffffffffffffffffffffffffffffffffffff1614156121c8576040517f08c379a00000000000000000000000000000000000000000000000000000000081526004016121bf90614f5d565b60405180910390fd5b6121da565b8080600101915050612027565b50600160008473ffffffffffffffffffffffffffffffffffffffff1673ffffffffffffffffffffffffffffffffffffffff16815260200190815260200160002060405180604001604052803373ffffffffffffffffffffffffffffffffffffffff168152602001428152509080600181540180825580915050906001820390600052602060002090600202016000909192909190915060008201518160000160006101000a81548173ffffffffffffffffffffffffffffffffffffffff021916908373ffffffffffffffffffffffffffffffffffffffff1602179055506020820151816001015550505060008090505b6008805490508110156123b5578273ffffffffffffffffffffffffffffffffffffffff16600882815481106122fb57fe5b906000526020600020906006020160020160009054906101000a900473ffffffffffffffffffffffffffffffffffffffff1673ffffffffffffffffffffffffffffffffffffffff1614156123a85760016008828154811061235857fe5b90600052602060002090600602016003016000828254019250508190555060016008828154811061238557fe5b9060005260206000209060060201600501600082825401925050819055506123b5565b80806001019150506122ca565b50505050565b6060806123c783611dba565b90506060815160405190808252806020026020018201604052801561240657816020015b6123f3613e68565b8152602001906001900390816123eb5790505b50905060005b82518110156124f35782818151811061242157fe5b60200260200101516000015182828151811061243957fe5b60200260200101516000019073ffffffffffffffffffffffffffffffffffffffff16908173ffffffffffffffffffffffffffffffffffffffff168152505061249783828151811061248657fe5b602002602001015160000151612f80565b8282815181106124a357fe5b6020026020010151602001819052508281815181106124be57fe5b6020026020010151602001518282815181106124d657fe5b60200260200101516040018181525050808060010191505061240c565b508092505050919050565b60006020528060005260406000206000915054906101000a900460ff1681565b6000803373ffffffffffffffffffffffffffffffffffffffff1673ffffffffffffffffffffffffffffffffffffffff16815260200190815260200160002060009054906101000a900460ff16156125aa576040517f08c379a00000000000000000000000000000000000000000000000000000000081526004016125a190614fbd565b60405180910390fd5b60016000803373ffffffffffffffffffffffffffffffffffffffff1673ffffffffffffffffffffffffffffffffffffffff16815260200190815260200160002060006101000a81548160ff02191690831515021790555080600760003373ffffffffffffffffffffffffffffffffffffffff1673ffffffffffffffffffffffffffffffffffffffff1681526020019081526020016000209080519060200190612654929190613cb3565b50600c6000815480929190600101919050555061266f613e9f565b6040518060c001604052808381526020016040518060200160405280600081525081526020013373ffffffffffffffffffffffffffffffffffffffff168152602001600081526020016000815260200160008152509050600881908060018154018082558091505090600182039060005260206000209060060201600090919290919091506000820151816000019080519060200190612710929190613db8565b50602082015181600101908051906020019061272d929190613db8565b5060408201518160020160006101000a81548173ffffffffffffffffffffffffffffffffffffffff021916908373ffffffffffffffffffffffffffffffffffffffff160217905550606082015181600301556080820151816004015560a08201518160050155505050600160003373ffffffffffffffffffffffffffffffffffffffff1673ffffffffffffffffffffffffffffffffffffffff16815260200190815260200160002060405180604001604052803373ffffffffffffffffffffffffffffffffffffffff168152602001428152509080600181540180825580915050906001820390600052602060002090600202016000909192909190915060008201518160000160006101000a81548173ffffffffffffffffffffffffffffffffffffffff021916908373ffffffffffffffffffffffffffffffffffffffff160217905550602082015181600101555050505050565b6008818154811061289057fe5b9060005260206000209060060201600091509050806000018054600181600116156101000203166002900480601f01602080910402602001604051908101604052809291908181526020018280546001816001161561010002031660029004801561293c5780601f106129115761010080835404028352916020019161293c565b820191906000526020600020905b81548152906001019060200180831161291f57829003601f168201915b505050505090806001018054600181600116156101000203166002900480601f0160208091040260200160405190810160405280929190818152602001828054600181600116156101000203166002900480156129da5780601f106129af576101008083540402835291602001916129da565b820191906000526020600020905b8154815290600101906020018083116129bd57829003601f168201915b5050505050908060020160009054906101000a900473ffffffffffffffffffffffffffffffffffffffff16908060030154908060040154908060050154905086565b606060006009805490509050606081604051908082528060200260200182016040528015612a6457816020015b612a51613eeb565b815260200190600190039081612a495790505b50905060008090505b82811015612c2f57600060098281548110612a8457fe5b906000526020600020906006020190506001151560098381548110612aa557fe5b906000526020600020906006020160050160009054906101000a900460ff1615151415612c2157806040518060c001604052908160008201548152602001600182018054600181600116156101000203166002900480601f016020809104026020016040519081016040528092919081815260200182805460018160011615610100020316600290048015612b7b5780601f10612b5057610100808354040283529160200191612b7b565b820191906000526020600020905b815481529060010190602001808311612b5e57829003601f168201915b50505050508152602001600282015481526020016003820160009054906101000a900473ffffffffffffffffffffffffffffffffffffffff1673ffffffffffffffffffffffffffffffffffffffff1673ffffffffffffffffffffffffffffffffffffffff168152602001600482015481526020016005820160009054906101000a900460ff161515151581525050838381518110612c1557fe5b60200260200101819052505b508080600101915050612a6d565b50809250505090565b60606000600160008473ffffffffffffffffffffffffffffffffffffffff1673ffffffffffffffffffffffffffffffffffffffff168152602001908152602001600020805490509050606081604051908082528060200260200182016040528015612cbd57816020015b612caa613f39565b815260200190600190039081612ca25790505b50905060008090505b82811015612db557600160008673ffffffffffffffffffffffffffffffffffffffff1673ffffffffffffffffffffffffffffffffffffffff1681526020019081526020016000208181548110612d1857fe5b90600052602060002090600202016040518060400160405290816000820160009054906101000a900473ffffffffffffffffffffffffffffffffffffffff1673ffffffffffffffffffffffffffffffffffffffff1673ffffffffffffffffffffffffffffffffffffffff168152602001600182015481525050828281518110612d9d57fe5b60200260200101819052508080600101915050612cc6565b508092505050919050565b6060600080600080606060008060008060008090505b600880549050811015612f62578b73ffffffffffffffffffffffffffffffffffffffff1660088281548110612e0757fe5b906000526020600020906006020160020160009054906101000a900473ffffffffffffffffffffffffffffffffffffffff1673ffffffffffffffffffffffffffffffffffffffff161415612f5557600060088281548110612e6457fe5b90600052602060002090600602019050806000018054600181600116156101000203166002900480601f016020809104026020016040519081016040528092919081815260200182805460018160011615610100020316600290048015612f0c5780601f10612ee157610100808354040283529160200191612f0c565b820191906000526020600020905b815481529060010190602001808311612eef57829003601f168201915b505050505096508060030154955080600401549450806005015493508060020160009054906101000a900473ffffffffffffffffffffffffffffffffffffffff16925050612f62565b8080600101915050612dd6565b50848484848499509950995099509950505050505091939590929450565b6060600760008373ffffffffffffffffffffffffffffffffffffffff1673ffffffffffffffffffffffffffffffffffffffff1681526020019081526020016000208054600181600116156101000203166002900480601f0160208091040260200160405190810160405280929190818152602001828054600181600116156101000203166002900480156130555780601f1061302a57610100808354040283529160200191613055565b820191906000526020600020905b81548152906001019060200180831161303857829003601f168201915b50505050509050919050565b60608061306d83610f3b565b9050606081516040519080825280602002602001820160405280156130ac57816020015b613099613f69565b8152602001906001900390816130915790505b50905060005b82518110156131cc578281815181106130c757fe5b6020026020010151600001518282815181106130df57fe5b60200260200101516000019073ffffffffffffffffffffffffffffffffffffffff16908173ffffffffffffffffffffffffffffffffffffffff168152505061313d83828151811061312c57fe5b602002602001015160000151612f80565b82828151811061314957fe5b60200260200101516020018190525082818151811061316457fe5b60200260200101516020015182828151811061317c57fe5b60200260200101516040018190525082818151811061319757fe5b6020026020010151604001518282815181106131af57fe5b6020026020010151606001818152505080806001019150506130b2565b508092505050919050565b60008060008090505b600160008573ffffffffffffffffffffffffffffffffffffffff1673ffffffffffffffffffffffffffffffffffffffff168152602001908152602001600020805490508110156132ef57600160008573ffffffffffffffffffffffffffffffffffffffff1673ffffffffffffffffffffffffffffffffffffffff168152602001908152602001600020818154811061327457fe5b906000526020600020906002020160000160009054906101000a900473ffffffffffffffffffffffffffffffffffffffff1673ffffffffffffffffffffffffffffffffffffffff168573ffffffffffffffffffffffffffffffffffffffff1614156132e257600191506132ef565b80806001019150506131e0565b508091505092915050565b6001602052816000526040600020818154811061331357fe5b9060005260206000209060020201600091509150508060000160009054906101000a900473ffffffffffffffffffffffffffffffffffffffff16908060010154905082565b60606000600460008473ffffffffffffffffffffffffffffffffffffffff1673ffffffffffffffffffffffffffffffffffffffff16815260200190815260200160002080549050905060006060826040519080825280602002602001820160405280156133df57816020015b6133cc613eeb565b8152602001906001900390816133c45790505b50905060008090505b838110156135c857600460008773ffffffffffffffffffffffffffffffffffffffff1673ffffffffffffffffffffffffffffffffffffffff168152602001908152602001600020818154811061343a57fe5b9060005260206000200154925060006009848154811061345657fe5b90600052602060002090600602019050806040518060c001604052908160008201548152602001600182018054600181600116156101000203166002900480601f0160208091040260200160405190810160405280929190818152602001828054600181600116156101000203166002900480156135155780601f106134ea57610100808354040283529160200191613515565b820191906000526020600020905b8154815290600101906020018083116134f857829003601f168201915b50505050508152602001600282015481526020016003820160009054906101000a900473ffffffffffffffffffffffffffffffffffffffff1673ffffffffffffffffffffffffffffffffffffffff1673ffffffffffffffffffffffffffffffffffffffff168152602001600482015481526020016005820160009054906101000a900460ff1615151515815250508383815181106135af57fe5b60200260200101819052505080806001019150506133e8565b50809350505050919050565b60606000600560008473ffffffffffffffffffffffffffffffffffffffff1673ffffffffffffffffffffffffffffffffffffffff168152602001908152602001600020805490509050600060608260405190808252806020026020018201604052801561365b57816020015b613648613eeb565b8152602001906001900390816136405790505b50905060008090505b8381101561384457600560008773ffffffffffffffffffffffffffffffffffffffff1673ffffffffffffffffffffffffffffffffffffffff16815260200190815260200160002081815481106136b657fe5b906000526020600020015492506000600984815481106136d257fe5b90600052602060002090600602019050806040518060c001604052908160008201548152602001600182018054600181600116156101000203166002900480601f0160208091040260200160405190810160405280929190818152602001828054600181600116156101000203166002900480156137915780601f1061376657610100808354040283529160200191613791565b820191906000526020600020905b81548152906001019060200180831161377457829003601f168201915b50505050508152602001600282015481526020016003820160009054906101000a900473ffffffffffffffffffffffffffffffffffffffff1673ffffffffffffffffffffffffffffffffffffffff1673ffffffffffffffffffffffffffffffffffffffff168152602001600482015481526020016005820160009054906101000a900460ff16151515158152505083838151811061382b57fe5b6020026020010181905250508080600101915050613664565b50809350505050919050565b6003602052816000526040600020818154811061386957fe5b9060005260206000209060030201600091509150508060000160009054906101000a900473ffffffffffffffffffffffffffffffffffffffff1690806001018054600181600116156101000203166002900480601f01602080910402602001604051908101604052809291908181526020018280546001816001161561010002031660029004801561393c5780601f106139115761010080835404028352916020019161393c565b820191906000526020600020905b81548152906001019060200180831161391f57829003601f168201915b5050505050908060020154905083565b60606000600980549050905060608160405190808252806020026020018201604052801561399457816020015b613981613fa7565b8152602001906001900390816139795790505b50905060008090505b82811015613c62576000600982815481106139b457fe5b9060005260206000209060060201905060011515600983815481106139d557fe5b906000526020600020906006020160050160009054906101000a900460ff1615151415613c54578060000154838381518110613a0d57fe5b60200260200101516000018181525050613a4a8160030160009054906101000a900473ffffffffffffffffffffffffffffffffffffffff16612f80565b838381518110613a5657fe5b602002602001015160200181905250806001018054600181600116156101000203166002900480601f016020809104026020016040519081016040528092919081815260200182805460018160011615610100020316600290048015613afd5780601f10613ad257610100808354040283529160200191613afd565b820191906000526020600020905b815481529060010190602001808311613ae057829003601f168201915b5050505050838381518110613b0e57fe5b6020026020010151604001819052508060020154838381518110613b2e57fe5b602002602001015160600181815250508060030160009054906101000a900473ffffffffffffffffffffffffffffffffffffffff16838381518110613b6f57fe5b60200260200101516080019073ffffffffffffffffffffffffffffffffffffffff16908173ffffffffffffffffffffffffffffffffffffffff16815250508060040154838381518110613bbe57fe5b602002602001015160a00181815250508060050160009054906101000a900460ff16838381518110613bec57fe5b602002602001015160c0019015159081151581525050613c0f8160000154613061565b838381518110613c1b57fe5b602002602001015160e00181905250613c3781600001546123bb565b838381518110613c4357fe5b602002602001015161010001819052505b50808060010191505061399d565b50809250505090565b50805460018160011615610100020316600290046000825580601f10613c915750613cb0565b601f016020900490600052602060002090810190613caf919061400b565b5b50565b828054600181600116156101000203166002900490600052602060002090601f016020900481019282601f10613cf457805160ff1916838001178555613d22565b82800160010185558215613d22579182015b82811115613d21578251825591602001919060010190613d06565b5b509050613d2f919061400b565b5090565b6040518060600160405280600073ffffffffffffffffffffffffffffffffffffffff16815260200160608152602001600081525090565b6040518060c00160405280600081526020016060815260200160008152602001600073ffffffffffffffffffffffffffffffffffffffff168152602001600081526020016000151581525090565b828054600181600116156101000203166002900490600052602060002090601f016020900481019282601f10613df957805160ff1916838001178555613e27565b82800160010185558215613e27579182015b82811115613e26578251825591602001919060010190613e0b565b5b509050613e34919061400b565b5090565b6040518060400160405280600073ffffffffffffffffffffffffffffffffffffffff168152602001600081525090565b6040518060600160405280600073ffffffffffffffffffffffffffffffffffffffff16815260200160608152602001600081525090565b6040518060c001604052806060815260200160608152602001600073ffffffffffffffffffffffffffffffffffffffff1681526020016000815260200160008152602001600081525090565b6040518060c00160405280600081526020016060815260200160008152602001600073ffffffffffffffffffffffffffffffffffffffff168152602001600081526020016000151581525090565b6040518060400160405280600073ffffffffffffffffffffffffffffffffffffffff168152602001600081525090565b6040518060800160405280600073ffffffffffffffffffffffffffffffffffffffff1681526020016060815260200160608152602001600081525090565b60405180610120016040528060008152602001606081526020016060815260200160008152602001600073ffffffffffffffffffffffffffffffffffffffff1681526020016000815260200160001515815260200160608152602001606081525090565b61402d91905b80821115614029576000816000905550600101614011565b5090565b90565b60008135905061403f8161541a565b92915050565b600082601f83011261405657600080fd5b8135614069614064826150cd565b6150a0565b9150808252602083016020830185838301111561408557600080fd5b61409083828461538c565b50505092915050565b6000813590506140a881615431565b92915050565b6000602082840312156140c057600080fd5b60006140ce84828501614030565b91505092915050565b600080604083850312156140ea57600080fd5b60006140f885828601614030565b925050602061410985828601614030565b9150509250929050565b6000806040838503121561412657600080fd5b600061413485828601614030565b925050602061414585828601614099565b9150509250929050565b60006020828403121561416157600080fd5b600082013567ffffffffffffffff81111561417b57600080fd5b61418784828501614045565b91505092915050565b600080604083850312156141a357600080fd5b600083013567ffffffffffffffff8111156141bd57600080fd5b6141c985828601614045565b925050602083013567ffffffffffffffff8111156141e657600080fd5b6141f285828601614045565b9150509250929050565b60006020828403121561420e57600080fd5b600061421c84828501614099565b91505092915050565b6000806040838503121561423857600080fd5b600061424685828601614099565b925050602061425785828601614099565b9150509250929050565b600061426d8383614988565b905092915050565b600061428183836149d8565b905092915050565b60006142958383614a42565b905092915050565b60006142a98383614a92565b60408301905092915050565b60006142c18383614ac1565b60408301905092915050565b60006142d98383614af0565b905092915050565b60006142ed8383614b79565b905092915050565b61430661430182615344565b6153ce565b82525050565b61431581615332565b82525050565b61432481615332565b82525050565b600061433582615189565b61433f8185615277565b935083602082028501614351856150f9565b8060005b8581101561438d578484038952815161436e8582614261565b945061437983615202565b925060208a01995050600181019050614355565b50829750879550505050505092915050565b60006143aa8261519f565b6143b48185615299565b9350836020820285016143c685615119565b8060005b8581101561440257848403895281516143e38582614275565b94506143ee8361521c565b925060208a019950506001810190506143ca565b50829750879550505050505092915050565b600061441f82615194565b6144298185615288565b93508360208202850161443b85615109565b8060005b8581101561447757848403895281516144588582614275565b94506144638361520f565b925060208a0199505060018101905061443f565b50829750879550505050505092915050565b6000614494826151b5565b61449e81856152bb565b9350836020820285016144b085615139565b8060005b858110156144ec57848403895281516144cd8582614289565b94506144d883615236565b925060208a019950506001810190506144b4565b50829750879550505050505092915050565b6000614509826151aa565b61451381856152aa565b93508360208202850161452585615129565b8060005b8581101561456157848403895281516145428582614289565b945061454d83615229565b925060208a01995050600181019050614529565b50829750879550505050505092915050565b600061457e826151c0565b61458881856152cc565b935061459383615149565b8060005b838110156145c45781516145ab888261429d565b97506145b683615243565b925050600181019050614597565b5085935050505092915050565b60006145dc826151cb565b6145e681856152dd565b93506145f183615159565b8060005b8381101561462257815161460988826142b5565b975061461483615250565b9250506001810190506145f5565b5085935050505092915050565b600061463a826151d6565b61464481856152ee565b93508360208202850161465685615169565b8060005b85811015614692578484038952815161467385826142cd565b945061467e8361525d565b925060208a0199505060018101905061465a565b50829750879550505050505092915050565b60006146af826151e1565b6146b981856152ff565b9350836020820285016146cb85615179565b8060005b8581101561470757848403895281516146e885826142e1565b94506146f38361526a565b925060208a019950506001810190506146cf565b50829750879550505050505092915050565b61472281615356565b82525050565b61473181615356565b82525050565b6000614742826151f7565b61474c8185615321565b935061475c81856020860161539b565b614765816153fc565b840191505092915050565b600061477b826151ec565b6147858185615310565b935061479581856020860161539b565b61479e816153fc565b840191505092915050565b60006147b4826151ec565b6147be8185615321565b93506147ce81856020860161539b565b6147d7816153fc565b840191505092915050565b60006147ef601c83615321565b91507f596f7520616c726561647920666f6c6c6f7720746865207573657221000000006000830152602082019050919050565b600061482f601283615321565b91507f596f75206f776e207468697320706f73742100000000000000000000000000006000830152602082019050919050565b600061486f602083615321565b91507f796f752063616e277420666f6c6f7720796f7572206f776e206163636f756e746000830152602082019050919050565b60006148af600e83615321565b91507f416c7265616479206120757365720000000000000000000000000000000000006000830152602082019050919050565b60006148ef602383615321565b91507f4f6e6c7920746865206f776e65722063616e2064656c6574652074686973207060008301527f6f737400000000000000000000000000000000000000000000000000000000006020830152604082019050919050565b6000614955601b83615321565b91507f596f7520616c7265616479206c696b65207468697320706f73742100000000006000830152602082019050919050565b60006060830160008301516149a0600086018261430c565b50602083015184820360208601526149b88282614770565b91505060408301516149cd6040860182614c53565b508091505092915050565b60006080830160008301516149f0600086018261430c565b5060208301518482036020860152614a088282614770565b91505060408301518482036040860152614a228282614770565b9150506060830151614a376060860182614c53565b508091505092915050565b6000606083016000830151614a5a600086018261430c565b5060208301518482036020860152614a728282614770565b9150506040830151614a876040860182614c53565b508091505092915050565b604082016000820151614aa8600085018261430c565b506020820151614abb6020850182614c53565b50505050565b604082016000820151614ad7600085018261430c565b506020820151614aea6020850182614c53565b50505050565b600060c083016000830151614b086000860182614c53565b5060208301518482036020860152614b208282614770565b9150506040830151614b356040860182614c53565b506060830151614b48606086018261430c565b506080830151614b5b6080860182614c53565b5060a0830151614b6e60a0860182614719565b508091505092915050565b600061012083016000830151614b926000860182614c53565b5060208301518482036020860152614baa8282614770565b91505060408301518482036040860152614bc48282614770565b9150506060830151614bd96060860182614c53565b506080830151614bec608086018261430c565b5060a0830151614bff60a0860182614c53565b5060c0830151614c1260c0860182614719565b5060e083015184820360e0860152614c2a8282614414565b915050610100830151848203610100860152614c4682826144fe565b9150508091505092915050565b614c5c81615382565b82525050565b614c6b81615382565b82525050565b614c82614c7d82615382565b6153f2565b82525050565b6000614c948286614c71565b602082019150614ca482856142f5565b601482019150614cb48284614c71565b602082019150819050949350505050565b6000602082019050614cda600083018461431b565b92915050565b6000606082019050614cf5600083018661431b565b8181036020830152614d0781856147a9565b9050614d166040830184614c62565b949350505050565b6000604082019050614d33600083018561431b565b614d406020830184614c62565b9392505050565b60006020820190508181036000830152614d61818461432a565b905092915050565b60006020820190508181036000830152614d83818461439f565b905092915050565b60006020820190508181036000830152614da58184614489565b905092915050565b60006020820190508181036000830152614dc78184614573565b905092915050565b60006020820190508181036000830152614de981846145d1565b905092915050565b60006020820190508181036000830152614e0b818461462f565b905092915050565b60006020820190508181036000830152614e2d81846146a4565b905092915050565b6000602082019050614e4a6000830184614728565b92915050565b60006020820190508181036000830152614e6a81846147a9565b905092915050565b60006020820190508181036000830152614e8c8184614737565b905092915050565b600060a0820190508181036000830152614eae8188614737565b9050614ebd6020830187614c62565b614eca6040830186614c62565b614ed76060830185614c62565b614ee4608083018461431b565b9695505050505050565b600060c0820190508181036000830152614f0881896147a9565b90508181036020830152614f1c81886147a9565b9050614f2b604083018761431b565b614f386060830186614c62565b614f456080830185614c62565b614f5260a0830184614c62565b979650505050505050565b60006020820190508181036000830152614f76816147e2565b9050919050565b60006020820190508181036000830152614f9681614822565b9050919050565b60006020820190508181036000830152614fb681614862565b9050919050565b60006020820190508181036000830152614fd6816148a2565b9050919050565b60006020820190508181036000830152614ff6816148e2565b9050919050565b6000602082019050818103600083015261501681614948565b9050919050565b60006020820190506150326000830184614c62565b92915050565b600060c08201905061504d6000830189614c62565b818103602083015261505f81886147a9565b905061506e6040830187614c62565b61507b606083018661431b565b6150886080830185614c62565b61509560a0830184614728565b979650505050505050565b6000604051905081810181811067ffffffffffffffff821117156150c357600080fd5b8060405250919050565b600067ffffffffffffffff8211156150e457600080fd5b601f19601f8301169050602081019050919050565b6000819050602082019050919050565b6000819050602082019050919050565b6000819050602082019050919050565b6000819050602082019050919050565b6000819050602082019050919050565b6000819050602082019050919050565b6000819050602082019050919050565b6000819050602082019050919050565b6000819050602082019050919050565b600081519050919050565b600081519050919050565b600081519050919050565b600081519050919050565b600081519050919050565b600081519050919050565b600081519050919050565b600081519050919050565b600081519050919050565b600081519050919050565b600081519050919050565b6000602082019050919050565b6000602082019050919050565b6000602082019050919050565b6000602082019050919050565b6000602082019050919050565b6000602082019050919050565b6000602082019050919050565b6000602082019050919050565b6000602082019050919050565b600082825260208201905092915050565b600082825260208201905092915050565b600082825260208201905092915050565b600082825260208201905092915050565b600082825260208201905092915050565b600082825260208201905092915050565b600082825260208201905092915050565b600082825260208201905092915050565b600082825260208201905092915050565b600082825260208201905092915050565b600082825260208201905092915050565b600061533d82615362565b9050919050565b600061534f82615362565b9050919050565b60008115159050919050565b600073ffffffffffffffffffffffffffffffffffffffff82169050919050565b6000819050919050565b82818337600083830152505050565b60005b838110156153b957808201518184015260208101905061539e565b838111156153c8576000848401525b50505050565b60006153d9826153e0565b9050919050565b60006153eb8261540d565b9050919050565b6000819050919050565b6000601f19601f8301169050919050565b60008160601b9050919050565b61542381615332565b811461542e57600080fd5b50565b61543a81615382565b811461544557600080fd5b5056fea365627a7a72315820fed4f77af89d26b7d227eaaeee599340bfb8a23bba9a26435c59bb003961f1516c6578706572696d656e74616cf564736f6c63430005100040",
  "source": "pragma solidity >=0.4.21 <0.6.0;\npragma experimental ABIEncoderV2;\n\ncontract Lixtagram {\n\n    struct Followers {\n        address follower;\n        uint time;\n    }\n\n    struct User {\n        string name;\n        string profilePic;\n        address uadd;\n        uint256 tokens;\n        uint256 postsCount;\n        uint256 redeemTokens;\n    }\n\n    struct Comments {\n        address adr;\n        string comment;\n        uint time;\n    }\n\n    struct Likers {\n        address adr;\n        uint time;\n    }\n\n    struct FilterLikers {\n        address adr;\n        string adrName;\n        uint time;\n    }\n    struct FilterComments {\n        address adr;\n        string adrName;\n        string comment;\n        uint time;\n    }\n\n    struct Post {\n        uint id;\n        string imgIpfsHash;\n        uint256 likes;\n        address owner;\n        uint timestamp;\n        bool isPublic;\n    }\n\n    struct ViewPost {\n        uint id;\n        string ownerName;\n        string imgIpfsHash;\n        uint256 likes;\n        address owner;\n        uint timestamp;\n        bool isPublic;\n        FilterComments[] comments;\n        FilterLikers[] likers;\n    }\n\n    //User\n    mapping(address => bool) public users;\n    mapping(address => Followers[]) public followers;\n    mapping(uint => Likers[]) public likers;\n    mapping(uint => Comments[]) public comments;\n    mapping(address => uint[]) public userPostPublicIndex;\n    mapping(address => uint[]) public userPostPrivateIndex;\n    mapping(address => uint[]) public userAllPost;\n    mapping(address => string) public username;\n\n    User[] public peeps;\n    Post[] public posts;\n   \n    //constructor \n    string public name;\n    address public manager;\n    uint256 public userCount;\n    uint public allPostCount;\n\n    //Community chat\n    string public chatHash;\n\n    constructor() public {\n        name = \"Lixtagram\";\n        manager = msg.sender;\n        userCount = 0;\n        allPostCount = 0;\n    }\n\n    function createPost(\n        string memory description,\n        string memory imgIpfsHash\n    ) public payable {\n        if(posts.length == 0){\n            allPostCount = 0;\n        }\n        uint randomId = uint(keccak256(abi.encodePacked(now, msg.sender, block.difficulty)));\n            \n        Post memory newPost = Post({\n            id: randomId,\n            imgIpfsHash: imgIpfsHash,\n            likes: 0,\n            owner: msg.sender,\n            timestamp: now,\n            isPublic: true\n        });\n\n        posts.push(newPost);\n        likers[randomId].push(Likers(msg.sender, now));\n        comments[randomId].push(Comments(msg.sender, description ,now));\n        userPostPublicIndex[msg.sender].push(allPostCount);\n        userAllPost[msg.sender].push(allPostCount);\n\n        for (uint256 i = 0; i < peeps.length; i++) {\n            if (peeps[i].uadd == msg.sender) {\n                peeps[i].postsCount++;\n                break;\n            }\n        }\n    }\n\n    function isLiker(address user, uint _id) public view returns(bool){\n        bool f;\n        for(uint i = 0; i < likers[_id].length; i++){\n            if(user == likers[_id][i].adr){\n                f = true;\n                break;\n            }\n        }\n        return f;\n    }\n\n    function isFollower(address user, address owner) public view returns(bool){\n        bool f;\n        for(uint i = 0; i < followers[owner].length; i++){\n            if(user == followers[owner][i].follower){\n                f = true;\n                break;\n            }\n        }\n        return f;\n    }\n\n    function followUser(address adr) public payable{\n        address author = followers[adr][0].follower;\n        uint len = followers[adr].length;\n        require(msg.sender !=  adr, \"you can't folow your own account\");\n        for(uint i = 0; i < len; i++){\n            if(msg.sender == followers[adr][i].follower){\n                require(msg.sender !=  followers[adr][i].follower, \"You already follow the user!\");\n                break;\n            }\n        }\n        followers[adr].push(Followers(msg.sender, now));\n        for (uint256 i = 0; i < peeps.length; i++) {\n            if (peeps[i].uadd == author) {\n                peeps[i].tokens += 1;\n                peeps[i].redeemTokens += 1;\n                break;\n            }\n        }\n    }\n\n    function likePost(uint _id) public payable{\n        address author = likers[_id][0].adr;\n        require(msg.sender != author, \"You own this post!\");\n        uint len = likers[_id].length;\n        for(uint i = 0; i < len; i++){\n            if(msg.sender == likers[_id][i].adr){\n                require(msg.sender !=  likers[_id][i].adr, \"You already like this post!\");\n                break;\n            }\n        }\n        likers[_id].push(Likers(msg.sender, now));\n        for (uint256 i = 0; i < peeps.length; i++) {\n            if (peeps[i].uadd == author) {\n                peeps[i].tokens += 1;\n                peeps[i].redeemTokens += 1;\n                break;\n            }\n        }\n    }\n\n    function getUserPublicPost(address adr) public view returns (Post[] memory){\n        uint len = userPostPublicIndex[adr].length;\n        uint index;\n        Post[] memory p = new Post[](len);\n        for(uint i = 0; i < len; i++){\n            index = userPostPublicIndex[adr][i];\n            Post storage post = posts[index];\n            p[i] = post;\n        }\n        return p;\n    }\n\n    function getUserPrivatePost(address adr) public view returns (Post[] memory){\n        uint len = userPostPrivateIndex[adr].length;\n        uint index;\n        Post[] memory p = new Post[](len);\n        for(uint i = 0; i < len; i++){\n            index = userPostPrivateIndex[adr][i];\n            Post storage post = posts[index];\n            p[i] = post;\n        }\n        return p;\n    }\n\n    function getComments(uint _id) public view returns (Comments[] memory){\n      uint len  = comments[_id].length;\n      Comments[] memory c = new Comments[](len);\n      for(uint i =0 ; i < len; i++){\n           c[i] = comments[_id][i];           \n      }\n      return c;\n    }\n\n    function getViewPost() public view returns (ViewPost[] memory){\n        uint postLength = posts.length;\n        ViewPost[] memory v = new ViewPost[](postLength);\n        for (uint i = 0; i < postLength; i++) {\n            Post storage post = posts[i];\n            if(posts[i].isPublic == true){\n                v[i].id = post.id;\n                v[i].ownerName = getUsername(post.owner);\n                v[i].imgIpfsHash = post.imgIpfsHash;\n                v[i].likes = post.likes;\n                v[i].owner = post.owner;\n                v[i].timestamp = post.timestamp;\n                v[i].isPublic = post.isPublic;\n                v[i].comments = getViewPostComments(post.id);\n                v[i].likers = getViewPostLikers(post.id);\n            }\n        }\n        return v;\n    }\n\n    function getViewPostComments(uint _id) public view returns (FilterComments[] memory){\n        Comments[] memory c = getComments(_id);\n        FilterComments[] memory nc = new FilterComments[](c.length);\n        for(uint i; i < c.length; i++){\n            nc[i].adr = c[i].adr;\n            nc[i].adrName = getUsername(c[i].adr); \n            nc[i].comment = c[i].comment; \n            nc[i].time = c[i].time;\n        }\n        return nc;\n     }\n\n     function getViewPostLikers(uint _id) public view returns (FilterLikers[] memory){\n        Likers[] memory l = getLikes(_id);\n        FilterLikers[] memory nl = new FilterLikers[](l.length);\n        for(uint i; i < l.length; i++){\n            nl[i].adr = l[i].adr;\n            nl[i].adrName = getUsername(l[i].adr);\n            nl[i].time = l[i].time;\n        }\n        return nl;\n     }\n     \n\n    function getLikes(uint _id) public view returns (Likers[] memory){\n      uint len  = likers[_id].length;\n      Likers[] memory l = new Likers[](len);\n      for(uint i =0 ; i < len; i++){\n           l[i] = likers[_id][i];           \n      }\n      return l;\n    }\n\n    function getFollowers(address adr) public view returns (Followers[] memory){\n      uint len  = followers[adr].length;\n      Followers[] memory f = new Followers[](len);\n      for(uint i =0 ; i < len; i++){\n           f[i] = followers[adr][i];           \n      }\n      return f;\n    }\n\n    function getUsername(address adr) public view returns (string memory){\n        return username[adr];\n    }\n\n    function getNumberOffollowwers(address adr) public view returns (uint){\n        return followers[adr].length;\n    }\n\n    function getPostIsPublic() public view returns (Post[] memory){\n        uint postLength = posts.length;\n        Post[] memory p = new Post[](postLength);\n        for (uint i = 0; i < postLength; i++) {\n            Post storage post = posts[i];\n            if(posts[i].isPublic == true){\n                p[i] = post;\n            }\n        }\n        return p;\n    }\n\n\n    function getPostsCount() public view returns (uint256) {\n        return posts.length;\n    }\n\n    // function deletePost(uint256 index) public {\n    //     Post storage currPost = posts[index];\n    //     require(currPost.owner == msg.sender, \"You are not the owner of the post!\");\n    //     currPost.isPublic = false;\n    // }\n\n    function deletePost(uint id) public {\n        for(uint i = 0; i < posts.length; i++ ){\n            if(posts[id].id == id){\n                require(posts[i].owner == msg.sender, \"Only the owner can delete this post\" ); \n                delete posts[i];\n                break;\n            }\n        }\n        for (uint256 i = 0; i < peeps.length; i++) {\n            if (peeps[i].uadd == msg.sender) {\n                peeps[i].postsCount--;\n                break;\n            }\n        }\n    }\n    \n    function signUp(string memory _name) public payable {\n        require(!users[msg.sender], \"Already a user\");\n        users[msg.sender] = true;\n        username[msg.sender] = _name;\n        userCount++;\n        User memory newUser = User({\n            name: _name,\n            profilePic: \"\",\n            uadd: msg.sender,\n            tokens: 0,\n            redeemTokens: 0,\n            postsCount: 0\n        });\n        peeps.push(newUser);\n        followers[msg.sender].push(Followers(msg.sender, now));\n    }\n\n    function isUser(address user) public view returns (bool) {\n        return users[user];\n    }\n\n    // function getPostDetails(string memory postHash)\n    //     public\n    //     view\n    //     returns (uint, string memory, string memory,string memory, uint, address, uint, string memory, string memory, bool)\n    // {\n    //     for (uint256 i = 0; i < posts.length; i++) {\n    //         if ( keccak256(abi.encodePacked((posts[i].hash))) == keccak256(abi.encodePacked((postHash)))) {\n    //             Post storage post = posts[i];\n    //             return (\n    //                 post.id,\n    //                 post.hash,\n    //                 post.description,\n    //                 post.imgIpfsHash,\n    //                 post.likes,\n    //                 post.owner,\n    //                 post.timestamp,\n    //                 post.likerList,\n    //                 post.comments,\n    //                 post.isPublic\n    //             );\n    //         }\n    //     }\n    // }\n\n    function getUserDetails(address adr)\n        public\n        view\n        returns (string memory, uint256, uint256, uint256, address)\n    {\n        string memory n;\n        uint tokens;\n        uint postsCount;\n        uint redeemTokens;\n        address uadd;\n        for (uint256 i = 0; i < peeps.length; i++) {\n            if (peeps[i].uadd == adr) {\n                User storage user = peeps[i];\n                n = user.name;\n                tokens = user.tokens;\n                postsCount = user.postsCount;\n                redeemTokens = user.redeemTokens;\n                uadd = user.uadd;\n                break;\n            }\n        }\n        return (n, tokens, postsCount, redeemTokens, uadd);\n    }\n\n    function redeemNTokens(uint256 ntokens, uint256 value) public {\n        address(uint256(msg.sender)).transfer(value);\n        for (uint256 i = 0; i < peeps.length; i++) {\n            if (peeps[i].uadd == msg.sender) {\n                peeps[i].redeemTokens -= ntokens;\n                break;\n            }\n        }\n    }\n\n    function setChatHash(string memory chash) public {\n        chatHash = chash;\n    }\n\n    function getContractBalance() public view returns (uint256) {\n        return address(this).balance;\n    }\n    \n}\n",
  "sourcePath": "C:\\Users\\iRipple\\Desktop\\felix files\\lixtagram\\lixtagram\\src\\contracts\\Lixtagram.sol",
  "compiler": {
    "name": "solc",
    "version": "0.5.16+commit.9c3226ce.Emscripten.clang"
  },
  "schemaVersion": "3.4.6",
  "updatedAt": "2022-04-10T07:39:54.568Z",
  "networkType": "ethereum",
  "devdoc": {
    "methods": {}
  },
  "userdoc": {
    "methods": {}
  }
}