{
  "contractName": "Lixtagram",
  "abi": [
    {
      "inputs": [],
      "payable": false,
      "stateMutability": "nonpayable",
      "type": "constructor"
    },
    {
      "constant": true,
      "inputs": [],
      "name": "allPostCount",
      "outputs": [
        {
          "internalType": "uint256",
          "name": "",
          "type": "uint256"
        }
      ],
      "payable": false,
      "stateMutability": "view",
      "type": "function"
    },
    {
      "constant": true,
      "inputs": [],
      "name": "chatHash",
      "outputs": [
        {
          "internalType": "string",
          "name": "",
          "type": "string"
        }
      ],
      "payable": false,
      "stateMutability": "view",
      "type": "function"
    },
    {
      "constant": true,
      "inputs": [],
      "name": "manager",
      "outputs": [
        {
          "internalType": "address",
          "name": "",
          "type": "address"
        }
      ],
      "payable": false,
      "stateMutability": "view",
      "type": "function"
    },
    {
      "constant": true,
      "inputs": [],
      "name": "name",
      "outputs": [
        {
          "internalType": "string",
          "name": "",
          "type": "string"
        }
      ],
      "payable": false,
      "stateMutability": "view",
      "type": "function"
    },
    {
      "constant": true,
      "inputs": [
        {
          "internalType": "uint256",
          "name": "",
          "type": "uint256"
        }
      ],
      "name": "peeps",
      "outputs": [
        {
          "internalType": "string",
          "name": "name",
          "type": "string"
        },
        {
          "internalType": "string",
          "name": "profilePic",
          "type": "string"
        },
        {
          "internalType": "address",
          "name": "uadd",
          "type": "address"
        },
        {
          "internalType": "uint256",
          "name": "tokens",
          "type": "uint256"
        },
        {
          "internalType": "uint256",
          "name": "postsCount",
          "type": "uint256"
        },
        {
          "internalType": "uint256",
          "name": "redeemTokens",
          "type": "uint256"
        },
        {
          "components": [
            {
              "internalType": "address",
              "name": "Follower",
              "type": "address"
            },
            {
              "internalType": "uint256",
              "name": "time",
              "type": "uint256"
            }
          ],
          "internalType": "struct Lixtagram.Followers",
          "name": "followers",
          "type": "tuple"
        }
      ],
      "payable": false,
      "stateMutability": "view",
      "type": "function"
    },
    {
      "constant": true,
      "inputs": [
        {
          "internalType": "uint256",
          "name": "",
          "type": "uint256"
        }
      ],
      "name": "posts",
      "outputs": [
        {
          "internalType": "uint256",
          "name": "id",
          "type": "uint256"
        },
        {
          "internalType": "string",
          "name": "hash",
          "type": "string"
        },
        {
          "internalType": "string",
          "name": "description",
          "type": "string"
        },
        {
          "internalType": "string",
          "name": "imgIpfsHash",
          "type": "string"
        },
        {
          "internalType": "uint256",
          "name": "likes",
          "type": "uint256"
        },
        {
          "internalType": "address",
          "name": "owner",
          "type": "address"
        },
        {
          "internalType": "uint256",
          "name": "timestamp",
          "type": "uint256"
        },
        {
          "internalType": "bool",
          "name": "isPublic",
          "type": "bool"
        },
        {
          "components": [
            {
              "internalType": "address",
              "name": "adr",
              "type": "address"
            },
            {
              "internalType": "string",
              "name": "comment",
              "type": "string"
            },
            {
              "internalType": "uint256",
              "name": "time",
              "type": "uint256"
            }
          ],
          "internalType": "struct Lixtagram.Comments",
          "name": "comments",
          "type": "tuple"
        },
        {
          "components": [
            {
              "internalType": "address",
              "name": "adr",
              "type": "address"
            },
            {
              "internalType": "uint256",
              "name": "time",
              "type": "uint256"
            }
          ],
          "internalType": "struct Lixtagram.Likers",
          "name": "likers",
          "type": "tuple"
        }
      ],
      "payable": false,
      "stateMutability": "view",
      "type": "function"
    },
    {
      "constant": true,
      "inputs": [],
      "name": "userCount",
      "outputs": [
        {
          "internalType": "uint256",
          "name": "",
          "type": "uint256"
        }
      ],
      "payable": false,
      "stateMutability": "view",
      "type": "function"
    },
    {
      "constant": true,
      "inputs": [
        {
          "internalType": "address",
          "name": "",
          "type": "address"
        }
      ],
      "name": "users",
      "outputs": [
        {
          "internalType": "bool",
          "name": "",
          "type": "bool"
        }
      ],
      "payable": false,
      "stateMutability": "view",
      "type": "function"
    },
    {
      "constant": false,
      "inputs": [
        {
          "internalType": "string",
          "name": "description",
          "type": "string"
        },
        {
          "internalType": "string",
          "name": "imgIpfsHash",
          "type": "string"
        },
        {
          "internalType": "string",
          "name": "hash",
          "type": "string"
        }
      ],
      "name": "createPost",
      "outputs": [],
      "payable": true,
      "stateMutability": "payable",
      "type": "function"
    },
    {
      "constant": true,
      "inputs": [],
      "name": "getPostIsPublic",
      "outputs": [
        {
          "components": [
            {
              "internalType": "uint256",
              "name": "id",
              "type": "uint256"
            },
            {
              "internalType": "string",
              "name": "hash",
              "type": "string"
            },
            {
              "internalType": "string",
              "name": "description",
              "type": "string"
            },
            {
              "internalType": "string",
              "name": "imgIpfsHash",
              "type": "string"
            },
            {
              "internalType": "uint256",
              "name": "likes",
              "type": "uint256"
            },
            {
              "internalType": "address",
              "name": "owner",
              "type": "address"
            },
            {
              "internalType": "uint256",
              "name": "timestamp",
              "type": "uint256"
            },
            {
              "internalType": "bool",
              "name": "isPublic",
              "type": "bool"
            },
            {
              "components": [
                {
                  "internalType": "address",
                  "name": "adr",
                  "type": "address"
                },
                {
                  "internalType": "string",
                  "name": "comment",
                  "type": "string"
                },
                {
                  "internalType": "uint256",
                  "name": "time",
                  "type": "uint256"
                }
              ],
              "internalType": "struct Lixtagram.Comments",
              "name": "comments",
              "type": "tuple"
            },
            {
              "components": [
                {
                  "internalType": "address",
                  "name": "adr",
                  "type": "address"
                },
                {
                  "internalType": "uint256",
                  "name": "time",
                  "type": "uint256"
                }
              ],
              "internalType": "struct Lixtagram.Likers",
              "name": "likers",
              "type": "tuple"
            }
          ],
          "internalType": "struct Lixtagram.Post[]",
          "name": "",
          "type": "tuple[]"
        }
      ],
      "payable": false,
      "stateMutability": "view",
      "type": "function"
    },
    {
      "constant": true,
      "inputs": [],
      "name": "getCurrProfilePost",
      "outputs": [
        {
          "components": [
            {
              "internalType": "uint256",
              "name": "id",
              "type": "uint256"
            },
            {
              "internalType": "string",
              "name": "hash",
              "type": "string"
            },
            {
              "internalType": "string",
              "name": "description",
              "type": "string"
            },
            {
              "internalType": "string",
              "name": "imgIpfsHash",
              "type": "string"
            },
            {
              "internalType": "uint256",
              "name": "likes",
              "type": "uint256"
            },
            {
              "internalType": "address",
              "name": "owner",
              "type": "address"
            },
            {
              "internalType": "uint256",
              "name": "timestamp",
              "type": "uint256"
            },
            {
              "internalType": "bool",
              "name": "isPublic",
              "type": "bool"
            },
            {
              "components": [
                {
                  "internalType": "address",
                  "name": "adr",
                  "type": "address"
                },
                {
                  "internalType": "string",
                  "name": "comment",
                  "type": "string"
                },
                {
                  "internalType": "uint256",
                  "name": "time",
                  "type": "uint256"
                }
              ],
              "internalType": "struct Lixtagram.Comments",
              "name": "comments",
              "type": "tuple"
            },
            {
              "components": [
                {
                  "internalType": "address",
                  "name": "adr",
                  "type": "address"
                },
                {
                  "internalType": "uint256",
                  "name": "time",
                  "type": "uint256"
                }
              ],
              "internalType": "struct Lixtagram.Likers",
              "name": "likers",
              "type": "tuple"
            }
          ],
          "internalType": "struct Lixtagram.Post[]",
          "name": "",
          "type": "tuple[]"
        }
      ],
      "payable": false,
      "stateMutability": "view",
      "type": "function"
    },
    {
      "constant": true,
      "inputs": [
        {
          "internalType": "address",
          "name": "ownerAdr",
          "type": "address"
        }
      ],
      "name": "getOtherProfilePost",
      "outputs": [
        {
          "components": [
            {
              "internalType": "uint256",
              "name": "id",
              "type": "uint256"
            },
            {
              "internalType": "string",
              "name": "hash",
              "type": "string"
            },
            {
              "internalType": "string",
              "name": "description",
              "type": "string"
            },
            {
              "internalType": "string",
              "name": "imgIpfsHash",
              "type": "string"
            },
            {
              "internalType": "uint256",
              "name": "likes",
              "type": "uint256"
            },
            {
              "internalType": "address",
              "name": "owner",
              "type": "address"
            },
            {
              "internalType": "uint256",
              "name": "timestamp",
              "type": "uint256"
            },
            {
              "internalType": "bool",
              "name": "isPublic",
              "type": "bool"
            },
            {
              "components": [
                {
                  "internalType": "address",
                  "name": "adr",
                  "type": "address"
                },
                {
                  "internalType": "string",
                  "name": "comment",
                  "type": "string"
                },
                {
                  "internalType": "uint256",
                  "name": "time",
                  "type": "uint256"
                }
              ],
              "internalType": "struct Lixtagram.Comments",
              "name": "comments",
              "type": "tuple"
            },
            {
              "components": [
                {
                  "internalType": "address",
                  "name": "adr",
                  "type": "address"
                },
                {
                  "internalType": "uint256",
                  "name": "time",
                  "type": "uint256"
                }
              ],
              "internalType": "struct Lixtagram.Likers",
              "name": "likers",
              "type": "tuple"
            }
          ],
          "internalType": "struct Lixtagram.Post[]",
          "name": "",
          "type": "tuple[]"
        }
      ],
      "payable": false,
      "stateMutability": "view",
      "type": "function"
    },
    {
      "constant": true,
      "inputs": [],
      "name": "getPostsCount",
      "outputs": [
        {
          "internalType": "uint256",
          "name": "",
          "type": "uint256"
        }
      ],
      "payable": false,
      "stateMutability": "view",
      "type": "function"
    },
    {
      "constant": false,
      "inputs": [
        {
          "internalType": "uint256",
          "name": "id",
          "type": "uint256"
        }
      ],
      "name": "deletePost",
      "outputs": [],
      "payable": false,
      "stateMutability": "nonpayable",
      "type": "function"
    },
    {
      "constant": false,
      "inputs": [
        {
          "internalType": "string",
          "name": "_name",
          "type": "string"
        }
      ],
      "name": "signIn",
      "outputs": [],
      "payable": true,
      "stateMutability": "payable",
      "type": "function"
    },
    {
      "constant": true,
      "inputs": [
        {
          "internalType": "address",
          "name": "user",
          "type": "address"
        }
      ],
      "name": "isUser",
      "outputs": [
        {
          "internalType": "bool",
          "name": "",
          "type": "bool"
        }
      ],
      "payable": false,
      "stateMutability": "view",
      "type": "function"
    },
    {
      "constant": true,
      "inputs": [],
      "name": "getUserDetails",
      "outputs": [
        {
          "components": [
            {
              "internalType": "string",
              "name": "name",
              "type": "string"
            },
            {
              "internalType": "string",
              "name": "profilePic",
              "type": "string"
            },
            {
              "internalType": "address",
              "name": "uadd",
              "type": "address"
            },
            {
              "internalType": "uint256",
              "name": "tokens",
              "type": "uint256"
            },
            {
              "internalType": "uint256",
              "name": "postsCount",
              "type": "uint256"
            },
            {
              "internalType": "uint256",
              "name": "redeemTokens",
              "type": "uint256"
            },
            {
              "components": [
                {
                  "internalType": "address",
                  "name": "Follower",
                  "type": "address"
                },
                {
                  "internalType": "uint256",
                  "name": "time",
                  "type": "uint256"
                }
              ],
              "internalType": "struct Lixtagram.Followers",
              "name": "followers",
              "type": "tuple"
            }
          ],
          "internalType": "struct Lixtagram.User[]",
          "name": "",
          "type": "tuple[]"
        }
      ],
      "payable": false,
      "stateMutability": "view",
      "type": "function"
    },
    {
      "constant": false,
      "inputs": [
        {
          "internalType": "uint256",
          "name": "ntokens",
          "type": "uint256"
        },
        {
          "internalType": "uint256",
          "name": "value",
          "type": "uint256"
        }
      ],
      "name": "redeemNTokens",
      "outputs": [],
      "payable": false,
      "stateMutability": "nonpayable",
      "type": "function"
    },
    {
      "constant": false,
      "inputs": [
        {
          "internalType": "string",
          "name": "chash",
          "type": "string"
        }
      ],
      "name": "setChatHash",
      "outputs": [],
      "payable": false,
      "stateMutability": "nonpayable",
      "type": "function"
    },
    {
      "constant": true,
      "inputs": [],
      "name": "getContractBalance",
      "outputs": [
        {
          "internalType": "uint256",
          "name": "",
          "type": "uint256"
        }
      ],
      "payable": false,
      "stateMutability": "view",
      "type": "function"
    }
  ],
  "bytecode": "0x60806040523480156200001157600080fd5b506040518060400160405280600981526020017f4c697874616772616d0000000000000000000000000000000000000000000000815250600390805190602001906200005f929190620000b7565b5033600460006101000a81548173ffffffffffffffffffffffffffffffffffffffff021916908373ffffffffffffffffffffffffffffffffffffffff1602179055506000600581905550600060068190555062000166565b828054600181600116156101000203166002900490600052602060002090601f016020900481019282601f10620000fa57805160ff19168380011785556200012b565b828001600101855582156200012b579182015b828111156200012a5782518255916020019190600101906200010d565b5b5090506200013a91906200013e565b5090565b6200016391905b808211156200015f57600081600090555060010162000145565b5090565b90565b6139fa80620001766000396000f3fe60806040526004361061011f5760003560e01c806383624882116100a0578063b9f4609a11610064578063b9f4609a146103fa578063bab5f77314610425578063c95f728a14610450578063dddae76b1461046c578063e8a4a1eb146104a95761011f565b806383624882146102fb5780638c39e55014610326578063942886be1461034f578063a87430ba1461037a578063b7833b6e146103b75761011f565b80633437d4d9116100e75780633437d4d9146102125780634209fff11461023d578063481c6a751461027a578063690eea1f146102a55780636f9fb98a146102d05761011f565b806306fdde031461012457806307973ccf1461014f578063094cd5ee1461017a5780630b1e7f83146101a357806320fc0205146101e9575b600080fd5b34801561013057600080fd5b506101396104c5565b60405161014691906135f6565b60405180910390f35b34801561015b57600080fd5b50610164610563565b60405161017191906136d6565b60405180910390f35b34801561018657600080fd5b506101a1600480360361019c9190810190612f39565b610569565b005b3480156101af57600080fd5b506101ca60048036036101c59190810190612f39565b610848565b6040516101e09a999897969594939291906136f1565b60405180910390f35b3480156101f557600080fd5b50610210600480360361020b9190810190612e61565b610c14565b005b34801561021e57600080fd5b50610227610c2e565b60405161023491906135f6565b60405180910390f35b34801561024957600080fd5b50610264600480360361025f9190810190612e38565b610ccc565b60405161027191906135db565b60405180910390f35b34801561028657600080fd5b5061028f610d21565b60405161029c919061357c565b60405180910390f35b3480156102b157600080fd5b506102ba610d47565b6040516102c791906136d6565b60405180910390f35b3480156102dc57600080fd5b506102e5610d4d565b6040516102f291906136d6565b60405180910390f35b34801561030757600080fd5b50610310610d55565b60405161031d91906136d6565b60405180910390f35b34801561033257600080fd5b5061034d60048036036103489190810190612f62565b610d62565b005b34801561035b57600080fd5b50610364610e87565b60405161037191906135b9565b60405180910390f35b34801561038657600080fd5b506103a1600480360361039c9190810190612e38565b6111db565b6040516103ae91906135db565b60405180910390f35b3480156103c357600080fd5b506103de60048036036103d99190810190612f39565b6111fb565b6040516103f19796959493929190613618565b60405180910390f35b34801561040657600080fd5b5061040f611404565b60405161041c9190613597565b60405180910390f35b34801561043157600080fd5b5061043a611929565b6040516104479190613597565b60405180910390f35b61046a60048036036104659190810190612e61565b611e14565b005b34801561047857600080fd5b50610493600480360361048e9190810190612e38565b6120a7565b6040516104a09190613597565b60405180910390f35b6104c360048036036104be9190810190612ea2565b612609565b005b60038054600181600116156101000203166002900480601f01602080910402602001604051908101604052809291908181526020018280546001816001161561010002031660029004801561055b5780601f106105305761010080835404028352916020019161055b565b820191906000526020600020905b81548152906001019060200180831161053e57829003601f168201915b505050505081565b60055481565b60008090505b60028054905081101561077d57816002838154811061058a57fe5b90600052602060002090600d0201600001541415610770573373ffffffffffffffffffffffffffffffffffffffff16600282815481106105c657fe5b90600052602060002090600d020160050160009054906101000a900473ffffffffffffffffffffffffffffffffffffffff1673ffffffffffffffffffffffffffffffffffffffff161461064e576040517f08c379a0000000000000000000000000000000000000000000000000000000008152600401610645906136b6565b60405180910390fd5b6002818154811061065b57fe5b90600052602060002090600d0201600080820160009055600182016000610682919061297f565b600282016000610692919061297f565b6003820160006106a2919061297f565b60048201600090556005820160006101000a81549073ffffffffffffffffffffffffffffffffffffffff021916905560068201600090556007820160006101000a81549060ff021916905560088201600080820160006101000a81549073ffffffffffffffffffffffffffffffffffffffff0219169055600182016000610729919061297f565b60028201600090555050600b8201600080820160006101000a81549073ffffffffffffffffffffffffffffffffffffffff021916905560018201600090555050505061077d565b808060010191505061056f565b5060008090505b600180549050811015610844573373ffffffffffffffffffffffffffffffffffffffff16600182815481106107b557fe5b906000526020600020906008020160020160009054906101000a900473ffffffffffffffffffffffffffffffffffffffff1673ffffffffffffffffffffffffffffffffffffffff161415610837576001818154811061081057fe5b90600052602060002090600802016004016000815480929190600190039190505550610844565b8080600101915050610784565b5050565b6002818154811061085557fe5b90600052602060002090600d0201600091509050806000015490806001018054600181600116156101000203166002900480601f0160208091040260200160405190810160405280929190818152602001828054600181600116156101000203166002900480156109075780601f106108dc57610100808354040283529160200191610907565b820191906000526020600020905b8154815290600101906020018083116108ea57829003601f168201915b505050505090806002018054600181600116156101000203166002900480601f0160208091040260200160405190810160405280929190818152602001828054600181600116156101000203166002900480156109a55780601f1061097a576101008083540402835291602001916109a5565b820191906000526020600020905b81548152906001019060200180831161098857829003601f168201915b505050505090806003018054600181600116156101000203166002900480601f016020809104026020016040519081016040528092919081815260200182805460018160011615610100020316600290048015610a435780601f10610a1857610100808354040283529160200191610a43565b820191906000526020600020905b815481529060010190602001808311610a2657829003601f168201915b5050505050908060040154908060050160009054906101000a900473ffffffffffffffffffffffffffffffffffffffff16908060060154908060070160009054906101000a900460ff1690806008016040518060600160405290816000820160009054906101000a900473ffffffffffffffffffffffffffffffffffffffff1673ffffffffffffffffffffffffffffffffffffffff1673ffffffffffffffffffffffffffffffffffffffff168152602001600182018054600181600116156101000203166002900480601f016020809104026020016040519081016040528092919081815260200182805460018160011615610100020316600290048015610b8c5780601f10610b6157610100808354040283529160200191610b8c565b820191906000526020600020905b815481529060010190602001808311610b6f57829003601f168201915b505050505081526020016002820154815250509080600b016040518060400160405290816000820160009054906101000a900473ffffffffffffffffffffffffffffffffffffffff1673ffffffffffffffffffffffffffffffffffffffff1673ffffffffffffffffffffffffffffffffffffffff16815260200160018201548152505090508a565b8060079080519060200190610c2a9291906129c7565b5050565b60078054600181600116156101000203166002900480601f016020809104026020016040519081016040528092919081815260200182805460018160011615610100020316600290048015610cc45780601f10610c9957610100808354040283529160200191610cc4565b820191906000526020600020905b815481529060010190602001808311610ca757829003601f168201915b505050505081565b60008060008373ffffffffffffffffffffffffffffffffffffffff1673ffffffffffffffffffffffffffffffffffffffff16815260200190815260200160002060009054906101000a900460ff169050919050565b600460009054906101000a900473ffffffffffffffffffffffffffffffffffffffff1681565b60065481565b600047905090565b6000600280549050905090565b3373ffffffffffffffffffffffffffffffffffffffff1673ffffffffffffffffffffffffffffffffffffffff166108fc829081150290604051600060405180830381858888f19350505050158015610dbe573d6000803e3d6000fd5b5060008090505b600180549050811015610e82573373ffffffffffffffffffffffffffffffffffffffff1660018281548110610df657fe5b906000526020600020906008020160020160009054906101000a900473ffffffffffffffffffffffffffffffffffffffff1673ffffffffffffffffffffffffffffffffffffffff161415610e75578260018281548110610e5257fe5b906000526020600020906008020160050160008282540392505081905550610e82565b8080600101915050610dc5565b505050565b606080600180549050604051908082528060200260200182016040528015610ec957816020015b610eb6612a47565b815260200190600190039081610eae5790505b50905060008090505b6001805490508110156111d357600060018281548110610eee57fe5b906000526020600020906008020190503373ffffffffffffffffffffffffffffffffffffffff1660018381548110610f2257fe5b906000526020600020906008020160020160009054906101000a900473ffffffffffffffffffffffffffffffffffffffff1673ffffffffffffffffffffffffffffffffffffffff1614156111c557806040518060e0016040529081600082018054600181600116156101000203166002900480601f0160208091040260200160405190810160405280929190818152602001828054600181600116156101000203166002900480156110155780601f10610fea57610100808354040283529160200191611015565b820191906000526020600020905b815481529060010190602001808311610ff857829003601f168201915b50505050508152602001600182018054600181600116156101000203166002900480601f0160208091040260200160405190810160405280929190818152602001828054600181600116156101000203166002900480156110b75780601f1061108c576101008083540402835291602001916110b7565b820191906000526020600020905b81548152906001019060200180831161109a57829003601f168201915b505050505081526020016002820160009054906101000a900473ffffffffffffffffffffffffffffffffffffffff1673ffffffffffffffffffffffffffffffffffffffff1673ffffffffffffffffffffffffffffffffffffffff168152602001600382015481526020016004820154815260200160058201548152602001600682016040518060400160405290816000820160009054906101000a900473ffffffffffffffffffffffffffffffffffffffff1673ffffffffffffffffffffffffffffffffffffffff1673ffffffffffffffffffffffffffffffffffffffff168152602001600182015481525050815250508383815181106111b457fe5b6020026020010181905250506111d3565b508080600101915050610ed2565b508091505090565b60006020528060005260406000206000915054906101000a900460ff1681565b6001818154811061120857fe5b9060005260206000209060080201600091509050806000018054600181600116156101000203166002900480601f0160208091040260200160405190810160405280929190818152602001828054600181600116156101000203166002900480156112b45780601f10611289576101008083540402835291602001916112b4565b820191906000526020600020905b81548152906001019060200180831161129757829003601f168201915b505050505090806001018054600181600116156101000203166002900480601f0160208091040260200160405190810160405280929190818152602001828054600181600116156101000203166002900480156113525780601f1061132757610100808354040283529160200191611352565b820191906000526020600020905b81548152906001019060200180831161133557829003601f168201915b5050505050908060020160009054906101000a900473ffffffffffffffffffffffffffffffffffffffff1690806003015490806004015490806005015490806006016040518060400160405290816000820160009054906101000a900473ffffffffffffffffffffffffffffffffffffffff1673ffffffffffffffffffffffffffffffffffffffff1673ffffffffffffffffffffffffffffffffffffffff168152602001600182015481525050905087565b60606000600280549050905060608160405190808252806020026020018201604052801561144c57816020015b611439612aa0565b8152602001906001900390816114315790505b50905060008090505b828110156119205760006002828154811061146c57fe5b90600052602060002090600d020190503373ffffffffffffffffffffffffffffffffffffffff16600283815481106114a057fe5b90600052602060002090600d020160050160009054906101000a900473ffffffffffffffffffffffffffffffffffffffff1673ffffffffffffffffffffffffffffffffffffffff16141561191257806040518061014001604052908160008201548152602001600182018054600181600116156101000203166002900480601f01602080910402602001604051908101604052809291908181526020018280546001816001161561010002031660029004801561159e5780601f106115735761010080835404028352916020019161159e565b820191906000526020600020905b81548152906001019060200180831161158157829003601f168201915b50505050508152602001600282018054600181600116156101000203166002900480601f0160208091040260200160405190810160405280929190818152602001828054600181600116156101000203166002900480156116405780601f1061161557610100808354040283529160200191611640565b820191906000526020600020905b81548152906001019060200180831161162357829003601f168201915b50505050508152602001600382018054600181600116156101000203166002900480601f0160208091040260200160405190810160405280929190818152602001828054600181600116156101000203166002900480156116e25780601f106116b7576101008083540402835291602001916116e2565b820191906000526020600020905b8154815290600101906020018083116116c557829003601f168201915b50505050508152602001600482015481526020016005820160009054906101000a900473ffffffffffffffffffffffffffffffffffffffff1673ffffffffffffffffffffffffffffffffffffffff1673ffffffffffffffffffffffffffffffffffffffff168152602001600682015481526020016007820160009054906101000a900460ff16151515158152602001600882016040518060600160405290816000820160009054906101000a900473ffffffffffffffffffffffffffffffffffffffff1673ffffffffffffffffffffffffffffffffffffffff1673ffffffffffffffffffffffffffffffffffffffff168152602001600182018054600181600116156101000203166002900480601f01602080910402602001604051908101604052809291908181526020018280546001816001161561010002031660029004801561186f5780601f106118445761010080835404028352916020019161186f565b820191906000526020600020905b81548152906001019060200180831161185257829003601f168201915b505050505081526020016002820154815250508152602001600b82016040518060400160405290816000820160009054906101000a900473ffffffffffffffffffffffffffffffffffffffff1673ffffffffffffffffffffffffffffffffffffffff1673ffffffffffffffffffffffffffffffffffffffff1681526020016001820154815250508152505083838151811061190657fe5b60200260200101819052505b508080600101915050611455565b50809250505090565b60606000600280549050905060608160405190808252806020026020018201604052801561197157816020015b61195e612aa0565b8152602001906001900390816119565790505b50905060008090505b82811015611e0b5760006002828154811061199157fe5b90600052602060002090600d0201905060011515600283815481106119b257fe5b90600052602060002090600d020160070160009054906101000a900460ff1615151415611dfd57806040518061014001604052908160008201548152602001600182018054600181600116156101000203166002900480601f016020809104026020016040519081016040528092919081815260200182805460018160011615610100020316600290048015611a895780601f10611a5e57610100808354040283529160200191611a89565b820191906000526020600020905b815481529060010190602001808311611a6c57829003601f168201915b50505050508152602001600282018054600181600116156101000203166002900480601f016020809104026020016040519081016040528092919081815260200182805460018160011615610100020316600290048015611b2b5780601f10611b0057610100808354040283529160200191611b2b565b820191906000526020600020905b815481529060010190602001808311611b0e57829003601f168201915b50505050508152602001600382018054600181600116156101000203166002900480601f016020809104026020016040519081016040528092919081815260200182805460018160011615610100020316600290048015611bcd5780601f10611ba257610100808354040283529160200191611bcd565b820191906000526020600020905b815481529060010190602001808311611bb057829003601f168201915b50505050508152602001600482015481526020016005820160009054906101000a900473ffffffffffffffffffffffffffffffffffffffff1673ffffffffffffffffffffffffffffffffffffffff1673ffffffffffffffffffffffffffffffffffffffff168152602001600682015481526020016007820160009054906101000a900460ff16151515158152602001600882016040518060600160405290816000820160009054906101000a900473ffffffffffffffffffffffffffffffffffffffff1673ffffffffffffffffffffffffffffffffffffffff1673ffffffffffffffffffffffffffffffffffffffff168152602001600182018054600181600116156101000203166002900480601f016020809104026020016040519081016040528092919081815260200182805460018160011615610100020316600290048015611d5a5780601f10611d2f57610100808354040283529160200191611d5a565b820191906000526020600020905b815481529060010190602001808311611d3d57829003601f168201915b505050505081526020016002820154815250508152602001600b82016040518060400160405290816000820160009054906101000a900473ffffffffffffffffffffffffffffffffffffffff1673ffffffffffffffffffffffffffffffffffffffff1673ffffffffffffffffffffffffffffffffffffffff16815260200160018201548152505081525050838381518110611df157fe5b60200260200101819052505b50808060010191505061197a565b50809250505090565b6000803373ffffffffffffffffffffffffffffffffffffffff1673ffffffffffffffffffffffffffffffffffffffff16815260200190815260200160002060009054906101000a900460ff1615611ea0576040517f08c379a0000000000000000000000000000000000000000000000000000000008152600401611e9790613696565b60405180910390fd5b611ea8612b17565b60016000803373ffffffffffffffffffffffffffffffffffffffff1673ffffffffffffffffffffffffffffffffffffffff16815260200190815260200160002060006101000a81548160ff021916908315150217905550600560008154809291906001019190505550611f19612b47565b6040518060e001604052808481526020016040518060200160405280600081525081526020013373ffffffffffffffffffffffffffffffffffffffff168152602001600081526020016000815260200160008152602001838152509050600181908060018154018082558091505090600182039060005260206000209060080201600090919290919091506000820151816000019080519060200190611fc0929190612ba0565b506020820151816001019080519060200190611fdd929190612ba0565b5060408201518160020160006101000a81548173ffffffffffffffffffffffffffffffffffffffff021916908373ffffffffffffffffffffffffffffffffffffffff160217905550606082015181600301556080820151816004015560a0820151816005015560c08201518160060160008201518160000160006101000a81548173ffffffffffffffffffffffffffffffffffffffff021916908373ffffffffffffffffffffffffffffffffffffffff160217905550602082015181600101555050505050505050565b6060600060028054905090506060816040519080825280602002602001820160405280156120ef57816020015b6120dc612aa0565b8152602001906001900390816120d45790505b50905060008090505b828110156125fe5760006002828154811061210f57fe5b90600052602060002090600d020190508573ffffffffffffffffffffffffffffffffffffffff166002838154811061214357fe5b90600052602060002090600d020160050160009054906101000a900473ffffffffffffffffffffffffffffffffffffffff1673ffffffffffffffffffffffffffffffffffffffff161480156121c7575060011515600283815481106121a457fe5b90600052602060002090600d020160070160009054906101000a900460ff161515145b156125f057806040518061014001604052908160008201548152602001600182018054600181600116156101000203166002900480601f01602080910402602001604051908101604052809291908181526020018280546001816001161561010002031660029004801561227c5780601f106122515761010080835404028352916020019161227c565b820191906000526020600020905b81548152906001019060200180831161225f57829003601f168201915b50505050508152602001600282018054600181600116156101000203166002900480601f01602080910402602001604051908101604052809291908181526020018280546001816001161561010002031660029004801561231e5780601f106122f35761010080835404028352916020019161231e565b820191906000526020600020905b81548152906001019060200180831161230157829003601f168201915b50505050508152602001600382018054600181600116156101000203166002900480601f0160208091040260200160405190810160405280929190818152602001828054600181600116156101000203166002900480156123c05780601f10612395576101008083540402835291602001916123c0565b820191906000526020600020905b8154815290600101906020018083116123a357829003601f168201915b50505050508152602001600482015481526020016005820160009054906101000a900473ffffffffffffffffffffffffffffffffffffffff1673ffffffffffffffffffffffffffffffffffffffff1673ffffffffffffffffffffffffffffffffffffffff168152602001600682015481526020016007820160009054906101000a900460ff16151515158152602001600882016040518060600160405290816000820160009054906101000a900473ffffffffffffffffffffffffffffffffffffffff1673ffffffffffffffffffffffffffffffffffffffff1673ffffffffffffffffffffffffffffffffffffffff168152602001600182018054600181600116156101000203166002900480601f01602080910402602001604051908101604052809291908181526020018280546001816001161561010002031660029004801561254d5780601f106125225761010080835404028352916020019161254d565b820191906000526020600020905b81548152906001019060200180831161253057829003601f168201915b505050505081526020016002820154815250508152602001600b82016040518060400160405290816000820160009054906101000a900473ffffffffffffffffffffffffffffffffffffffff1673ffffffffffffffffffffffffffffffffffffffff1673ffffffffffffffffffffffffffffffffffffffff168152602001600182015481525050815250508383815181106125e457fe5b60200260200101819052505b5080806001019150506120f8565b508092505050919050565b600060028054905014156126205760006006819055505b60004233446040516020016126379392919061353f565b6040516020818303038152906040528051906020012060001c905061265a612c20565b612662612c57565b61266a612c87565b604051806101400160405280858152602001868152602001888152602001878152602001600081526020013373ffffffffffffffffffffffffffffffffffffffff1681526020014281526020016001151581526020018481526020018381525090506002819080600181540180825580915050906001820390600052602060002090600d020160009091929091909150600082015181600001556020820151816001019080519060200190612720929190612ba0565b50604082015181600201908051906020019061273d929190612ba0565b50606082015181600301908051906020019061275a929190612ba0565b506080820151816004015560a08201518160050160006101000a81548173ffffffffffffffffffffffffffffffffffffffff021916908373ffffffffffffffffffffffffffffffffffffffff16021790555060c0820151816006015560e08201518160070160006101000a81548160ff0219169083151502179055506101008201518160080160008201518160000160006101000a81548173ffffffffffffffffffffffffffffffffffffffff021916908373ffffffffffffffffffffffffffffffffffffffff1602179055506020820151816001019080519060200190612843929190612ba0565b5060408201518160020155505061012082015181600b0160008201518160000160006101000a81548173ffffffffffffffffffffffffffffffffffffffff021916908373ffffffffffffffffffffffffffffffffffffffff16021790555060208201518160010155505050505060008090505b600180549050811015612975573373ffffffffffffffffffffffffffffffffffffffff16600182815481106128e757fe5b906000526020600020906008020160020160009054906101000a900473ffffffffffffffffffffffffffffffffffffffff1673ffffffffffffffffffffffffffffffffffffffff161415612968576001818154811061294257fe5b906000526020600020906008020160040160008154809291906001019190505550612975565b80806001019150506128b6565b5050505050505050565b50805460018160011615610100020316600290046000825580601f106129a557506129c4565b601f0160209004906000526020600020908101906129c39190612cfe565b5b50565b828054600181600116156101000203166002900490600052602060002090601f016020900481019282601f10612a0857805160ff1916838001178555612a36565b82800160010185558215612a36579182015b82811115612a35578251825591602001919060010190612a1a565b5b509050612a439190612cfe565b5090565b6040518060e001604052806060815260200160608152602001600073ffffffffffffffffffffffffffffffffffffffff168152602001600081526020016000815260200160008152602001612a9a612d23565b81525090565b6040518061014001604052806000815260200160608152602001606081526020016060815260200160008152602001600073ffffffffffffffffffffffffffffffffffffffff16815260200160008152602001600015158152602001612b04612d53565b8152602001612b11612d8a565b81525090565b6040518060400160405280600073ffffffffffffffffffffffffffffffffffffffff168152602001600081525090565b6040518060e001604052806060815260200160608152602001600073ffffffffffffffffffffffffffffffffffffffff168152602001600081526020016000815260200160008152602001612b9a612d23565b81525090565b828054600181600116156101000203166002900490600052602060002090601f016020900481019282601f10612be157805160ff1916838001178555612c0f565b82800160010185558215612c0f579182015b82811115612c0e578251825591602001919060010190612bf3565b5b509050612c1c9190612cfe565b5090565b6040518060600160405280600073ffffffffffffffffffffffffffffffffffffffff16815260200160608152602001600081525090565b6040518060400160405280600073ffffffffffffffffffffffffffffffffffffffff168152602001600081525090565b6040518061014001604052806000815260200160608152602001606081526020016060815260200160008152602001600073ffffffffffffffffffffffffffffffffffffffff16815260200160008152602001600015158152602001612ceb612d53565b8152602001612cf8612d8a565b81525090565b612d2091905b80821115612d1c576000816000905550600101612d04565b5090565b90565b6040518060400160405280600073ffffffffffffffffffffffffffffffffffffffff168152602001600081525090565b6040518060600160405280600073ffffffffffffffffffffffffffffffffffffffff16815260200160608152602001600081525090565b6040518060400160405280600073ffffffffffffffffffffffffffffffffffffffff168152602001600081525090565b600081359050612dc981613989565b92915050565b600082601f830112612de057600080fd5b8135612df3612dee826137d6565b6137a9565b91508082526020830160208301858383011115612e0f57600080fd5b612e1a8382846138fb565b50505092915050565b600081359050612e32816139a0565b92915050565b600060208284031215612e4a57600080fd5b6000612e5884828501612dba565b91505092915050565b600060208284031215612e7357600080fd5b600082013567ffffffffffffffff811115612e8d57600080fd5b612e9984828501612dcf565b91505092915050565b600080600060608486031215612eb757600080fd5b600084013567ffffffffffffffff811115612ed157600080fd5b612edd86828701612dcf565b935050602084013567ffffffffffffffff811115612efa57600080fd5b612f0686828701612dcf565b925050604084013567ffffffffffffffff811115612f2357600080fd5b612f2f86828701612dcf565b9150509250925092565b600060208284031215612f4b57600080fd5b6000612f5984828501612e23565b91505092915050565b60008060408385031215612f7557600080fd5b6000612f8385828601612e23565b9250506020612f9485828601612e23565b9150509250929050565b6000612faa8383613377565b905092915050565b6000612fbe8383613466565b905092915050565b612fd7612fd2826138b3565b61393d565b82525050565b612fe6816138a1565b82525050565b612ff5816138a1565b82525050565b600061300682613822565b613010818561385d565b93508360208202850161302285613802565b8060005b8581101561305e578484038952815161303f8582612f9e565b945061304a83613843565b925060208a01995050600181019050613026565b50829750879550505050505092915050565b600061307b8261382d565b613085818561386e565b93508360208202850161309785613812565b8060005b858110156130d357848403895281516130b48582612fb2565b94506130bf83613850565b925060208a0199505060018101905061309b565b50829750879550505050505092915050565b6130ee816138c5565b82525050565b6130fd816138c5565b82525050565b600061310e82613838565b613118818561387f565b935061312881856020860161390a565b6131318161396b565b840191505092915050565b600061314782613838565b6131518185613890565b935061316181856020860161390a565b61316a8161396b565b840191505092915050565b6000613182600e83613890565b91507f416c7265616479206120757365720000000000000000000000000000000000006000830152602082019050919050565b60006131c2602383613890565b91507f4f6e6c7920746865206f776e65722063616e2064656c6574652074686973207060008301527f6f737400000000000000000000000000000000000000000000000000000000006020830152604082019050919050565b60006060830160008301516132336000860182612fdd565b506020830151848203602086015261324b8282613103565b9150506040830151613260604086018261350a565b508091505092915050565b60006060830160008301516132836000860182612fdd565b506020830151848203602086015261329b8282613103565b91505060408301516132b0604086018261350a565b508091505092915050565b6040820160008201516132d16000850182612fdd565b5060208201516132e4602085018261350a565b50505050565b6040820160008201516133006000850182612fdd565b506020820151613313602085018261350a565b50505050565b60408201600082015161332f6000850182612fdd565b506020820151613342602085018261350a565b50505050565b60408201600082015161335e6000850182612fdd565b506020820151613371602085018261350a565b50505050565b600061016083016000830151613390600086018261350a565b50602083015184820360208601526133a88282613103565b915050604083015184820360408601526133c28282613103565b915050606083015184820360608601526133dc8282613103565b91505060808301516133f1608086018261350a565b5060a083015161340460a0860182612fdd565b5060c083015161341760c086018261350a565b5060e083015161342a60e08601826130e5565b50610100830151848203610100860152613444828261321b565b91505061012083015161345b610120860182613319565b508091505092915050565b60006101008301600083015184820360008601526134848282613103565b9150506020830151848203602086015261349e8282613103565b91505060408301516134b36040860182612fdd565b5060608301516134c6606086018261350a565b5060808301516134d9608086018261350a565b5060a08301516134ec60a086018261350a565b5060c08301516134ff60c08601826132bb565b508091505092915050565b613513816138f1565b82525050565b613522816138f1565b82525050565b613539613534826138f1565b613961565b82525050565b600061354b8286613528565b60208201915061355b8285612fc6565b60148201915061356b8284613528565b602082019150819050949350505050565b60006020820190506135916000830184612fec565b92915050565b600060208201905081810360008301526135b18184612ffb565b905092915050565b600060208201905081810360008301526135d38184613070565b905092915050565b60006020820190506135f060008301846130f4565b92915050565b60006020820190508181036000830152613610818461313c565b905092915050565b6000610100820190508181036000830152613633818a61313c565b90508181036020830152613647818961313c565b90506136566040830188612fec565b6136636060830187613519565b6136706080830186613519565b61367d60a0830185613519565b61368a60c08301846132ea565b98975050505050505050565b600060208201905081810360008301526136af81613175565b9050919050565b600060208201905081810360008301526136cf816131b5565b9050919050565b60006020820190506136eb6000830184613519565b92915050565b600061016082019050613707600083018d613519565b8181036020830152613719818c61313c565b9050818103604083015261372d818b61313c565b90508181036060830152613741818a61313c565b90506137506080830189613519565b61375d60a0830188612fec565b61376a60c0830187613519565b61377760e08301866130f4565b81810361010083015261378a818561326b565b905061379a610120830184613348565b9b9a5050505050505050505050565b6000604051905081810181811067ffffffffffffffff821117156137cc57600080fd5b8060405250919050565b600067ffffffffffffffff8211156137ed57600080fd5b601f19601f8301169050602081019050919050565b6000819050602082019050919050565b6000819050602082019050919050565b600081519050919050565b600081519050919050565b600081519050919050565b6000602082019050919050565b6000602082019050919050565b600082825260208201905092915050565b600082825260208201905092915050565b600082825260208201905092915050565b600082825260208201905092915050565b60006138ac826138d1565b9050919050565b60006138be826138d1565b9050919050565b60008115159050919050565b600073ffffffffffffffffffffffffffffffffffffffff82169050919050565b6000819050919050565b82818337600083830152505050565b60005b8381101561392857808201518184015260208101905061390d565b83811115613937576000848401525b50505050565b60006139488261394f565b9050919050565b600061395a8261397c565b9050919050565b6000819050919050565b6000601f19601f8301169050919050565b60008160601b9050919050565b613992816138a1565b811461399d57600080fd5b50565b6139a9816138f1565b81146139b457600080fd5b5056fea365627a7a723158205ff81094c7af25062943b4045691b2c9794be9676d85e7ebf7ce0144dcc02c8b6c6578706572696d656e74616cf564736f6c63430005100040",
  "source": "pragma solidity ^0.5.0;\npragma experimental ABIEncoderV2;\n\ncontract Lixtagram {\n\n    struct Followers {\n        address Follower;\n        uint time;\n    }\n\n    struct User {\n        string name;\n        string profilePic;\n        address uadd;\n        uint256 tokens;\n        uint256 postsCount;\n        uint256 redeemTokens;\n        Followers followers;\n    }\n\n    struct Comments {\n        address adr;\n        string comment;\n        uint time;\n    }\n\n    struct Likers {\n        address adr;\n        uint time;\n    }\n\n    struct Post {\n        uint id;\n        string hash;\n        string description;\n        string imgIpfsHash;\n        uint256 likes;\n        address owner;\n        uint timestamp;\n        bool isPublic;\n        Comments comments;\n        Likers likers;\n    }\n\n    //User\n    mapping(address => bool) public users;\n    User[] public peeps;\n    //post\n    Post[] public posts;\n   \n    //constructor \n    string public name;\n    address public manager;\n    uint256 public userCount;\n    uint public allPostCount;\n\n    //Community chat\n    string public chatHash;\n\n    constructor() public {\n        name = \"Lixtagram\";\n        manager = msg.sender;\n        userCount = 0;\n        allPostCount = 0;\n    }\n\n    function createPost(\n        string memory description,\n        string memory imgIpfsHash,\n        string memory hash\n    ) public payable {\n        // allPostCount++;\n\n        if(posts.length == 0){\n            allPostCount = 0;\n        }\n\n        uint randomId = uint(keccak256(abi.encodePacked(now, msg.sender, block.difficulty)));\n        Comments memory commEmpty;\n        Likers memory LikersEmpty;\n        \n        Post memory newPost = Post({\n            id: randomId,\n            hash: hash,\n            description: description,\n            imgIpfsHash: imgIpfsHash,\n            likes: 0,\n            owner: msg.sender,\n            timestamp: now,\n            isPublic: true,\n            comments: commEmpty,\n            likers: LikersEmpty\n        });\n\n        posts.push(newPost);\n\n        for (uint256 i = 0; i < peeps.length; i++) {\n            if (peeps[i].uadd == msg.sender) {\n                peeps[i].postsCount++;\n                break;\n            }\n        }\n    }\n\n    // function getPostisPublic() public view returns (uint[] memory, string[] memory, string[] memory){\n    //   uint[] memory id = new uint[](allPostCount);\n    //   string[] memory description = new string[](allPostCount);\n    //   string[] memory img = new string[](allPostCount);\n    //   for (uint i = 0; i < allPostCount; i++) {\n    //       Post storage currpost = posts[i];\n    //       id[i] = currpost.id;\n    //       description[i] = currpost.description;\n    //       img[i] = currpost.imgIpfsHash;\n    //   }\n    //   return (id, description, img);\n    // }\n\n    // function queryuser() public returns(Post[] memory) {\n    //     Post memory post;\n    //     for (uint256 i = 0; i < posts.length; i++) {\n    //         Post storage currPost = posts[i];\n    //         if (posts[i].isPublic == true) {\n    //             post[i] = currPost;\n    //         }\n    //     }\n    //     return posts;\n    // }\n\n    function getPostIsPublic() public view returns (Post[] memory){\n        uint postLength = posts.length;\n        Post[] memory p = new Post[](postLength);\n        for (uint i = 0; i < postLength; i++) {\n            Post storage post = posts[i];\n            if(posts[i].isPublic == true){\n                p[i] = post;\n            }\n        }\n        return p;\n    }\n\n    function getCurrProfilePost() public view returns (Post[] memory){\n        uint postLength = posts.length;\n        Post[] memory p = new Post[](postLength);\n        for (uint i = 0; i < postLength; i++) {\n            Post storage post = posts[i];\n            if(posts[i].owner == msg.sender){\n                p[i] = post;\n            }\n        }\n        return p;\n    }\n\n    function getOtherProfilePost(address ownerAdr) public view returns (Post[] memory){\n        uint postLength = posts.length;\n        Post[] memory p = new Post[](postLength);\n        for (uint i = 0; i < postLength; i++) {\n            Post storage post = posts[i];\n            if(posts[i].owner == ownerAdr && posts[i].isPublic == true){\n                p[i] = post;\n            }\n        }\n        return p;\n    }\n\n    function getPostsCount() public view returns (uint256) {\n        return posts.length;\n    }\n\n    // function likePost(uint256 index, string memory currAdd) public {\n    //     Post storage currPost = posts[index];\n    //     require(\n    //         !currPost.likedBy[msg.sender],\n    //         \"You have already liked this post!\"\n    //     );\n    //     require(msg.sender != currPost.owner, \"You cannot like your own post!\");\n       \n    //     string memory curr = string(\n    //         abi.encodePacked(currPost.likerList, currAdd, \"/\")\n    //     );\n    //     currPost.likerList = curr;\n    //     currPost.likedBy[msg.sender] = true;\n    //     currPost.likes++;\n\n    //     address author = currPost.owner;\n    //     for (uint256 i = 0; i < peeps.length; i++) {\n    //         if (peeps[i].uadd == author) {\n    //             peeps[i].tokens += 1;\n    //             peeps[i].redeemTokens += 1;\n    //             break;\n    //         }\n    //     }\n    // }\n\n    // function isLiker(uint256 index, address likerAdress) public view returns (bool){  \n    //   return posts[index].likedBy[likerAdress];\n    // }\n\n    // function deletePost(uint256 index) public {\n    //     Post storage currPost = posts[index];\n    //     require(currPost.owner == msg.sender, \"You are not the owner of the post!\");\n    //     currPost.isPublic = false;\n    // }\n\n    function deletePost(uint id) public {\n        for(uint i = 0; i < posts.length; i++ ){\n            if(posts[id].id == id){\n                require(posts[i].owner == msg.sender, \"Only the owner can delete this post\" ); \n                delete posts[i];\n                break;\n            }\n        }\n        for (uint256 i = 0; i < peeps.length; i++) {\n            if (peeps[i].uadd == msg.sender) {\n                peeps[i].postsCount--;\n                break;\n            }\n        }\n    }\n\n    \n    function signIn(string memory _name) public payable {\n        require(!users[msg.sender], \"Already a user\");\n        Followers memory follEmpty;\n        users[msg.sender] = true;\n        userCount++;\n        User memory newUser = User({\n            name: _name,\n            profilePic: \"\",\n            uadd: msg.sender,\n            tokens: 0,\n            redeemTokens: 0,\n            postsCount: 0,\n            followers: follEmpty\n        });\n        peeps.push(newUser);\n    }\n\n    function isUser(address user) public view returns (bool) {\n        return users[user];\n    }\n\n    // function postComment(uint256 index, string memory comm) public {\n    //     Post storage currPost = posts[index];\n    //     string memory curr = string(\n    //         abi.encodePacked(currPost.comments, comm, \"/\")\n    //     );\n    //     currPost.comments = curr;\n    // }\n\n    // function getPostDetails(string memory postHash)\n    //     public\n    //     view\n    //     returns (uint, string memory, string memory,string memory, uint, address, uint, string memory, string memory, bool)\n    // {\n    //     for (uint256 i = 0; i < posts.length; i++) {\n    //         if ( keccak256(abi.encodePacked((posts[i].hash))) == keccak256(abi.encodePacked((postHash)))) {\n    //             Post storage post = posts[i];\n    //             return (\n    //                 post.id,\n    //                 post.hash,\n    //                 post.description,\n    //                 post.imgIpfsHash,\n    //                 post.likes,\n    //                 post.owner,\n    //                 post.timestamp,\n    //                 post.likerList,\n    //                 post.comments,\n    //                 post.isPublic\n    //             );\n    //         }\n    //     }\n    // }\n\n    function getUserDetails()public view returns (User[] memory){\n        User[] memory u = new User[](peeps.length);\n        for (uint256 i = 0; i < peeps.length; i++) {\n            User storage user = peeps[i];\n            if ( peeps[i].uadd == msg.sender) {\n                u[i] = user;\n                break;\n            }\n        }\n        return u;\n    }\n\n    function redeemNTokens(uint256 ntokens, uint256 value) public {\n        address(uint256(msg.sender)).transfer(value);\n        for (uint256 i = 0; i < peeps.length; i++) {\n            if (peeps[i].uadd == msg.sender) {\n                peeps[i].redeemTokens -= ntokens;\n                break;\n            }\n        }\n    }\n\n    function setChatHash(string memory chash) public {\n        chatHash = chash;\n    }\n\n    function getContractBalance() public view returns (uint256) {\n        return address(this).balance;\n    }\n    \n}\n",
  "sourcePath": "C:\\Users\\iRipple\\Desktop\\felix files\\lixtagram\\lixtagram\\src\\contracts\\Lixtagram.sol",
  "compiler": {
    "name": "solc",
    "version": "0.5.16+commit.9c3226ce.Emscripten.clang"
  },
  "schemaVersion": "3.4.6",
  "updatedAt": "2022-03-29T16:56:32.243Z",
  "networkType": "ethereum",
  "devdoc": {
    "methods": {}
  },
  "userdoc": {
    "methods": {}
  }
}