{
  "contractName": "Lixtagram",
  "abi": [
    {
      "inputs": [],
      "payable": false,
      "stateMutability": "nonpayable",
      "type": "constructor"
    },
    {
      "constant": true,
      "inputs": [],
      "name": "allPostCount",
      "outputs": [
        {
          "internalType": "uint256",
          "name": "",
          "type": "uint256"
        }
      ],
      "payable": false,
      "stateMutability": "view",
      "type": "function"
    },
    {
      "constant": true,
      "inputs": [],
      "name": "chatHash",
      "outputs": [
        {
          "internalType": "string",
          "name": "",
          "type": "string"
        }
      ],
      "payable": false,
      "stateMutability": "view",
      "type": "function"
    },
    {
      "constant": true,
      "inputs": [],
      "name": "manager",
      "outputs": [
        {
          "internalType": "address",
          "name": "",
          "type": "address"
        }
      ],
      "payable": false,
      "stateMutability": "view",
      "type": "function"
    },
    {
      "constant": true,
      "inputs": [],
      "name": "name",
      "outputs": [
        {
          "internalType": "string",
          "name": "",
          "type": "string"
        }
      ],
      "payable": false,
      "stateMutability": "view",
      "type": "function"
    },
    {
      "constant": true,
      "inputs": [],
      "name": "userCount",
      "outputs": [
        {
          "internalType": "uint256",
          "name": "",
          "type": "uint256"
        }
      ],
      "payable": false,
      "stateMutability": "view",
      "type": "function"
    },
    {
      "constant": false,
      "inputs": [
        {
          "internalType": "string",
          "name": "description",
          "type": "string"
        },
        {
          "internalType": "string",
          "name": "imgIpfsHash",
          "type": "string"
        }
      ],
      "name": "createPost",
      "outputs": [],
      "payable": true,
      "stateMutability": "payable",
      "type": "function"
    },
    {
      "constant": true,
      "inputs": [
        {
          "internalType": "string",
          "name": "_ipfsHash",
          "type": "string"
        }
      ],
      "name": "checkIfImageExist",
      "outputs": [
        {
          "internalType": "bool",
          "name": "",
          "type": "bool"
        }
      ],
      "payable": false,
      "stateMutability": "view",
      "type": "function"
    },
    {
      "constant": false,
      "inputs": [
        {
          "internalType": "string",
          "name": "_name",
          "type": "string"
        }
      ],
      "name": "signUp",
      "outputs": [],
      "payable": true,
      "stateMutability": "payable",
      "type": "function"
    },
    {
      "constant": true,
      "inputs": [
        {
          "internalType": "address",
          "name": "user",
          "type": "address"
        },
        {
          "internalType": "uint256",
          "name": "_id",
          "type": "uint256"
        }
      ],
      "name": "isLiker",
      "outputs": [
        {
          "internalType": "bool",
          "name": "",
          "type": "bool"
        }
      ],
      "payable": false,
      "stateMutability": "view",
      "type": "function"
    },
    {
      "constant": true,
      "inputs": [
        {
          "internalType": "address",
          "name": "user",
          "type": "address"
        },
        {
          "internalType": "address",
          "name": "owner",
          "type": "address"
        }
      ],
      "name": "isFollower",
      "outputs": [
        {
          "internalType": "bool",
          "name": "",
          "type": "bool"
        }
      ],
      "payable": false,
      "stateMutability": "view",
      "type": "function"
    },
    {
      "constant": false,
      "inputs": [
        {
          "internalType": "address",
          "name": "adr",
          "type": "address"
        }
      ],
      "name": "followUser",
      "outputs": [],
      "payable": true,
      "stateMutability": "payable",
      "type": "function"
    },
    {
      "constant": false,
      "inputs": [
        {
          "internalType": "uint256",
          "name": "_id",
          "type": "uint256"
        }
      ],
      "name": "likePost",
      "outputs": [],
      "payable": true,
      "stateMutability": "payable",
      "type": "function"
    },
    {
      "constant": true,
      "inputs": [
        {
          "internalType": "address",
          "name": "adr",
          "type": "address"
        }
      ],
      "name": "getUserPublicPost",
      "outputs": [
        {
          "components": [
            {
              "internalType": "uint256",
              "name": "id",
              "type": "uint256"
            },
            {
              "internalType": "string",
              "name": "imgIpfsHash",
              "type": "string"
            },
            {
              "internalType": "uint256",
              "name": "likes",
              "type": "uint256"
            },
            {
              "internalType": "address",
              "name": "owner",
              "type": "address"
            },
            {
              "internalType": "uint256",
              "name": "timestamp",
              "type": "uint256"
            },
            {
              "internalType": "bool",
              "name": "isPublic",
              "type": "bool"
            }
          ],
          "internalType": "struct Lixtagram.Post[]",
          "name": "",
          "type": "tuple[]"
        }
      ],
      "payable": false,
      "stateMutability": "view",
      "type": "function"
    },
    {
      "constant": true,
      "inputs": [
        {
          "internalType": "address",
          "name": "adr",
          "type": "address"
        }
      ],
      "name": "getUserPrivatePost",
      "outputs": [
        {
          "components": [
            {
              "internalType": "uint256",
              "name": "id",
              "type": "uint256"
            },
            {
              "internalType": "string",
              "name": "imgIpfsHash",
              "type": "string"
            },
            {
              "internalType": "uint256",
              "name": "likes",
              "type": "uint256"
            },
            {
              "internalType": "address",
              "name": "owner",
              "type": "address"
            },
            {
              "internalType": "uint256",
              "name": "timestamp",
              "type": "uint256"
            },
            {
              "internalType": "bool",
              "name": "isPublic",
              "type": "bool"
            }
          ],
          "internalType": "struct Lixtagram.Post[]",
          "name": "",
          "type": "tuple[]"
        }
      ],
      "payable": false,
      "stateMutability": "view",
      "type": "function"
    },
    {
      "constant": false,
      "inputs": [
        {
          "internalType": "uint256",
          "name": "_id",
          "type": "uint256"
        },
        {
          "internalType": "string",
          "name": "comment",
          "type": "string"
        }
      ],
      "name": "addComment",
      "outputs": [],
      "payable": false,
      "stateMutability": "nonpayable",
      "type": "function"
    },
    {
      "constant": true,
      "inputs": [],
      "name": "getViewPost",
      "outputs": [
        {
          "components": [
            {
              "internalType": "uint256",
              "name": "id",
              "type": "uint256"
            },
            {
              "internalType": "string",
              "name": "ownerName",
              "type": "string"
            },
            {
              "internalType": "string",
              "name": "imgIpfsHash",
              "type": "string"
            },
            {
              "internalType": "uint256",
              "name": "likes",
              "type": "uint256"
            },
            {
              "internalType": "address",
              "name": "owner",
              "type": "address"
            },
            {
              "internalType": "uint256",
              "name": "timestamp",
              "type": "uint256"
            },
            {
              "internalType": "bool",
              "name": "isPublic",
              "type": "bool"
            },
            {
              "components": [
                {
                  "internalType": "address",
                  "name": "adr",
                  "type": "address"
                },
                {
                  "internalType": "string",
                  "name": "adrName",
                  "type": "string"
                },
                {
                  "internalType": "string",
                  "name": "comment",
                  "type": "string"
                },
                {
                  "internalType": "uint256",
                  "name": "time",
                  "type": "uint256"
                }
              ],
              "internalType": "struct Lixtagram.Comments[]",
              "name": "comments",
              "type": "tuple[]"
            },
            {
              "components": [
                {
                  "internalType": "address",
                  "name": "adr",
                  "type": "address"
                },
                {
                  "internalType": "string",
                  "name": "adrName",
                  "type": "string"
                },
                {
                  "internalType": "uint256",
                  "name": "time",
                  "type": "uint256"
                }
              ],
              "internalType": "struct Lixtagram.Likers[]",
              "name": "likers",
              "type": "tuple[]"
            }
          ],
          "internalType": "struct Lixtagram.ViewPost[]",
          "name": "",
          "type": "tuple[]"
        }
      ],
      "payable": false,
      "stateMutability": "view",
      "type": "function"
    },
    {
      "constant": true,
      "inputs": [
        {
          "internalType": "address",
          "name": "adr",
          "type": "address"
        }
      ],
      "name": "getFollowers",
      "outputs": [
        {
          "components": [
            {
              "internalType": "address",
              "name": "follower",
              "type": "address"
            },
            {
              "internalType": "string",
              "name": "name",
              "type": "string"
            },
            {
              "internalType": "uint256",
              "name": "time",
              "type": "uint256"
            }
          ],
          "internalType": "struct Lixtagram.Followers[]",
          "name": "",
          "type": "tuple[]"
        }
      ],
      "payable": false,
      "stateMutability": "view",
      "type": "function"
    },
    {
      "constant": true,
      "inputs": [
        {
          "internalType": "address",
          "name": "adr",
          "type": "address"
        }
      ],
      "name": "getNumberOffollowwers",
      "outputs": [
        {
          "internalType": "uint256",
          "name": "",
          "type": "uint256"
        }
      ],
      "payable": false,
      "stateMutability": "view",
      "type": "function"
    },
    {
      "constant": true,
      "inputs": [],
      "name": "getPostsCount",
      "outputs": [
        {
          "internalType": "uint256",
          "name": "",
          "type": "uint256"
        }
      ],
      "payable": false,
      "stateMutability": "view",
      "type": "function"
    },
    {
      "constant": false,
      "inputs": [
        {
          "internalType": "uint256",
          "name": "id",
          "type": "uint256"
        }
      ],
      "name": "deletePost",
      "outputs": [],
      "payable": false,
      "stateMutability": "nonpayable",
      "type": "function"
    },
    {
      "constant": true,
      "inputs": [
        {
          "internalType": "address",
          "name": "adr",
          "type": "address"
        }
      ],
      "name": "getFollowedAndFollowersCount",
      "outputs": [
        {
          "internalType": "uint256",
          "name": "",
          "type": "uint256"
        },
        {
          "internalType": "uint256",
          "name": "",
          "type": "uint256"
        }
      ],
      "payable": false,
      "stateMutability": "view",
      "type": "function"
    },
    {
      "constant": true,
      "inputs": [
        {
          "internalType": "address",
          "name": "adr",
          "type": "address"
        }
      ],
      "name": "getFollowedAndFollowers",
      "outputs": [
        {
          "components": [
            {
              "internalType": "address",
              "name": "follower",
              "type": "address"
            },
            {
              "internalType": "string",
              "name": "name",
              "type": "string"
            },
            {
              "internalType": "uint256",
              "name": "time",
              "type": "uint256"
            }
          ],
          "internalType": "struct Lixtagram.Followers[]",
          "name": "",
          "type": "tuple[]"
        },
        {
          "components": [
            {
              "internalType": "address",
              "name": "followed",
              "type": "address"
            },
            {
              "internalType": "string",
              "name": "name",
              "type": "string"
            },
            {
              "internalType": "uint256",
              "name": "time",
              "type": "uint256"
            }
          ],
          "internalType": "struct Lixtagram.Followings[]",
          "name": "",
          "type": "tuple[]"
        }
      ],
      "payable": false,
      "stateMutability": "view",
      "type": "function"
    },
    {
      "constant": true,
      "inputs": [
        {
          "internalType": "address",
          "name": "adr",
          "type": "address"
        }
      ],
      "name": "getUserDetails",
      "outputs": [
        {
          "internalType": "string",
          "name": "",
          "type": "string"
        },
        {
          "internalType": "uint256",
          "name": "",
          "type": "uint256"
        },
        {
          "internalType": "uint256",
          "name": "",
          "type": "uint256"
        },
        {
          "internalType": "uint256",
          "name": "",
          "type": "uint256"
        },
        {
          "internalType": "address",
          "name": "",
          "type": "address"
        }
      ],
      "payable": false,
      "stateMutability": "view",
      "type": "function"
    },
    {
      "constant": false,
      "inputs": [
        {
          "internalType": "uint256",
          "name": "ntokens",
          "type": "uint256"
        },
        {
          "internalType": "uint256",
          "name": "valueWie",
          "type": "uint256"
        }
      ],
      "name": "redeemNTokens",
      "outputs": [],
      "payable": false,
      "stateMutability": "nonpayable",
      "type": "function"
    },
    {
      "constant": false,
      "inputs": [
        {
          "internalType": "string",
          "name": "chash",
          "type": "string"
        }
      ],
      "name": "setChatHash",
      "outputs": [],
      "payable": false,
      "stateMutability": "nonpayable",
      "type": "function"
    },
    {
      "constant": true,
      "inputs": [],
      "name": "getContractBalance",
      "outputs": [
        {
          "internalType": "uint256",
          "name": "",
          "type": "uint256"
        }
      ],
      "payable": false,
      "stateMutability": "view",
      "type": "function"
    }
  ],
  "bytecode": "0x60806040523480156200001157600080fd5b506040518060400160405280600981526020017f4c697874616772616d0000000000000000000000000000000000000000000000815250600c90805190602001906200005f929190620000b7565b5033600d60006101000a81548173ffffffffffffffffffffffffffffffffffffffff021916908373ffffffffffffffffffffffffffffffffffffffff1602179055506000600e819055506000600f8190555062000166565b828054600181600116156101000203166002900490600052602060002090601f016020900481019282601f10620000fa57805160ff19168380011785556200012b565b828001600101855582156200012b579182015b828111156200012a5782518255916020019190600101906200010d565b5b5090506200013a91906200013e565b5090565b6200016391905b808211156200015f57600081600090555060010162000145565b5090565b90565b614d6180620001766000396000f3fe6080604052600436106101815760003560e01c8063725009d3116100d1578063c2fe20221161008a578063ed05246311610064578063ed05246314610578578063f269d069146105b5578063f4866e7b146105f2578063ff7ae9a01461062f57610181565b8063c2fe2022146104bd578063cc3d967b146104fa578063e5fe94771461053b57610181565b8063725009d3146103ec57806383624882146104085780638c39e55014610433578063a70806f71461045c578063aa7e568314610478578063adcfb4fc146104a157610181565b80633437d4d91161013e578063481c6a7511610118578063481c6a751461032e57806366778e9414610359578063690eea1f146103965780636f9fb98a146103c157610181565b80633437d4d9146102a9578063392338f5146102d457806347c654f3146102f057610181565b80630589cded1461018657806306fdde03146101c357806307973ccf146101ee578063094cd5ee1461021957806320fc0205146102425780632deb661a1461026b575b600080fd5b34801561019257600080fd5b506101ad60048036036101a89190810190613ab3565b61065a565b6040516101ba91906149d2565b60405180910390f35b3480156101cf57600080fd5b506101d86106a6565b6040516101e59190614836565b60405180910390f35b3480156101fa57600080fd5b50610203610744565b60405161021091906149d2565b60405180910390f35b34801561022557600080fd5b50610240600480360361023b9190810190613c01565b61074a565b005b34801561024e57600080fd5b5061026960048036036102649190810190613b54565b61098d565b005b34801561027757600080fd5b50610292600480360361028d9190810190613ab3565b6109a7565b6040516102a09291906149ed565b60405180910390f35b3480156102b557600080fd5b506102be610a45565b6040516102cb9190614836565b60405180910390f35b6102ee60048036036102e99190810190613b95565b610ae3565b005b3480156102fc57600080fd5b5061031760048036036103129190810190613ab3565b6110a1565b6040516103259291906147a0565b60405180910390f35b34801561033a57600080fd5b506103436113e6565b6040516103509190614763565b60405180910390f35b34801561036557600080fd5b50610380600480360361037b9190810190613b18565b61140c565b60405161038d919061481b565b60405180910390f35b3480156103a257600080fd5b506103ab6114d7565b6040516103b891906149d2565b60405180910390f35b3480156103cd57600080fd5b506103d66114dd565b6040516103e391906149d2565b60405180910390f35b61040660048036036104019190810190613c01565b6114e5565b005b34801561041457600080fd5b5061041d611905565b60405161042a91906149d2565b60405180910390f35b34801561043f57600080fd5b5061045a60048036036104559190810190613c7e565b611912565b005b61047660048036036104719190810190613ab3565b611b30565b005b34801561048457600080fd5b5061049f600480360361049a9190810190613c2a565b612177565b005b6104bb60048036036104b69190810190613b54565b612286565b005b3480156104c957600080fd5b506104e460048036036104df9190810190613ab3565b612616565b6040516104f1919061477e565b60405180910390f35b34801561050657600080fd5b50610521600480360361051c9190810190613ab3565b6127bb565b604051610532959493929190614858565b60405180910390f35b34801561054757600080fd5b50610562600480360361055d9190810190613adc565b61297b565b60405161056f919061481b565b60405180910390f35b34801561058457600080fd5b5061059f600480360361059a9190810190613ab3565b612a9e565b6040516105ac91906147d7565b60405180910390f35b3480156105c157600080fd5b506105dc60048036036105d79190810190613ab3565b612d1a565b6040516105e991906147d7565b60405180910390f35b3480156105fe57600080fd5b5061061960048036036106149190810190613b54565b612f96565b604051610626919061481b565b60405180910390f35b34801561063b57600080fd5b50610644612fcb565b60405161065191906147f9565b60405180910390f35b6000600160008373ffffffffffffffffffffffffffffffffffffffff1673ffffffffffffffffffffffffffffffffffffffff168152602001908152602001600020805490509050919050565b600c8054600181600116156101000203166002900480601f01602080910402602001604051908101604052809291908181526020018280546001816001161561010002031660029004801561073c5780601f106107115761010080835404028352916020019161073c565b820191906000526020600020905b81548152906001019060200180831161071f57829003601f168201915b505050505081565b600e5481565b60008090505b600b805490508110156108c25781600b838154811061076b57fe5b90600052602060002090600602016000015414156108b5573373ffffffffffffffffffffffffffffffffffffffff16600b82815481106107a757fe5b906000526020600020906006020160030160009054906101000a900473ffffffffffffffffffffffffffffffffffffffff1673ffffffffffffffffffffffffffffffffffffffff161461082f576040517f08c379a000000000000000000000000000000000000000000000000000000000815260040161082690614952565b60405180910390fd5b600b818154811061083c57fe5b9060005260206000209060060201600080820160009055600182016000610863919061377c565b60028201600090556003820160006101000a81549073ffffffffffffffffffffffffffffffffffffffff021916905560048201600090556005820160006101000a81549060ff021916905550506108c2565b8080600101915050610750565b5060008090505b600a80549050811015610989573373ffffffffffffffffffffffffffffffffffffffff16600a82815481106108fa57fe5b906000526020600020906006020160020160009054906101000a900473ffffffffffffffffffffffffffffffffffffffff1673ffffffffffffffffffffffffffffffffffffffff16141561097c57600a818154811061095557fe5b90600052602060002090600602016004016000815480929190600190039190505550610989565b80806001019150506108c9565b5050565b80601090805190602001906109a39291906137c4565b5050565b6000806000600160008573ffffffffffffffffffffffffffffffffffffffff1673ffffffffffffffffffffffffffffffffffffffff1681526020019081526020016000208054905090506000600260008673ffffffffffffffffffffffffffffffffffffffff1673ffffffffffffffffffffffffffffffffffffffff1681526020019081526020016000208054905090508181935093505050915091565b60108054600181600116156101000203166002900480601f016020809104026020016040519081016040528092919081815260200182805460018160011615610100020316600290048015610adb5780601f10610ab057610100808354040283529160200191610adb565b820191906000526020600020905b815481529060010190602001808311610abe57829003601f168201915b505050505081565b600f600081548092919060010191905055506000600b805490501415610b0c576000600f819055505b60011515600982604051610b20919061470f565b908152602001604051809103902060009054906101000a900460ff1615151415610b7f576040517f08c379a0000000000000000000000000000000000000000000000000000000008152600401610b7690614972565b60405180910390fd5b6000423344604051602001610b9693929190614726565b6040516020818303038152906040528051906020012060001c9050610bb9613844565b6040518060c00160405280838152602001848152602001600081526020013373ffffffffffffffffffffffffffffffffffffffff168152602001428152602001600115158152509050600b8190806001815401808255809150509060018203906000526020600020906006020160009091929091909150600082015181600001556020820151816001019080519060200190610c56929190613892565b506040820151816002015560608201518160030160006101000a81548173ffffffffffffffffffffffffffffffffffffffff021916908373ffffffffffffffffffffffffffffffffffffffff1602179055506080820151816004015560a08201518160050160006101000a81548160ff0219169083151502179055505050506001600984604051610ce7919061470f565b908152602001604051809103902060006101000a81548160ff0219169083151502179055506003600083815260200190815260200160002060405180606001604052803373ffffffffffffffffffffffffffffffffffffffff168152602001610d4f336132ea565b8152602001428152509080600181540180825580915050906001820390600052602060002090600302016000909192909190915060008201518160000160006101000a81548173ffffffffffffffffffffffffffffffffffffffff021916908373ffffffffffffffffffffffffffffffffffffffff1602179055506020820151816001019080519060200190610de6929190613892565b50604082015181600201555050506004600083815260200190815260200160002060405180608001604052803373ffffffffffffffffffffffffffffffffffffffff168152602001610e37336132ea565b8152602001868152602001428152509080600181540180825580915050906001820390600052602060002090600402016000909192909190915060008201518160000160006101000a81548173ffffffffffffffffffffffffffffffffffffffff021916908373ffffffffffffffffffffffffffffffffffffffff1602179055506020820151816001019080519060200190610ed4929190613892565b506040820151816002019080519060200190610ef1929190613892565b5060608201518160030155505050600560003373ffffffffffffffffffffffffffffffffffffffff1673ffffffffffffffffffffffffffffffffffffffff168152602001908152602001600020600f549080600181540180825580915050906001820390600052602060002001600090919290919091505550600760003373ffffffffffffffffffffffffffffffffffffffff1673ffffffffffffffffffffffffffffffffffffffff168152602001908152602001600020600f54908060018154018082558091505090600182039060005260206000200160009091929091909150555060008090505b600a8054905081101561109a573373ffffffffffffffffffffffffffffffffffffffff16600a828154811061100c57fe5b906000526020600020906006020160020160009054906101000a900473ffffffffffffffffffffffffffffffffffffffff1673ffffffffffffffffffffffffffffffffffffffff16141561108d57600a818154811061106757fe5b90600052602060002090600602016004016000815480929190600101919050555061109a565b8080600101915050610fdb565b5050505050565b606080606080600160008673ffffffffffffffffffffffffffffffffffffffff1673ffffffffffffffffffffffffffffffffffffffff168152602001908152602001600020805480602002602001604051908101604052809291908181526020016000905b8282101561123a57838290600052602060002090600302016040518060600160405290816000820160009054906101000a900473ffffffffffffffffffffffffffffffffffffffff1673ffffffffffffffffffffffffffffffffffffffff1673ffffffffffffffffffffffffffffffffffffffff168152602001600182018054600181600116156101000203166002900480601f0160208091040260200160405190810160405280929190818152602001828054600181600116156101000203166002900480156112185780601f106111ed57610100808354040283529160200191611218565b820191906000526020600020905b8154815290600101906020018083116111fb57829003601f168201915b5050505050815260200160028201548152505081526020019060010190611106565b505050509150600260008673ffffffffffffffffffffffffffffffffffffffff1673ffffffffffffffffffffffffffffffffffffffff168152602001908152602001600020805480602002602001604051908101604052809291908181526020016000905b828210156113d357838290600052602060002090600302016040518060600160405290816000820160009054906101000a900473ffffffffffffffffffffffffffffffffffffffff1673ffffffffffffffffffffffffffffffffffffffff1673ffffffffffffffffffffffffffffffffffffffff168152602001600182018054600181600116156101000203166002900480601f0160208091040260200160405190810160405280929190818152602001828054600181600116156101000203166002900480156113b15780601f10611386576101008083540402835291602001916113b1565b820191906000526020600020905b81548152906001019060200180831161139457829003601f168201915b505050505081526020016002820154815250508152602001906001019061129f565b5050505090508181935093505050915091565b600d60009054906101000a900473ffffffffffffffffffffffffffffffffffffffff1681565b60008060008090505b60036000858152602001908152602001600020805490508110156114cc5760036000858152602001908152602001600020818154811061145157fe5b906000526020600020906003020160000160009054906101000a900473ffffffffffffffffffffffffffffffffffffffff1673ffffffffffffffffffffffffffffffffffffffff168573ffffffffffffffffffffffffffffffffffffffff1614156114bf57600191506114cc565b8080600101915050611415565b508091505092915050565b600f5481565b600047905090565b60006003600083815260200190815260200160002060008154811061150657fe5b906000526020600020906003020160000160009054906101000a900473ffffffffffffffffffffffffffffffffffffffff1690508073ffffffffffffffffffffffffffffffffffffffff163373ffffffffffffffffffffffffffffffffffffffff1614156115a9576040517f08c379a00000000000000000000000000000000000000000000000000000000081526004016115a0906148f2565b60405180910390fd5b60006003600084815260200190815260200160002080549050905060008090505b81811015611725576003600085815260200190815260200160002081815481106115f057fe5b906000526020600020906003020160000160009054906101000a900473ffffffffffffffffffffffffffffffffffffffff1673ffffffffffffffffffffffffffffffffffffffff163373ffffffffffffffffffffffffffffffffffffffff1614156117185760036000858152602001908152602001600020818154811061167357fe5b906000526020600020906003020160000160009054906101000a900473ffffffffffffffffffffffffffffffffffffffff1673ffffffffffffffffffffffffffffffffffffffff163373ffffffffffffffffffffffffffffffffffffffff161415611713576040517f08c379a000000000000000000000000000000000000000000000000000000000815260040161170a906149b2565b60405180910390fd5b611725565b80806001019150506115ca565b506003600084815260200190815260200160002060405180606001604052803373ffffffffffffffffffffffffffffffffffffffff168152602001611769336132ea565b8152602001428152509080600181540180825580915050906001820390600052602060002090600302016000909192909190915060008201518160000160006101000a81548173ffffffffffffffffffffffffffffffffffffffff021916908373ffffffffffffffffffffffffffffffffffffffff1602179055506020820151816001019080519060200190611800929190613892565b506040820151816002015550505060008090505b600a805490508110156118ff578273ffffffffffffffffffffffffffffffffffffffff16600a828154811061184557fe5b906000526020600020906006020160020160009054906101000a900473ffffffffffffffffffffffffffffffffffffffff1673ffffffffffffffffffffffffffffffffffffffff1614156118f2576001600a82815481106118a257fe5b9060005260206000209060060201600301600082825401925050819055506001600a82815481106118cf57fe5b9060005260206000209060060201600501600082825401925050819055506118ff565b8080600101915050611814565b50505050565b6000600b80549050905090565b600066038d7ea4c68000905060008382029050601484101580611936575060008414155b8061194057508281145b61197f576040517f08c379a000000000000000000000000000000000000000000000000000000000815260040161197690614992565b60405180910390fd5b60008090505b600a80549050811015611b29573373ffffffffffffffffffffffffffffffffffffffff16600a82815481106119b657fe5b906000526020600020906006020160020160009054906101000a900473ffffffffffffffffffffffffffffffffffffffff1673ffffffffffffffffffffffffffffffffffffffff161415611b1c576014600a8281548110611a1357fe5b906000526020600020906006020160050154101580611a4f575084600a8281548110611a3b57fe5b906000526020600020906006020160050154115b611a8e576040517f08c379a0000000000000000000000000000000000000000000000000000000008152600401611a85906148b2565b60405180910390fd5b3373ffffffffffffffffffffffffffffffffffffffff1673ffffffffffffffffffffffffffffffffffffffff166108fc859081150290604051600060405180830381858888f19350505050158015611aea573d6000803e3d6000fd5b5084600a8281548110611af957fe5b906000526020600020906006020160050160008282540392505081905550611b29565b8080600101915050611985565b5050505050565b6000600160008373ffffffffffffffffffffffffffffffffffffffff1673ffffffffffffffffffffffffffffffffffffffff168152602001908152602001600020600081548110611b7d57fe5b906000526020600020906003020160000160009054906101000a900473ffffffffffffffffffffffffffffffffffffffff1690506000600160008473ffffffffffffffffffffffffffffffffffffffff1673ffffffffffffffffffffffffffffffffffffffff1681526020019081526020016000208054905090508173ffffffffffffffffffffffffffffffffffffffff163373ffffffffffffffffffffffffffffffffffffffff16141580611c5f57508273ffffffffffffffffffffffffffffffffffffffff163373ffffffffffffffffffffffffffffffffffffffff1614155b611c9e576040517f08c379a0000000000000000000000000000000000000000000000000000000008152600401611c9590614912565b60405180910390fd5b60008090505b81811015611e5757600160008573ffffffffffffffffffffffffffffffffffffffff1673ffffffffffffffffffffffffffffffffffffffff1681526020019081526020016000208181548110611cf657fe5b906000526020600020906003020160000160009054906101000a900473ffffffffffffffffffffffffffffffffffffffff1673ffffffffffffffffffffffffffffffffffffffff163373ffffffffffffffffffffffffffffffffffffffff161415611e4a57600160008573ffffffffffffffffffffffffffffffffffffffff1673ffffffffffffffffffffffffffffffffffffffff1681526020019081526020016000208181548110611da557fe5b906000526020600020906003020160000160009054906101000a900473ffffffffffffffffffffffffffffffffffffffff1673ffffffffffffffffffffffffffffffffffffffff163373ffffffffffffffffffffffffffffffffffffffff161415611e45576040517f08c379a0000000000000000000000000000000000000000000000000000000008152600401611e3c906148d2565b60405180910390fd5b611e57565b8080600101915050611ca4565b50600160008473ffffffffffffffffffffffffffffffffffffffff1673ffffffffffffffffffffffffffffffffffffffff16815260200190815260200160002060405180606001604052803373ffffffffffffffffffffffffffffffffffffffff168152602001611ec7866132ea565b8152602001428152509080600181540180825580915050906001820390600052602060002090600302016000909192909190915060008201518160000160006101000a81548173ffffffffffffffffffffffffffffffffffffffff021916908373ffffffffffffffffffffffffffffffffffffffff1602179055506020820151816001019080519060200190611f5e929190613892565b5060408201518160020155505050600260003373ffffffffffffffffffffffffffffffffffffffff1673ffffffffffffffffffffffffffffffffffffffff16815260200190815260200160002060405180606001604052808573ffffffffffffffffffffffffffffffffffffffff168152602001611fdb336132ea565b8152602001428152509080600181540180825580915050906001820390600052602060002090600302016000909192909190915060008201518160000160006101000a81548173ffffffffffffffffffffffffffffffffffffffff021916908373ffffffffffffffffffffffffffffffffffffffff1602179055506020820151816001019080519060200190612072929190613892565b506040820151816002015550505060008090505b600a80549050811015612171578273ffffffffffffffffffffffffffffffffffffffff16600a82815481106120b757fe5b906000526020600020906006020160020160009054906101000a900473ffffffffffffffffffffffffffffffffffffffff1673ffffffffffffffffffffffffffffffffffffffff161415612164576001600a828154811061211457fe5b9060005260206000209060060201600301600082825401925050819055506001600a828154811061214157fe5b906000526020600020906006020160050160008282540192505081905550612171565b8080600101915050612086565b50505050565b6004600083815260200190815260200160002060405180608001604052803373ffffffffffffffffffffffffffffffffffffffff1681526020016121ba336132ea565b8152602001838152602001428152509080600181540180825580915050906001820390600052602060002090600402016000909192909190915060008201518160000160006101000a81548173ffffffffffffffffffffffffffffffffffffffff021916908373ffffffffffffffffffffffffffffffffffffffff1602179055506020820151816001019080519060200190612257929190613892565b506040820151816002019080519060200190612274929190613892565b50606082015181600301555050505050565b6000803373ffffffffffffffffffffffffffffffffffffffff1673ffffffffffffffffffffffffffffffffffffffff16815260200190815260200160002060009054906101000a900460ff1615612312576040517f08c379a000000000000000000000000000000000000000000000000000000000815260040161230990614932565b60405180910390fd5b60016000803373ffffffffffffffffffffffffffffffffffffffff1673ffffffffffffffffffffffffffffffffffffffff16815260200190815260200160002060006101000a81548160ff02191690831515021790555080600860003373ffffffffffffffffffffffffffffffffffffffff1673ffffffffffffffffffffffffffffffffffffffff16815260200190815260200160002090805190602001906123bc9291906137c4565b50600e600081548092919060010191905055506123d7613912565b6040518060c001604052808381526020016040518060200160405280600081525081526020013373ffffffffffffffffffffffffffffffffffffffff168152602001600081526020016000815260200160008152509050600a81908060018154018082558091505090600182039060005260206000209060060201600090919290919091506000820151816000019080519060200190612478929190613892565b506020820151816001019080519060200190612495929190613892565b5060408201518160020160006101000a81548173ffffffffffffffffffffffffffffffffffffffff021916908373ffffffffffffffffffffffffffffffffffffffff160217905550606082015181600301556080820151816004015560a08201518160050155505050600160003373ffffffffffffffffffffffffffffffffffffffff1673ffffffffffffffffffffffffffffffffffffffff16815260200190815260200160002060405180606001604052803373ffffffffffffffffffffffffffffffffffffffff16815260200161256d336132ea565b8152602001428152509080600181540180825580915050906001820390600052602060002090600302016000909192909190915060008201518160000160006101000a81548173ffffffffffffffffffffffffffffffffffffffff021916908373ffffffffffffffffffffffffffffffffffffffff1602179055506020820151816001019080519060200190612604929190613892565b50604082015181600201555050505050565b606080600160008473ffffffffffffffffffffffffffffffffffffffff1673ffffffffffffffffffffffffffffffffffffffff168152602001908152602001600020805480602002602001604051908101604052809291908181526020016000905b828210156127ac57838290600052602060002090600302016040518060600160405290816000820160009054906101000a900473ffffffffffffffffffffffffffffffffffffffff1673ffffffffffffffffffffffffffffffffffffffff1673ffffffffffffffffffffffffffffffffffffffff168152602001600182018054600181600116156101000203166002900480601f01602080910402602001604051908101604052809291908181526020018280546001816001161561010002031660029004801561278a5780601f1061275f5761010080835404028352916020019161278a565b820191906000526020600020905b81548152906001019060200180831161276d57829003601f168201915b5050505050815260200160028201548152505081526020019060010190612678565b50505050905080915050919050565b6060600080600080606060008060008060008090505b600a8054905081101561295d578b73ffffffffffffffffffffffffffffffffffffffff16600a828154811061280257fe5b906000526020600020906006020160020160009054906101000a900473ffffffffffffffffffffffffffffffffffffffff1673ffffffffffffffffffffffffffffffffffffffff161415612950576000600a828154811061285f57fe5b90600052602060002090600602019050806000018054600181600116156101000203166002900480601f0160208091040260200160405190810160405280929190818152602001828054600181600116156101000203166002900480156129075780601f106128dc57610100808354040283529160200191612907565b820191906000526020600020905b8154815290600101906020018083116128ea57829003601f168201915b505050505096508060030154955080600401549450806005015493508060020160009054906101000a900473ffffffffffffffffffffffffffffffffffffffff1692505061295d565b80806001019150506127d1565b50848484848499509950995099509950505050505091939590929450565b60008060008090505b600160008573ffffffffffffffffffffffffffffffffffffffff1673ffffffffffffffffffffffffffffffffffffffff16815260200190815260200160002080549050811015612a9357600160008573ffffffffffffffffffffffffffffffffffffffff1673ffffffffffffffffffffffffffffffffffffffff1681526020019081526020016000208181548110612a1857fe5b906000526020600020906003020160000160009054906101000a900473ffffffffffffffffffffffffffffffffffffffff1673ffffffffffffffffffffffffffffffffffffffff168573ffffffffffffffffffffffffffffffffffffffff161415612a865760019150612a93565b8080600101915050612984565b508091505092915050565b60606000600560008473ffffffffffffffffffffffffffffffffffffffff1673ffffffffffffffffffffffffffffffffffffffff1681526020019081526020016000208054905090506000606082604051908082528060200260200182016040528015612b2557816020015b612b1261395e565b815260200190600190039081612b0a5790505b50905060008090505b83811015612d0e57600560008773ffffffffffffffffffffffffffffffffffffffff1673ffffffffffffffffffffffffffffffffffffffff1681526020019081526020016000208181548110612b8057fe5b906000526020600020015492506000600b8481548110612b9c57fe5b90600052602060002090600602019050806040518060c001604052908160008201548152602001600182018054600181600116156101000203166002900480601f016020809104026020016040519081016040528092919081815260200182805460018160011615610100020316600290048015612c5b5780601f10612c3057610100808354040283529160200191612c5b565b820191906000526020600020905b815481529060010190602001808311612c3e57829003601f168201915b50505050508152602001600282015481526020016003820160009054906101000a900473ffffffffffffffffffffffffffffffffffffffff1673ffffffffffffffffffffffffffffffffffffffff1673ffffffffffffffffffffffffffffffffffffffff168152602001600482015481526020016005820160009054906101000a900460ff161515151581525050838381518110612cf557fe5b6020026020010181905250508080600101915050612b2e565b50809350505050919050565b60606000600660008473ffffffffffffffffffffffffffffffffffffffff1673ffffffffffffffffffffffffffffffffffffffff1681526020019081526020016000208054905090506000606082604051908082528060200260200182016040528015612da157816020015b612d8e61395e565b815260200190600190039081612d865790505b50905060008090505b83811015612f8a57600660008773ffffffffffffffffffffffffffffffffffffffff1673ffffffffffffffffffffffffffffffffffffffff1681526020019081526020016000208181548110612dfc57fe5b906000526020600020015492506000600b8481548110612e1857fe5b90600052602060002090600602019050806040518060c001604052908160008201548152602001600182018054600181600116156101000203166002900480601f016020809104026020016040519081016040528092919081815260200182805460018160011615610100020316600290048015612ed75780601f10612eac57610100808354040283529160200191612ed7565b820191906000526020600020905b815481529060010190602001808311612eba57829003601f168201915b50505050508152602001600282015481526020016003820160009054906101000a900473ffffffffffffffffffffffffffffffffffffffff1673ffffffffffffffffffffffffffffffffffffffff1673ffffffffffffffffffffffffffffffffffffffff168152602001600482015481526020016005820160009054906101000a900460ff161515151581525050838381518110612f7157fe5b6020026020010181905250508080600101915050612daa565b50809350505050919050565b6000600982604051612fa8919061470f565b908152602001604051809103902060009054906101000a900460ff169050919050565b60606000600b80549050905060608160405190808252806020026020018201604052801561301357816020015b6130006139ac565b815260200190600190039081612ff85790505b50905060008090505b828110156132e1576000600b828154811061303357fe5b9060005260206000209060060201905060011515600b838154811061305457fe5b906000526020600020906006020160050160009054906101000a900460ff16151514156132d357806000015483838151811061308c57fe5b602002602001015160000181815250506130c98160030160009054906101000a900473ffffffffffffffffffffffffffffffffffffffff166132ea565b8383815181106130d557fe5b602002602001015160200181905250806001018054600181600116156101000203166002900480601f01602080910402602001604051908101604052809291908181526020018280546001816001161561010002031660029004801561317c5780601f106131515761010080835404028352916020019161317c565b820191906000526020600020905b81548152906001019060200180831161315f57829003601f168201915b505050505083838151811061318d57fe5b60200260200101516040018190525080600201548383815181106131ad57fe5b602002602001015160600181815250508060030160009054906101000a900473ffffffffffffffffffffffffffffffffffffffff168383815181106131ee57fe5b60200260200101516080019073ffffffffffffffffffffffffffffffffffffffff16908173ffffffffffffffffffffffffffffffffffffffff1681525050806004015483838151811061323d57fe5b602002602001015160a00181815250508060050160009054906101000a900460ff1683838151811061326b57fe5b602002602001015160c001901515908115158152505061328e81600001546133cb565b83838151811061329a57fe5b602002602001015160e001819052506132b68160000154613603565b8383815181106132c257fe5b602002602001015161010001819052505b50808060010191505061301c565b50809250505090565b6060600860008373ffffffffffffffffffffffffffffffffffffffff1673ffffffffffffffffffffffffffffffffffffffff1681526020019081526020016000208054600181600116156101000203166002900480601f0160208091040260200160405190810160405280929190818152602001828054600181600116156101000203166002900480156133bf5780601f10613394576101008083540402835291602001916133bf565b820191906000526020600020905b8154815290600101906020018083116133a257829003601f168201915b50505050509050919050565b6060600060046000848152602001908152602001600020805490509050606060046000858152602001908152602001600020805480602002602001604051908101604052809291908181526020016000905b828210156135f357838290600052602060002090600402016040518060800160405290816000820160009054906101000a900473ffffffffffffffffffffffffffffffffffffffff1673ffffffffffffffffffffffffffffffffffffffff1673ffffffffffffffffffffffffffffffffffffffff168152602001600182018054600181600116156101000203166002900480601f01602080910402602001604051908101604052809291908181526020018280546001816001161561010002031660029004801561352f5780601f106135045761010080835404028352916020019161352f565b820191906000526020600020905b81548152906001019060200180831161351257829003601f168201915b50505050508152602001600282018054600181600116156101000203166002900480601f0160208091040260200160405190810160405280929190818152602001828054600181600116156101000203166002900480156135d15780601f106135a6576101008083540402835291602001916135d1565b820191906000526020600020905b8154815290600101906020018083116135b457829003601f168201915b505050505081526020016003820154815250508152602001906001019061341d565b5050505090508092505050919050565b60608060036000848152602001908152602001600020805480602002602001604051908101604052809291908181526020016000905b8282101561376d57838290600052602060002090600302016040518060600160405290816000820160009054906101000a900473ffffffffffffffffffffffffffffffffffffffff1673ffffffffffffffffffffffffffffffffffffffff1673ffffffffffffffffffffffffffffffffffffffff168152602001600182018054600181600116156101000203166002900480601f01602080910402602001604051908101604052809291908181526020018280546001816001161561010002031660029004801561374b5780601f106137205761010080835404028352916020019161374b565b820191906000526020600020905b81548152906001019060200180831161372e57829003601f168201915b5050505050815260200160028201548152505081526020019060010190613639565b50505050905080915050919050565b50805460018160011615610100020316600290046000825580601f106137a257506137c1565b601f0160209004906000526020600020908101906137c09190613a10565b5b50565b828054600181600116156101000203166002900490600052602060002090601f016020900481019282601f1061380557805160ff1916838001178555613833565b82800160010185558215613833579182015b82811115613832578251825591602001919060010190613817565b5b5090506138409190613a10565b5090565b6040518060c00160405280600081526020016060815260200160008152602001600073ffffffffffffffffffffffffffffffffffffffff168152602001600081526020016000151581525090565b828054600181600116156101000203166002900490600052602060002090601f016020900481019282601f106138d357805160ff1916838001178555613901565b82800160010185558215613901579182015b828111156139005782518255916020019190600101906138e5565b5b50905061390e9190613a10565b5090565b6040518060c001604052806060815260200160608152602001600073ffffffffffffffffffffffffffffffffffffffff1681526020016000815260200160008152602001600081525090565b6040518060c00160405280600081526020016060815260200160008152602001600073ffffffffffffffffffffffffffffffffffffffff168152602001600081526020016000151581525090565b60405180610120016040528060008152602001606081526020016060815260200160008152602001600073ffffffffffffffffffffffffffffffffffffffff1681526020016000815260200160001515815260200160608152602001606081525090565b613a3291905b80821115613a2e576000816000905550600101613a16565b5090565b90565b600081359050613a4481614cf0565b92915050565b600082601f830112613a5b57600080fd5b8135613a6e613a6982614a43565b614a16565b91508082526020830160208301858383011115613a8a57600080fd5b613a95838284614c62565b50505092915050565b600081359050613aad81614d07565b92915050565b600060208284031215613ac557600080fd5b6000613ad384828501613a35565b91505092915050565b60008060408385031215613aef57600080fd5b6000613afd85828601613a35565b9250506020613b0e85828601613a35565b9150509250929050565b60008060408385031215613b2b57600080fd5b6000613b3985828601613a35565b9250506020613b4a85828601613a9e565b9150509250929050565b600060208284031215613b6657600080fd5b600082013567ffffffffffffffff811115613b8057600080fd5b613b8c84828501613a4a565b91505092915050565b60008060408385031215613ba857600080fd5b600083013567ffffffffffffffff811115613bc257600080fd5b613bce85828601613a4a565b925050602083013567ffffffffffffffff811115613beb57600080fd5b613bf785828601613a4a565b9150509250929050565b600060208284031215613c1357600080fd5b6000613c2184828501613a9e565b91505092915050565b60008060408385031215613c3d57600080fd5b6000613c4b85828601613a9e565b925050602083013567ffffffffffffffff811115613c6857600080fd5b613c7485828601613a4a565b9150509250929050565b60008060408385031215613c9157600080fd5b6000613c9f85828601613a9e565b9250506020613cb085828601613a9e565b9150509250929050565b6000613cc6838361441d565b905092915050565b6000613cda8383614487565b905092915050565b6000613cee83836144d7565b905092915050565b6000613d028383614527565b905092915050565b6000613d168383614577565b905092915050565b6000613d2a8383614600565b905092915050565b613d43613d3e82614c1a565b614ca4565b82525050565b613d5281614c08565b82525050565b613d6181614c08565b82525050565b6000613d7282614acf565b613d7c8185614b75565b935083602082028501613d8e85614a6f565b8060005b85811015613dca5784840389528151613dab8582613cba565b9450613db683614b27565b925060208a01995050600181019050613d92565b50829750879550505050505092915050565b6000613de782614ada565b613df18185614b86565b935083602082028501613e0385614a7f565b8060005b85811015613e3f5784840389528151613e208582613cce565b9450613e2b83614b34565b925060208a01995050600181019050613e07565b50829750879550505050505092915050565b6000613e5c82614ae5565b613e668185614b97565b935083602082028501613e7885614a8f565b8060005b85811015613eb45784840389528151613e958582613ce2565b9450613ea083614b41565b925060208a01995050600181019050613e7c565b50829750879550505050505092915050565b6000613ed182614af0565b613edb8185614ba8565b935083602082028501613eed85614a9f565b8060005b85811015613f295784840389528151613f0a8582613cf6565b9450613f1583614b4e565b925060208a01995050600181019050613ef1565b50829750879550505050505092915050565b6000613f4682614afb565b613f508185614bb9565b935083602082028501613f6285614aaf565b8060005b85811015613f9e5784840389528151613f7f8582613d0a565b9450613f8a83614b5b565b925060208a01995050600181019050613f66565b50829750879550505050505092915050565b6000613fbb82614b06565b613fc58185614bca565b935083602082028501613fd785614abf565b8060005b858110156140135784840389528151613ff48582613d1e565b9450613fff83614b68565b925060208a01995050600181019050613fdb565b50829750879550505050505092915050565b61402e81614c2c565b82525050565b61403d81614c2c565b82525050565b600061404e82614b1c565b6140588185614bec565b9350614068818560208601614c71565b61407181614cd2565b840191505092915050565b600061408782614b1c565b6140918185614bfd565b93506140a1818560208601614c71565b80840191505092915050565b60006140b882614b11565b6140c28185614bdb565b93506140d2818560208601614c71565b6140db81614cd2565b840191505092915050565b60006140f182614b11565b6140fb8185614bec565b935061410b818560208601614c71565b61411481614cd2565b840191505092915050565b600061412c603583614bec565b91507f4469646e27742072656163682072656465656d20726571756972656d656e747360008301527f206f722076616c69646174696f6e206661696c656400000000000000000000006020830152604082019050919050565b6000614192601c83614bec565b91507f596f7520616c726561647920666f6c6c6f7720746865207573657221000000006000830152602082019050919050565b60006141d2601283614bec565b91507f596f75206f776e207468697320706f73742100000000000000000000000000006000830152602082019050919050565b6000614212602083614bec565b91507f796f752063616e277420666f6c6f7720796f7572206f776e206163636f756e746000830152602082019050919050565b6000614252600e83614bec565b91507f416c7265616479206120757365720000000000000000000000000000000000006000830152602082019050919050565b6000614292602383614bec565b91507f4f6e6c7920746865206f776e65722063616e2064656c6574652074686973207060008301527f6f737400000000000000000000000000000000000000000000000000000000006020830152604082019050919050565b60006142f8603c83614bec565b91507f7468697320696d61676520616c7265616479206578697374206f6e207468652060008301527f6e6574776f726b206f7220736f6d65626f6479206f776e2074686973000000006020830152604082019050919050565b600061435e605c83614bec565b91507f696e7075742076616c7565206973206e6f7420616c6c6f7765642c206f6e6c7960008301527f20657175616c206f722067726561746572207468616e20323020697320616c6c60208301527f6f77656420616e6420696e707574206d757374206e6f74207a65726f000000006040830152606082019050919050565b60006143ea601b83614bec565b91507f596f7520616c7265616479206c696b65207468697320706f73742100000000006000830152602082019050919050565b60006080830160008301516144356000860182613d49565b506020830151848203602086015261444d82826140ad565b9150506040830151848203604086015261446782826140ad565b915050606083015161447c60608601826146da565b508091505092915050565b600060608301600083015161449f6000860182613d49565b50602083015184820360208601526144b782826140ad565b91505060408301516144cc60408601826146da565b508091505092915050565b60006060830160008301516144ef6000860182613d49565b506020830151848203602086015261450782826140ad565b915050604083015161451c60408601826146da565b508091505092915050565b600060608301600083015161453f6000860182613d49565b506020830151848203602086015261455782826140ad565b915050604083015161456c60408601826146da565b508091505092915050565b600060c08301600083015161458f60008601826146da565b50602083015184820360208601526145a782826140ad565b91505060408301516145bc60408601826146da565b5060608301516145cf6060860182613d49565b5060808301516145e260808601826146da565b5060a08301516145f560a0860182614025565b508091505092915050565b60006101208301600083015161461960008601826146da565b506020830151848203602086015261463182826140ad565b9150506040830151848203604086015261464b82826140ad565b915050606083015161466060608601826146da565b5060808301516146736080860182613d49565b5060a083015161468660a08601826146da565b5060c083015161469960c0860182614025565b5060e083015184820360e08601526146b18282613d67565b9150506101008301518482036101008601526146cd8282613ec6565b9150508091505092915050565b6146e381614c58565b82525050565b6146f281614c58565b82525050565b61470961470482614c58565b614cc8565b82525050565b600061471b828461407c565b915081905092915050565b600061473282866146f8565b6020820191506147428285613d32565b60148201915061475282846146f8565b602082019150819050949350505050565b60006020820190506147786000830184613d58565b92915050565b600060208201905081810360008301526147988184613ddc565b905092915050565b600060408201905081810360008301526147ba8185613ddc565b905081810360208301526147ce8184613e51565b90509392505050565b600060208201905081810360008301526147f18184613f3b565b905092915050565b600060208201905081810360008301526148138184613fb0565b905092915050565b60006020820190506148306000830184614034565b92915050565b6000602082019050818103600083015261485081846140e6565b905092915050565b600060a08201905081810360008301526148728188614043565b905061488160208301876146e9565b61488e60408301866146e9565b61489b60608301856146e9565b6148a86080830184613d58565b9695505050505050565b600060208201905081810360008301526148cb8161411f565b9050919050565b600060208201905081810360008301526148eb81614185565b9050919050565b6000602082019050818103600083015261490b816141c5565b9050919050565b6000602082019050818103600083015261492b81614205565b9050919050565b6000602082019050818103600083015261494b81614245565b9050919050565b6000602082019050818103600083015261496b81614285565b9050919050565b6000602082019050818103600083015261498b816142eb565b9050919050565b600060208201905081810360008301526149ab81614351565b9050919050565b600060208201905081810360008301526149cb816143dd565b9050919050565b60006020820190506149e760008301846146e9565b92915050565b6000604082019050614a0260008301856146e9565b614a0f60208301846146e9565b9392505050565b6000604051905081810181811067ffffffffffffffff82111715614a3957600080fd5b8060405250919050565b600067ffffffffffffffff821115614a5a57600080fd5b601f19601f8301169050602081019050919050565b6000819050602082019050919050565b6000819050602082019050919050565b6000819050602082019050919050565b6000819050602082019050919050565b6000819050602082019050919050565b6000819050602082019050919050565b600081519050919050565b600081519050919050565b600081519050919050565b600081519050919050565b600081519050919050565b600081519050919050565b600081519050919050565b600081519050919050565b6000602082019050919050565b6000602082019050919050565b6000602082019050919050565b6000602082019050919050565b6000602082019050919050565b6000602082019050919050565b600082825260208201905092915050565b600082825260208201905092915050565b600082825260208201905092915050565b600082825260208201905092915050565b600082825260208201905092915050565b600082825260208201905092915050565b600082825260208201905092915050565b600082825260208201905092915050565b600081905092915050565b6000614c1382614c38565b9050919050565b6000614c2582614c38565b9050919050565b60008115159050919050565b600073ffffffffffffffffffffffffffffffffffffffff82169050919050565b6000819050919050565b82818337600083830152505050565b60005b83811015614c8f578082015181840152602081019050614c74565b83811115614c9e576000848401525b50505050565b6000614caf82614cb6565b9050919050565b6000614cc182614ce3565b9050919050565b6000819050919050565b6000601f19601f8301169050919050565b60008160601b9050919050565b614cf981614c08565b8114614d0457600080fd5b50565b614d1081614c58565b8114614d1b57600080fd5b5056fea365627a7a7231582087996e2660a4ebfa6261aa916bdc866ae164bf94c01611d0def455212700608f6c6578706572696d656e74616cf564736f6c63430005100040",
  "source": "pragma solidity >=0.4.21 <0.6.0;\npragma experimental ABIEncoderV2;\n\ncontract Lixtagram {\n\n    struct Followers {\n        address follower;\n        string name;\n        uint time;\n    }\n\n    struct Followings {\n        address followed;\n        string name;\n        uint time;\n    }\n\n    struct User {\n        string name;\n        string profilePic;\n        address uadd;\n        uint256 tokens;\n        uint256 postsCount;\n        uint256 redeemTokens;\n    }\n\n    struct Comments {\n        address adr;\n        string adrName;\n        string comment;\n        uint time;\n    }\n\n    struct Likers {\n        address adr;\n        string adrName;\n        uint time;\n    }\n\n    // struct FilterLikers {\n    //     address adr;\n    //     string adrName;\n    //     uint time;\n    // }\n\n    // struct FilterComments {\n    //     address adr;\n    //     string adrName;\n    //     string comment;\n    //     uint time;\n    // }\n\n    struct Post {\n        uint id;\n        string imgIpfsHash;\n        uint256 likes;\n        address owner;\n        uint timestamp;\n        bool isPublic;\n    }\n\n    struct ViewPost {\n        uint id;\n        string ownerName;\n        string imgIpfsHash;\n        uint256 likes;\n        address owner;\n        uint timestamp;\n        bool isPublic;\n        Comments[] comments;\n        Likers[] likers;\n    }\n\n    //User\n    mapping(address => bool) private users;\n    mapping(address => Followers[]) private followers;\n    mapping(address => Followings[]) private followings;\n    mapping(uint => Likers[]) private likers;\n    mapping(uint => Comments[]) private comments;\n    mapping(address => uint[]) private userPostPublicIndex;\n    mapping(address => uint[]) private userPostPrivateIndex;\n    mapping(address => uint[]) private userAllPost;\n    mapping(address => string) private username;\n    mapping(string => bool) private ipfsHash;\n\n    User[] private peeps;\n    Post[] private posts;\n   \n    //constructor \n    string public name;\n    address public manager;\n    uint256 public userCount;\n    uint public allPostCount;\n\n    //Community chat\n    string public chatHash;\n\n    constructor() public {\n        name = \"Lixtagram\";\n        manager = msg.sender;\n        userCount = 0;\n        allPostCount = 0;\n    }\n\n    function createPost(\n        string memory description,\n        string memory imgIpfsHash\n    ) public payable {\n        allPostCount++;\n        if(posts.length == 0){\n            allPostCount = 0;\n        }\n        require(ipfsHash[imgIpfsHash] != true, \"this image already exist on the network or somebody own this\");\n        uint randomId = uint(keccak256(abi.encodePacked(now, msg.sender, block.difficulty)));\n        Post memory newPost = Post({\n            id: randomId,\n            imgIpfsHash: imgIpfsHash,\n            likes: 0,\n            owner: msg.sender,\n            timestamp: now,\n            isPublic: true\n        });\n        posts.push(newPost);\n        ipfsHash[imgIpfsHash] = true;\n        likers[randomId].push(Likers(msg.sender, getUsername(msg.sender)  ,now));\n        comments[randomId].push(Comments(msg.sender, getUsername(msg.sender) ,description ,now));\n        userPostPublicIndex[msg.sender].push(allPostCount);\n        userAllPost[msg.sender].push(allPostCount);\n        for (uint256 i = 0; i < peeps.length; i++) {\n            if (peeps[i].uadd == msg.sender) {\n                peeps[i].postsCount++;\n                break;\n            }\n        }\n    }\n\n    function checkIfImageExist(string memory _ipfsHash) public view returns(bool){\n        return ipfsHash[_ipfsHash];\n    }\n\n    function signUp(string memory _name) public payable {\n        require(!users[msg.sender], \"Already a user\");\n        users[msg.sender] = true;\n        username[msg.sender] = _name;\n        userCount++;\n        User memory newUser = User({\n            name: _name,\n            profilePic: \"\",\n            uadd: msg.sender,\n            tokens: 0,\n            redeemTokens: 0,\n            postsCount: 0\n        });\n        peeps.push(newUser);\n        followers[msg.sender].push(Followers(msg.sender, getUsername(msg.sender) ,now));\n    }\n\n    function isUser(address user) private view returns (bool) {\n        return users[user];\n    }\n\n\n    function isLiker(address user, uint _id) public view returns(bool){\n        bool f;\n        for(uint i = 0; i < likers[_id].length; i++){\n            if(user == likers[_id][i].adr){\n                f = true;\n                break;\n            }\n        }\n        return f;\n    }\n\n    function isFollower(address user, address owner) public view returns(bool){\n        bool f;\n        for(uint i = 0; i < followers[owner].length; i++){\n            if(user == followers[owner][i].follower){\n                f = true;\n                break;\n            }\n        }\n        return f;\n    }\n\n    function followUser(address adr) public payable{\n        address author = followers[adr][0].follower;\n        uint len = followers[adr].length;\n        require(msg.sender !=  author || msg.sender !=  adr, \"you can't folow your own account\");\n        for(uint i = 0; i < len; i++){\n            if(msg.sender == followers[adr][i].follower){\n                require(msg.sender !=  followers[adr][i].follower, \"You already follow the user!\");\n                break;\n            }\n        }\n        followers[adr].push(Followers(msg.sender, getUsername(adr), now));\n        followings[msg.sender].push(Followings(adr, getUsername(msg.sender) ,now));\n        for (uint256 i = 0; i < peeps.length; i++) {\n            if (peeps[i].uadd == author) {\n                peeps[i].tokens += 1;\n                peeps[i].redeemTokens += 1;\n                break;\n            }\n        }\n    }\n\n    function likePost(uint _id) public payable{\n        address author = likers[_id][0].adr;\n        require(msg.sender != author, \"You own this post!\");\n        uint len = likers[_id].length;\n        for(uint i = 0; i < len; i++){\n            if(msg.sender == likers[_id][i].adr){\n                require(msg.sender !=  likers[_id][i].adr, \"You already like this post!\");\n                break;\n            }\n        }\n        likers[_id].push(Likers(msg.sender, getUsername(msg.sender) ,now));\n        for (uint256 i = 0; i < peeps.length; i++) {\n            if (peeps[i].uadd == author) {\n                peeps[i].tokens += 1;\n                peeps[i].redeemTokens += 1;\n                break;\n            }\n        }\n    }\n\n    function getUserPublicPost(address adr) public view returns (Post[] memory){\n        uint len = userPostPublicIndex[adr].length;\n        uint index;\n        Post[] memory p = new Post[](len);\n        for(uint i = 0; i < len; i++){\n            index = userPostPublicIndex[adr][i];\n            Post storage post = posts[index];\n            p[i] = post;\n        }\n        return p;\n    }\n\n    function getUserPrivatePost(address adr) public view returns (Post[] memory){\n        uint len = userPostPrivateIndex[adr].length;\n        uint index;\n        Post[] memory p = new Post[](len);\n        for(uint i = 0; i < len; i++){\n            index = userPostPrivateIndex[adr][i];\n            Post storage post = posts[index];\n            p[i] = post;\n        }\n        return p;\n    }\n\n    function addComment(uint _id, string memory comment) public {\n        comments[_id].push(Comments(msg.sender, getUsername(msg.sender), comment, now));\n    }\n\n    function getViewPost() public view returns (ViewPost[] memory){\n        uint postLength = posts.length;\n        ViewPost[] memory v = new ViewPost[](postLength);\n        for (uint i = 0; i < postLength; i++) {\n            Post storage post = posts[i];\n            if(posts[i].isPublic == true){\n                v[i].id = post.id;\n                v[i].ownerName = getUsername(post.owner);\n                v[i].imgIpfsHash = post.imgIpfsHash;\n                v[i].likes = post.likes;\n                v[i].owner = post.owner;\n                v[i].timestamp = post.timestamp;\n                v[i].isPublic = post.isPublic;\n                v[i].comments = getComments(post.id);\n                v[i].likers = getLikes(post.id);\n            }\n        }\n        return v;\n    }\n\n    // function getViewPostComments(uint _id) private view returns (FilterComments[] memory){\n    //     Comments[] memory c = getComments(_id);\n    //     FilterComments[] memory nc = new FilterComments[](3);\n    //     for(uint i; i < c.length; i++){\n    //         nc[i].adr = c[i].adr;\n    //         nc[i].adrName = getUsername(c[i].adr); \n    //         nc[i].comment = c[i].comment; \n    //         nc[i].time = c[i].time; \n    //         if(i == 2) break;\n    //     }\n    //     return nc;\n    //  }\n\n    //  function getViewPostLikers(uint _id) private view returns (FilterLikers[] memory){\n    //     Likers[] memory l = getLikes(_id);\n    //     FilterLikers[] memory nl = new FilterLikers[](l.length);\n    //     for(uint i; i < l.length; i++){\n    //         nl[i].adr = l[i].adr;\n    //         nl[i].adrName = getUsername(l[i].adr);\n    //         nl[i].time = l[i].time;\n    //     }\n    //     return nl;\n    //  }\n\n    function getComments(uint _id) private view returns (Comments[] memory){\n      uint len  = comments[_id].length;\n      Comments[] memory c;\n      c = comments[_id];\n      return c;\n    }\n     \n    function getLikes(uint _id) private view returns (Likers[] memory){\n      Likers[] memory l;\n      l = likers[_id];\n      return l;\n    }\n\n    function getFollowers(address adr) public view returns (Followers[] memory){\n      Followers[] memory f;\n      f = followers[adr];\n      return f;\n    }\n\n    function getUsername(address adr) private view returns (string memory){\n        return username[adr];\n    }\n\n    function getNumberOffollowwers(address adr) public view returns (uint){\n        return followers[adr].length;\n    }\n\n    function getPostsCount() public view returns (uint256) {\n        return posts.length;\n    }\n\n    // function deletePost(uint256 index) public {\n    //     Post storage currPost = posts[index];\n    //     require(currPost.owner == msg.sender, \"You are not the owner of the post!\");\n    //     currPost.isPublic = false;\n    // }\n\n    function deletePost(uint id) public {\n        for(uint i = 0; i < posts.length; i++ ){\n            if(posts[id].id == id){\n                require(posts[i].owner == msg.sender, \"Only the owner can delete this post\" ); \n                delete posts[i];\n                break;\n            }\n        }\n        for (uint256 i = 0; i < peeps.length; i++) {\n            if (peeps[i].uadd == msg.sender) {\n                peeps[i].postsCount--;\n                break;\n            }\n        }\n    }\n    \n    // function getPostDetails(string memory postHash)\n    //     public\n    //     view\n    //     returns (uint, string memory, string memory,string memory, uint, address, uint, string memory, string memory, bool)\n    // {\n    //     for (uint256 i = 0; i < posts.length; i++) {\n    //         if ( keccak256(abi.encodePacked((posts[i].hash))) == keccak256(abi.encodePacked((postHash)))) {\n    //             Post storage post = posts[i];\n    //             return (\n    //                 post.id,\n    //                 post.hash,\n    //                 post.description,\n    //                 post.imgIpfsHash,\n    //                 post.likes,\n    //                 post.owner,\n    //                 post.timestamp,\n    //                 post.likerList,\n    //                 post.comments,\n    //                 post.isPublic\n    //             );\n    //         }\n    //     }\n    // }\n\n     function getFollowedAndFollowersCount(address adr) public view returns (uint, uint) {\n        uint len = followers[adr].length;\n        uint len2 =  followings[adr].length;\n        return(len, len2);\n    }\n\n    function getFollowedAndFollowers(address adr) public view returns (Followers[] memory, Followings[] memory) {\n        Followers[] memory f;\n        Followings[] memory fw;\n        f = followers[adr];\n        fw = followings[adr];\n        return(f, fw);\n    }\n\n    function getUserDetails(address adr)\n        public\n        view\n        returns (string memory, uint256, uint256, uint256, address)\n    {\n        string memory n;\n        uint tokens;\n        uint postsCount;\n        uint redeemTokens;\n        address uadd;\n        for (uint256 i = 0; i < peeps.length; i++) {\n            if (peeps[i].uadd == adr) {\n                User storage user = peeps[i];\n                n = user.name;\n                tokens = user.tokens;\n                postsCount = user.postsCount;\n                redeemTokens = user.redeemTokens;\n                uadd = user.uadd;\n                break;\n            }\n        }\n        return (n, tokens, postsCount, redeemTokens, uadd);\n    }\n \n    function redeemNTokens(uint256 ntokens, uint256 valueWie) public {\n        uint oneIsEqualToWie = 1000000000000000;\n        uint valueInWie = oneIsEqualToWie*ntokens;\n        require(ntokens >= 20 || ntokens != 0 || valueInWie == valueWie, \"input value is not allowed, only equal or greater than 20 is allowed and input must not zero\" ); \n        for (uint256 i = 0; i < peeps.length; i++) {\n            if (peeps[i].uadd == msg.sender) {\n                require(peeps[i].redeemTokens >= 20 || peeps[i].redeemTokens > ntokens, \"Didn't reach redeem requirements or validation failed\" ); \n                address(uint256(msg.sender)).transfer(valueWie);\n                peeps[i].redeemTokens -= ntokens;\n                break;\n            }\n        }\n    }\n\n    function setChatHash(string memory chash) public {\n        chatHash = chash;\n    }\n\n    function getContractBalance() public view returns (uint) {\n        return address(this).balance;\n    }\n    \n}\n",
  "sourcePath": "/home/felix-iripple/Desktop/social/lixtagram/src/contracts/Lixtagram.sol",
  "compiler": {
    "name": "solc",
    "version": "0.5.16+commit.9c3226ce.Emscripten.clang"
  },
  "schemaVersion": "3.4.6",
  "updatedAt": "2022-04-21T04:48:29.383Z",
  "networkType": "ethereum",
  "devdoc": {
    "methods": {}
  },
  "userdoc": {
    "methods": {}
  }
}