{
  "contractName": "Lixtagram",
  "abi": [
    {
      "inputs": [],
      "payable": false,
      "stateMutability": "nonpayable",
      "type": "constructor"
    },
    {
      "constant": true,
      "inputs": [],
      "name": "allPostCount",
      "outputs": [
        {
          "internalType": "uint256",
          "name": "",
          "type": "uint256"
        }
      ],
      "payable": false,
      "stateMutability": "view",
      "type": "function"
    },
    {
      "constant": true,
      "inputs": [],
      "name": "chatHash",
      "outputs": [
        {
          "internalType": "string",
          "name": "",
          "type": "string"
        }
      ],
      "payable": false,
      "stateMutability": "view",
      "type": "function"
    },
    {
      "constant": true,
      "inputs": [],
      "name": "manager",
      "outputs": [
        {
          "internalType": "address",
          "name": "",
          "type": "address"
        }
      ],
      "payable": false,
      "stateMutability": "view",
      "type": "function"
    },
    {
      "constant": true,
      "inputs": [],
      "name": "name",
      "outputs": [
        {
          "internalType": "string",
          "name": "",
          "type": "string"
        }
      ],
      "payable": false,
      "stateMutability": "view",
      "type": "function"
    },
    {
      "constant": true,
      "inputs": [],
      "name": "userCount",
      "outputs": [
        {
          "internalType": "uint256",
          "name": "",
          "type": "uint256"
        }
      ],
      "payable": false,
      "stateMutability": "view",
      "type": "function"
    },
    {
      "constant": false,
      "inputs": [
        {
          "internalType": "string",
          "name": "description",
          "type": "string"
        },
        {
          "internalType": "string",
          "name": "imgIpfsHash",
          "type": "string"
        }
      ],
      "name": "createPost",
      "outputs": [],
      "payable": true,
      "stateMutability": "payable",
      "type": "function"
    },
    {
      "constant": false,
      "inputs": [
        {
          "internalType": "string",
          "name": "_name",
          "type": "string"
        }
      ],
      "name": "signUp",
      "outputs": [],
      "payable": true,
      "stateMutability": "payable",
      "type": "function"
    },
    {
      "constant": true,
      "inputs": [
        {
          "internalType": "address",
          "name": "user",
          "type": "address"
        },
        {
          "internalType": "uint256",
          "name": "_id",
          "type": "uint256"
        }
      ],
      "name": "isLiker",
      "outputs": [
        {
          "internalType": "bool",
          "name": "",
          "type": "bool"
        }
      ],
      "payable": false,
      "stateMutability": "view",
      "type": "function"
    },
    {
      "constant": true,
      "inputs": [
        {
          "internalType": "address",
          "name": "user",
          "type": "address"
        },
        {
          "internalType": "address",
          "name": "owner",
          "type": "address"
        }
      ],
      "name": "isFollower",
      "outputs": [
        {
          "internalType": "bool",
          "name": "",
          "type": "bool"
        }
      ],
      "payable": false,
      "stateMutability": "view",
      "type": "function"
    },
    {
      "constant": false,
      "inputs": [
        {
          "internalType": "address",
          "name": "adr",
          "type": "address"
        }
      ],
      "name": "followUser",
      "outputs": [],
      "payable": true,
      "stateMutability": "payable",
      "type": "function"
    },
    {
      "constant": false,
      "inputs": [
        {
          "internalType": "uint256",
          "name": "_id",
          "type": "uint256"
        }
      ],
      "name": "likePost",
      "outputs": [],
      "payable": true,
      "stateMutability": "payable",
      "type": "function"
    },
    {
      "constant": true,
      "inputs": [
        {
          "internalType": "address",
          "name": "adr",
          "type": "address"
        }
      ],
      "name": "getUserPublicPost",
      "outputs": [
        {
          "components": [
            {
              "internalType": "uint256",
              "name": "id",
              "type": "uint256"
            },
            {
              "internalType": "string",
              "name": "imgIpfsHash",
              "type": "string"
            },
            {
              "internalType": "uint256",
              "name": "likes",
              "type": "uint256"
            },
            {
              "internalType": "address",
              "name": "owner",
              "type": "address"
            },
            {
              "internalType": "uint256",
              "name": "timestamp",
              "type": "uint256"
            },
            {
              "internalType": "bool",
              "name": "isPublic",
              "type": "bool"
            }
          ],
          "internalType": "struct Lixtagram.Post[]",
          "name": "",
          "type": "tuple[]"
        }
      ],
      "payable": false,
      "stateMutability": "view",
      "type": "function"
    },
    {
      "constant": true,
      "inputs": [
        {
          "internalType": "address",
          "name": "adr",
          "type": "address"
        }
      ],
      "name": "getUserPrivatePost",
      "outputs": [
        {
          "components": [
            {
              "internalType": "uint256",
              "name": "id",
              "type": "uint256"
            },
            {
              "internalType": "string",
              "name": "imgIpfsHash",
              "type": "string"
            },
            {
              "internalType": "uint256",
              "name": "likes",
              "type": "uint256"
            },
            {
              "internalType": "address",
              "name": "owner",
              "type": "address"
            },
            {
              "internalType": "uint256",
              "name": "timestamp",
              "type": "uint256"
            },
            {
              "internalType": "bool",
              "name": "isPublic",
              "type": "bool"
            }
          ],
          "internalType": "struct Lixtagram.Post[]",
          "name": "",
          "type": "tuple[]"
        }
      ],
      "payable": false,
      "stateMutability": "view",
      "type": "function"
    },
    {
      "constant": true,
      "inputs": [],
      "name": "getViewPost",
      "outputs": [
        {
          "components": [
            {
              "internalType": "uint256",
              "name": "id",
              "type": "uint256"
            },
            {
              "internalType": "string",
              "name": "ownerName",
              "type": "string"
            },
            {
              "internalType": "string",
              "name": "imgIpfsHash",
              "type": "string"
            },
            {
              "internalType": "uint256",
              "name": "likes",
              "type": "uint256"
            },
            {
              "internalType": "address",
              "name": "owner",
              "type": "address"
            },
            {
              "internalType": "uint256",
              "name": "timestamp",
              "type": "uint256"
            },
            {
              "internalType": "bool",
              "name": "isPublic",
              "type": "bool"
            },
            {
              "components": [
                {
                  "internalType": "address",
                  "name": "adr",
                  "type": "address"
                },
                {
                  "internalType": "string",
                  "name": "adrName",
                  "type": "string"
                },
                {
                  "internalType": "string",
                  "name": "comment",
                  "type": "string"
                },
                {
                  "internalType": "uint256",
                  "name": "time",
                  "type": "uint256"
                }
              ],
              "internalType": "struct Lixtagram.FilterComments[]",
              "name": "comments",
              "type": "tuple[]"
            },
            {
              "components": [
                {
                  "internalType": "address",
                  "name": "adr",
                  "type": "address"
                },
                {
                  "internalType": "string",
                  "name": "adrName",
                  "type": "string"
                },
                {
                  "internalType": "uint256",
                  "name": "time",
                  "type": "uint256"
                }
              ],
              "internalType": "struct Lixtagram.FilterLikers[]",
              "name": "likers",
              "type": "tuple[]"
            }
          ],
          "internalType": "struct Lixtagram.ViewPost[]",
          "name": "",
          "type": "tuple[]"
        }
      ],
      "payable": false,
      "stateMutability": "view",
      "type": "function"
    },
    {
      "constant": true,
      "inputs": [
        {
          "internalType": "address",
          "name": "adr",
          "type": "address"
        }
      ],
      "name": "getFollowers",
      "outputs": [
        {
          "components": [
            {
              "internalType": "address",
              "name": "follower",
              "type": "address"
            },
            {
              "internalType": "uint256",
              "name": "time",
              "type": "uint256"
            }
          ],
          "internalType": "struct Lixtagram.Followers[]",
          "name": "",
          "type": "tuple[]"
        }
      ],
      "payable": false,
      "stateMutability": "view",
      "type": "function"
    },
    {
      "constant": true,
      "inputs": [
        {
          "internalType": "address",
          "name": "adr",
          "type": "address"
        }
      ],
      "name": "getNumberOffollowwers",
      "outputs": [
        {
          "internalType": "uint256",
          "name": "",
          "type": "uint256"
        }
      ],
      "payable": false,
      "stateMutability": "view",
      "type": "function"
    },
    {
      "constant": true,
      "inputs": [],
      "name": "getPostsCount",
      "outputs": [
        {
          "internalType": "uint256",
          "name": "",
          "type": "uint256"
        }
      ],
      "payable": false,
      "stateMutability": "view",
      "type": "function"
    },
    {
      "constant": false,
      "inputs": [
        {
          "internalType": "uint256",
          "name": "id",
          "type": "uint256"
        }
      ],
      "name": "deletePost",
      "outputs": [],
      "payable": false,
      "stateMutability": "nonpayable",
      "type": "function"
    },
    {
      "constant": true,
      "inputs": [
        {
          "internalType": "address",
          "name": "adr",
          "type": "address"
        }
      ],
      "name": "getUserDetails",
      "outputs": [
        {
          "internalType": "string",
          "name": "",
          "type": "string"
        },
        {
          "internalType": "uint256",
          "name": "",
          "type": "uint256"
        },
        {
          "internalType": "uint256",
          "name": "",
          "type": "uint256"
        },
        {
          "internalType": "uint256",
          "name": "",
          "type": "uint256"
        },
        {
          "internalType": "address",
          "name": "",
          "type": "address"
        },
        {
          "internalType": "uint256",
          "name": "",
          "type": "uint256"
        },
        {
          "components": [
            {
              "internalType": "address",
              "name": "follower",
              "type": "address"
            },
            {
              "internalType": "uint256",
              "name": "time",
              "type": "uint256"
            }
          ],
          "internalType": "struct Lixtagram.Followers[]",
          "name": "",
          "type": "tuple[]"
        }
      ],
      "payable": false,
      "stateMutability": "view",
      "type": "function"
    },
    {
      "constant": false,
      "inputs": [
        {
          "internalType": "uint256",
          "name": "ntokens",
          "type": "uint256"
        },
        {
          "internalType": "uint256",
          "name": "valueWie",
          "type": "uint256"
        }
      ],
      "name": "redeemNTokens",
      "outputs": [],
      "payable": false,
      "stateMutability": "nonpayable",
      "type": "function"
    },
    {
      "constant": false,
      "inputs": [
        {
          "internalType": "string",
          "name": "chash",
          "type": "string"
        }
      ],
      "name": "setChatHash",
      "outputs": [],
      "payable": false,
      "stateMutability": "nonpayable",
      "type": "function"
    },
    {
      "constant": true,
      "inputs": [],
      "name": "getContractBalance",
      "outputs": [
        {
          "internalType": "uint256",
          "name": "",
          "type": "uint256"
        }
      ],
      "payable": false,
      "stateMutability": "view",
      "type": "function"
    }
  ],
  "bytecode": "0x60806040523480156200001157600080fd5b506040518060400160405280600981526020017f4c697874616772616d0000000000000000000000000000000000000000000000815250600a90805190602001906200005f929190620000b7565b5033600b60006101000a81548173ffffffffffffffffffffffffffffffffffffffff021916908373ffffffffffffffffffffffffffffffffffffffff1602179055506000600c819055506000600d8190555062000166565b828054600181600116156101000203166002900490600052602060002090601f016020900481019282601f10620000fa57805160ff19168380011785556200012b565b828001600101855582156200012b579182015b828111156200012a5782518255916020019190600101906200010d565b5b5090506200013a91906200013e565b5090565b6200016391905b808211156200015f57600081600090555060010162000145565b5090565b90565b61462980620001766000396000f3fe6080604052600436106101355760003560e01c8063725009d3116100ab578063c2fe20221161006f578063c2fe2022146103cc578063cc3d967b14610409578063e5fe94771461044c578063ed05246314610489578063f269d069146104c6578063ff7ae9a01461050357610135565b8063725009d31461032457806383624882146103405780638c39e5501461036b578063a70806f714610394578063adcfb4fc146103b057610135565b80633437d4d9116100fd5780633437d4d91461021f578063392338f51461024a578063481c6a751461026657806366778e9414610291578063690eea1f146102ce5780636f9fb98a146102f957610135565b80630589cded1461013a57806306fdde031461017757806307973ccf146101a2578063094cd5ee146101cd57806320fc0205146101f6575b600080fd5b34801561014657600080fd5b50610161600480360361015c919081019061362b565b61052e565b60405161016e9190614307565b60405180910390f35b34801561018357600080fd5b5061018c61057a565b6040516101999190614168565b60405180910390f35b3480156101ae57600080fd5b506101b7610618565b6040516101c49190614307565b60405180910390f35b3480156101d957600080fd5b506101f460048036036101ef9190810190613779565b61061e565b005b34801561020257600080fd5b5061021d600480360361021891908101906136cc565b610861565b005b34801561022b57600080fd5b5061023461087b565b6040516102419190614168565b60405180910390f35b610264600480360361025f919081019061370d565b610919565b005b34801561027257600080fd5b5061027b610dd7565b60405161028891906140cc565b60405180910390f35b34801561029d57600080fd5b506102b860048036036102b39190810190613690565b610dfd565b6040516102c5919061414d565b60405180910390f35b3480156102da57600080fd5b506102e3610ec8565b6040516102f09190614307565b60405180910390f35b34801561030557600080fd5b5061030e610ece565b60405161031b9190614307565b60405180910390f35b61033e60048036036103399190810190613779565b610ed6565b005b34801561034c57600080fd5b506103556112cb565b6040516103629190614307565b60405180910390f35b34801561037757600080fd5b50610392600480360361038d91908101906137a2565b6112d8565b005b6103ae60048036036103a9919081019061362b565b6114f6565b005b6103ca60048036036103c591908101906136cc565b6119c7565b005b3480156103d857600080fd5b506103f360048036036103ee919081019061362b565b611d2c565b60405161040091906140e7565b60405180910390f35b34801561041557600080fd5b50610430600480360361042b919081019061362b565b611eb4565b604051610443979695949392919061418a565b60405180910390f35b34801561045857600080fd5b50610473600480360361046e9190810190613654565b612212565b604051610480919061414d565b60405180910390f35b34801561049557600080fd5b506104b060048036036104ab919081019061362b565b612335565b6040516104bd9190614109565b60405180910390f35b3480156104d257600080fd5b506104ed60048036036104e8919081019061362b565b6125b1565b6040516104fa9190614109565b60405180910390f35b34801561050f57600080fd5b5061051861282d565b604051610525919061412b565b60405180910390f35b6000600160008373ffffffffffffffffffffffffffffffffffffffff1673ffffffffffffffffffffffffffffffffffffffff168152602001908152602001600020805490509050919050565b600a8054600181600116156101000203166002900480601f0160208091040260200160405190810160405280929190818152602001828054600181600116156101000203166002900480156106105780601f106105e557610100808354040283529160200191610610565b820191906000526020600020905b8154815290600101906020018083116105f357829003601f168201915b505050505081565b600c5481565b60008090505b60098054905081101561079657816009838154811061063f57fe5b9060005260206000209060060201600001541415610789573373ffffffffffffffffffffffffffffffffffffffff166009828154811061067b57fe5b906000526020600020906006020160030160009054906101000a900473ffffffffffffffffffffffffffffffffffffffff1673ffffffffffffffffffffffffffffffffffffffff1614610703576040517f08c379a00000000000000000000000000000000000000000000000000000000081526004016106fa906142a7565b60405180910390fd5b6009818154811061071057fe5b906000526020600020906006020160008082016000905560018201600061073791906131e8565b60028201600090556003820160006101000a81549073ffffffffffffffffffffffffffffffffffffffff021916905560048201600090556005820160006101000a81549060ff02191690555050610796565b8080600101915050610624565b5060008090505b60088054905081101561085d573373ffffffffffffffffffffffffffffffffffffffff16600882815481106107ce57fe5b906000526020600020906006020160020160009054906101000a900473ffffffffffffffffffffffffffffffffffffffff1673ffffffffffffffffffffffffffffffffffffffff161415610850576008818154811061082957fe5b9060005260206000209060060201600401600081548092919060019003919050555061085d565b808060010191505061079d565b5050565b80600e9080519060200190610877929190613230565b5050565b600e8054600181600116156101000203166002900480601f0160208091040260200160405190810160405280929190818152602001828054600181600116156101000203166002900480156109115780601f106108e657610100808354040283529160200191610911565b820191906000526020600020905b8154815290600101906020018083116108f457829003601f168201915b505050505081565b600d6000815480929190600101919050555060006009805490501415610942576000600d819055505b60004233446040516020016109599392919061408f565b6040516020818303038152906040528051906020012060001c905061097c6132b0565b6040518060c00160405280838152602001848152602001600081526020013373ffffffffffffffffffffffffffffffffffffffff16815260200142815260200160011515815250905060098190806001815401808255809150509060018203906000526020600020906006020160009091929091909150600082015181600001556020820151816001019080519060200190610a199291906132fe565b506040820151816002015560608201518160030160006101000a81548173ffffffffffffffffffffffffffffffffffffffff021916908373ffffffffffffffffffffffffffffffffffffffff1602179055506080820151816004015560a08201518160050160006101000a81548160ff0219169083151502179055505050506002600083815260200190815260200160002060405180604001604052803373ffffffffffffffffffffffffffffffffffffffff168152602001428152509080600181540180825580915050906001820390600052602060002090600202016000909192909190915060008201518160000160006101000a81548173ffffffffffffffffffffffffffffffffffffffff021916908373ffffffffffffffffffffffffffffffffffffffff160217905550602082015181600101555050506003600083815260200190815260200160002060405180606001604052803373ffffffffffffffffffffffffffffffffffffffff168152602001868152602001428152509080600181540180825580915050906001820390600052602060002090600302016000909192909190915060008201518160000160006101000a81548173ffffffffffffffffffffffffffffffffffffffff021916908373ffffffffffffffffffffffffffffffffffffffff1602179055506020820151816001019080519060200190610c279291906132fe565b5060408201518160020155505050600460003373ffffffffffffffffffffffffffffffffffffffff1673ffffffffffffffffffffffffffffffffffffffff168152602001908152602001600020600d549080600181540180825580915050906001820390600052602060002001600090919290919091505550600660003373ffffffffffffffffffffffffffffffffffffffff1673ffffffffffffffffffffffffffffffffffffffff168152602001908152602001600020600d54908060018154018082558091505090600182039060005260206000200160009091929091909150555060008090505b600880549050811015610dd0573373ffffffffffffffffffffffffffffffffffffffff1660088281548110610d4257fe5b906000526020600020906006020160020160009054906101000a900473ffffffffffffffffffffffffffffffffffffffff1673ffffffffffffffffffffffffffffffffffffffff161415610dc35760088181548110610d9d57fe5b906000526020600020906006020160040160008154809291906001019190505550610dd0565b8080600101915050610d11565b5050505050565b600b60009054906101000a900473ffffffffffffffffffffffffffffffffffffffff1681565b60008060008090505b6002600085815260200190815260200160002080549050811015610ebd57600260008581526020019081526020016000208181548110610e4257fe5b906000526020600020906002020160000160009054906101000a900473ffffffffffffffffffffffffffffffffffffffff1673ffffffffffffffffffffffffffffffffffffffff168573ffffffffffffffffffffffffffffffffffffffff161415610eb05760019150610ebd565b8080600101915050610e06565b508091505092915050565b600d5481565b600047905090565b600060026000838152602001908152602001600020600081548110610ef757fe5b906000526020600020906002020160000160009054906101000a900473ffffffffffffffffffffffffffffffffffffffff1690508073ffffffffffffffffffffffffffffffffffffffff163373ffffffffffffffffffffffffffffffffffffffff161415610f9a576040517f08c379a0000000000000000000000000000000000000000000000000000000008152600401610f9190614247565b60405180910390fd5b60006002600084815260200190815260200160002080549050905060008090505b8181101561111657600260008581526020019081526020016000208181548110610fe157fe5b906000526020600020906002020160000160009054906101000a900473ffffffffffffffffffffffffffffffffffffffff1673ffffffffffffffffffffffffffffffffffffffff163373ffffffffffffffffffffffffffffffffffffffff1614156111095760026000858152602001908152602001600020818154811061106457fe5b906000526020600020906002020160000160009054906101000a900473ffffffffffffffffffffffffffffffffffffffff1673ffffffffffffffffffffffffffffffffffffffff163373ffffffffffffffffffffffffffffffffffffffff161415611104576040517f08c379a00000000000000000000000000000000000000000000000000000000081526004016110fb906142e7565b60405180910390fd5b611116565b8080600101915050610fbb565b506002600084815260200190815260200160002060405180604001604052803373ffffffffffffffffffffffffffffffffffffffff168152602001428152509080600181540180825580915050906001820390600052602060002090600202016000909192909190915060008201518160000160006101000a81548173ffffffffffffffffffffffffffffffffffffffff021916908373ffffffffffffffffffffffffffffffffffffffff1602179055506020820151816001015550505060008090505b6008805490508110156112c5578273ffffffffffffffffffffffffffffffffffffffff166008828154811061120b57fe5b906000526020600020906006020160020160009054906101000a900473ffffffffffffffffffffffffffffffffffffffff1673ffffffffffffffffffffffffffffffffffffffff1614156112b85760016008828154811061126857fe5b90600052602060002090600602016003016000828254019250508190555060016008828154811061129557fe5b9060005260206000209060060201600501600082825401925050819055506112c5565b80806001019150506111da565b50505050565b6000600980549050905090565b600066038d7ea4c680009050600083820290506014841015806112fc575060008414155b8061130657508281145b611345576040517f08c379a000000000000000000000000000000000000000000000000000000000815260040161133c906142c7565b60405180910390fd5b60008090505b6008805490508110156114ef573373ffffffffffffffffffffffffffffffffffffffff166008828154811061137c57fe5b906000526020600020906006020160020160009054906101000a900473ffffffffffffffffffffffffffffffffffffffff1673ffffffffffffffffffffffffffffffffffffffff1614156114e2576014600882815481106113d957fe5b9060005260206000209060060201600501541015806114155750846008828154811061140157fe5b906000526020600020906006020160050154115b611454576040517f08c379a000000000000000000000000000000000000000000000000000000000815260040161144b90614207565b60405180910390fd5b3373ffffffffffffffffffffffffffffffffffffffff1673ffffffffffffffffffffffffffffffffffffffff166108fc859081150290604051600060405180830381858888f193505050501580156114b0573d6000803e3d6000fd5b5084600882815481106114bf57fe5b9060005260206000209060060201600501600082825403925050819055506114ef565b808060010191505061134b565b5050505050565b6000600160008373ffffffffffffffffffffffffffffffffffffffff1673ffffffffffffffffffffffffffffffffffffffff16815260200190815260200160002060008154811061154357fe5b906000526020600020906002020160000160009054906101000a900473ffffffffffffffffffffffffffffffffffffffff1690506000600160008473ffffffffffffffffffffffffffffffffffffffff1673ffffffffffffffffffffffffffffffffffffffff1681526020019081526020016000208054905090508273ffffffffffffffffffffffffffffffffffffffff163373ffffffffffffffffffffffffffffffffffffffff16141561162d576040517f08c379a000000000000000000000000000000000000000000000000000000000815260040161162490614267565b60405180910390fd5b60008090505b818110156117e657600160008573ffffffffffffffffffffffffffffffffffffffff1673ffffffffffffffffffffffffffffffffffffffff168152602001908152602001600020818154811061168557fe5b906000526020600020906002020160000160009054906101000a900473ffffffffffffffffffffffffffffffffffffffff1673ffffffffffffffffffffffffffffffffffffffff163373ffffffffffffffffffffffffffffffffffffffff1614156117d957600160008573ffffffffffffffffffffffffffffffffffffffff1673ffffffffffffffffffffffffffffffffffffffff168152602001908152602001600020818154811061173457fe5b906000526020600020906002020160000160009054906101000a900473ffffffffffffffffffffffffffffffffffffffff1673ffffffffffffffffffffffffffffffffffffffff163373ffffffffffffffffffffffffffffffffffffffff1614156117d4576040517f08c379a00000000000000000000000000000000000000000000000000000000081526004016117cb90614227565b60405180910390fd5b6117e6565b8080600101915050611633565b50600160008473ffffffffffffffffffffffffffffffffffffffff1673ffffffffffffffffffffffffffffffffffffffff16815260200190815260200160002060405180604001604052803373ffffffffffffffffffffffffffffffffffffffff168152602001428152509080600181540180825580915050906001820390600052602060002090600202016000909192909190915060008201518160000160006101000a81548173ffffffffffffffffffffffffffffffffffffffff021916908373ffffffffffffffffffffffffffffffffffffffff1602179055506020820151816001015550505060008090505b6008805490508110156119c1578273ffffffffffffffffffffffffffffffffffffffff166008828154811061190757fe5b906000526020600020906006020160020160009054906101000a900473ffffffffffffffffffffffffffffffffffffffff1673ffffffffffffffffffffffffffffffffffffffff1614156119b45760016008828154811061196457fe5b90600052602060002090600602016003016000828254019250508190555060016008828154811061199157fe5b9060005260206000209060060201600501600082825401925050819055506119c1565b80806001019150506118d6565b50505050565b6000803373ffffffffffffffffffffffffffffffffffffffff1673ffffffffffffffffffffffffffffffffffffffff16815260200190815260200160002060009054906101000a900460ff1615611a53576040517f08c379a0000000000000000000000000000000000000000000000000000000008152600401611a4a90614287565b60405180910390fd5b60016000803373ffffffffffffffffffffffffffffffffffffffff1673ffffffffffffffffffffffffffffffffffffffff16815260200190815260200160002060006101000a81548160ff02191690831515021790555080600760003373ffffffffffffffffffffffffffffffffffffffff1673ffffffffffffffffffffffffffffffffffffffff1681526020019081526020016000209080519060200190611afd929190613230565b50600c60008154809291906001019190505550611b1861337e565b6040518060c001604052808381526020016040518060200160405280600081525081526020013373ffffffffffffffffffffffffffffffffffffffff168152602001600081526020016000815260200160008152509050600881908060018154018082558091505090600182039060005260206000209060060201600090919290919091506000820151816000019080519060200190611bb99291906132fe565b506020820151816001019080519060200190611bd69291906132fe565b5060408201518160020160006101000a81548173ffffffffffffffffffffffffffffffffffffffff021916908373ffffffffffffffffffffffffffffffffffffffff160217905550606082015181600301556080820151816004015560a08201518160050155505050600160003373ffffffffffffffffffffffffffffffffffffffff1673ffffffffffffffffffffffffffffffffffffffff16815260200190815260200160002060405180604001604052803373ffffffffffffffffffffffffffffffffffffffff168152602001428152509080600181540180825580915050906001820390600052602060002090600202016000909192909190915060008201518160000160006101000a81548173ffffffffffffffffffffffffffffffffffffffff021916908373ffffffffffffffffffffffffffffffffffffffff160217905550602082015181600101555050505050565b60606000600160008473ffffffffffffffffffffffffffffffffffffffff1673ffffffffffffffffffffffffffffffffffffffff168152602001908152602001600020805490509050606081604051908082528060200260200182016040528015611db157816020015b611d9e6133ca565b815260200190600190039081611d965790505b50905060008090505b82811015611ea957600160008673ffffffffffffffffffffffffffffffffffffffff1673ffffffffffffffffffffffffffffffffffffffff1681526020019081526020016000208181548110611e0c57fe5b90600052602060002090600202016040518060400160405290816000820160009054906101000a900473ffffffffffffffffffffffffffffffffffffffff1673ffffffffffffffffffffffffffffffffffffffff1673ffffffffffffffffffffffffffffffffffffffff168152602001600182015481525050828281518110611e9157fe5b60200260200101819052508080600101915050611dba565b508092505050919050565b606060008060008060006060806000806000806000606060008090505b6008805490508110156121ea578f73ffffffffffffffffffffffffffffffffffffffff1660088281548110611f0257fe5b906000526020600020906006020160020160009054906101000a900473ffffffffffffffffffffffffffffffffffffffff1673ffffffffffffffffffffffffffffffffffffffff1614156121dd57600060088281548110611f5f57fe5b90600052602060002090600602019050600160008260020160009054906101000a900473ffffffffffffffffffffffffffffffffffffffff1673ffffffffffffffffffffffffffffffffffffffff1673ffffffffffffffffffffffffffffffffffffffff168152602001908152602001600020805480602002602001604051908101604052809291908181526020016000905b8282101561208457838290600052602060002090600202016040518060400160405290816000820160009054906101000a900473ffffffffffffffffffffffffffffffffffffffff1673ffffffffffffffffffffffffffffffffffffffff1673ffffffffffffffffffffffffffffffffffffffff16815260200160018201548152505081526020019060010190611ff2565b5050505092506000600160008360020160009054906101000a900473ffffffffffffffffffffffffffffffffffffffff1673ffffffffffffffffffffffffffffffffffffffff1673ffffffffffffffffffffffffffffffffffffffff168152602001908152602001600020805490509050816000018054600181600116156101000203166002900480601f01602080910402602001604051908101604052809291908181526020018280546001816001161561010002031660029004801561218d5780601f106121625761010080835404028352916020019161218d565b820191906000526020600020905b81548152906001019060200180831161217057829003601f168201915b505050505099508160030154985081600401549750816005015496508160020160009054906101000a900473ffffffffffffffffffffffffffffffffffffffff16955060018103945050506121ea565b8080600101915050611ed1565b50868686868686869d509d509d509d509d509d509d5050505050505050919395979092949650565b60008060008090505b600160008573ffffffffffffffffffffffffffffffffffffffff1673ffffffffffffffffffffffffffffffffffffffff1681526020019081526020016000208054905081101561232a57600160008573ffffffffffffffffffffffffffffffffffffffff1673ffffffffffffffffffffffffffffffffffffffff16815260200190815260200160002081815481106122af57fe5b906000526020600020906002020160000160009054906101000a900473ffffffffffffffffffffffffffffffffffffffff1673ffffffffffffffffffffffffffffffffffffffff168573ffffffffffffffffffffffffffffffffffffffff16141561231d576001915061232a565b808060010191505061221b565b508091505092915050565b60606000600460008473ffffffffffffffffffffffffffffffffffffffff1673ffffffffffffffffffffffffffffffffffffffff16815260200190815260200160002080549050905060006060826040519080825280602002602001820160405280156123bc57816020015b6123a96133fa565b8152602001906001900390816123a15790505b50905060008090505b838110156125a557600460008773ffffffffffffffffffffffffffffffffffffffff1673ffffffffffffffffffffffffffffffffffffffff168152602001908152602001600020818154811061241757fe5b9060005260206000200154925060006009848154811061243357fe5b90600052602060002090600602019050806040518060c001604052908160008201548152602001600182018054600181600116156101000203166002900480601f0160208091040260200160405190810160405280929190818152602001828054600181600116156101000203166002900480156124f25780601f106124c7576101008083540402835291602001916124f2565b820191906000526020600020905b8154815290600101906020018083116124d557829003601f168201915b50505050508152602001600282015481526020016003820160009054906101000a900473ffffffffffffffffffffffffffffffffffffffff1673ffffffffffffffffffffffffffffffffffffffff1673ffffffffffffffffffffffffffffffffffffffff168152602001600482015481526020016005820160009054906101000a900460ff16151515158152505083838151811061258c57fe5b60200260200101819052505080806001019150506123c5565b50809350505050919050565b60606000600560008473ffffffffffffffffffffffffffffffffffffffff1673ffffffffffffffffffffffffffffffffffffffff168152602001908152602001600020805490509050600060608260405190808252806020026020018201604052801561263857816020015b6126256133fa565b81526020019060019003908161261d5790505b50905060008090505b8381101561282157600560008773ffffffffffffffffffffffffffffffffffffffff1673ffffffffffffffffffffffffffffffffffffffff168152602001908152602001600020818154811061269357fe5b906000526020600020015492506000600984815481106126af57fe5b90600052602060002090600602019050806040518060c001604052908160008201548152602001600182018054600181600116156101000203166002900480601f01602080910402602001604051908101604052809291908181526020018280546001816001161561010002031660029004801561276e5780601f106127435761010080835404028352916020019161276e565b820191906000526020600020905b81548152906001019060200180831161275157829003601f168201915b50505050508152602001600282015481526020016003820160009054906101000a900473ffffffffffffffffffffffffffffffffffffffff1673ffffffffffffffffffffffffffffffffffffffff1673ffffffffffffffffffffffffffffffffffffffff168152602001600482015481526020016005820160009054906101000a900460ff16151515158152505083838151811061280857fe5b6020026020010181905250508080600101915050612641565b50809350505050919050565b60606000600980549050905060608160405190808252806020026020018201604052801561287557816020015b612862613448565b81526020019060019003908161285a5790505b50905060008090505b82811015612b435760006009828154811061289557fe5b9060005260206000209060060201905060011515600983815481106128b657fe5b906000526020600020906006020160050160009054906101000a900460ff1615151415612b355780600001548383815181106128ee57fe5b6020026020010151600001818152505061292b8160030160009054906101000a900473ffffffffffffffffffffffffffffffffffffffff16612b4c565b83838151811061293757fe5b602002602001015160200181905250806001018054600181600116156101000203166002900480601f0160208091040260200160405190810160405280929190818152602001828054600181600116156101000203166002900480156129de5780601f106129b3576101008083540402835291602001916129de565b820191906000526020600020905b8154815290600101906020018083116129c157829003601f168201915b50505050508383815181106129ef57fe5b6020026020010151604001819052508060020154838381518110612a0f57fe5b602002602001015160600181815250508060030160009054906101000a900473ffffffffffffffffffffffffffffffffffffffff16838381518110612a5057fe5b60200260200101516080019073ffffffffffffffffffffffffffffffffffffffff16908173ffffffffffffffffffffffffffffffffffffffff16815250508060040154838381518110612a9f57fe5b602002602001015160a00181815250508060050160009054906101000a900460ff16838381518110612acd57fe5b602002602001015160c0019015159081151581525050612af08160000154612c2d565b838381518110612afc57fe5b602002602001015160e00181905250612b188160000154612da3565b838381518110612b2457fe5b602002602001015161010001819052505b50808060010191505061287e565b50809250505090565b6060600760008373ffffffffffffffffffffffffffffffffffffffff1673ffffffffffffffffffffffffffffffffffffffff1681526020019081526020016000208054600181600116156101000203166002900480601f016020809104026020016040519081016040528092919081815260200182805460018160011615610100020316600290048015612c215780601f10612bf657610100808354040283529160200191612c21565b820191906000526020600020905b815481529060010190602001808311612c0457829003601f168201915b50505050509050919050565b606080612c3983612ee6565b905060608151604051908082528060200260200182016040528015612c7857816020015b612c656134ac565b815260200190600190039081612c5d5790505b50905060005b8251811015612d9857828181518110612c9357fe5b602002602001015160000151828281518110612cab57fe5b60200260200101516000019073ffffffffffffffffffffffffffffffffffffffff16908173ffffffffffffffffffffffffffffffffffffffff1681525050612d09838281518110612cf857fe5b602002602001015160000151612b4c565b828281518110612d1557fe5b602002602001015160200181905250828181518110612d3057fe5b602002602001015160200151828281518110612d4857fe5b602002602001015160400181905250828181518110612d6357fe5b602002602001015160400151828281518110612d7b57fe5b602002602001015160600181815250508080600101915050612c7e565b508092505050919050565b606080612daf836130b8565b905060608151604051908082528060200260200182016040528015612dee57816020015b612ddb6134ea565b815260200190600190039081612dd35790505b50905060005b8251811015612edb57828181518110612e0957fe5b602002602001015160000151828281518110612e2157fe5b60200260200101516000019073ffffffffffffffffffffffffffffffffffffffff16908173ffffffffffffffffffffffffffffffffffffffff1681525050612e7f838281518110612e6e57fe5b602002602001015160000151612b4c565b828281518110612e8b57fe5b602002602001015160200181905250828181518110612ea657fe5b602002602001015160200151828281518110612ebe57fe5b602002602001015160400181815250508080600101915050612df4565b508092505050919050565b6060600060036000848152602001908152602001600020805490509050606081604051908082528060200260200182016040528015612f3f57816020015b612f2c613521565b815260200190600190039081612f245790505b50905060008090505b828110156130ad57600360008681526020019081526020016000208181548110612f6e57fe5b90600052602060002090600302016040518060600160405290816000820160009054906101000a900473ffffffffffffffffffffffffffffffffffffffff1673ffffffffffffffffffffffffffffffffffffffff1673ffffffffffffffffffffffffffffffffffffffff168152602001600182018054600181600116156101000203166002900480601f0160208091040260200160405190810160405280929190818152602001828054600181600116156101000203166002900480156130765780601f1061304b57610100808354040283529160200191613076565b820191906000526020600020905b81548152906001019060200180831161305957829003601f168201915b5050505050815260200160028201548152505082828151811061309557fe5b60200260200101819052508080600101915050612f48565b508092505050919050565b606060006002600084815260200190815260200160002080549050905060608160405190808252806020026020018201604052801561311157816020015b6130fe613558565b8152602001906001900390816130f65790505b50905060008090505b828110156131dd5760026000868152602001908152602001600020818154811061314057fe5b90600052602060002090600202016040518060400160405290816000820160009054906101000a900473ffffffffffffffffffffffffffffffffffffffff1673ffffffffffffffffffffffffffffffffffffffff1673ffffffffffffffffffffffffffffffffffffffff1681526020016001820154815250508282815181106131c557fe5b6020026020010181905250808060010191505061311a565b508092505050919050565b50805460018160011615610100020316600290046000825580601f1061320e575061322d565b601f01602090049060005260206000209081019061322c9190613588565b5b50565b828054600181600116156101000203166002900490600052602060002090601f016020900481019282601f1061327157805160ff191683800117855561329f565b8280016001018555821561329f579182015b8281111561329e578251825591602001919060010190613283565b5b5090506132ac9190613588565b5090565b6040518060c00160405280600081526020016060815260200160008152602001600073ffffffffffffffffffffffffffffffffffffffff168152602001600081526020016000151581525090565b828054600181600116156101000203166002900490600052602060002090601f016020900481019282601f1061333f57805160ff191683800117855561336d565b8280016001018555821561336d579182015b8281111561336c578251825591602001919060010190613351565b5b50905061337a9190613588565b5090565b6040518060c001604052806060815260200160608152602001600073ffffffffffffffffffffffffffffffffffffffff1681526020016000815260200160008152602001600081525090565b6040518060400160405280600073ffffffffffffffffffffffffffffffffffffffff168152602001600081525090565b6040518060c00160405280600081526020016060815260200160008152602001600073ffffffffffffffffffffffffffffffffffffffff168152602001600081526020016000151581525090565b60405180610120016040528060008152602001606081526020016060815260200160008152602001600073ffffffffffffffffffffffffffffffffffffffff1681526020016000815260200160001515815260200160608152602001606081525090565b6040518060800160405280600073ffffffffffffffffffffffffffffffffffffffff1681526020016060815260200160608152602001600081525090565b6040518060600160405280600073ffffffffffffffffffffffffffffffffffffffff16815260200160608152602001600081525090565b6040518060600160405280600073ffffffffffffffffffffffffffffffffffffffff16815260200160608152602001600081525090565b6040518060400160405280600073ffffffffffffffffffffffffffffffffffffffff168152602001600081525090565b6135aa91905b808211156135a657600081600090555060010161358e565b5090565b90565b6000813590506135bc816145b8565b92915050565b600082601f8301126135d357600080fd5b81356135e66135e18261434f565b614322565b9150808252602083016020830185838301111561360257600080fd5b61360d83828461452a565b50505092915050565b600081359050613625816145cf565b92915050565b60006020828403121561363d57600080fd5b600061364b848285016135ad565b91505092915050565b6000806040838503121561366757600080fd5b6000613675858286016135ad565b9250506020613686858286016135ad565b9150509250929050565b600080604083850312156136a357600080fd5b60006136b1858286016135ad565b92505060206136c285828601613616565b9150509250929050565b6000602082840312156136de57600080fd5b600082013567ffffffffffffffff8111156136f857600080fd5b613704848285016135c2565b91505092915050565b6000806040838503121561372057600080fd5b600083013567ffffffffffffffff81111561373a57600080fd5b613746858286016135c2565b925050602083013567ffffffffffffffff81111561376357600080fd5b61376f858286016135c2565b9150509250929050565b60006020828403121561378b57600080fd5b600061379984828501613616565b91505092915050565b600080604083850312156137b557600080fd5b60006137c385828601613616565b92505060206137d485828601613616565b9150509250929050565b60006137ea8383613e0e565b905092915050565b60006137fe8383613e78565b905092915050565b60006138128383613ec8565b60408301905092915050565b600061382a8383613ef7565b905092915050565b600061383e8383613f80565b905092915050565b613857613852826144e2565b61456c565b82525050565b613866816144d0565b82525050565b613875816144d0565b82525050565b6000613886826143cb565b6138908185614459565b9350836020820285016138a28561437b565b8060005b858110156138de57848403895281516138bf85826137de565b94506138ca83614418565b925060208a019950506001810190506138a6565b50829750879550505050505092915050565b60006138fb826143d6565b613905818561446a565b9350836020820285016139178561438b565b8060005b85811015613953578484038952815161393485826137f2565b945061393f83614425565b925060208a0199505060018101905061391b565b50829750879550505050505092915050565b6000613970826143e1565b61397a818561447b565b93506139858361439b565b8060005b838110156139b657815161399d8882613806565b97506139a883614432565b925050600181019050613989565b5085935050505092915050565b60006139ce826143ec565b6139d8818561448c565b9350836020820285016139ea856143ab565b8060005b85811015613a265784840389528151613a07858261381e565b9450613a128361443f565b925060208a019950506001810190506139ee565b50829750879550505050505092915050565b6000613a43826143f7565b613a4d818561449d565b935083602082028501613a5f856143bb565b8060005b85811015613a9b5784840389528151613a7c8582613832565b9450613a878361444c565b925060208a01995050600181019050613a63565b50829750879550505050505092915050565b613ab6816144f4565b82525050565b613ac5816144f4565b82525050565b6000613ad68261440d565b613ae081856144bf565b9350613af0818560208601614539565b613af98161459a565b840191505092915050565b6000613b0f82614402565b613b1981856144ae565b9350613b29818560208601614539565b613b328161459a565b840191505092915050565b6000613b4882614402565b613b5281856144bf565b9350613b62818560208601614539565b613b6b8161459a565b840191505092915050565b6000613b836035836144bf565b91507f4469646e27742072656163682072656465656d20726571756972656d656e747360008301527f206f722076616c69646174696f6e206661696c656400000000000000000000006020830152604082019050919050565b6000613be9601c836144bf565b91507f596f7520616c726561647920666f6c6c6f7720746865207573657221000000006000830152602082019050919050565b6000613c296012836144bf565b91507f596f75206f776e207468697320706f73742100000000000000000000000000006000830152602082019050919050565b6000613c696020836144bf565b91507f796f752063616e277420666f6c6f7720796f7572206f776e206163636f756e746000830152602082019050919050565b6000613ca9600e836144bf565b91507f416c7265616479206120757365720000000000000000000000000000000000006000830152602082019050919050565b6000613ce96023836144bf565b91507f4f6e6c7920746865206f776e65722063616e2064656c6574652074686973207060008301527f6f737400000000000000000000000000000000000000000000000000000000006020830152604082019050919050565b6000613d4f605c836144bf565b91507f696e7075742076616c7565206973206e6f7420616c6c6f7765642c206f6e6c7960008301527f20657175616c206f722067726561746572207468616e20323020697320616c6c60208301527f6f77656420616e6420696e707574206d757374206e6f74207a65726f000000006040830152606082019050919050565b6000613ddb601b836144bf565b91507f596f7520616c7265616479206c696b65207468697320706f73742100000000006000830152602082019050919050565b6000608083016000830151613e26600086018261385d565b5060208301518482036020860152613e3e8282613b04565b91505060408301518482036040860152613e588282613b04565b9150506060830151613e6d606086018261405a565b508091505092915050565b6000606083016000830151613e90600086018261385d565b5060208301518482036020860152613ea88282613b04565b9150506040830151613ebd604086018261405a565b508091505092915050565b604082016000820151613ede600085018261385d565b506020820151613ef1602085018261405a565b50505050565b600060c083016000830151613f0f600086018261405a565b5060208301518482036020860152613f278282613b04565b9150506040830151613f3c604086018261405a565b506060830151613f4f606086018261385d565b506080830151613f62608086018261405a565b5060a0830151613f7560a0860182613aad565b508091505092915050565b600061012083016000830151613f99600086018261405a565b5060208301518482036020860152613fb18282613b04565b91505060408301518482036040860152613fcb8282613b04565b9150506060830151613fe0606086018261405a565b506080830151613ff3608086018261385d565b5060a083015161400660a086018261405a565b5060c083015161401960c0860182613aad565b5060e083015184820360e0860152614031828261387b565b91505061010083015184820361010086015261404d82826138f0565b9150508091505092915050565b61406381614520565b82525050565b61407281614520565b82525050565b61408961408482614520565b614590565b82525050565b600061409b8286614078565b6020820191506140ab8285613846565b6014820191506140bb8284614078565b602082019150819050949350505050565b60006020820190506140e1600083018461386c565b92915050565b600060208201905081810360008301526141018184613965565b905092915050565b6000602082019050818103600083015261412381846139c3565b905092915050565b600060208201905081810360008301526141458184613a38565b905092915050565b60006020820190506141626000830184613abc565b92915050565b600060208201905081810360008301526141828184613b3d565b905092915050565b600060e08201905081810360008301526141a4818a613acb565b90506141b36020830189614069565b6141c06040830188614069565b6141cd6060830187614069565b6141da608083018661386c565b6141e760a0830185614069565b81810360c08301526141f98184613965565b905098975050505050505050565b6000602082019050818103600083015261422081613b76565b9050919050565b6000602082019050818103600083015261424081613bdc565b9050919050565b6000602082019050818103600083015261426081613c1c565b9050919050565b6000602082019050818103600083015261428081613c5c565b9050919050565b600060208201905081810360008301526142a081613c9c565b9050919050565b600060208201905081810360008301526142c081613cdc565b9050919050565b600060208201905081810360008301526142e081613d42565b9050919050565b6000602082019050818103600083015261430081613dce565b9050919050565b600060208201905061431c6000830184614069565b92915050565b6000604051905081810181811067ffffffffffffffff8211171561434557600080fd5b8060405250919050565b600067ffffffffffffffff82111561436657600080fd5b601f19601f8301169050602081019050919050565b6000819050602082019050919050565b6000819050602082019050919050565b6000819050602082019050919050565b6000819050602082019050919050565b6000819050602082019050919050565b600081519050919050565b600081519050919050565b600081519050919050565b600081519050919050565b600081519050919050565b600081519050919050565b600081519050919050565b6000602082019050919050565b6000602082019050919050565b6000602082019050919050565b6000602082019050919050565b6000602082019050919050565b600082825260208201905092915050565b600082825260208201905092915050565b600082825260208201905092915050565b600082825260208201905092915050565b600082825260208201905092915050565b600082825260208201905092915050565b600082825260208201905092915050565b60006144db82614500565b9050919050565b60006144ed82614500565b9050919050565b60008115159050919050565b600073ffffffffffffffffffffffffffffffffffffffff82169050919050565b6000819050919050565b82818337600083830152505050565b60005b8381101561455757808201518184015260208101905061453c565b83811115614566576000848401525b50505050565b60006145778261457e565b9050919050565b6000614589826145ab565b9050919050565b6000819050919050565b6000601f19601f8301169050919050565b60008160601b9050919050565b6145c1816144d0565b81146145cc57600080fd5b50565b6145d881614520565b81146145e357600080fd5b5056fea365627a7a72315820dbf70817b61f16def2fc178ff98da62dd2614845d03b196754a4d236709365d06c6578706572696d656e74616cf564736f6c63430005100040",
  "source": "pragma solidity >=0.4.21 <0.6.0;\npragma experimental ABIEncoderV2;\n\ncontract Lixtagram {\n\n    struct Followers {\n        address follower;\n        uint time;\n    }\n\n    struct User {\n        string name;\n        string profilePic;\n        address uadd;\n        uint256 tokens;\n        uint256 postsCount;\n        uint256 redeemTokens;\n    }\n\n    struct Comments {\n        address adr;\n        string comment;\n        uint time;\n    }\n\n    struct Likers {\n        address adr;\n        uint time;\n    }\n\n    struct FilterLikers {\n        address adr;\n        string adrName;\n        uint time;\n    }\n\n    struct FilterComments {\n        address adr;\n        string adrName;\n        string comment;\n        uint time;\n    }\n\n    struct Post {\n        uint id;\n        string imgIpfsHash;\n        uint256 likes;\n        address owner;\n        uint timestamp;\n        bool isPublic;\n    }\n\n    struct ViewPost {\n        uint id;\n        string ownerName;\n        string imgIpfsHash;\n        uint256 likes;\n        address owner;\n        uint timestamp;\n        bool isPublic;\n        FilterComments[] comments;\n        FilterLikers[] likers;\n    }\n\n    //User\n    mapping(address => bool) private users;\n    mapping(address => Followers[]) private followers;\n    mapping(uint => Likers[]) private likers;\n    mapping(uint => Comments[]) private comments;\n    mapping(address => uint[]) private userPostPublicIndex;\n    mapping(address => uint[]) private userPostPrivateIndex;\n    mapping(address => uint[]) private userAllPost;\n    mapping(address => string) private username;\n\n    User[] private peeps;\n    Post[] private posts;\n   \n    //constructor \n    string public name;\n    address public manager;\n    uint256 public userCount;\n    uint public allPostCount;\n\n    //Community chat\n    string public chatHash;\n\n    constructor() public {\n        name = \"Lixtagram\";\n        manager = msg.sender;\n        userCount = 0;\n        allPostCount = 0;\n    }\n\n    function createPost(\n        string memory description,\n        string memory imgIpfsHash\n    ) public payable {\n        allPostCount++;\n        if(posts.length == 0){\n            allPostCount = 0;\n        }\n        uint randomId = uint(keccak256(abi.encodePacked(now, msg.sender, block.difficulty)));\n            \n        Post memory newPost = Post({\n            id: randomId,\n            imgIpfsHash: imgIpfsHash,\n            likes: 0,\n            owner: msg.sender,\n            timestamp: now,\n            isPublic: true\n        });\n        posts.push(newPost);\n\n        likers[randomId].push(Likers(msg.sender, now));\n        comments[randomId].push(Comments(msg.sender, description ,now));\n        userPostPublicIndex[msg.sender].push(allPostCount);\n        userAllPost[msg.sender].push(allPostCount);\n        for (uint256 i = 0; i < peeps.length; i++) {\n            if (peeps[i].uadd == msg.sender) {\n                peeps[i].postsCount++;\n                break;\n            }\n        }\n    }\n\n    function signUp(string memory _name) public payable {\n        require(!users[msg.sender], \"Already a user\");\n        users[msg.sender] = true;\n        username[msg.sender] = _name;\n        userCount++;\n        User memory newUser = User({\n            name: _name,\n            profilePic: \"\",\n            uadd: msg.sender,\n            tokens: 0,\n            redeemTokens: 0,\n            postsCount: 0\n        });\n        peeps.push(newUser);\n        followers[msg.sender].push(Followers(msg.sender, now));\n    }\n\n    function isUser(address user) private view returns (bool) {\n        return users[user];\n    }\n\n\n    function isLiker(address user, uint _id) public view returns(bool){\n        bool f;\n        for(uint i = 0; i < likers[_id].length; i++){\n            if(user == likers[_id][i].adr){\n                f = true;\n                break;\n            }\n        }\n        return f;\n    }\n\n    function isFollower(address user, address owner) public view returns(bool){\n        bool f;\n        for(uint i = 0; i < followers[owner].length; i++){\n            if(user == followers[owner][i].follower){\n                f = true;\n                break;\n            }\n        }\n        return f;\n    }\n\n    function followUser(address adr) public payable{\n        address author = followers[adr][0].follower;\n        uint len = followers[adr].length;\n        require(msg.sender !=  adr, \"you can't folow your own account\");\n        for(uint i = 0; i < len; i++){\n            if(msg.sender == followers[adr][i].follower){\n                require(msg.sender !=  followers[adr][i].follower, \"You already follow the user!\");\n                break;\n            }\n        }\n\n        followers[adr].push(Followers(msg.sender, now));\n        for (uint256 i = 0; i < peeps.length; i++) {\n            if (peeps[i].uadd == author) {\n                peeps[i].tokens += 1;\n                peeps[i].redeemTokens += 1;\n                break;\n            }\n        }\n    }\n\n    function likePost(uint _id) public payable{\n        address author = likers[_id][0].adr;\n        require(msg.sender != author, \"You own this post!\");\n        uint len = likers[_id].length;\n        for(uint i = 0; i < len; i++){\n            if(msg.sender == likers[_id][i].adr){\n                require(msg.sender !=  likers[_id][i].adr, \"You already like this post!\");\n                break;\n            }\n        }\n        likers[_id].push(Likers(msg.sender, now));\n        for (uint256 i = 0; i < peeps.length; i++) {\n            if (peeps[i].uadd == author) {\n                peeps[i].tokens += 1;\n                peeps[i].redeemTokens += 1;\n                break;\n            }\n        }\n    }\n\n    function getUserPublicPost(address adr) public view returns (Post[] memory){\n        uint len = userPostPublicIndex[adr].length;\n        uint index;\n        Post[] memory p = new Post[](len);\n        for(uint i = 0; i < len; i++){\n            index = userPostPublicIndex[adr][i];\n            Post storage post = posts[index];\n            p[i] = post;\n        }\n        return p;\n    }\n\n    function getUserPrivatePost(address adr) public view returns (Post[] memory){\n        uint len = userPostPrivateIndex[adr].length;\n        uint index;\n        Post[] memory p = new Post[](len);\n        for(uint i = 0; i < len; i++){\n            index = userPostPrivateIndex[adr][i];\n            Post storage post = posts[index];\n            p[i] = post;\n        }\n        return p;\n    }\n\n    function getComments(uint _id) private view returns (Comments[] memory){\n      uint len  = comments[_id].length;\n      Comments[] memory c = new Comments[](len);\n      for(uint i =0 ; i < len; i++){\n           c[i] = comments[_id][i];           \n      }\n      return c;\n    }\n\n    function getViewPost() public view returns (ViewPost[] memory){\n        uint postLength = posts.length;\n        ViewPost[] memory v = new ViewPost[](postLength);\n        for (uint i = 0; i < postLength; i++) {\n            Post storage post = posts[i];\n            if(posts[i].isPublic == true){\n                v[i].id = post.id;\n                v[i].ownerName = getUsername(post.owner);\n                v[i].imgIpfsHash = post.imgIpfsHash;\n                v[i].likes = post.likes;\n                v[i].owner = post.owner;\n                v[i].timestamp = post.timestamp;\n                v[i].isPublic = post.isPublic;\n                v[i].comments = getViewPostComments(post.id);\n                v[i].likers = getViewPostLikers(post.id);\n            }\n        }\n        return v;\n    }\n\n    function getViewPostComments(uint _id) private view returns (FilterComments[] memory){\n        Comments[] memory c = getComments(_id);\n        FilterComments[] memory nc = new FilterComments[](c.length);\n        for(uint i; i < c.length; i++){\n            nc[i].adr = c[i].adr;\n            nc[i].adrName = getUsername(c[i].adr); \n            nc[i].comment = c[i].comment; \n            nc[i].time = c[i].time;\n        }\n        return nc;\n     }\n\n     function getViewPostLikers(uint _id) private view returns (FilterLikers[] memory){\n        Likers[] memory l = getLikes(_id);\n        FilterLikers[] memory nl = new FilterLikers[](l.length);\n        for(uint i; i < l.length; i++){\n            nl[i].adr = l[i].adr;\n            nl[i].adrName = getUsername(l[i].adr);\n            nl[i].time = l[i].time;\n        }\n        return nl;\n     }\n     \n\n    function getLikes(uint _id) private view returns (Likers[] memory){\n      uint len  = likers[_id].length;\n      Likers[] memory l = new Likers[](len);\n      for(uint i =0 ; i < len; i++){\n           l[i] = likers[_id][i];           \n      }\n      return l;\n    }\n\n    function getFollowers(address adr) public view returns (Followers[] memory){\n      uint len  = followers[adr].length;\n      Followers[] memory f = new Followers[](len);\n      for(uint i =0 ; i < len; i++){\n           f[i] = followers[adr][i];           \n      }\n      return f;\n    }\n\n    function getUsername(address adr) private view returns (string memory){\n        return username[adr];\n    }\n\n    function getNumberOffollowwers(address adr) public view returns (uint){\n        return followers[adr].length;\n    }\n\n    // function getPostIsPublic() public view returns (Post[] memory){\n    //     uint postLength = posts.length;\n    //     Post[] memory p = new Post[](postLength);\n    //     for (uint i = 0; i < postLength; i++) {\n    //         Post storage post = posts[i];\n    //         if(posts[i].isPublic == true){\n    //             p[i] = post;\n    //         }\n    //     }\n    //     return p;\n    // }\n\n    function getPostsCount() public view returns (uint256) {\n        return posts.length;\n    }\n\n    // function deletePost(uint256 index) public {\n    //     Post storage currPost = posts[index];\n    //     require(currPost.owner == msg.sender, \"You are not the owner of the post!\");\n    //     currPost.isPublic = false;\n    // }\n\n    function deletePost(uint id) public {\n        for(uint i = 0; i < posts.length; i++ ){\n            if(posts[id].id == id){\n                require(posts[i].owner == msg.sender, \"Only the owner can delete this post\" ); \n                delete posts[i];\n                break;\n            }\n        }\n        for (uint256 i = 0; i < peeps.length; i++) {\n            if (peeps[i].uadd == msg.sender) {\n                peeps[i].postsCount--;\n                break;\n            }\n        }\n    }\n    \n    // function getPostDetails(string memory postHash)\n    //     public\n    //     view\n    //     returns (uint, string memory, string memory,string memory, uint, address, uint, string memory, string memory, bool)\n    // {\n    //     for (uint256 i = 0; i < posts.length; i++) {\n    //         if ( keccak256(abi.encodePacked((posts[i].hash))) == keccak256(abi.encodePacked((postHash)))) {\n    //             Post storage post = posts[i];\n    //             return (\n    //                 post.id,\n    //                 post.hash,\n    //                 post.description,\n    //                 post.imgIpfsHash,\n    //                 post.likes,\n    //                 post.owner,\n    //                 post.timestamp,\n    //                 post.likerList,\n    //                 post.comments,\n    //                 post.isPublic\n    //             );\n    //         }\n    //     }\n    // }\n\n    function getUserDetails(address adr)\n        public\n        view\n        returns (string memory, uint256, uint256, uint256, address, uint256, Followers[] memory)\n    {\n        string memory n;\n        uint tokens;\n        uint postsCount;\n        uint redeemTokens;\n        address uadd;\n        uint followerCount;\n        Followers[] memory f;\n        for (uint256 i = 0; i < peeps.length; i++) {\n            if (peeps[i].uadd == adr) {\n                User storage user = peeps[i];\n                f = followers[user.uadd];\n                uint len  = followers[user.uadd].length;\n                n = user.name;\n                tokens = user.tokens;\n                postsCount = user.postsCount;\n                redeemTokens = user.redeemTokens;\n                uadd = user.uadd;\n                followerCount = len - 1;\n                break;\n            }\n        }\n        return (n, tokens, postsCount, redeemTokens, uadd, followerCount, f);\n    }\n \n    function redeemNTokens(uint256 ntokens, uint256 valueWie) public {\n        uint oneIsEqualToWie = 1000000000000000;\n        uint valueInWie = oneIsEqualToWie*ntokens;\n        require(ntokens >= 20 || ntokens != 0 || valueInWie == valueWie, \"input value is not allowed, only equal or greater than 20 is allowed and input must not zero\" ); \n        for (uint256 i = 0; i < peeps.length; i++) {\n            if (peeps[i].uadd == msg.sender) {\n                require(peeps[i].redeemTokens >= 20 || peeps[i].redeemTokens > ntokens, \"Didn't reach redeem requirements or validation failed\" ); \n                address(uint256(msg.sender)).transfer(valueWie);\n                peeps[i].redeemTokens -= ntokens;\n                break;\n            }\n        }\n    }\n\n    function setChatHash(string memory chash) public {\n        chatHash = chash;\n    }\n\n    function getContractBalance() public view returns (uint) {\n        return address(this).balance;\n    }\n    \n}\n",
  "sourcePath": "C:\\Users\\iRipple\\Desktop\\felix files\\lixtagram\\lixtagram\\src\\contracts\\Lixtagram.sol",
  "compiler": {
    "name": "solc",
    "version": "0.5.16+commit.9c3226ce.Emscripten.clang"
  },
  "schemaVersion": "3.4.6",
  "updatedAt": "2022-04-15T08:01:46.054Z",
  "networkType": "ethereum",
  "devdoc": {
    "methods": {}
  },
  "userdoc": {
    "methods": {}
  }
}