{
  "contractName": "Lixtagram",
  "abi": [
    {
      "inputs": [],
      "payable": false,
      "stateMutability": "nonpayable",
      "type": "constructor"
    },
    {
      "constant": true,
      "inputs": [],
      "name": "allPostCount",
      "outputs": [
        {
          "internalType": "uint256",
          "name": "",
          "type": "uint256"
        }
      ],
      "payable": false,
      "stateMutability": "view",
      "type": "function"
    },
    {
      "constant": true,
      "inputs": [],
      "name": "chatHash",
      "outputs": [
        {
          "internalType": "string",
          "name": "",
          "type": "string"
        }
      ],
      "payable": false,
      "stateMutability": "view",
      "type": "function"
    },
    {
      "constant": true,
      "inputs": [],
      "name": "manager",
      "outputs": [
        {
          "internalType": "address",
          "name": "",
          "type": "address"
        }
      ],
      "payable": false,
      "stateMutability": "view",
      "type": "function"
    },
    {
      "constant": true,
      "inputs": [],
      "name": "name",
      "outputs": [
        {
          "internalType": "string",
          "name": "",
          "type": "string"
        }
      ],
      "payable": false,
      "stateMutability": "view",
      "type": "function"
    },
    {
      "constant": true,
      "inputs": [],
      "name": "userCount",
      "outputs": [
        {
          "internalType": "uint256",
          "name": "",
          "type": "uint256"
        }
      ],
      "payable": false,
      "stateMutability": "view",
      "type": "function"
    },
    {
      "constant": false,
      "inputs": [
        {
          "internalType": "string",
          "name": "description",
          "type": "string"
        },
        {
          "internalType": "string",
          "name": "imgIpfsHash",
          "type": "string"
        }
      ],
      "name": "createPost",
      "outputs": [],
      "payable": true,
      "stateMutability": "payable",
      "type": "function"
    },
    {
      "constant": false,
      "inputs": [
        {
          "internalType": "string",
          "name": "_name",
          "type": "string"
        }
      ],
      "name": "signUp",
      "outputs": [],
      "payable": true,
      "stateMutability": "payable",
      "type": "function"
    },
    {
      "constant": true,
      "inputs": [
        {
          "internalType": "address",
          "name": "user",
          "type": "address"
        },
        {
          "internalType": "uint256",
          "name": "_id",
          "type": "uint256"
        }
      ],
      "name": "isLiker",
      "outputs": [
        {
          "internalType": "bool",
          "name": "",
          "type": "bool"
        }
      ],
      "payable": false,
      "stateMutability": "view",
      "type": "function"
    },
    {
      "constant": true,
      "inputs": [
        {
          "internalType": "address",
          "name": "user",
          "type": "address"
        },
        {
          "internalType": "address",
          "name": "owner",
          "type": "address"
        }
      ],
      "name": "isFollower",
      "outputs": [
        {
          "internalType": "bool",
          "name": "",
          "type": "bool"
        }
      ],
      "payable": false,
      "stateMutability": "view",
      "type": "function"
    },
    {
      "constant": false,
      "inputs": [
        {
          "internalType": "address",
          "name": "adr",
          "type": "address"
        }
      ],
      "name": "followUser",
      "outputs": [],
      "payable": true,
      "stateMutability": "payable",
      "type": "function"
    },
    {
      "constant": false,
      "inputs": [
        {
          "internalType": "uint256",
          "name": "_id",
          "type": "uint256"
        }
      ],
      "name": "likePost",
      "outputs": [],
      "payable": true,
      "stateMutability": "payable",
      "type": "function"
    },
    {
      "constant": true,
      "inputs": [
        {
          "internalType": "address",
          "name": "adr",
          "type": "address"
        }
      ],
      "name": "getUserPublicPost",
      "outputs": [
        {
          "components": [
            {
              "internalType": "uint256",
              "name": "id",
              "type": "uint256"
            },
            {
              "internalType": "string",
              "name": "imgIpfsHash",
              "type": "string"
            },
            {
              "internalType": "uint256",
              "name": "likes",
              "type": "uint256"
            },
            {
              "internalType": "address",
              "name": "owner",
              "type": "address"
            },
            {
              "internalType": "uint256",
              "name": "timestamp",
              "type": "uint256"
            },
            {
              "internalType": "bool",
              "name": "isPublic",
              "type": "bool"
            }
          ],
          "internalType": "struct Lixtagram.Post[]",
          "name": "",
          "type": "tuple[]"
        }
      ],
      "payable": false,
      "stateMutability": "view",
      "type": "function"
    },
    {
      "constant": true,
      "inputs": [
        {
          "internalType": "address",
          "name": "adr",
          "type": "address"
        }
      ],
      "name": "getUserPrivatePost",
      "outputs": [
        {
          "components": [
            {
              "internalType": "uint256",
              "name": "id",
              "type": "uint256"
            },
            {
              "internalType": "string",
              "name": "imgIpfsHash",
              "type": "string"
            },
            {
              "internalType": "uint256",
              "name": "likes",
              "type": "uint256"
            },
            {
              "internalType": "address",
              "name": "owner",
              "type": "address"
            },
            {
              "internalType": "uint256",
              "name": "timestamp",
              "type": "uint256"
            },
            {
              "internalType": "bool",
              "name": "isPublic",
              "type": "bool"
            }
          ],
          "internalType": "struct Lixtagram.Post[]",
          "name": "",
          "type": "tuple[]"
        }
      ],
      "payable": false,
      "stateMutability": "view",
      "type": "function"
    },
    {
      "constant": false,
      "inputs": [
        {
          "internalType": "uint256",
          "name": "_id",
          "type": "uint256"
        },
        {
          "internalType": "string",
          "name": "comment",
          "type": "string"
        }
      ],
      "name": "addComment",
      "outputs": [],
      "payable": false,
      "stateMutability": "nonpayable",
      "type": "function"
    },
    {
      "constant": true,
      "inputs": [],
      "name": "getViewPost",
      "outputs": [
        {
          "components": [
            {
              "internalType": "uint256",
              "name": "id",
              "type": "uint256"
            },
            {
              "internalType": "string",
              "name": "ownerName",
              "type": "string"
            },
            {
              "internalType": "string",
              "name": "imgIpfsHash",
              "type": "string"
            },
            {
              "internalType": "uint256",
              "name": "likes",
              "type": "uint256"
            },
            {
              "internalType": "address",
              "name": "owner",
              "type": "address"
            },
            {
              "internalType": "uint256",
              "name": "timestamp",
              "type": "uint256"
            },
            {
              "internalType": "bool",
              "name": "isPublic",
              "type": "bool"
            },
            {
              "components": [
                {
                  "internalType": "address",
                  "name": "adr",
                  "type": "address"
                },
                {
                  "internalType": "string",
                  "name": "adrName",
                  "type": "string"
                },
                {
                  "internalType": "string",
                  "name": "comment",
                  "type": "string"
                },
                {
                  "internalType": "uint256",
                  "name": "time",
                  "type": "uint256"
                }
              ],
              "internalType": "struct Lixtagram.FilterComments[]",
              "name": "comments",
              "type": "tuple[]"
            },
            {
              "components": [
                {
                  "internalType": "address",
                  "name": "adr",
                  "type": "address"
                },
                {
                  "internalType": "string",
                  "name": "adrName",
                  "type": "string"
                },
                {
                  "internalType": "uint256",
                  "name": "time",
                  "type": "uint256"
                }
              ],
              "internalType": "struct Lixtagram.FilterLikers[]",
              "name": "likers",
              "type": "tuple[]"
            }
          ],
          "internalType": "struct Lixtagram.ViewPost[]",
          "name": "",
          "type": "tuple[]"
        }
      ],
      "payable": false,
      "stateMutability": "view",
      "type": "function"
    },
    {
      "constant": true,
      "inputs": [
        {
          "internalType": "address",
          "name": "adr",
          "type": "address"
        }
      ],
      "name": "getFollowers",
      "outputs": [
        {
          "components": [
            {
              "internalType": "address",
              "name": "follower",
              "type": "address"
            },
            {
              "internalType": "string",
              "name": "name",
              "type": "string"
            },
            {
              "internalType": "uint256",
              "name": "time",
              "type": "uint256"
            }
          ],
          "internalType": "struct Lixtagram.Followers[]",
          "name": "",
          "type": "tuple[]"
        }
      ],
      "payable": false,
      "stateMutability": "view",
      "type": "function"
    },
    {
      "constant": true,
      "inputs": [
        {
          "internalType": "address",
          "name": "adr",
          "type": "address"
        }
      ],
      "name": "getNumberOffollowwers",
      "outputs": [
        {
          "internalType": "uint256",
          "name": "",
          "type": "uint256"
        }
      ],
      "payable": false,
      "stateMutability": "view",
      "type": "function"
    },
    {
      "constant": true,
      "inputs": [],
      "name": "getPostsCount",
      "outputs": [
        {
          "internalType": "uint256",
          "name": "",
          "type": "uint256"
        }
      ],
      "payable": false,
      "stateMutability": "view",
      "type": "function"
    },
    {
      "constant": false,
      "inputs": [
        {
          "internalType": "uint256",
          "name": "id",
          "type": "uint256"
        }
      ],
      "name": "deletePost",
      "outputs": [],
      "payable": false,
      "stateMutability": "nonpayable",
      "type": "function"
    },
    {
      "constant": true,
      "inputs": [
        {
          "internalType": "address",
          "name": "adr",
          "type": "address"
        }
      ],
      "name": "getFollowedAndFollowersCount",
      "outputs": [
        {
          "internalType": "uint256",
          "name": "",
          "type": "uint256"
        },
        {
          "internalType": "uint256",
          "name": "",
          "type": "uint256"
        }
      ],
      "payable": false,
      "stateMutability": "view",
      "type": "function"
    },
    {
      "constant": true,
      "inputs": [
        {
          "internalType": "address",
          "name": "adr",
          "type": "address"
        }
      ],
      "name": "getFollowedAndFollowers",
      "outputs": [
        {
          "components": [
            {
              "internalType": "address",
              "name": "follower",
              "type": "address"
            },
            {
              "internalType": "string",
              "name": "name",
              "type": "string"
            },
            {
              "internalType": "uint256",
              "name": "time",
              "type": "uint256"
            }
          ],
          "internalType": "struct Lixtagram.Followers[]",
          "name": "",
          "type": "tuple[]"
        },
        {
          "components": [
            {
              "internalType": "address",
              "name": "followed",
              "type": "address"
            },
            {
              "internalType": "string",
              "name": "name",
              "type": "string"
            },
            {
              "internalType": "uint256",
              "name": "time",
              "type": "uint256"
            }
          ],
          "internalType": "struct Lixtagram.Followings[]",
          "name": "",
          "type": "tuple[]"
        }
      ],
      "payable": false,
      "stateMutability": "view",
      "type": "function"
    },
    {
      "constant": true,
      "inputs": [
        {
          "internalType": "address",
          "name": "adr",
          "type": "address"
        }
      ],
      "name": "getUserDetails",
      "outputs": [
        {
          "internalType": "string",
          "name": "",
          "type": "string"
        },
        {
          "internalType": "uint256",
          "name": "",
          "type": "uint256"
        },
        {
          "internalType": "uint256",
          "name": "",
          "type": "uint256"
        },
        {
          "internalType": "uint256",
          "name": "",
          "type": "uint256"
        },
        {
          "internalType": "address",
          "name": "",
          "type": "address"
        }
      ],
      "payable": false,
      "stateMutability": "view",
      "type": "function"
    },
    {
      "constant": false,
      "inputs": [
        {
          "internalType": "uint256",
          "name": "ntokens",
          "type": "uint256"
        },
        {
          "internalType": "uint256",
          "name": "valueWie",
          "type": "uint256"
        }
      ],
      "name": "redeemNTokens",
      "outputs": [],
      "payable": false,
      "stateMutability": "nonpayable",
      "type": "function"
    },
    {
      "constant": false,
      "inputs": [
        {
          "internalType": "string",
          "name": "chash",
          "type": "string"
        }
      ],
      "name": "setChatHash",
      "outputs": [],
      "payable": false,
      "stateMutability": "nonpayable",
      "type": "function"
    },
    {
      "constant": true,
      "inputs": [],
      "name": "getContractBalance",
      "outputs": [
        {
          "internalType": "uint256",
          "name": "",
          "type": "uint256"
        }
      ],
      "payable": false,
      "stateMutability": "view",
      "type": "function"
    }
  ],
  "bytecode": "0x60806040523480156200001157600080fd5b506040518060400160405280600981526020017f4c697874616772616d0000000000000000000000000000000000000000000000815250600b90805190602001906200005f929190620000b7565b5033600c60006101000a81548173ffffffffffffffffffffffffffffffffffffffff021916908373ffffffffffffffffffffffffffffffffffffffff1602179055506000600d819055506000600e8190555062000166565b828054600181600116156101000203166002900490600052602060002090601f016020900481019282601f10620000fa57805160ff19168380011785556200012b565b828001600101855582156200012b579182015b828111156200012a5782518255916020019190600101906200010d565b5b5090506200013a91906200013e565b5090565b6200016391905b808211156200015f57600081600090555060010162000145565b5090565b90565b614e5580620001766000396000f3fe6080604052600436106101665760003560e01c80636f9fb98a116100d1578063adcfb4fc1161008a578063e5fe947711610064578063e5fe947714610520578063ed0524631461055d578063f269d0691461059a578063ff7ae9a0146105d757610166565b8063adcfb4fc14610486578063c2fe2022146104a2578063cc3d967b146104df57610166565b80636f9fb98a146103a6578063725009d3146103d157806383624882146103ed5780638c39e55014610418578063a70806f714610441578063aa7e56831461045d57610166565b80633437d4d9116101235780633437d4d91461028e578063392338f5146102b957806347c654f3146102d5578063481c6a751461031357806366778e941461033e578063690eea1f1461037b57610166565b80630589cded1461016b57806306fdde03146101a857806307973ccf146101d3578063094cd5ee146101fe57806320fc0205146102275780632deb661a14610250575b600080fd5b34801561017757600080fd5b50610192600480360361018d9190810190613c80565b610602565b60405161019f9190614ad1565b60405180910390f35b3480156101b457600080fd5b506101bd61064e565b6040516101ca9190614955565b60405180910390f35b3480156101df57600080fd5b506101e86106ec565b6040516101f59190614ad1565b60405180910390f35b34801561020a57600080fd5b5061022560048036036102209190810190613dce565b6106f2565b005b34801561023357600080fd5b5061024e60048036036102499190810190613d21565b610935565b005b34801561025c57600080fd5b5061027760048036036102729190810190613c80565b61094f565b604051610285929190614aec565b60405180910390f35b34801561029a57600080fd5b506102a36109ed565b6040516102b09190614955565b60405180910390f35b6102d360048036036102ce9190810190613d62565b610a8b565b005b3480156102e157600080fd5b506102fc60048036036102f79190810190613c80565b610f49565b60405161030a9291906148bf565b60405180910390f35b34801561031f57600080fd5b5061032861128e565b6040516103359190614882565b60405180910390f35b34801561034a57600080fd5b5061036560048036036103609190810190613ce5565b6112b4565b604051610372919061493a565b60405180910390f35b34801561038757600080fd5b5061039061137f565b60405161039d9190614ad1565b60405180910390f35b3480156103b257600080fd5b506103bb611385565b6040516103c89190614ad1565b60405180910390f35b6103eb60048036036103e69190810190613dce565b61138d565b005b3480156103f957600080fd5b50610402611782565b60405161040f9190614ad1565b60405180910390f35b34801561042457600080fd5b5061043f600480360361043a9190810190613e4b565b61178f565b005b61045b60048036036104569190810190613c80565b6119ad565b005b34801561046957600080fd5b50610484600480360361047f9190810190613df7565b611ff4565b005b6104a0600480360361049b9190810190613d21565b6120d8565b005b3480156104ae57600080fd5b506104c960048036036104c49190810190613c80565b612468565b6040516104d6919061489d565b60405180910390f35b3480156104eb57600080fd5b5061050660048036036105019190810190613c80565b612692565b604051610517959493929190614977565b60405180910390f35b34801561052c57600080fd5b5061054760048036036105429190810190613ca9565b612852565b604051610554919061493a565b60405180910390f35b34801561056957600080fd5b50610584600480360361057f9190810190613c80565b612975565b60405161059191906148f6565b60405180910390f35b3480156105a657600080fd5b506105c160048036036105bc9190810190613c80565b612bf1565b6040516105ce91906148f6565b60405180910390f35b3480156105e357600080fd5b506105ec612e6d565b6040516105f99190614918565b60405180910390f35b6000600160008373ffffffffffffffffffffffffffffffffffffffff1673ffffffffffffffffffffffffffffffffffffffff168152602001908152602001600020805490509050919050565b600b8054600181600116156101000203166002900480601f0160208091040260200160405190810160405280929190818152602001828054600181600116156101000203166002900480156106e45780601f106106b9576101008083540402835291602001916106e4565b820191906000526020600020905b8154815290600101906020018083116106c757829003601f168201915b505050505081565b600d5481565b60008090505b600a8054905081101561086a5781600a838154811061071357fe5b906000526020600020906006020160000154141561085d573373ffffffffffffffffffffffffffffffffffffffff16600a828154811061074f57fe5b906000526020600020906006020160030160009054906101000a900473ffffffffffffffffffffffffffffffffffffffff1673ffffffffffffffffffffffffffffffffffffffff16146107d7576040517f08c379a00000000000000000000000000000000000000000000000000000000081526004016107ce90614a71565b60405180910390fd5b600a81815481106107e457fe5b906000526020600020906006020160008082016000905560018201600061080b9190613836565b60028201600090556003820160006101000a81549073ffffffffffffffffffffffffffffffffffffffff021916905560048201600090556005820160006101000a81549060ff0219169055505061086a565b80806001019150506106f8565b5060008090505b600980549050811015610931573373ffffffffffffffffffffffffffffffffffffffff16600982815481106108a257fe5b906000526020600020906006020160020160009054906101000a900473ffffffffffffffffffffffffffffffffffffffff1673ffffffffffffffffffffffffffffffffffffffff16141561092457600981815481106108fd57fe5b90600052602060002090600602016004016000815480929190600190039190505550610931565b8080600101915050610871565b5050565b80600f908051906020019061094b92919061387e565b5050565b6000806000600160008573ffffffffffffffffffffffffffffffffffffffff1673ffffffffffffffffffffffffffffffffffffffff1681526020019081526020016000208054905090506000600260008673ffffffffffffffffffffffffffffffffffffffff1673ffffffffffffffffffffffffffffffffffffffff1681526020019081526020016000208054905090508181935093505050915091565b600f8054600181600116156101000203166002900480601f016020809104026020016040519081016040528092919081815260200182805460018160011615610100020316600290048015610a835780601f10610a5857610100808354040283529160200191610a83565b820191906000526020600020905b815481529060010190602001808311610a6657829003601f168201915b505050505081565b600e600081548092919060010191905055506000600a805490501415610ab4576000600e819055505b6000423344604051602001610acb93929190614845565b6040516020818303038152906040528051906020012060001c9050610aee6138fe565b6040518060c00160405280838152602001848152602001600081526020013373ffffffffffffffffffffffffffffffffffffffff168152602001428152602001600115158152509050600a8190806001815401808255809150509060018203906000526020600020906006020160009091929091909150600082015181600001556020820151816001019080519060200190610b8b92919061394c565b506040820151816002015560608201518160030160006101000a81548173ffffffffffffffffffffffffffffffffffffffff021916908373ffffffffffffffffffffffffffffffffffffffff1602179055506080820151816004015560a08201518160050160006101000a81548160ff0219169083151502179055505050506003600083815260200190815260200160002060405180604001604052803373ffffffffffffffffffffffffffffffffffffffff168152602001428152509080600181540180825580915050906001820390600052602060002090600202016000909192909190915060008201518160000160006101000a81548173ffffffffffffffffffffffffffffffffffffffff021916908373ffffffffffffffffffffffffffffffffffffffff160217905550602082015181600101555050506004600083815260200190815260200160002060405180606001604052803373ffffffffffffffffffffffffffffffffffffffff168152602001868152602001428152509080600181540180825580915050906001820390600052602060002090600302016000909192909190915060008201518160000160006101000a81548173ffffffffffffffffffffffffffffffffffffffff021916908373ffffffffffffffffffffffffffffffffffffffff1602179055506020820151816001019080519060200190610d9992919061394c565b5060408201518160020155505050600560003373ffffffffffffffffffffffffffffffffffffffff1673ffffffffffffffffffffffffffffffffffffffff168152602001908152602001600020600e549080600181540180825580915050906001820390600052602060002001600090919290919091505550600760003373ffffffffffffffffffffffffffffffffffffffff1673ffffffffffffffffffffffffffffffffffffffff168152602001908152602001600020600e54908060018154018082558091505090600182039060005260206000200160009091929091909150555060008090505b600980549050811015610f42573373ffffffffffffffffffffffffffffffffffffffff1660098281548110610eb457fe5b906000526020600020906006020160020160009054906101000a900473ffffffffffffffffffffffffffffffffffffffff1673ffffffffffffffffffffffffffffffffffffffff161415610f355760098181548110610f0f57fe5b906000526020600020906006020160040160008154809291906001019190505550610f42565b8080600101915050610e83565b5050505050565b606080606080600160008673ffffffffffffffffffffffffffffffffffffffff1673ffffffffffffffffffffffffffffffffffffffff168152602001908152602001600020805480602002602001604051908101604052809291908181526020016000905b828210156110e257838290600052602060002090600302016040518060600160405290816000820160009054906101000a900473ffffffffffffffffffffffffffffffffffffffff1673ffffffffffffffffffffffffffffffffffffffff1673ffffffffffffffffffffffffffffffffffffffff168152602001600182018054600181600116156101000203166002900480601f0160208091040260200160405190810160405280929190818152602001828054600181600116156101000203166002900480156110c05780601f10611095576101008083540402835291602001916110c0565b820191906000526020600020905b8154815290600101906020018083116110a357829003601f168201915b5050505050815260200160028201548152505081526020019060010190610fae565b505050509150600260008673ffffffffffffffffffffffffffffffffffffffff1673ffffffffffffffffffffffffffffffffffffffff168152602001908152602001600020805480602002602001604051908101604052809291908181526020016000905b8282101561127b57838290600052602060002090600302016040518060600160405290816000820160009054906101000a900473ffffffffffffffffffffffffffffffffffffffff1673ffffffffffffffffffffffffffffffffffffffff1673ffffffffffffffffffffffffffffffffffffffff168152602001600182018054600181600116156101000203166002900480601f0160208091040260200160405190810160405280929190818152602001828054600181600116156101000203166002900480156112595780601f1061122e57610100808354040283529160200191611259565b820191906000526020600020905b81548152906001019060200180831161123c57829003601f168201915b5050505050815260200160028201548152505081526020019060010190611147565b5050505090508181935093505050915091565b600c60009054906101000a900473ffffffffffffffffffffffffffffffffffffffff1681565b60008060008090505b6003600085815260200190815260200160002080549050811015611374576003600085815260200190815260200160002081815481106112f957fe5b906000526020600020906002020160000160009054906101000a900473ffffffffffffffffffffffffffffffffffffffff1673ffffffffffffffffffffffffffffffffffffffff168573ffffffffffffffffffffffffffffffffffffffff1614156113675760019150611374565b80806001019150506112bd565b508091505092915050565b600e5481565b600047905090565b6000600360008381526020019081526020016000206000815481106113ae57fe5b906000526020600020906002020160000160009054906101000a900473ffffffffffffffffffffffffffffffffffffffff1690508073ffffffffffffffffffffffffffffffffffffffff163373ffffffffffffffffffffffffffffffffffffffff161415611451576040517f08c379a000000000000000000000000000000000000000000000000000000000815260040161144890614a11565b60405180910390fd5b60006003600084815260200190815260200160002080549050905060008090505b818110156115cd5760036000858152602001908152602001600020818154811061149857fe5b906000526020600020906002020160000160009054906101000a900473ffffffffffffffffffffffffffffffffffffffff1673ffffffffffffffffffffffffffffffffffffffff163373ffffffffffffffffffffffffffffffffffffffff1614156115c05760036000858152602001908152602001600020818154811061151b57fe5b906000526020600020906002020160000160009054906101000a900473ffffffffffffffffffffffffffffffffffffffff1673ffffffffffffffffffffffffffffffffffffffff163373ffffffffffffffffffffffffffffffffffffffff1614156115bb576040517f08c379a00000000000000000000000000000000000000000000000000000000081526004016115b290614ab1565b60405180910390fd5b6115cd565b8080600101915050611472565b506003600084815260200190815260200160002060405180604001604052803373ffffffffffffffffffffffffffffffffffffffff168152602001428152509080600181540180825580915050906001820390600052602060002090600202016000909192909190915060008201518160000160006101000a81548173ffffffffffffffffffffffffffffffffffffffff021916908373ffffffffffffffffffffffffffffffffffffffff1602179055506020820151816001015550505060008090505b60098054905081101561177c578273ffffffffffffffffffffffffffffffffffffffff16600982815481106116c257fe5b906000526020600020906006020160020160009054906101000a900473ffffffffffffffffffffffffffffffffffffffff1673ffffffffffffffffffffffffffffffffffffffff16141561176f5760016009828154811061171f57fe5b90600052602060002090600602016003016000828254019250508190555060016009828154811061174c57fe5b90600052602060002090600602016005016000828254019250508190555061177c565b8080600101915050611691565b50505050565b6000600a80549050905090565b600066038d7ea4c680009050600083820290506014841015806117b3575060008414155b806117bd57508281145b6117fc576040517f08c379a00000000000000000000000000000000000000000000000000000000081526004016117f390614a91565b60405180910390fd5b60008090505b6009805490508110156119a6573373ffffffffffffffffffffffffffffffffffffffff166009828154811061183357fe5b906000526020600020906006020160020160009054906101000a900473ffffffffffffffffffffffffffffffffffffffff1673ffffffffffffffffffffffffffffffffffffffff1614156119995760146009828154811061189057fe5b9060005260206000209060060201600501541015806118cc575084600982815481106118b857fe5b906000526020600020906006020160050154115b61190b576040517f08c379a0000000000000000000000000000000000000000000000000000000008152600401611902906149d1565b60405180910390fd5b3373ffffffffffffffffffffffffffffffffffffffff1673ffffffffffffffffffffffffffffffffffffffff166108fc859081150290604051600060405180830381858888f19350505050158015611967573d6000803e3d6000fd5b50846009828154811061197657fe5b9060005260206000209060060201600501600082825403925050819055506119a6565b8080600101915050611802565b5050505050565b6000600160008373ffffffffffffffffffffffffffffffffffffffff1673ffffffffffffffffffffffffffffffffffffffff1681526020019081526020016000206000815481106119fa57fe5b906000526020600020906003020160000160009054906101000a900473ffffffffffffffffffffffffffffffffffffffff1690506000600160008473ffffffffffffffffffffffffffffffffffffffff1673ffffffffffffffffffffffffffffffffffffffff1681526020019081526020016000208054905090508173ffffffffffffffffffffffffffffffffffffffff163373ffffffffffffffffffffffffffffffffffffffff16141580611adc57508273ffffffffffffffffffffffffffffffffffffffff163373ffffffffffffffffffffffffffffffffffffffff1614155b611b1b576040517f08c379a0000000000000000000000000000000000000000000000000000000008152600401611b1290614a31565b60405180910390fd5b60008090505b81811015611cd457600160008573ffffffffffffffffffffffffffffffffffffffff1673ffffffffffffffffffffffffffffffffffffffff1681526020019081526020016000208181548110611b7357fe5b906000526020600020906003020160000160009054906101000a900473ffffffffffffffffffffffffffffffffffffffff1673ffffffffffffffffffffffffffffffffffffffff163373ffffffffffffffffffffffffffffffffffffffff161415611cc757600160008573ffffffffffffffffffffffffffffffffffffffff1673ffffffffffffffffffffffffffffffffffffffff1681526020019081526020016000208181548110611c2257fe5b906000526020600020906003020160000160009054906101000a900473ffffffffffffffffffffffffffffffffffffffff1673ffffffffffffffffffffffffffffffffffffffff163373ffffffffffffffffffffffffffffffffffffffff161415611cc2576040517f08c379a0000000000000000000000000000000000000000000000000000000008152600401611cb9906149f1565b60405180910390fd5b611cd4565b8080600101915050611b21565b50600160008473ffffffffffffffffffffffffffffffffffffffff1673ffffffffffffffffffffffffffffffffffffffff16815260200190815260200160002060405180606001604052803373ffffffffffffffffffffffffffffffffffffffff168152602001611d448661318c565b8152602001428152509080600181540180825580915050906001820390600052602060002090600302016000909192909190915060008201518160000160006101000a81548173ffffffffffffffffffffffffffffffffffffffff021916908373ffffffffffffffffffffffffffffffffffffffff1602179055506020820151816001019080519060200190611ddb92919061394c565b5060408201518160020155505050600260003373ffffffffffffffffffffffffffffffffffffffff1673ffffffffffffffffffffffffffffffffffffffff16815260200190815260200160002060405180606001604052808573ffffffffffffffffffffffffffffffffffffffff168152602001611e583361318c565b8152602001428152509080600181540180825580915050906001820390600052602060002090600302016000909192909190915060008201518160000160006101000a81548173ffffffffffffffffffffffffffffffffffffffff021916908373ffffffffffffffffffffffffffffffffffffffff1602179055506020820151816001019080519060200190611eef92919061394c565b506040820151816002015550505060008090505b600980549050811015611fee578273ffffffffffffffffffffffffffffffffffffffff1660098281548110611f3457fe5b906000526020600020906006020160020160009054906101000a900473ffffffffffffffffffffffffffffffffffffffff1673ffffffffffffffffffffffffffffffffffffffff161415611fe157600160098281548110611f9157fe5b906000526020600020906006020160030160008282540192505081905550600160098281548110611fbe57fe5b906000526020600020906006020160050160008282540192505081905550611fee565b8080600101915050611f03565b50505050565b6004600083815260200190815260200160002060405180606001604052803373ffffffffffffffffffffffffffffffffffffffff168152602001838152602001428152509080600181540180825580915050906001820390600052602060002090600302016000909192909190915060008201518160000160006101000a81548173ffffffffffffffffffffffffffffffffffffffff021916908373ffffffffffffffffffffffffffffffffffffffff16021790555060208201518160010190805190602001906120c692919061394c565b50604082015181600201555050505050565b6000803373ffffffffffffffffffffffffffffffffffffffff1673ffffffffffffffffffffffffffffffffffffffff16815260200190815260200160002060009054906101000a900460ff1615612164576040517f08c379a000000000000000000000000000000000000000000000000000000000815260040161215b90614a51565b60405180910390fd5b60016000803373ffffffffffffffffffffffffffffffffffffffff1673ffffffffffffffffffffffffffffffffffffffff16815260200190815260200160002060006101000a81548160ff02191690831515021790555080600860003373ffffffffffffffffffffffffffffffffffffffff1673ffffffffffffffffffffffffffffffffffffffff168152602001908152602001600020908051906020019061220e92919061387e565b50600d600081548092919060010191905055506122296139cc565b6040518060c001604052808381526020016040518060200160405280600081525081526020013373ffffffffffffffffffffffffffffffffffffffff1681526020016000815260200160008152602001600081525090506009819080600181540180825580915050906001820390600052602060002090600602016000909192909190915060008201518160000190805190602001906122ca92919061394c565b5060208201518160010190805190602001906122e792919061394c565b5060408201518160020160006101000a81548173ffffffffffffffffffffffffffffffffffffffff021916908373ffffffffffffffffffffffffffffffffffffffff160217905550606082015181600301556080820151816004015560a08201518160050155505050600160003373ffffffffffffffffffffffffffffffffffffffff1673ffffffffffffffffffffffffffffffffffffffff16815260200190815260200160002060405180606001604052803373ffffffffffffffffffffffffffffffffffffffff1681526020016123bf3361318c565b8152602001428152509080600181540180825580915050906001820390600052602060002090600302016000909192909190915060008201518160000160006101000a81548173ffffffffffffffffffffffffffffffffffffffff021916908373ffffffffffffffffffffffffffffffffffffffff160217905550602082015181600101908051906020019061245692919061394c565b50604082015181600201555050505050565b60606000600160008473ffffffffffffffffffffffffffffffffffffffff1673ffffffffffffffffffffffffffffffffffffffff1681526020019081526020016000208054905090506060816040519080825280602002602001820160405280156124ed57816020015b6124da613a18565b8152602001906001900390816124d25790505b50905060008090505b8281101561268757600160008673ffffffffffffffffffffffffffffffffffffffff1673ffffffffffffffffffffffffffffffffffffffff168152602001908152602001600020818154811061254857fe5b90600052602060002090600302016040518060600160405290816000820160009054906101000a900473ffffffffffffffffffffffffffffffffffffffff1673ffffffffffffffffffffffffffffffffffffffff1673ffffffffffffffffffffffffffffffffffffffff168152602001600182018054600181600116156101000203166002900480601f0160208091040260200160405190810160405280929190818152602001828054600181600116156101000203166002900480156126505780601f1061262557610100808354040283529160200191612650565b820191906000526020600020905b81548152906001019060200180831161263357829003601f168201915b5050505050815260200160028201548152505082828151811061266f57fe5b602002602001018190525080806001019150506124f6565b508092505050919050565b6060600080600080606060008060008060008090505b600980549050811015612834578b73ffffffffffffffffffffffffffffffffffffffff16600982815481106126d957fe5b906000526020600020906006020160020160009054906101000a900473ffffffffffffffffffffffffffffffffffffffff1673ffffffffffffffffffffffffffffffffffffffff1614156128275760006009828154811061273657fe5b90600052602060002090600602019050806000018054600181600116156101000203166002900480601f0160208091040260200160405190810160405280929190818152602001828054600181600116156101000203166002900480156127de5780601f106127b3576101008083540402835291602001916127de565b820191906000526020600020905b8154815290600101906020018083116127c157829003601f168201915b505050505096508060030154955080600401549450806005015493508060020160009054906101000a900473ffffffffffffffffffffffffffffffffffffffff16925050612834565b80806001019150506126a8565b50848484848499509950995099509950505050505091939590929450565b60008060008090505b600160008573ffffffffffffffffffffffffffffffffffffffff1673ffffffffffffffffffffffffffffffffffffffff1681526020019081526020016000208054905081101561296a57600160008573ffffffffffffffffffffffffffffffffffffffff1673ffffffffffffffffffffffffffffffffffffffff16815260200190815260200160002081815481106128ef57fe5b906000526020600020906003020160000160009054906101000a900473ffffffffffffffffffffffffffffffffffffffff1673ffffffffffffffffffffffffffffffffffffffff168573ffffffffffffffffffffffffffffffffffffffff16141561295d576001915061296a565b808060010191505061285b565b508091505092915050565b60606000600560008473ffffffffffffffffffffffffffffffffffffffff1673ffffffffffffffffffffffffffffffffffffffff16815260200190815260200160002080549050905060006060826040519080825280602002602001820160405280156129fc57816020015b6129e9613a4f565b8152602001906001900390816129e15790505b50905060008090505b83811015612be557600560008773ffffffffffffffffffffffffffffffffffffffff1673ffffffffffffffffffffffffffffffffffffffff1681526020019081526020016000208181548110612a5757fe5b906000526020600020015492506000600a8481548110612a7357fe5b90600052602060002090600602019050806040518060c001604052908160008201548152602001600182018054600181600116156101000203166002900480601f016020809104026020016040519081016040528092919081815260200182805460018160011615610100020316600290048015612b325780601f10612b0757610100808354040283529160200191612b32565b820191906000526020600020905b815481529060010190602001808311612b1557829003601f168201915b50505050508152602001600282015481526020016003820160009054906101000a900473ffffffffffffffffffffffffffffffffffffffff1673ffffffffffffffffffffffffffffffffffffffff1673ffffffffffffffffffffffffffffffffffffffff168152602001600482015481526020016005820160009054906101000a900460ff161515151581525050838381518110612bcc57fe5b6020026020010181905250508080600101915050612a05565b50809350505050919050565b60606000600660008473ffffffffffffffffffffffffffffffffffffffff1673ffffffffffffffffffffffffffffffffffffffff1681526020019081526020016000208054905090506000606082604051908082528060200260200182016040528015612c7857816020015b612c65613a4f565b815260200190600190039081612c5d5790505b50905060008090505b83811015612e6157600660008773ffffffffffffffffffffffffffffffffffffffff1673ffffffffffffffffffffffffffffffffffffffff1681526020019081526020016000208181548110612cd357fe5b906000526020600020015492506000600a8481548110612cef57fe5b90600052602060002090600602019050806040518060c001604052908160008201548152602001600182018054600181600116156101000203166002900480601f016020809104026020016040519081016040528092919081815260200182805460018160011615610100020316600290048015612dae5780601f10612d8357610100808354040283529160200191612dae565b820191906000526020600020905b815481529060010190602001808311612d9157829003601f168201915b50505050508152602001600282015481526020016003820160009054906101000a900473ffffffffffffffffffffffffffffffffffffffff1673ffffffffffffffffffffffffffffffffffffffff1673ffffffffffffffffffffffffffffffffffffffff168152602001600482015481526020016005820160009054906101000a900460ff161515151581525050838381518110612e4857fe5b6020026020010181905250508080600101915050612c81565b50809350505050919050565b60606000600a805490509050606081604051908082528060200260200182016040528015612eb557816020015b612ea2613a9d565b815260200190600190039081612e9a5790505b50905060008090505b82811015613183576000600a8281548110612ed557fe5b9060005260206000209060060201905060011515600a8381548110612ef657fe5b906000526020600020906006020160050160009054906101000a900460ff1615151415613175578060000154838381518110612f2e57fe5b60200260200101516000018181525050612f6b8160030160009054906101000a900473ffffffffffffffffffffffffffffffffffffffff1661318c565b838381518110612f7757fe5b602002602001015160200181905250806001018054600181600116156101000203166002900480601f01602080910402602001604051908101604052809291908181526020018280546001816001161561010002031660029004801561301e5780601f10612ff35761010080835404028352916020019161301e565b820191906000526020600020905b81548152906001019060200180831161300157829003601f168201915b505050505083838151811061302f57fe5b602002602001015160400181905250806002015483838151811061304f57fe5b602002602001015160600181815250508060030160009054906101000a900473ffffffffffffffffffffffffffffffffffffffff1683838151811061309057fe5b60200260200101516080019073ffffffffffffffffffffffffffffffffffffffff16908173ffffffffffffffffffffffffffffffffffffffff168152505080600401548383815181106130df57fe5b602002602001015160a00181815250508060050160009054906101000a900460ff1683838151811061310d57fe5b602002602001015160c0019015159081151581525050613130816000015461326d565b83838151811061313c57fe5b602002602001015160e0018190525061315881600001546133f1565b83838151811061316457fe5b602002602001015161010001819052505b508080600101915050612ebe565b50809250505090565b6060600860008373ffffffffffffffffffffffffffffffffffffffff1673ffffffffffffffffffffffffffffffffffffffff1681526020019081526020016000208054600181600116156101000203166002900480601f0160208091040260200160405190810160405280929190818152602001828054600181600116156101000203166002900480156132615780601f1061323657610100808354040283529160200191613261565b820191906000526020600020905b81548152906001019060200180831161324457829003601f168201915b50505050509050919050565b60608061327983613534565b9050606060036040519080825280602002602001820160405280156132b857816020015b6132a5613b01565b81526020019060019003908161329d5790505b50905060005b82518110156133e6578281815181106132d357fe5b6020026020010151600001518282815181106132eb57fe5b60200260200101516000019073ffffffffffffffffffffffffffffffffffffffff16908173ffffffffffffffffffffffffffffffffffffffff168152505061334983828151811061333857fe5b60200260200101516000015161318c565b82828151811061335557fe5b60200260200101516020018190525082818151811061337057fe5b60200260200101516020015182828151811061338857fe5b6020026020010151604001819052508281815181106133a357fe5b6020026020010151604001518282815181106133bb57fe5b6020026020010151606001818152505060028114156133d9576133e6565b80806001019150506132be565b508092505050919050565b6060806133fd83613706565b90506060815160405190808252806020026020018201604052801561343c57816020015b613429613b3f565b8152602001906001900390816134215790505b50905060005b82518110156135295782818151811061345757fe5b60200260200101516000015182828151811061346f57fe5b60200260200101516000019073ffffffffffffffffffffffffffffffffffffffff16908173ffffffffffffffffffffffffffffffffffffffff16815250506134cd8382815181106134bc57fe5b60200260200101516000015161318c565b8282815181106134d957fe5b6020026020010151602001819052508281815181106134f457fe5b60200260200101516020015182828151811061350c57fe5b602002602001015160400181815250508080600101915050613442565b508092505050919050565b606060006004600084815260200190815260200160002080549050905060608160405190808252806020026020018201604052801561358d57816020015b61357a613b76565b8152602001906001900390816135725790505b50905060008090505b828110156136fb576004600086815260200190815260200160002081815481106135bc57fe5b90600052602060002090600302016040518060600160405290816000820160009054906101000a900473ffffffffffffffffffffffffffffffffffffffff1673ffffffffffffffffffffffffffffffffffffffff1673ffffffffffffffffffffffffffffffffffffffff168152602001600182018054600181600116156101000203166002900480601f0160208091040260200160405190810160405280929190818152602001828054600181600116156101000203166002900480156136c45780601f10613699576101008083540402835291602001916136c4565b820191906000526020600020905b8154815290600101906020018083116136a757829003601f168201915b505050505081526020016002820154815250508282815181106136e357fe5b60200260200101819052508080600101915050613596565b508092505050919050565b606060006003600084815260200190815260200160002080549050905060608160405190808252806020026020018201604052801561375f57816020015b61374c613bad565b8152602001906001900390816137445790505b50905060008090505b8281101561382b5760036000868152602001908152602001600020818154811061378e57fe5b90600052602060002090600202016040518060400160405290816000820160009054906101000a900473ffffffffffffffffffffffffffffffffffffffff1673ffffffffffffffffffffffffffffffffffffffff1673ffffffffffffffffffffffffffffffffffffffff16815260200160018201548152505082828151811061381357fe5b60200260200101819052508080600101915050613768565b508092505050919050565b50805460018160011615610100020316600290046000825580601f1061385c575061387b565b601f01602090049060005260206000209081019061387a9190613bdd565b5b50565b828054600181600116156101000203166002900490600052602060002090601f016020900481019282601f106138bf57805160ff19168380011785556138ed565b828001600101855582156138ed579182015b828111156138ec5782518255916020019190600101906138d1565b5b5090506138fa9190613bdd565b5090565b6040518060c00160405280600081526020016060815260200160008152602001600073ffffffffffffffffffffffffffffffffffffffff168152602001600081526020016000151581525090565b828054600181600116156101000203166002900490600052602060002090601f016020900481019282601f1061398d57805160ff19168380011785556139bb565b828001600101855582156139bb579182015b828111156139ba57825182559160200191906001019061399f565b5b5090506139c89190613bdd565b5090565b6040518060c001604052806060815260200160608152602001600073ffffffffffffffffffffffffffffffffffffffff1681526020016000815260200160008152602001600081525090565b6040518060600160405280600073ffffffffffffffffffffffffffffffffffffffff16815260200160608152602001600081525090565b6040518060c00160405280600081526020016060815260200160008152602001600073ffffffffffffffffffffffffffffffffffffffff168152602001600081526020016000151581525090565b60405180610120016040528060008152602001606081526020016060815260200160008152602001600073ffffffffffffffffffffffffffffffffffffffff1681526020016000815260200160001515815260200160608152602001606081525090565b6040518060800160405280600073ffffffffffffffffffffffffffffffffffffffff1681526020016060815260200160608152602001600081525090565b6040518060600160405280600073ffffffffffffffffffffffffffffffffffffffff16815260200160608152602001600081525090565b6040518060600160405280600073ffffffffffffffffffffffffffffffffffffffff16815260200160608152602001600081525090565b6040518060400160405280600073ffffffffffffffffffffffffffffffffffffffff168152602001600081525090565b613bff91905b80821115613bfb576000816000905550600101613be3565b5090565b90565b600081359050613c1181614de4565b92915050565b600082601f830112613c2857600080fd5b8135613c3b613c3682614b42565b614b15565b91508082526020830160208301858383011115613c5757600080fd5b613c62838284614d56565b50505092915050565b600081359050613c7a81614dfb565b92915050565b600060208284031215613c9257600080fd5b6000613ca084828501613c02565b91505092915050565b60008060408385031215613cbc57600080fd5b6000613cca85828601613c02565b9250506020613cdb85828601613c02565b9150509250929050565b60008060408385031215613cf857600080fd5b6000613d0685828601613c02565b9250506020613d1785828601613c6b565b9150509250929050565b600060208284031215613d3357600080fd5b600082013567ffffffffffffffff811115613d4d57600080fd5b613d5984828501613c17565b91505092915050565b60008060408385031215613d7557600080fd5b600083013567ffffffffffffffff811115613d8f57600080fd5b613d9b85828601613c17565b925050602083013567ffffffffffffffff811115613db857600080fd5b613dc485828601613c17565b9150509250929050565b600060208284031215613de057600080fd5b6000613dee84828501613c6b565b91505092915050565b60008060408385031215613e0a57600080fd5b6000613e1885828601613c6b565b925050602083013567ffffffffffffffff811115613e3557600080fd5b613e4185828601613c17565b9150509250929050565b60008060408385031215613e5e57600080fd5b6000613e6c85828601613c6b565b9250506020613e7d85828601613c6b565b9150509250929050565b6000613e938383614553565b905092915050565b6000613ea783836145bd565b905092915050565b6000613ebb838361460d565b905092915050565b6000613ecf838361465d565b905092915050565b6000613ee383836146ad565b905092915050565b6000613ef78383614736565b905092915050565b613f10613f0b82614d0e565b614d98565b82525050565b613f1f81614cfc565b82525050565b613f2e81614cfc565b82525050565b6000613f3f82614bce565b613f498185614c74565b935083602082028501613f5b85614b6e565b8060005b85811015613f975784840389528151613f788582613e87565b9450613f8383614c26565b925060208a01995050600181019050613f5f565b50829750879550505050505092915050565b6000613fb482614bd9565b613fbe8185614c85565b935083602082028501613fd085614b7e565b8060005b8581101561400c5784840389528151613fed8582613e9b565b9450613ff883614c33565b925060208a01995050600181019050613fd4565b50829750879550505050505092915050565b600061402982614be4565b6140338185614c96565b93508360208202850161404585614b8e565b8060005b8581101561408157848403895281516140628582613eaf565b945061406d83614c40565b925060208a01995050600181019050614049565b50829750879550505050505092915050565b600061409e82614bef565b6140a88185614ca7565b9350836020820285016140ba85614b9e565b8060005b858110156140f657848403895281516140d78582613ec3565b94506140e283614c4d565b925060208a019950506001810190506140be565b50829750879550505050505092915050565b600061411382614bfa565b61411d8185614cb8565b93508360208202850161412f85614bae565b8060005b8581101561416b578484038952815161414c8582613ed7565b945061415783614c5a565b925060208a01995050600181019050614133565b50829750879550505050505092915050565b600061418882614c05565b6141928185614cc9565b9350836020820285016141a485614bbe565b8060005b858110156141e057848403895281516141c18582613eeb565b94506141cc83614c67565b925060208a019950506001810190506141a8565b50829750879550505050505092915050565b6141fb81614d20565b82525050565b61420a81614d20565b82525050565b600061421b82614c1b565b6142258185614ceb565b9350614235818560208601614d65565b61423e81614dc6565b840191505092915050565b600061425482614c10565b61425e8185614cda565b935061426e818560208601614d65565b61427781614dc6565b840191505092915050565b600061428d82614c10565b6142978185614ceb565b93506142a7818560208601614d65565b6142b081614dc6565b840191505092915050565b60006142c8603583614ceb565b91507f4469646e27742072656163682072656465656d20726571756972656d656e747360008301527f206f722076616c69646174696f6e206661696c656400000000000000000000006020830152604082019050919050565b600061432e601c83614ceb565b91507f596f7520616c726561647920666f6c6c6f7720746865207573657221000000006000830152602082019050919050565b600061436e601283614ceb565b91507f596f75206f776e207468697320706f73742100000000000000000000000000006000830152602082019050919050565b60006143ae602083614ceb565b91507f796f752063616e277420666f6c6f7720796f7572206f776e206163636f756e746000830152602082019050919050565b60006143ee600e83614ceb565b91507f416c7265616479206120757365720000000000000000000000000000000000006000830152602082019050919050565b600061442e602383614ceb565b91507f4f6e6c7920746865206f776e65722063616e2064656c6574652074686973207060008301527f6f737400000000000000000000000000000000000000000000000000000000006020830152604082019050919050565b6000614494605c83614ceb565b91507f696e7075742076616c7565206973206e6f7420616c6c6f7765642c206f6e6c7960008301527f20657175616c206f722067726561746572207468616e20323020697320616c6c60208301527f6f77656420616e6420696e707574206d757374206e6f74207a65726f000000006040830152606082019050919050565b6000614520601b83614ceb565b91507f596f7520616c7265616479206c696b65207468697320706f73742100000000006000830152602082019050919050565b600060808301600083015161456b6000860182613f16565b50602083015184820360208601526145838282614249565b9150506040830151848203604086015261459d8282614249565b91505060608301516145b26060860182614810565b508091505092915050565b60006060830160008301516145d56000860182613f16565b50602083015184820360208601526145ed8282614249565b91505060408301516146026040860182614810565b508091505092915050565b60006060830160008301516146256000860182613f16565b506020830151848203602086015261463d8282614249565b91505060408301516146526040860182614810565b508091505092915050565b60006060830160008301516146756000860182613f16565b506020830151848203602086015261468d8282614249565b91505060408301516146a26040860182614810565b508091505092915050565b600060c0830160008301516146c56000860182614810565b50602083015184820360208601526146dd8282614249565b91505060408301516146f26040860182614810565b5060608301516147056060860182613f16565b5060808301516147186080860182614810565b5060a083015161472b60a08601826141f2565b508091505092915050565b60006101208301600083015161474f6000860182614810565b50602083015184820360208601526147678282614249565b915050604083015184820360408601526147818282614249565b91505060608301516147966060860182614810565b5060808301516147a96080860182613f16565b5060a08301516147bc60a0860182614810565b5060c08301516147cf60c08601826141f2565b5060e083015184820360e08601526147e78282613f34565b9150506101008301518482036101008601526148038282613fa9565b9150508091505092915050565b61481981614d4c565b82525050565b61482881614d4c565b82525050565b61483f61483a82614d4c565b614dbc565b82525050565b6000614851828661482e565b6020820191506148618285613eff565b601482019150614871828461482e565b602082019150819050949350505050565b60006020820190506148976000830184613f25565b92915050565b600060208201905081810360008301526148b7818461401e565b905092915050565b600060408201905081810360008301526148d9818561401e565b905081810360208301526148ed8184614093565b90509392505050565b600060208201905081810360008301526149108184614108565b905092915050565b60006020820190508181036000830152614932818461417d565b905092915050565b600060208201905061494f6000830184614201565b92915050565b6000602082019050818103600083015261496f8184614282565b905092915050565b600060a08201905081810360008301526149918188614210565b90506149a0602083018761481f565b6149ad604083018661481f565b6149ba606083018561481f565b6149c76080830184613f25565b9695505050505050565b600060208201905081810360008301526149ea816142bb565b9050919050565b60006020820190508181036000830152614a0a81614321565b9050919050565b60006020820190508181036000830152614a2a81614361565b9050919050565b60006020820190508181036000830152614a4a816143a1565b9050919050565b60006020820190508181036000830152614a6a816143e1565b9050919050565b60006020820190508181036000830152614a8a81614421565b9050919050565b60006020820190508181036000830152614aaa81614487565b9050919050565b60006020820190508181036000830152614aca81614513565b9050919050565b6000602082019050614ae6600083018461481f565b92915050565b6000604082019050614b01600083018561481f565b614b0e602083018461481f565b9392505050565b6000604051905081810181811067ffffffffffffffff82111715614b3857600080fd5b8060405250919050565b600067ffffffffffffffff821115614b5957600080fd5b601f19601f8301169050602081019050919050565b6000819050602082019050919050565b6000819050602082019050919050565b6000819050602082019050919050565b6000819050602082019050919050565b6000819050602082019050919050565b6000819050602082019050919050565b600081519050919050565b600081519050919050565b600081519050919050565b600081519050919050565b600081519050919050565b600081519050919050565b600081519050919050565b600081519050919050565b6000602082019050919050565b6000602082019050919050565b6000602082019050919050565b6000602082019050919050565b6000602082019050919050565b6000602082019050919050565b600082825260208201905092915050565b600082825260208201905092915050565b600082825260208201905092915050565b600082825260208201905092915050565b600082825260208201905092915050565b600082825260208201905092915050565b600082825260208201905092915050565b600082825260208201905092915050565b6000614d0782614d2c565b9050919050565b6000614d1982614d2c565b9050919050565b60008115159050919050565b600073ffffffffffffffffffffffffffffffffffffffff82169050919050565b6000819050919050565b82818337600083830152505050565b60005b83811015614d83578082015181840152602081019050614d68565b83811115614d92576000848401525b50505050565b6000614da382614daa565b9050919050565b6000614db582614dd7565b9050919050565b6000819050919050565b6000601f19601f8301169050919050565b60008160601b9050919050565b614ded81614cfc565b8114614df857600080fd5b50565b614e0481614d4c565b8114614e0f57600080fd5b5056fea365627a7a72315820a104eb8233a1bbdc3b3d5abb06fdbba87eff3aba136fadc7b38d7778a87a243d6c6578706572696d656e74616cf564736f6c63430005100040",
  "source": "pragma solidity >=0.4.21 <0.6.0;\npragma experimental ABIEncoderV2;\n\ncontract Lixtagram {\n\n    struct Followers {\n        address follower;\n        string name;\n        uint time;\n    }\n\n    struct Followings {\n        address followed;\n        string name;\n        uint time;\n    }\n\n    struct User {\n        string name;\n        string profilePic;\n        address uadd;\n        uint256 tokens;\n        uint256 postsCount;\n        uint256 redeemTokens;\n    }\n\n    struct Comments {\n        address adr;\n        string comment;\n        uint time;\n    }\n\n    struct Likers {\n        address adr;\n        uint time;\n    }\n\n    struct FilterLikers {\n        address adr;\n        string adrName;\n        uint time;\n    }\n\n    struct FilterComments {\n        address adr;\n        string adrName;\n        string comment;\n        uint time;\n    }\n\n    struct Post {\n        uint id;\n        string imgIpfsHash;\n        uint256 likes;\n        address owner;\n        uint timestamp;\n        bool isPublic;\n    }\n\n    struct ViewPost {\n        uint id;\n        string ownerName;\n        string imgIpfsHash;\n        uint256 likes;\n        address owner;\n        uint timestamp;\n        bool isPublic;\n        FilterComments[] comments;\n        FilterLikers[] likers;\n    }\n\n    //User\n    mapping(address => bool) private users;\n    mapping(address => Followers[]) private followers;\n    mapping(address => Followings[]) private followings;\n    mapping(uint => Likers[]) private likers;\n    mapping(uint => Comments[]) private comments;\n    mapping(address => uint[]) private userPostPublicIndex;\n    mapping(address => uint[]) private userPostPrivateIndex;\n    mapping(address => uint[]) private userAllPost;\n    mapping(address => string) private username;\n\n    User[] private peeps;\n    Post[] private posts;\n   \n    //constructor \n    string public name;\n    address public manager;\n    uint256 public userCount;\n    uint public allPostCount;\n\n    //Community chat\n    string public chatHash;\n\n    constructor() public {\n        name = \"Lixtagram\";\n        manager = msg.sender;\n        userCount = 0;\n        allPostCount = 0;\n    }\n\n    function createPost(\n        string memory description,\n        string memory imgIpfsHash\n    ) public payable {\n        allPostCount++;\n        if(posts.length == 0){\n            allPostCount = 0;\n        }\n        uint randomId = uint(keccak256(abi.encodePacked(now, msg.sender, block.difficulty)));\n        Post memory newPost = Post({\n            id: randomId,\n            imgIpfsHash: imgIpfsHash,\n            likes: 0,\n            owner: msg.sender,\n            timestamp: now,\n            isPublic: true\n        });\n        posts.push(newPost);\n        likers[randomId].push(Likers(msg.sender, now));\n        comments[randomId].push(Comments(msg.sender, description ,now));\n        userPostPublicIndex[msg.sender].push(allPostCount);\n        userAllPost[msg.sender].push(allPostCount);\n        for (uint256 i = 0; i < peeps.length; i++) {\n            if (peeps[i].uadd == msg.sender) {\n                peeps[i].postsCount++;\n                break;\n            }\n        }\n    }\n\n    function signUp(string memory _name) public payable {\n        require(!users[msg.sender], \"Already a user\");\n        users[msg.sender] = true;\n        username[msg.sender] = _name;\n        userCount++;\n        User memory newUser = User({\n            name: _name,\n            profilePic: \"\",\n            uadd: msg.sender,\n            tokens: 0,\n            redeemTokens: 0,\n            postsCount: 0\n        });\n        peeps.push(newUser);\n        followers[msg.sender].push(Followers(msg.sender, getUsername(msg.sender) ,now));\n    }\n\n    function isUser(address user) private view returns (bool) {\n        return users[user];\n    }\n\n\n    function isLiker(address user, uint _id) public view returns(bool){\n        bool f;\n        for(uint i = 0; i < likers[_id].length; i++){\n            if(user == likers[_id][i].adr){\n                f = true;\n                break;\n            }\n        }\n        return f;\n    }\n\n    function isFollower(address user, address owner) public view returns(bool){\n        bool f;\n        for(uint i = 0; i < followers[owner].length; i++){\n            if(user == followers[owner][i].follower){\n                f = true;\n                break;\n            }\n        }\n        return f;\n    }\n\n    function followUser(address adr) public payable{\n        address author = followers[adr][0].follower;\n        uint len = followers[adr].length;\n        require(msg.sender !=  author || msg.sender !=  adr, \"you can't folow your own account\");\n        for(uint i = 0; i < len; i++){\n            if(msg.sender == followers[adr][i].follower){\n                require(msg.sender !=  followers[adr][i].follower, \"You already follow the user!\");\n                break;\n            }\n        }\n        followers[adr].push(Followers(msg.sender, getUsername(adr), now));\n        followings[msg.sender].push(Followings(adr, getUsername(msg.sender) ,now));\n        for (uint256 i = 0; i < peeps.length; i++) {\n            if (peeps[i].uadd == author) {\n                peeps[i].tokens += 1;\n                peeps[i].redeemTokens += 1;\n                break;\n            }\n        }\n    }\n\n    function likePost(uint _id) public payable{\n        address author = likers[_id][0].adr;\n        require(msg.sender != author, \"You own this post!\");\n        uint len = likers[_id].length;\n        for(uint i = 0; i < len; i++){\n            if(msg.sender == likers[_id][i].adr){\n                require(msg.sender !=  likers[_id][i].adr, \"You already like this post!\");\n                break;\n            }\n        }\n        likers[_id].push(Likers(msg.sender, now));\n        for (uint256 i = 0; i < peeps.length; i++) {\n            if (peeps[i].uadd == author) {\n                peeps[i].tokens += 1;\n                peeps[i].redeemTokens += 1;\n                break;\n            }\n        }\n    }\n\n    function getUserPublicPost(address adr) public view returns (Post[] memory){\n        uint len = userPostPublicIndex[adr].length;\n        uint index;\n        Post[] memory p = new Post[](len);\n        for(uint i = 0; i < len; i++){\n            index = userPostPublicIndex[adr][i];\n            Post storage post = posts[index];\n            p[i] = post;\n        }\n        return p;\n    }\n\n    function getUserPrivatePost(address adr) public view returns (Post[] memory){\n        uint len = userPostPrivateIndex[adr].length;\n        uint index;\n        Post[] memory p = new Post[](len);\n        for(uint i = 0; i < len; i++){\n            index = userPostPrivateIndex[adr][i];\n            Post storage post = posts[index];\n            p[i] = post;\n        }\n        return p;\n    }\n\n    function addComment(uint _id, string memory comment) public {\n        comments[_id].push(Comments(msg.sender, comment, now));\n    }\n\n    function getComments(uint _id) private view returns (Comments[] memory){\n      uint len  = comments[_id].length;\n      Comments[] memory c = new Comments[](len);\n      for(uint i =0 ; i < len; i++){\n           c[i] = comments[_id][i];           \n      }\n      return c;\n    }\n\n    function getViewPost() public view returns (ViewPost[] memory){\n        uint postLength = posts.length;\n        ViewPost[] memory v = new ViewPost[](postLength);\n        for (uint i = 0; i < postLength; i++) {\n            Post storage post = posts[i];\n            if(posts[i].isPublic == true){\n                v[i].id = post.id;\n                v[i].ownerName = getUsername(post.owner);\n                v[i].imgIpfsHash = post.imgIpfsHash;\n                v[i].likes = post.likes;\n                v[i].owner = post.owner;\n                v[i].timestamp = post.timestamp;\n                v[i].isPublic = post.isPublic;\n                v[i].comments = getViewPostComments(post.id);\n                v[i].likers = getViewPostLikers(post.id);\n            }\n        }\n        return v;\n    }\n\n    function getViewPostComments(uint _id) private view returns (FilterComments[] memory){\n        Comments[] memory c = getComments(_id);\n        FilterComments[] memory nc = new FilterComments[](3);\n        for(uint i; i < c.length; i++){\n            nc[i].adr = c[i].adr;\n            nc[i].adrName = getUsername(c[i].adr); \n            nc[i].comment = c[i].comment; \n            nc[i].time = c[i].time; \n            if(i == 2) break;\n        }\n        return nc;\n     }\n\n     function getViewPostLikers(uint _id) private view returns (FilterLikers[] memory){\n        Likers[] memory l = getLikes(_id);\n        FilterLikers[] memory nl = new FilterLikers[](l.length);\n        for(uint i; i < l.length; i++){\n            nl[i].adr = l[i].adr;\n            nl[i].adrName = getUsername(l[i].adr);\n            nl[i].time = l[i].time;\n        }\n        return nl;\n     }\n     \n\n    function getLikes(uint _id) private view returns (Likers[] memory){\n      uint len  = likers[_id].length;\n      Likers[] memory l = new Likers[](len);\n      for(uint i =0 ; i < len; i++){\n           l[i] = likers[_id][i];           \n      }\n      return l;\n    }\n\n    function getFollowers(address adr) public view returns (Followers[] memory){\n      uint len  = followers[adr].length;\n      Followers[] memory f = new Followers[](len);\n      for(uint i =0 ; i < len; i++){\n           f[i] = followers[adr][i];           \n      }\n      return f;\n    }\n\n    function getUsername(address adr) private view returns (string memory){\n        return username[adr];\n    }\n\n    function getNumberOffollowwers(address adr) public view returns (uint){\n        return followers[adr].length;\n    }\n\n    function getPostsCount() public view returns (uint256) {\n        return posts.length;\n    }\n\n    // function deletePost(uint256 index) public {\n    //     Post storage currPost = posts[index];\n    //     require(currPost.owner == msg.sender, \"You are not the owner of the post!\");\n    //     currPost.isPublic = false;\n    // }\n\n    function deletePost(uint id) public {\n        for(uint i = 0; i < posts.length; i++ ){\n            if(posts[id].id == id){\n                require(posts[i].owner == msg.sender, \"Only the owner can delete this post\" ); \n                delete posts[i];\n                break;\n            }\n        }\n        for (uint256 i = 0; i < peeps.length; i++) {\n            if (peeps[i].uadd == msg.sender) {\n                peeps[i].postsCount--;\n                break;\n            }\n        }\n    }\n    \n    // function getPostDetails(string memory postHash)\n    //     public\n    //     view\n    //     returns (uint, string memory, string memory,string memory, uint, address, uint, string memory, string memory, bool)\n    // {\n    //     for (uint256 i = 0; i < posts.length; i++) {\n    //         if ( keccak256(abi.encodePacked((posts[i].hash))) == keccak256(abi.encodePacked((postHash)))) {\n    //             Post storage post = posts[i];\n    //             return (\n    //                 post.id,\n    //                 post.hash,\n    //                 post.description,\n    //                 post.imgIpfsHash,\n    //                 post.likes,\n    //                 post.owner,\n    //                 post.timestamp,\n    //                 post.likerList,\n    //                 post.comments,\n    //                 post.isPublic\n    //             );\n    //         }\n    //     }\n    // }\n\n     function getFollowedAndFollowersCount(address adr) public view returns (uint, uint) {\n        uint len = followers[adr].length;\n        uint len2 =  followings[adr].length;\n        return(len, len2);\n    }\n\n    function getFollowedAndFollowers(address adr) public view returns (Followers[] memory, Followings[] memory) {\n        Followers[] memory f;\n        Followings[] memory fw;\n        f = followers[adr];\n        fw = followings[adr];\n        return(f, fw);\n    }\n\n    function getUserDetails(address adr)\n        public\n        view\n        returns (string memory, uint256, uint256, uint256, address)\n    {\n        string memory n;\n        uint tokens;\n        uint postsCount;\n        uint redeemTokens;\n        address uadd;\n        for (uint256 i = 0; i < peeps.length; i++) {\n            if (peeps[i].uadd == adr) {\n                User storage user = peeps[i];\n                n = user.name;\n                tokens = user.tokens;\n                postsCount = user.postsCount;\n                redeemTokens = user.redeemTokens;\n                uadd = user.uadd;\n                break;\n            }\n        }\n        return (n, tokens, postsCount, redeemTokens, uadd);\n    }\n \n    function redeemNTokens(uint256 ntokens, uint256 valueWie) public {\n        uint oneIsEqualToWie = 1000000000000000;\n        uint valueInWie = oneIsEqualToWie*ntokens;\n        require(ntokens >= 20 || ntokens != 0 || valueInWie == valueWie, \"input value is not allowed, only equal or greater than 20 is allowed and input must not zero\" ); \n        for (uint256 i = 0; i < peeps.length; i++) {\n            if (peeps[i].uadd == msg.sender) {\n                require(peeps[i].redeemTokens >= 20 || peeps[i].redeemTokens > ntokens, \"Didn't reach redeem requirements or validation failed\" ); \n                address(uint256(msg.sender)).transfer(valueWie);\n                peeps[i].redeemTokens -= ntokens;\n                break;\n            }\n        }\n    }\n\n    function setChatHash(string memory chash) public {\n        chatHash = chash;\n    }\n\n    function getContractBalance() public view returns (uint) {\n        return address(this).balance;\n    }\n    \n}\n",
  "sourcePath": "/home/felix-iripple/Desktop/social/lixtagram/src/contracts/Lixtagram.sol",
  "compiler": {
    "name": "solc",
    "version": "0.5.16+commit.9c3226ce.Emscripten.clang"
  },
  "schemaVersion": "3.4.6",
  "updatedAt": "2022-04-20T10:33:24.393Z",
  "networkType": "ethereum",
  "devdoc": {
    "methods": {}
  },
  "userdoc": {
    "methods": {}
  }
}